:020000040200F8
:1000000080C30022396C0002216A0002436C0002A6
:10001000436C0002436C0002436C0002436C00021C
:10002000000000000000000000000000436C00021F
:10003000436C000200000000436C0002436C0002AD
:100040008B53000261550002C9560002B1570002ED
:10005000B1450002874A0002074B0002E74B00024D
:10006000F96000027B610002CF61000201410002E1
:10007000451F0002471F0002491F00024B1F0002DC
:100080003D500000AAAA3200FFFFFF0008304200E6
:100090000331130003310300003000000430FF007F
:1000A00002301C000630C3000E3045002E30080020
:1000B000343018001F500000004332001836000092
:1000C00012362900093752000C370300203840004F
:1000D000213801003036360031360E003236E2006B
:1000E000333612002136E0000437A00003375A00EF
:1000F00015377800173701000B37600005371A00F5
:10010000053902000639100001390A0031371200A2
:1001100000360800013633002D30600020365200D2
:100120001B3720001C475000133A4300183A0000C8
:10013000193AF800353613003636030034364000DD
:1001400022360100014002000440020005401A006E
:100150000150A30003350700003500000135FF0002
:10016000023500000A3500000B3520000F3A300040
:10017000103A28001B3A30001E3A2600113A60005F
:100180001F3A1400183A0000193A7C0006340000A7
:10019000003407000134700002340400033400000E
:1001A000043405000534C000805401008154080067
:1001B00082541400835428008454510085546500EF
:1001C0008654710087547D008854870089549100BB
:1001D0008A549A008B54AA008C54B8008D54CD00D8
:1001E0008E54DD008F54EA0090541D0080550600A7
:1001F0008355400084551000895510008A55000031
:100200008B55F800005823000158140002580F00C5
:1002100003580F00045812000558260006580C0019
:100220000758080008580500095805000A58080032
:100230000B580D000C5808000D5803000E58000014
:100240000F580000105803001158090012580700F9
:1002500013580300145800001558010016580300E5
:100260001758080018580D00195808001A580500AA
:100270001B5806001C5808001D580E001E58290067
:100280001F5817002058110021581100225815003E
:1002900023582800245846002558260026580800D0
:1002A0002758260028586400295826002A58240078
:1002B0002B5822002C5824002D5824002E580600BC
:1002C0002F58220030584000315842003258240044
:1002D000335826003458240035582200365822005E
:1002E0003758260038584400395824003A58260018
:1002F0003B5828003C5842003D58CE000050A70013
:1003000020384600213800001438310015383100FB
:100310000338040008380400093800000A380200D5
:100320000B3858000C4622003748100024380200D1
:100330000150A3003D50000041470000FFFFFF00B7
:1003400068370922000000000000000000030022BE
:1003500000000000000000000000000080792F680D
:100360000004580200040000020000000000000029
:10037000000000000000000000FF0000000000007E
:100380000000080000000000000000000000000065
:100390000000100800000000000000000000000045
:0203A000010159
:1003B0002DE9F04385B018461546884601240821EA
:1003C000402240230C9E4FF0000C18278DE8D000EF
:1003D000CDF80CC04FF0080906F0F6FD08214022C8
:1003E000402328460094CDF80C90CDE9016706F033
:1003F000EBFD0821402240231020039040468DE869
:10040000D00006F0E1FD05B0BDE8F0832DE9F04F26
:1004100085B01E4690468946DDE90E07002140243E
:10042000CDE902411021202220230125CDE90057EA
:100430004FF0100A4FF0200B06F0C6FD10212022CD
:10044000202330460095CDF80CA0CDE9017406F0CC
:10045000BBFD10212022202348460095CDF80CB08A
:10046000CDE9017406F0B0FD1021202220233020B8
:1004700003904046CDE90057029406F0A5FD05B073
:10048000BDE8F08F2DE9F04784B01E4690468946BE
:10049000DDE90C072021102210234FF0000C8024EE
:1004A0000125CDE900574FF0200A0294CDF80CC089
:1004B00006F08AFD20211022102330460095CDF849
:1004C0000CA0CDE9017406F07FFD402003902021AF
:1004D0001022102348460095CDE9017406F074FD02
:1004E000202110221023602003904046CDE90057C0
:1004F000029406F069FD04B0BDE8F0872DE9F043F1
:1005000085B0184615468846012440210822082354
:100510000C9E4FF0000CC0278DE8D000CDF80CC029
:100520004FF0400906F050FD4021082208232846DC
:100530000094CDF80C90CDE9016706F045FD40210F
:10054000082208238020039040468DE8D00006F062
:100550003BFD05B0BDE8F0832DE9F04784B0994636
:1005600016460846402108220823DDE90C874FF093
:10057000000C4FF480740125CDE900574FF0400A7C
:100580000294CDF80CC006F01FFD4021082208237C
:1005900030460095CDF80CA0CDE9017406F014FDAD
:1005A0008020039040210822082348460095CDE989
:1005B000017406F009FD402108220823C0200390A1
:1005C0004046CDE90057029406F0FEFC04B0BDE8B9
:1005D000F0872DE9F04385B018461546884601247A
:1005E0004021082208230C9E4FF0000CC0278DE804
:1005F000D000CDF80CC04FF0400906F0E5FC4021DA
:100600000822082328460094CDF80C90CDE9016714
:1006100006F0DAFC4021082208238020039040469F
:100620008DE8D00006F0D0FC05B0BDE8F0832DE9E0
:10063000F04184B01D4610460C460127CDE90073F9
:100640008021102210234FF0000CC0260296CDF816
:100650000CC04FF0800806F0B7FC40211022102398
:100660002046CDE90075CDE9026806F0ADFC04B086
:10067000BDE8F0812DE9F04385B01846154688465F
:1006800001242021102210230C9E4FF0000C602723
:100690008DE8D000CDF80CC04FF0200906F094FC96
:1006A00020211022102328460094CDF80C90CDE98B
:1006B000016706F089FC20211022102340200390BE
:1006C00040468DE8D00006F07FFC05B0BDE8F08321
:1006D0002DE9F04184B01D4610460C460127CDE9B6
:1006E00000734021202220234FF0000C6026029648
:1006F000CDF80CC04FF0400806F066FC2021202207
:1007000020232046CDE90075CDE9026806F05CFCA7
:1007100004B0BDE8F0812DE9F04784B018461546D5
:10072000884600213026CDE90261102120222023B5
:100730000C9F0124CDE900474FF0100A4FF020092B
:1007400006F042FC10212022202328460094CDF8F8
:100750000CA0CDE9017606F037FC102120222023E1
:100760004046CDE90047CDE9026906F02DFC04B012
:10077000BDE8F0872DE9F04184B01D4610460C46D7
:100780000127CDE900732021102210234FF0000C27
:1007900060260296CDF80CC04FF0200806F014FC3D
:1007A0004021102210232046CDE90075CDE90268D2
:1007B00006F00AFC04B0BDE8F0812DE9F04385B0F5
:1007C00018461546884601242021102210230C9E2D
:1007D0004FF0000C60278DE8D000CDF80CC04FF032
:1007E000200906F0F1FB2021102210232846009456
:1007F000CDF80C90CDE9016706F0E6FB2021102230
:1008000010234020039040468DE8D00006F0DCFB2A
:1008100005B0BDE8F0832DE9F04184B01D461046D7
:100820000C460127CDE900734021082208234FF030
:10083000000CC0260296CDF80CC04FF0400806F020
:10084000C3FB8021082208232046CDE90075CDE9AD
:10085000026806F0B9FB04B0BDE8F0812DE9F04371
:1008600085B01846154688460124402108220823F1
:100870000C9E4FF0000CC0278DE8D000CDF80CC0C6
:100880004FF0400906F0A0FB40210822082328462B
:100890000094CDF80C90CDE9016706F095FB40215E
:1008A000082208238020039040468DE8D00006F0FF
:1008B0008BFB05B0BDE8F08370B58CB048F6682EB0
:1008C0000DF1200CC0F2002E63469EE8710071C34A
:1008D000084648F634266FF07F0349F6DB344FF4C0
:1008E000A851CDE9003104930423114662464FF02C
:1008F000010EC0F200260025C7F6F074CDE90245CE
:10090000CDE9056E00F04CF80CB070BD2DE9F0415A
:1009100084B01D4610460C460127CDE90073012125
:1009200002224FF4A8634FF0000C04260296CDF883
:100930000CC04FF0020806F063FB012102224FF4C5
:10094000A8632046CDE90075CDE9026806F058FBA2
:1009500004B0BDE8F0812DE9F04184B01D46144695
:1009600008460127CDE90073012104224FF4A86352
:100970004FF0000C06260296CDF80CC04FF004088C
:1009800006F03EFB012102224FF4A8632046CDE988
:100990000075CDE9026806F033FB04B0BDE8F081D4
:1009A0002DE9F04F03AF8DB089460446A7F124002E
:1009B00014219A469046D7F81CB006F02FFC072069
:1009C000002500EB8B0047F838DC20F0070047F8E3
:1009D000285CADEB000647F82C5C47F8305CB54668
:1009E0004FEA8B01304606F019FC4846594606F09E
:1009F00015FC47F8345C82B0A7F13003A7F134004E
:100A000000905046D7E90B1200F07EF802B00028A3
:100A100000F0718047F83C9CA7F1240900BF00BF9B
:100A200082B00023504641464A46009500F0ACF89B
:100A300002B0834657F8343C82B0A7F130000090F2
:100A4000504641464A4600F09FF802B014F90B1098
:100A500056F82020114446F82010504641464A4698
:100A600000F0C2F808B12FF025C857F8340C012166
:100A700001281CDB80EF5100FC69A7F1300120F058
:100A800001E000BF00BF00BFB1EC043F98FC434F42
:100A900020EF54091FF009C051EC110BD7F828B012
:100AA00053EC102B484302FB03F1414302E0D7F81B
:100AB00028B0FC69012CD7E9080957F83C5C1ADB1F
:100AC000BA694FEAE07A01FB02F800BF00BF00BF3D
:100AD00056F8040BA0EB080082B03A6A5346CDF8F2
:100AE000009000F09FF802B05844013C00F307006A
:100AF00005F8010BECD157F838DCA7F10C04A5463A
:100B0000BDE8F08FD4D4D4D42DE9F043DDF81CE057
:100B10004FF0010C4FF00007CEF8007070B3012ABF
:100B20002CDB4FF000084FF0000900BF00BF00BFF2
:100B300051F82960002E48BF0644B6F1FF3F5FEA36
:100B4000DF9786425FEAA78CBCF1010F16D1B8F19E
:100B5000010F1F46444605DB57F8045BB54209D038
:100B6000013CF9D143F82860DEF8004004F10108A7
:100B7000CEF8008009F101099145D9D16046BDE860
:100B8000F083D4D4D4D4D4D42DE9F041012828DB87
:100B9000DDF818C040F001E0BCF1000F5FEA1F97DC
:100BA000012B5FEAAF960025002047EA060800BF48
:100BB000B8F1000F66461F4608D100BF00BF00BF56
:100BC00056F8044BA54207D0013FF9D151F8254012
:100BD00052F8256004FB006001350FF017C8BDE82E
:100BE000F0810020BDE8F08110B56FF0030303EB46
:100BF000800319441A4400BF034601280EDB106825
:100C000051F804E900F1010CBEEB0C0454EA009029
:100C1000E64542F80409A3F10100EDD0002B5FEA9C
:100C2000DF9010BD70B5C117A2FB0046DDF810C003
:100C300002FB0161CCF11E0E0025012252EA0DE5F6
:100C400003FB00111019CCF11F02694150EA2D215C
:100C500070BD49F6907040F20001C0F20020C6F667
:100C600000010068084470474CF2B030C2F2002026
:100C700070472DE9F04FB1B0044649F69C70C0F2C0
:100C8000002040F20001C6F6000149F694720068A7
:100C9000C0F200220844039049F6987040F2000622
:100CA000C0F20020C6F6070648F2000544F200092B
:100CB0000068C6F60905084402901068C6F60B09DC
:100CC00001EB000A4FF21C00C0F200204FF21801A5
:100CD000C0F2002142F200080068C6F60C08304459
:100CE00008904FF2200047F20007C0F20020C6F63D
:100CF0000C074DF2000243F680230068C6F60C0292
:100D00003044079008684BF25431304406904FF25B
:100D10001400C0F20121C0F20020C6F62F030068C3
:100D20003044049008684BF26031C0F2012128443D
:100D3000269008684BF25C3128440B904BF26430EB
:100D4000C0F20121C0F20120006828440A9008681E
:100D500046F67421284409904BF25830C0F2032122
:100D6000C0F20120006828440590086846F68021FA
:100D7000C0F2032148441B90086846F67821484495
:100D80000E9046F67C20C0F20321C0F203200068DA
:100D900048440D9008684FF28C4148440C904FF243
:100DA0008440C0F20321C0F2032000684044129046
:100DB0004FF28840C0F20320006840441190086858
:100DC00043F68C41404410904FF29040C0F2052110
:100DD000C0F20320006840440F90086843F6884141
:100DE000C0F205213844159008684CF6A431384407
:100DF000149043F68440C0F20521C0F2052000683B
:100E00003844139008684CF6A831C0F2052110440C
:100E10002B90086844F2D4411044169044F2DC4010
:100E200049F20002C0F20620C6F60D02C0F2062109
:100E300000681044199044F2D840C0F206200068BF
:100E400010441890086849F61C711044179047F632
:100E5000440049F20002C0F20620C6F60E02C0F2BB
:100E6000062100681044239047F64800C0F206208F
:100E7000006810441A90086849F6187141F200029F
:100E8000C0F20621C6F6100210441E9008684CF607
:100E9000646110441D9049F61470C0F20621C0F23E
:100EA0000620006810441C9008684CF6686141F206
:100EB0000002C0F20621C6F6120210442C90086807
:100EC00043F2143110441F9043F21C3045F20002EB
:100ED000C0F20720C6F61302C0F2072100681044D2
:100EE000229043F21830C0F207200068104421908D
:100EF000086844F66C511044209046F614504FF2A6
:100F00000002C0F20720C6F61302C0F208210068F2
:100F100010442A9046F61850C0F20720006810448A
:100F20002490086844F6685149F20002C0F2082192
:100F3000C6F614021044289008684AF22041104472
:100F4000279044F66450C0F20A21C0F208200068DD
:100F50001044259008684AF21C414FF20002C0F28A
:100F60000A21C6F614021044299008684CF2C411F4
:100F7000104430904BF60830C0F20A21C0F20A202B
:100F800046F280420968C6F62F02006818442E9087
:100F90004BF60430C0F20A20006818442D90501817
:100FA0002F90204600F011FA4EF23C3B4EF23030CA
:100FB000C2F2002BCDF800B0C2F20020DDE9022120
:100FC0005346FFF7F5F94FF210004FF4C032C0F26C
:100FD000002059460068304406F024F9204600F00D
:100FE00047FA46F2483646F23C30C2F202260499ED
:100FF000CDE90016C2F202200899DDE90632FFF7BA
:1010000005FA4BF250304FF48032C0F201203146E5
:101010000068284406F006F9204600F081FA46F2FE
:10102000543546F24830C2F203250599CDE9001542
:10103000C2F203200B99DDE90932FFF723FA46F6E5
:1010400070204FF40042C0F2032029460068484453
:1010500006F0E8F8204600F0CBFA4EF260354EF28A
:101060005430C2F203250095C2F203200E99DDE947
:101070000C32FFF743FA4FF280404FF44052C0F277
:10108000032029460068404406F0CCF8204600F0D2
:101090000FFB41F26C3541F26030C2F204250F992A
:1010A000CDE90015C2F204201299DDE91032FFF7F4
:1010B00053FA43F680404FF48042C0F2052029469F
:1010C0000068384406F0AEF8204600F047FB45F2D1
:1010D000783545F26C30C2F204250095C2F2042046
:1010E0001599DDE91332FFF774FA4CF6A0304DF292
:1010F0000001C0F20520C6F60C014FF44052006812
:101100000844294606F08EF8204600F07AFB48F2A3
:10111000843548F27830C2F20425C2F204201B99CB
:10112000169A2B46FFF783FA44F2D04049F20001A9
:10113000C0F20620C6F60D014FF440420068084494
:10114000294606F06FF8204600F0B0FB44F29035D7
:1011500044F28430C2F205250095C2F205201999A7
:10116000DDE91732FFF786FA47F6400049F2000141
:10117000C0F20620C6F60E014FF4C04200680844D3
:10118000294606F04FF8204600F0E5FB4AF29C3570
:101190004AF29030C2F20525C2F2052026991A9A29
:1011A0002B46FFF795FA49F6107041F20001C0F2A4
:1011B0000620C6F610014FF4C032006808442946E4
:1011C00006F030F8204600F01BFC42F2A83542F24F
:1011D0009C30C2F207250095C2F207201E99DDE976
:1011E0001C32FFF798FA4CF6606041F20001C0F241
:1011F0000620C6F612014FF4404200680844294612
:1012000006F010F8204600F050FC4EF2B4354EF2D5
:10121000A830C2F20725C2F2072023991F9A2B4655
:10122000FFF7A8FA43F2103045F20001C0F20720A0
:10123000C6F613014FF4C04200680844294605F081
:10124000F1FF204600F081FC44F2C03544F2B43096
:10125000C2F208250095C2F208202299DDE9203269
:10126000FFF7ABFA46F610504FF20001C0F207202C
:10127000C6F613014FF4C04200680844294605F041
:10128000D1FF204600F0B6FC4AF2CC354AF2C0301D
:10129000C2F20825C2F208202B99249A2B46FFF7A8
:1012A000BAFA44F6605049F20001C0F20820C6F6CE
:1012B00014014FF4405200680844294605F0B2FF7B
:1012C000204600F0ECFC4DF2D8354DF2CC30C2F2A5
:1012D00008250095C2F20820DDE92721259BFFF7AC
:1012E000BDFA4AF210404FF20006C0F20A20C6F6DC
:1012F00014064FF400422C990068304405F092FF28
:101300004AF214404FF48042C0F20A202A99006841
:10131000304405F087FF4AF218404FF44052C0F2C3
:101320000A2029460068304405F07CFF204600F082
:101330000FFD40F2E43540F2D830C2F20925C2F286
:10134000092029992A46FFF7B7FA4BF6003043F6F1
:101350008021C0F20A20C6F62F014FF4A85200687F
:101360000844294605F05EFF204600F059FD41F68D
:10137000F00541F6E400C2F20925C2F20920DDE9D8
:101380002D212B46FFF7C2FA4CF2C01046F28041E5
:10139000C0F20A20C6F62F014FF4A8520068084494
:1013A000294605F03FFF204600F088FD42F6F05048
:1013B0004CF2B033C2F20920C2F20023DDE92F1251
:1013C00031B0BDE8F04FFFF7C6BAB0B598B048F6F7
:1013D000FC6240F20005C0F2002248F600710024D1
:1013E000C6F600050028C0F200210B940A9111688E
:1013F0000391CDE90C544FF4E0214FF440300690B6
:10140000CDE90E54CDE90411CDE9105407D040F2D6
:1014100000004FF4C031C6F6000005F0FFFE05F5F0
:101420000040CDE9140405F580304FF40041CDE9CA
:10143000160448F67820C0F200200991CDE9071182
:1014400048F68021026803A8009043F26870C2F257
:101450000920C0F200210AABCDE912540725CDE9DD
:10146000015402F0CAFD01305FEA1FA018B0B0BD00
:10147000B0B59CB04AF2BC4240F20005C0F2002276
:101480004AF2C0410024C6F607050028C0F2002138
:101490000D940C9111680491CDE90E544FF4203154
:1014A0004FF4C0300790CDE91054CDE90511CDE9D6
:1014B000125407D040F200004FF48031C6F6070006
:1014C00005F0ACFE05F58041CDE9161449F6A07192
:1014D00005F50040C0F20021CDE9180405F54040B3
:1014E0001A900A6804A8009043F2687049F6B07137
:1014F000C2F20920C0F200210CAB84EF5002CDE90A
:10150000145408251B948DED081FCDE9015402F0F9
:1015100074FD01305FEA1FA01CB0B0BDD4D4D4D498
:1015200070B59EB04FF220610024C0F20021CDE9D9
:101530000C144FF21C6148F20005C0F20021C6F6FF
:10154000090505F50046002809680391CDE90E5408
:101550004FF4E0314FF480300690CDE91054CDE9DE
:101560000411CDE9126407D048F200004FF4803135
:10157000C6F6090005F052FE05F52041CDE9181424
:101580004FF2240116A0C0F200210CAB90ED001F19
:1015900005F54040CDE91A0405F560400A68CDE93B
:1015A0001C044FF400500B9003A8009043F26870A5
:1015B0004FF23001C2F20920C0F200218DED071F69
:1015C000CDE91454CDE916640826CDE9016402F092
:1015D00014FD01305FEA1FA01EB070BD00BF00BF48
:1015E000008000000020000000200000002000001B
:1015F00070B59CB04BF650010024C0F20121CDE93A
:101600000C144BF6400144F20005C0F20121C6F66D
:101610000B0505F58046002809680491CDE90E54B4
:101620004FF460414FF400400790CDE91054CDE9EC
:101630000511CDE9126407D044F200004FF4E041F7
:10164000C6F60B0005F0EAFD4BF2683114A0C0F2BB
:1016500001210CAB90ED001F05F5A040CDE9180469
:1016600005F5C0401A900A6804A8009043F268701B
:101670004BF27031C2F20920C0F201218DED081F3A
:101680001B94CDE91454CDE916640826CDE9016414
:1016900002F0B3FC01305FEA1FA01CB070BD00BFB8
:1016A00000400000001000000010000000100000CA
:1016B000B0B59CB046F6D04242F20005C0F203221B
:1016C00046F6E0410024C6F60C050028C0F20321CE
:1016D0000D940C9111680491CDE90E544FF4A04182
:1016E0004FF440500790CDE91054CDE90511CDE9F4
:1016F000125407D042F200004FF48041C6F60C00AD
:1017000005F08CFD05F58051CDE9161446F68421CF
:1017100005F50050C0F20321CDE9180405F540504D
:101720001A900A6804A8009043F2687046F6902167
:10173000C2F20920C0F203210CAB81EF5002CDE9C7
:10174000145408251B948DED081FCDE9015402F0B7
:1017500054FC01305FEA1FA01CB0B0BDB0B598B01A
:101760004FF6881247F20005C0F203224FF690119F
:101770000024C6F60C050028C0F203210B940A9140
:1017800011680391CDE90C544FF4C0414FF48040EF
:101790000690CDE90E54CDE90411CDE9105407D0DF
:1017A00047F200004FF44051C6F60C0005F036FD3C
:1017B00005F58050CDE9140405F500504FF4805133
:1017C000CDE916044FF29440C0F203200991CDE90F
:1017D00007114FF2A041026803A8009043F268701D
:1017E000C2F20920C0F203210AABCDE91254072549
:1017F000CDE9015402F001FC01305FEA1FA018B0EE
:10180000B0BDB0B596B043F6C0710025C0F2052159
:10181000CDE90A1543F6B4714DF20004C0F205217A
:10182000C6F60C040028CDE90C45096804914FF474
:101830004041CDE90E454FF440500790CDE90511E8
:1018400004F50051CDE910150AD04FF4005120469F
:1018500005F0E4FC04F580404FF4004105F0DEFCA7
:1018600043F690414FF40050C0F20521089004F572
:101870008040CDE914054FF4004009900A6804A89F
:10188000009043F2687043F6A041C2F20920C0F212
:1018900005210AABCDE912450624CDE9014502F048
:1018A000ACFB01305FEA1FA016B0B0BD70B598B0B8
:1018B0004CF630710026C0F20521CDE90A164CF62F
:1018C000247149F20004C0F20521C6F60D0404F5A6
:1018D0008045002809680391CDE90C464FF480311A
:1018E0004FF440400690CDE90E46CDE90411CDE914
:1018F000105609D04FF40051204605F08FFC4FF4EC
:101900008041284605F08AFC04F5C040CDE9140664
:101910004CF6AC304FF40051C0F20520CDE9071170
:1019200009914CF6B031026803A8009043F2687048
:10193000C2F20920C0F205210AABCDE912560725F3
:10194000CDE91646CDE9015602F057FB01305FEABA
:101950001FA018B070BDB0B596B044F2D07100258C
:10196000C0F20621CDE90A1544F2C47149F200041F
:10197000C0F20621C6F60E040028CDE90C45096820
:1019800004914FF4C031CDE90E454FF4C0400790AB
:10199000CDE9051104F58041CDE910150AD04FF4C9
:1019A0008041204605F03AFC04F500404FF48031B8
:1019B00005F034FC44F2E0414FF48040C0F20621CF
:1019C000089004F50040CDE914054FF480300990EB
:1019D0000A6804A8009043F2687044F2F041C2F231
:1019E0000920C0F206210AABCDE912450624CDE953
:1019F000014502F002FB01305FEA1FA016B0B0BD46
:101A000070B598B047F6A0310026C0F20621CDE9A6
:101A10000A1647F6903141F20004C0F20621C6F6DC
:101A2000100404F50045002809680391CDE90C462F
:101A30004FF400314FF4C0300690CDE90E46CDE9A9
:101A40000411CDE9105609D04FF48041204605F02D
:101A5000E5FB4FF40041284605F0E0FB04F540406B
:101A6000CDE9140647F64C004FF48041C0F2062041
:101A7000CDE90711099147F65001026803A80090CB
:101A800043F26870C2F20920C0F206210AABCDE928
:101A900012560725CDE91646CDE9015602F0ADFAFA
:101AA00001305FEA1FA018B070BD70B596B04AF261
:101AB00000110024C0F20621CDE90A144AF2FC010B
:101AC00041F20005C0F20621C6F6120505F50046F2
:101AD000002809680491CDE90C544FF4A0314FF46B
:101AE00040400790CDE90E54CDE90511CDE91064D1
:101AF00007D041F200004FF42041C6F6120005F075
:101B00008DFB49F620714FF40040C0F20621089089
:101B10004FF4005009900A6804A8009043F26870DE
:101B200049F63071C2F20920C0F206210AABCDE9B4
:101B30001254CDE914640626CDE9016402F05DFA81
:101B400001305FEA1FA016B070BD70B598B04DF2BD
:101B5000F0110026C0F20621CDE90A164DF2E4117B
:101B600045F20004C0F20621C6F6130404F58045D0
:101B7000002809680391CDE90C464FF420414FF449
:101B8000C0400690CDE90E46CDE90411CDE91056CE
:101B900009D04FF40051204605F040FB4FF480413E
:101BA000284605F03BFB04F5C040CDE914064CF691
:101BB0006C604FF40051C0F20620CDE90711099185
:101BC0004CF67061026803A8009043F26870C2F29C
:101BD0000920C0F206210AABCDE912560725CDE94E
:101BE0001646CDE9015602F008FA01305FEA1FA05F
:101BF00018B070BDB0B596B043F280510025C0F268
:101C00000721CDE90A1543F270514FF20004C0F2EA
:101C10000721C6F613040028CDE90C450968049194
:101C20004FF42041CDE90E454FF4C0400790CDE977
:101C3000051104F58041CDE910150AD04FF480411B
:101C4000204605F0EBFA04F500404FF4805105F012
:101C5000E5FA43F220314FF48040C0F207210890AA
:101C600004F50040CDE914054FF4805009900A684E
:101C700004A8009043F2687043F23031C2F20920A8
:101C8000C0F207210AABCDE912450624CDE9014592
:101C900002F0B3F901305FEA1FA016B0B0BDB0B5D5
:101CA00098B047F2E0110025C0F20721CDE90A15EE
:101CB00047F2D41149F20004C0F20721C6F6140419
:101CC0000028CDE90C45096803914FF4C041CDE9E6
:101CD0000E454FF440500690CDE9041104F54051F3
:101CE000CDE910150AD004F5A0404FF4805105F05D
:101CF00095FA4FF40051204605F090FA04F5A04003
:101D0000CDE9140504F580504FF48051CDE9160556
:101D100046F61C50C0F207200991CDE9071146F69E
:101D20002051026803A8009043F26870C2F20920B3
:101D3000C0F207210AABCDE912450724CDE90145E0
:101D400002F05BF901305FEA1FA018B0B0BDD4D437
:101D500070B59CB02EA146F2C462C0F208224FF2C8
:101D6000000491ED001F46F2D061C6F6140445F65A
:101D70008026C0F2082100250C911168049104F519
:101D80009541CDE9121504F5286114914CF6802196
:101D9000C0F201068DED051F21440D951595CDE985
:101DA0000E45CDE91045CDE916154FF44051099186
:101DB00048B14FF42861204605F030FAA0194FF4DD
:101DC000A84105F02BFA44F670514FF42860C0F298
:101DD00008210A90A019CDE91A054FF4A8400B90EC
:101DE0000A6804A8009043F2687044F68051C2F279
:101DF0000920C0F208210CABCDE918450826CDE931
:101E0000016502F0FAF801305FEA1FA01CB070BD56
:101E1000804A1A00804A1A0000800000004000003A
:101E2000B0B596B04AF2F05243F68025C0F20A22CD
:101E30004AF200610024C6F62F050028C0F20A21EC
:101E40000B940A9111680491CDE90C544FF4285178
:101E50004FF4A8500790CDE90E54CDE90511CDE916
:101E6000105405D005F5A8504FF4A85105F0D6F947
:101E700005F5FC51CDE914144AF2244105F5A850AA
:101E8000C0F20A21CDE912044FF4286008900990AD
:101E90000A6804A8009043F268704AF23041C2F226
:101EA0000920C0F20A210AAB0625CDE9015402F04F
:101EB000A4F801305FEA1FA016B0B0BD70B592B0B3
:101EC0004BF680410024C0F20A21CDE908144BF6FC
:101ED000744146F28045C0F20A21C6F62F054FF440
:101EE000A85609680391CDE90A540F940E95CDE9DF
:101EF0000C540696CDE9046638B146F280404FF4A2
:101F0000A851C6F62F0005F089F94BF60C304BF6B8
:101F10001031C0F20A20C0F20A2108ABCDE91054FA
:101F2000026803A8009043F26870C2F20920079685
:101F30000526CDE9016402F060F801305FEA1FA0D8
:101F400012B070BD7047704770477047D4D4D4D476
:101F500010B542F6FC54A821C2F20924204605F02F
:101F60005DF90320206160614CF2956042F6A46146
:101F7000C0F20A20A061C2F20921E1614FF40061C0
:101F800021620021A1626162E16243F2A4622066E3
:101F90004FF0100E4CF2C810C2F209226266C4F86B
:101FA00068E02167E1666167BFF35F8FC0F20A20D6
:101FB0000F3000BF00BF00BF10F8011904F8011B6B
:101FC0000FF007C0BFF35F8F10BDD4D4D4D4D4D4E6
:101FD0002DE9F04381B014460D468046C7684FF0A6
:101FE000000900BF00BF00BFD8F81000FA43B84294
:101FF00006D91044D8F8081006E000BF00BF00BFA3
:10200000D8F8081010440844C91B884250EA3180AF
:102010002946A04250EA3486D8F8040038443246B3
:1020200005F000F9F019D8F80810411AA4EB0604DD
:1020300050EA1187B1443544BFF35F8FC8F80C7084
:102040000CB12FF02FC8484601B0BDE8F0832DE950
:10205000F04381B000EB400042F6FC53C2F209238A
:10206000144603EBC003894603F11805D86A022819
:1020700012D0012808D000283ED1EE682869F1432B
:10208000B04234D9084435E0EE682969B1420BD931
:10209000F0430144A8680BE028464946224601B0B7
:1020A000BDE8F043FFF794BFF243A8681144014430
:1020B000A14251EA3484871B68683044BC4207D28D
:1020C0004946224605F0AEF8BFF35F8F26440CE088
:1020D00049463A4605F0A6F8E61B686809EB070191
:1020E000324605F09FF8BFF35F8FEE6025E0AA68E7
:1020F00008441044A04201D200241EE0D5E90101A9
:102100008F1B3044BC4208D24946224605F08AF86B
:10211000BFF35F8F06EB04080DE049463A4605F031
:1021200081F8A4EB0708686809EB0701424605F04F
:1021300079F8BFF35F8FC5F80C80204601B0BDE889
:10214000F083F0B581B042F6FC531446C2F2092385
:102150000D4606461B78532B01D0FFF7F9FEEFF32F
:1021600011874FF0200181F311883046294622461D
:10217000FFF76DFF87F3118801B0F0BDD4D4D4D43C
:102180002DE9F04F9BB091460F46002406A9169109
:1021900040211791002105901A90CDE9181100BF38
:1021A00017F8011B252907D0002900F06F8116A818
:1021B00000F07BF9E5E000BF4FF0000800BF00BF72
:1021C00039782C2908DC23290ED02B2918D104209A
:1021D0000FE000BF00BF00BF2D2909D030290FD16B
:1021E000022006E000BF00BF082002E000BF00BFE1
:1021F000012048EA00080137E2E700BF00BF00BF46
:10220000A1F13A0010F10A0F02D2002012E000BF43
:1022100000200A4600BF00BF17F8011F00EB800036
:10222000A1F13A0302EB400013F10B0FA0F13000D3
:102230000A46F1D82E290FD13A4612F8011F2A2951
:102240000DD1D9F8001002370A1DC9F800200E6818
:1022500001211DE000BF00BF0021002618E0A1F110
:102260003A0313F10A0F02D2002100260FE00026E4
:1022700012F8013F06EB8607A3F13A0601EB47018E
:1022800016F10B0FA1F130061946F1D801211746BE
:1022900017F8012B02F0FB03682BF9D0632A0FDC3F
:1022A000252A2ED0582A24D0632A6AD1D9F80000D2
:1022B000011DC9F80010017879E700BF00BF00BF19
:1022C000A2F17003082B1ED8DFE803F0055B5B6109
:1022D0005B4E5B5B1300D9F800001022011DC9F8AA
:1022E00000100168082300200826CDE9006016A828
:1022F00045E0D9F800100A1DC9F80020096810222D
:1023000039E0252153E7642A3BD1D9F800104CF677
:10231000CD4C0A1DC9F80020D1F800E0CCF6CC4C19
:10232000CEF100017246BEF1000F48BF0A460A2AEC
:1023300003914FF0010107DBA2FB0C35632A01F189
:1023400001014FEAD502F7D88E4256EA818B002868
:1023500040D0BEF1000F5FEA5F9108F0040241EA4D
:102360009201A0EB010A37E0D9F800100A1DC9F864
:10237000002009680A22CDE9000816A8334600F0BB
:10238000B7F8199CB4F1FF3F3FF70AAF89E0D9F8DD
:102390000000021DC9F8002000684CF2D532002868
:1023A000C0F20A2250EA12855FEA018800BF00BF2E
:1023B0002978002E5FEA18800029E2D00028E0D1B9
:1023C00016A8013500F071F8199C013EB4F1FF3FE9
:1023D000EEDC66E04FF0000A5FEA88750CD55EB966
:1023E000002CCED4BEF1000F29D45FEA4870CDF89E
:1023F00010E02DD52B2125E05FEAC870F0D1BAF1AD
:10240000000FEDD0D345EBD20295CDF810E0AAF144
:10241000010500BF00BF00BF202116A800F045F84D
:10242000199C002C3DD4681EA84202D2AB4505463B
:10243000F2D300F1010ADDF810E0029DD0E72D2172
:102440000398049016A800F030F8199C002C28D4AA
:10245000002D05D40A22CDE900A816A804998DE71D
:1024600008F001003043F5D1BAF1000FF2D0AAF123
:102470000105554538BFD345ECD2302116A800F0F0
:1024800014F8199CAA46002CF1D50AE044B1189D15
:1024900025B106A905982A46FFF753FE2C4400E013
:1024A000002420461BB0BDE8F08F10B50446D0E9EB
:1024B0000120431C934207D822681154A360E068AE
:1024C00062680130E0601846904218BF10BD216874
:1024D0002069FFF736FEA168884202D10020A06083
:1024E00010BD4FF0FF30E06010BDD4D4D4D4D4D4AC
:1024F0002DE9F04F81B015460E4691421F468146A8
:10250000DDF828B04FF0010007D3314600BF00BF0F
:10251000B1FBF5F10130A942FAD2874257EA808A2D
:10252000BBF1000F0B991BD011F0010018D18807E7
:102530004FF0200048BF30202021002F50EA0188B2
:10254000BBF1000F0CD0DA450AD248464146ABF148
:10255000010BFFF7AAFFD9F80C00B0F1FF3FEFDC49
:10256000D9F80C0000283CD4012400BF00BF00BFF4
:10257000022F01D3013F03E0B6FBF4F0A84201D3E0
:102580006C43F5E748F63828C0F2002800BF00BFCA
:10259000B6FBF4F7484618F80710FFF786FFD9F89E
:1025A0000C00002806D4B4FBF5F007FB1466A54226
:1025B0000446EDD90B98C00718BFBBF1000F0AD134
:1025C0000FE020214846FFF770FFD9F80C00A34622
:1025D000B0F1FF3F05DDABF101045C4538BFDA45E2
:1025E000EFD301B0BDE8F08F82B080B582B0CDE905
:1025F000042304AA019201AAFFF7C2FD02B0BDE8BC
:10260000804002B07047D4D42DE9F04782B04CF23C
:10261000DC384CF2BC69871C4AF6AA244FF6FF75D9
:10262000C0F20A280DF1070AC0F20A2900218DF82C
:10263000071000BF00BF00BF37F8020CA0420FD048
:10264000A84214D0397800F0F5FA90B937F8020CA6
:10265000514600F0A4FA70B907E000BF00BF00BF08
:1026600038784FF47A7104F098F90437E4E70026DB
:102670000FE0064601E00646C8464CF29E614CF269
:10268000AA32C0F20A21C0F20A2200204346FFF714
:10269000ABFF304602B0BDE8F087D4D4F0B581B0CE
:1026A0002DED048B0A204FF47A7104F076F943F68D
:1026B00008003C21C2F20920012202F03FFC28B1AF
:1026C0004CF631130446C0F20A23B6E043F6C805BF
:1026D000EFF31080C2F20925012181F3108840F642
:1026E00014542968C4F2400419B900212170402112
:1026F000217029684FF6D04601312960CFF6FF7668
:1027000080F3108843F6FA770121CFF6FE77A059BF
:1027100038400430A051EFF3108081F3108829680D
:1027200011B1296801392960296819B9002121707E
:102730008021217080F3108814204FF47A7104F006
:102740002CF90121EFF3108081F31088296819B961
:10275000002121704021217029680131296080F316
:1027600010880121A059384040F00500A051EFF336
:10277000108081F31088296811B129680139296016
:10278000296819B9002121708021217080F31088F7
:1027900014204FF47A7104F000F940F24C00C2F2B8
:1027A0000020FFF731FF28B14CF266430446C0F227
:1027B0000A2342E032204FF47A7104F0EEF843F23B
:1027C0003500122100F036FA28B14CF233330446BA
:1027D000C0F20A2322E043F236007B2100F02AFAFD
:1027E00028B14CF28F230446C0F20A2316E043F2CC
:1027F0003700082100F01EFA28B14CF2927304460B
:10280000C0F20A230AE043F20810122100F012FA83
:1028100018B34CF2F0630446C0F20A234CF29E61F6
:102820004CF2DF72C0F20A21C0F20A220020FFF748
:10283000DBFE4CF22523C0F20A234CF29E614CF2DF
:102840001632C0F20A21C0F20A220020FFF7CCFEA5
:102850002046BDEC048B01B0F0BD43F2B4604DF6F0
:102860000001C2F20920C0F2B8519FED270AB6EE6E
:10287000008A0160B1EEC09A9FED240AB0EE481ABA
:1028800009EE001A43F60C00BCEEC10A10EE105A15
:10289000290A00F0CFF9B8B9E9B243F60D0000F00B
:1028A000C9F988B939EE080A43F60E00BCEEC00A31
:1028B00010EE105A290A00F0BDF928B9E9B243F622
:1028C0000F0000F0B7F9A0B14CF29E614CF29F529C
:1028D0004CF2F7730446C0F20A21C0F20A22C0F299
:1028E0000A230020FFF780FE4CF27273C0F20A2325
:1028F000A3E700F00DF828B14CF26E530446C0F285
:102900000A239AE70024A3E7007C9249ABAAAA3FD6
:1029100010B582B00DF1070144F6140000F03FF944
:1029200028B14CF663130446C0F20A230FE09DF869
:10293000070000F03F0144F614008DF8071000F086
:1029400079F990B14CF2F7730446C0F20A234CF2C5
:102950009E614CF61002C0F20A21C0F20A22002049
:10296000FFF742FE204602B010BD0024FAE710B582
:1029700043F20800022100F05DF928B14CF209632E
:102980000446C0F20A230AE044F20220002100F0CB
:1029900051F988B14CF656030446C0F20A234CF2B2
:1029A0009E614CF2CE72C0F20A21C0F20A220020CF
:1029B000FFF71AFE204610BD0024FBE710B544F2D5
:1029C00002200F2100F036F9044670B14CF29E61EE
:1029D0004CF2BD324CF2A543C0F20A21C0F20A22E9
:1029E000C0F20A230020FFF7FFFD204610BDD4D41B
:1029F00070B5A2B043F2B070C2F209200078A0B165
:102A000043F2B070C2F2092003F07BF968B14CF2D6
:102A10009E614CF250324CF2AF730446C0F20A2170
:102A2000C0F20A22C0F20A2352E04DF254016C4671
:102A3000C0F20A218822204604F0F4FB43F2C2656A
:102A400043F2C466C2F20925C2F2092628883188F9
:102A5000ADF8040043F2B070ADF80610C2F20920E0
:102A6000214602F072FF28B14CF20D730446C0F209
:102A70000A2325E0288840F21C31C2F200210323FA
:102A80003288888003EB40004FF6FC73CA80184000
:102A90008860504343F2BC62C2F2092247F68013B9
:102AA000C6F62F030B60106043F2B070C2F209202B
:102AB00003F097F990B14CF2AE530446C0F20A23EA
:102AC0004CF29E614CF25032C0F20A21C0F20A224E
:102AD0000020FFF789FD204622B070BD43F2B860A8
:102AE0000021C2F209200170017809B92FF005C058
:102AF0000024F0E70078032818BF704743F2B8605D
:102B00000121C2F209200170704700F0CDB80228FF
:102B100018BF704780B543F2F0704DF2F861C2F211
:102B20000920C0F20A2102F09EF80120BDE8804091
:102B300004F01EB810B543F608004DF28021C2F231
:102B40000920C0F20A2102F06FF9044670B14CF27C
:102B50009E614CF688024CF25B33C0F20A21C0F24F
:102B60000A22C0F20A230020FFF73EFD204610BDD6
:102B7000B0B543F2C065C2F209252978884208BF82
:102B8000B0BD044600BF00BF2878012803D00A204A
:102B9000012103F002FF28788442F5D1B0BDF0B5E1
:102BA00081B043F2C06640BAADF80200C2F2092615
:102BB00043F608000D46C2F209200DF1020102227F
:102BC00001230027377002F0B3F968B14CF29E611F
:102BD0004CF2E8124CF24E230446C0F20A21C0F235
:102BE0000A22C0F20A231AE00320FFF7C1FF43F6CE
:102BF00008000122C2F2092000232946377002F0A2
:102C000091F990B14CF29E614CF2E8124CF69903A6
:102C10000446C0F20A21C0F20A22C0F20A230020B0
:102C2000FFF7E2FC204601B0F0BD0220FFF7A0FF55
:102C30000024F7E710B582B0020A8DF8060043F2CF
:102C4000C0608DF80520C2F209208DF80710002120
:102C50000322017043F60800C2F209200DF10501BC
:102C6000002302F065F9044678B14CF29E614CF6FF
:102C7000FE024CF24E23C0F20A21C0F20A22C0F238
:102C80000A230020FFF7B0FC02E00320FFF770FFEB
:102C9000204602B010BD28B143F2C0610079C2F2F3
:102CA000092108707047D4D4ADF5CB6D0020CDF864
:102CB0004C060DF24C6003F064FE9DF84F364CF666
:102CC0007B114CF28B229DF84D769DF84E66C0F23A
:102CD0000A21C0F20A220020CDE90067FFF784FC38
:102CE0004CF69E310020C0F20A21FFF77DFCFFF771
:102CF00021FF4CF2D841C0F20A2100F068FC0A2002
:102D00004FF47A7103F049FEFFF7C8FC4CF2F3412F
:102D1000C0F20A2100F05BFC4CF6747043F2C2650D
:102D2000C0F20A2043F2C464C2F20925C2F20924A7
:102D300001894089298020800A204FF47A7103F0AC
:102D40002CFEFFF755FE4CF28A41C0F20A2100F03A
:102D50003EFC0A204FF47A7103F01FFE4FF68010FC
:102D60004FF49611C6F6540004F058FA4BF6801052
:102D70004FF49611C6F6670004F050FA47F680103B
:102D80004FF49611C6F67A0004F048FA2E88032014
:102D9000002E4BD02788002F48D043F2E4644DF238
:102DA000AC15C2F20924C0F20A2584222046294625
:102DB00004F038FA286DB5F84820C0F30B4C6FF3D7
:102DC0001F30B5F84A30504369890CFB03F2EB8998
:102DD000B0FBF7F0A4F848000133B2FBF6F0013184
:102DE000A4F84A00206D47EA06457340626800F087
:102DF000F02025F0F02579402844206541EA0300C1
:102E000022F08061000418BF01F1806143F2C86CB8
:102E100061604DF23021C2F2092CC0F20A216246F3
:102E200091E8E900E9C20020CCF814404CF2CD5101
:102E3000C0F20A2100F0CBFB0A204FF47A7103F0B4
:102E4000ACFDFFF7BBFD002800F072834CF2F323CA
:102E50000446C0F20A234CF29E614CF22232C0F2C8
:102E60000A21C0F20A220020FFF7BEFB4CF6300117
:102E70002046C0F20A2100F0AAFB0A204FF47A7122
:102E800003F08BFD40F24000C2F20020FFF7BCFBD4
:102E90004CF24D71C0F20A2100F099FB4CF2E7515F
:102EA0000020C0F20A214FF00009FFF79DFB0A2025
:102EB0004FF47A7103F071FD40F204304DF23401A9
:102EC000C2F20020C0F20A2101F0AEF84CF210511B
:102ED000C0F20A2100F07BFB0A204FF47A7103F064
:102EE0005CFD43F2B86543F2E067C2F20925C2F225
:102EF0000927B6EE008A9FEDB59A9FEDB5AA9FED22
:102F0000B5BA9FEDB5CA4FF0020A012200BF00BF5B
:102F100047F680104FF49611C6F62F0002FB01040D
:102F2000029204F5D4700490A4F50060039000BFF1
:102F300085F8009000BF00BF287808B92FF005C0C1
:102F40003968002900F0D0824FF49612204644F2EE
:102F5000051842F2091504F065F9FDF77AFE3968A3
:102F60000891821C002100BF4FF4965009914843FC
:102F70004FF60001C0F21F01002708404FF4807196
:102F800041F001E0AC4608994FF0800B0B18104659
:102F90000A9200BF00BF00BFC7F3092507F51677E7
:102FA00003EB450595F8A81195F8A951CA0845EA1B
:102FB00001261202C6F34516A2EBD10105F01F024D
:102FC00001FB0CF1C6EB0625C2EB022205FB08F55E
:102FD00002FB0CF28BEA914100F8021C8BEA1551BE
:102FE00000F8011C8BEA924100F8031B0FF02DC082
:102FF00009990A9A013144F2051842F20915B1F50E
:10300000807F02F54072AFD10020FDF732FEFDF760
:103010002BFE13AD40222946B0EE480A00F030FBEB
:1030200001462846B0EE490A00F0EEFB0128059063
:10303000C0F25282002100BF01EB4100069113A9AA
:1030400001EBC00340F22B3193ED000A93ED021A1D
:1030500020EE0A0A93ED012A21EE0A1A93ED033AB3
:1030600022EE0A2A93F814C020EE0B0A21EE0B1A66
:1030700023EE0A3ABDEEC00ABDEEC11A22EE0B2ABB
:1030800010EE10BA23EE0B0A11EE100A0BF1D40267
:10309000BDEEC22A0992884250EAB1874CF6887088
:1030A000BDEEC00AC0F20A2022EAE27112EE108AD6
:1030B00040F2572230F81C6010EE100A07F1D405D8
:1030C00093ED040A904250EAB280A94228EAE873DC
:1030D00020DC099A4FEAC32EAA4252EAC582C502F1
:1030E0000A9705EB4105674622EAE272DC46521A6E
:1030F0000EEB410B0132254442F001E004EB0B02E0
:10310000E346BC460A9F00BF22F8026B25F8026B1B
:103110000FF007C0834217DC804558EAC080DA020E
:1031200002EB410120EAE0702144C01A02EB4703A0
:1031300000F1010E049818440E80068000F500602E
:1031400001F500610FF009C0B0EE481A4DF22C01F4
:10315000A0EE0C1AC0F20A210BAD4CF2CF3251F89E
:103160002C302021C0F20A22BCEEC10A10EE100A57
:103170000090284604F072F90220B8F1110FC8BF80
:103180006FF0110040440A90284604F05BF8BBF54C
:103190004B7FDCBF0A99B1F5167F40F359819DF84A
:1031A0002C00002800F04C810BAA00BF00BF00BF1C
:1031B0000892A0F130024CF69071492AC0F20A211F
:1031C00000F25B800FF21400D0E812F06666E63E73
:1031D000000016440000803B0000C8425200A500D9
:1031E0009B00AA00AF00C300A0008C00B400CD007B
:1031F000D200F200F200F200F200F200F200F2005F
:10320000B900D7009100F200F200F200F200F200E3
:10321000F200F200F200F200F200F2009600F2007A
:10322000F200F200F200F200F200F200F200F2000E
:10323000F200F200F200F200F200F200F20073007D
:10324000F20078007D00E600F200F200F200820059
:10325000F2006900C800F2008700DC00BE00F20046
:10326000EB00E10064005F00F200F200F2006E008B
:103270004CF69F71C0F20A219AE0202840F0988015
:103280004CF69571C0F20A2192E04DF22101C0F294
:103290000A218DE04DF21C01C0F20A2188E04CF6B3
:1032A0000E11C0F20A2183E04DF22601C0F20A217C
:1032B0007EE04CF6E571C0F20A2179E04CF6EA7145
:1032C000C0F20A2174E04CF6EF71C0F20A216FE0FF
:1032D0004CF6F971C0F20A216AE04DF20301C0F226
:1032E0000A2165E04CF6C271C0F20A2160E04CF69A
:1032F000DB71C0F20A215BE04CF6E071C0F20A21FA
:1033000056E04CF6A971C0F20A2151E04CF6BD71AD
:10331000C0F20A214CE04CF6A471C0F20A2147E049
:103320004CF6AE71C0F20A2142E04CF6B371C0F225
:103330000A213DE04CF6C771C0F20A2138E04CF694
:10334000D171C0F20A2133E04DF20D01C0F20A2121
:103350002EE04CF6B871C0F20A2129E04CF6FE715D
:10336000C0F20A2124E04CF6CC71C0F20A211FE021
:103370004CF69A71C0F20A211AE04CF6D671C0F2EE
:103380000A2115E04DF20801C0F20A2110E04DF2C9
:103390001701C0F20A210BE04CF6F471C0F20A21C9
:1033A00006E04DF21201C0F20A2100BF00BF00BFCB
:1033B00008794FF0000B8DF854060868CDF85006D8
:1033C0000DF5CA6010F80B80099800EB4B03002044
:1033D00028FA00F1C90722D00A99012701EB40051C
:1033E000002100BF00BF00BF2944CA084A2A10D8E4
:1033F0004AF001E004EBC12C002100BF00BF00BF78
:103400001944B9EB912F08BF2CF8116001210FF07E
:1034100009C8F9074FF001014FF00007E4D101306E
:103420000728D5D10BF1010BBBF1050FC8D1089AC4
:1034300009990C31099112F8010F08B12FF049C117
:1034400006990598013181427FF4F6AD44E000BF52
:1034500000EB40000A9901F10F020BEB800000F134
:10346000D60151EA02003FF59AAE0A9B0120012BDA
:1034700053EAC08040F257239A4252EAB38C421E6C
:1034800062453FF78CAE40F2FF330BF1D302851E4D
:10349000994251EAB38E22EAE278039ACDF820E00D
:1034A000F04558EACE81A1EB08010AEB41010791F2
:1034B000C10201EB48015718F04507DC384607996F
:1034C000E34603F0ABFEDDF820E0DC46013507F50E
:1034D00000676545F0DB62E643F2B86543F2E067FA
:1034E000C2F20925C2F2092785F8009000BF00BF8B
:1034F000287808B92FF005C043F2B0700022C2F25C
:103500000920214602F084FC40F2EE3188423FF46B
:103510000FAD48B14CF6C001C0F20A2100F057F8D7
:1035200006E500BF00BF00BF029A82F00102EFE48F
:1035300043F2DC70C2F20920006868B143F2DC702B
:10354000C2F2092000F053FF30B14CF22E43044682
:10355000C0F20A23FFF77FBC43F208004221FFF7C5
:1035600069FB30B14CF2F7130446C0F20A23FFF7AF
:1035700072BC43F2DC7043F2C861C2F20920C2F2AD
:10358000092100F08AFE30B14CF64D730446C0F2BA
:103590000A23FFF760BC43F2DC700021C2F209206D
:1035A00000F08DFF30B14CF282330446C0F20A23A2
:1035B000FFF751BCFFF7DBF930B14CF22B73044637
:1035C000C0F20A23FFF747BC0024FFF74FBC0028D6
:1035D00046D010B504460020FFF706F843F2DC7031
:1035E000C2F209200068A8B143F2DC70C2F20920DF
:1035F00000F0FDFE70B14CF29E614CF2AC224CF238
:10360000FD33C0F20A21C0F20A22C0F20A230020D0
:10361000FEF7EAFF43F60800C2F20920C068A8B12D
:1036200043F60800C2F2092001F08DFC70B14CF2A3
:103630009E614CF2AC224CF23563C0F20A21C0F21A
:103640000A22C0F20A230020FEF7CEFF4CF22851D6
:103650000020C0F20A212246FEF7C6FF00BE10BDC0
:1036600070470168012909D1017A890658BF70475E
:1036700043F2E061C068C2F20921086070477047F8
:103680002DE9F04F81B02DED048B84B000284FF070
:10369000000800F0B080002900F0AD80012AC0F2DF
:1036A000AA8041F6245A9FED571A4FF05D09C3F6E0
:1036B000C13A4FF0874780EF5020002401F12803E2
:1036C0000293531E019300BF04EB440600EB460532
:1036D00095F9046095F905305D3604EE106A5D33A6
:1036E00005EE103AB8EEC44AB8EEC56A24EE015AA7
:1036F00026EE016AB4EE456AF1EE10FA36FE054A8E
:10370000B4EE404AF1EE10FA06D50134B4F5A86FD4
:10371000DAD170E000BF00BF95ED008FB4EE456ACE
:1037200029EE498FF1EE10FABBFF48865FEADF957C
:1037300039EE6A8E39EE678E39EECF1FCDED83AF4D
:1037400079EE671FA8EE107BDDED83AF33FE096FC6
:10375000B4EE467AF1EE10FAD7D9F4EE667AF1EECD
:1037600010FAD2D990450FDA08EB4803002608F189
:10377000010801EBC30383ED007F83ED044A1D754F
:10378000A3F81560DE75C0E7022A1ED3019B002650
:1037900043F001E04FF0010CDDF808B000BF00BFBE
:1037A00006EB46039BED005A0BF1180B01EBC3032C
:1037B000D3ED040AB4EE605AF1EE10FA5CEA4686E4
:1037C0000CF1010C0FF015C000E0002606EB4603DB
:1037D00001EBC30696ED045AB4EE454AF1EE10FA39
:1037E00093DD86ED007F002386ED044A3575A6F84B
:1037F0001530F37589E7404604B0BDEC048B01B089
:10380000BDE8F08F241DC13B2DE9F04F89B00028A1
:103810004FF0000800F0E6800129C0F2E380B7EE27
:10382000001AB4EE410AF1EE10FAB5EE400A31FE8C
:10383000001A9FED6E0AF1EE10FA48BFB0EE401A82
:103840000229009145D3009900F1280B8A1E013905
:103850004FF0000CCDE90112A1EB0C0EE2460CF189
:10386000010C5B466646554605EB450793ED002A7D
:10387000183300EBC70797ED043AB4EE432AF1EE94
:1038800010FA56EAC58501360FF013C055451CD015
:103890000AEB4A0303AA05EB4507644600EBC30E97
:1038A000734600EBC70793E8621382E86213394658
:1038B000A446B84691E8FC0003A98EE8FC0091E814
:1038C000FC0088E8FC00DDE9011292450BF1180BC1
:1038D000C2D100F10C0C4FF000094FF00008DDF8E8
:1038E00000B000BF00BF00BFB8F1010F09EB490EE7
:1038F00067DB00EBCE0466464746257D00BF00BF70
:10390000317A8D4259D194ED002A16ED033AB4EE86
:10391000432A94ED014AF1EE10FA16ED025A94EDA5
:10392000027AB4EE454A16ED016A72FE032AD4ED1E
:10393000030AF1EE10FAB4EE476AD6ED001A74FEEF
:10394000053AF1EE10FAF4EE601A77FE064AF1EE4F
:1039500010FA74EEE22AF0EE404AF5EE402A70FECC
:10396000A15AF1EE10FA23D975EEE33AF0EE404A8F
:10397000F5EE403AF1EE10FA1AD937EE422A36EE59
:10398000433A31EEC55A30EEC44A23EE053A02EE10
:10399000043A22EEA32AF0EE404A33EE423A82EE97
:1039A000032AB5EE403AF1EE10FA88BFF0EE424A33
:1039B000F4EE414AF1EE10FA0FDC013F06F1180671
:1039C0009ED108EB480108F1010800EBCE0700EB9F
:1039D000C10A97E87E008AE87E0009F10109D9450D
:1039E0007FF482AF404609B0BDE8F08F00000000D0
:1039F00080B5FFF78AF8002080BD704780E80E0090
:103A00008A6A0021B1EB127F07D180B500F008F877
:103A100000285FEA1F91BDE8804008467047D4D473
:103A200090E80E00002B5FEA0F93002A48F29F6295
:103A300008BF0233CB60C0F20102016800BF00BFC3
:103A40004B681B0703D5002AA2F10102F8D14A688E
:103A5000120726D44A6A4368002B5FEA1F9312F0CC
:103A6000020F5FEA1F9293421BD04A6A836802F0FA
:103A70000102002B5FEA1F93934212D00222CA6117
:103A8000016845F25352CA6300220168C0F61F72F2
:103A90000A6401684A6401688A640068C26400209C
:103AA00000E0FF2040B27047F0B581B0069F092FBB
:103AB0003ADA1C460B461646054600214FF0FF3207
:103AC0001846FFF79AFF00293DD12968012F0861A8
:103AD0002868066211DB0026D4E900013246FFF7B0
:103AE0008CFF91B92968013F01EBC60106F101067F
:103AF00004F10804C1F88000EED12868816801F063
:103B00000C010131816001B0F0BD4CF2B9204CF6DE
:103B100013124CF27623C0F20A20C0F20A22C0F23D
:103B20000A23A42102F034FF4CF2B9204CF6131200
:103B30004CF24853C0F20A20C0F20A22C0F20A2313
:103B4000942102F025FF4CF2B9204CF613124CF6EA
:103B5000E803C0F20A20C0F20A22C0F20A23982128
:103B600002F016FF704701688A6802F00C02023208
:103B70008A600068416849075CBF41685FEAC161CB
:103B800001D500207047416809065CBF41685FEAC3
:103B9000C151F6D44068C0F340107047D0F800C05F
:103BA000012ADCF8080000F0040308BF0833022AE9
:103BB00008BF00F00C0303F00800012908BF04301F
:103BC000022953EA00810020CCF80810704780B524
:103BD0000368986AD3F800E0814201D101200FE028
:103BE000FF2380EA010CCFF200031CEA030F5FEA17
:103BF0001F9311F0006F5FEA1F9141EAD0601840F7
:103C00008EEA02010023B3EB117F07D1C2F3075103
:103C1000CEF307528A4238BF002080BD002080BD0D
:103C200043F64800C2F20920704700207047002088
:103C3000704780B5012003F091FB08B100210170AD
:103C400080BDD4D4D4D4D4D40278014600BF00BF00
:103C500012B920BF0A78FBE70020013A0A707047CA
:103C600001780131017040BF0020704770477047F4
:103C7000B0B50446407C012808BFB0BD20460225EF
:103C80002574FFF770FF002818BF00256574E06AEF
:103C9000BDE8B040FFF7E4BF2DE9F04381B043F643
:103CA0004C081E46C2F209280D460446D8F800709A
:103CB000002F174604D1FFF7B3FFC8F80000C8B3C0
:103CC00043F65009C2F20929D9F8000020B9FFF7DC
:103CD000B0FFC9F8000068B3DDE908230020C4E99B
:103CE0000C702946C4E90E6040F20220A4F841009D
:103CF0002046FFF783FEE8B1FFF79BFFE062C8B103
:103D000004F110001C2103F089FAD8F80000FFF735
:103D10008CFF43F65400C2F2092001680460D8F811
:103D20000000E160FFF783FFD9F80000FFF798FF7C
:103D3000002001E04FF0FF3001B0BDE8F08310B586
:103D40000446FFF76DFE10B14FF0FF3010BDE06B81
:103D500000285FEA1F9120460A46FFF71FFF002058
:103D600010BD10B50446C06B002800F10100E063EF
:103D700001D0002010BD2046FFF7E1FF0028F8D059
:103D8000E06B0138E0634FF0FF3010BDD4D4D4D4E1
:103D9000F0B581B00446054614F8100F00284ED047
:103DA000022803D0012847D1002953D0686A01288E
:103DB00013DB0026002700BF95F84210F940C90721
:103DC00007D0D5E90701805951F8271000F018FAFB
:103DD000686A013708368742EEDBE86A4FF0FF3247
:103DE0004FF0FF33FFF730FF00280CD50120687437
:103DF000297C022907D168744FF0FF32E86A4FF03E
:103E0000FF33FFF721FFA96A2846FFF730FFE86B71
:103E100038B10138E86304D1012101222846FFF7B7
:103E2000BDFE687C70B1687C022802D12846FFF78D
:103E300099FE2846FFF783FF4FF0FF3503E06FF050
:103E4000010504E000251C21204603F0E7F928467F
:103E500001B0F0BD0125FAE72DE9F04F83B000294C
:103E600000F09B80002B00F0A88004460C980028EE
:103E700000F0B380254615F8107F17BB0026267486
:103E800004F11406DDE90DEC20620EC69607C4E9C4
:103E900009EC12D144F643770E68C3F25017BE42C4
:103EA0000BD1BEF1030F13DBD4E90C7C57EA0C06EF
:103EB0000ED0A66B8068B04208D91C21284603F0BA
:103EC000ADF94FF0FF3003B0BDE8F08FC3E9047CDB
:103ED00002EB01080F1D47455DD23878052858D000
:103EE00002280AD00128E8D1D7E901122046FFF7BD
:103EF0006EFE0028E1D00C37EDE707F1040B5FEA16
:103F00000B70DAD178787E880290606A012824DB11
:103F1000E169024600BF00BF0B781B07CDD1013A13
:103F200001F10801F8D14FF0000A4FF0000900BF7D
:103F300094F8411021FA09F1C90708D0D4E9070122
:103F400050F80A0051F8291000F00AF9606A09F1E6
:103F500001090AF1080A8145EADB2046FFF701FF63
:103F60000028AAD1029846EA004601202074204683
:103F7000A16A4FEA8609FFF779FEE369606A00905B
:103F8000204659464A46FFF78FFD07EB8600071D7E
:103F9000A1E704379FE7002095E74CF263604CF2FD
:103FA000DC624CF21643C0F20A20C0F20A22C0F2D0
:103FB0000A2340F2822102F0EBFC4CF263604CF2E7
:103FC000DC624CF25163C0F20A20C0F20A22C0F255
:103FD0000A2340F2832102F0DBFC4CF263604CF2D6
:103FE000DC624CF24F43C0F20A20C0F20A22C0F257
:103FF0000A234FF4217102F0CBFC70B584B008ADF8
:10400000064631CD8DE831003046FFF725FF002808
:1040100006D40121304604B0BDE87040FFF7B8BEB9
:104020004FF0FF3004B070BDF0B583B0EFF31086F1
:10403000012282F3108843F20002C4F220020D46EE
:1040400007461E201368012123F480331360126891
:1040500002F0A3FC86F310880021B8686E7BAC7B6D
:10406000C4F21401006800220023CDE90064FFF7C8
:1040700013FE08B1032041E095F90C102A7A4EF2A4
:1040800000100029CEF200004FEA021203D44318B8
:1040900083F8002306E04EF6145601F00F03CEF22B
:1040A00000069A5543F6CC020126C2F2092242F8D4
:1040B00021704CF20032C4F2000252F8213023F495
:1040C000803342F8213052F821204A0901F01F01C3
:1040D000BFF35F8F00EB820306FA01F1C3F8801192
:1040E00040F822100020D5E90012C7E9031044F27D
:1040F00054517D60C5F24D217A61396003B0F0BD45
:10410000B0B582B04FF07041EFF3038001EB006077
:1041100043F6CC028115C2F2092204165558A9684B
:104120000868FFF7A5FDE96861B1286910B1026868
:10413000019200E001A86A6902608847286908B115
:10414000019901604CF20030C4F2000050F82410D4
:1041500021F4803140F8241050F8240002B0B0BDA2
:10416000B0B5D8B10129B8BFB0BD00F01F021144ED
:10417000A1F1200202EAE272BFF34F8FD243114451
:10418000012202EB511E4EF68051CEF2000100BF1B
:10419000C1F8E80120300FF005C829E04EF6805044
:1041A0000021CEF2000043F6E07C4160BFF34F8F68
:1041B0000268C2F34E31D308C2F3C902541C9A07F5
:1041C0004B0100BF00BF00BF03EA0C0544F001E053
:1041D000154400BF00BF00BFC0F8EC5105F14045D9
:1041E0000FF007C00029A1F10101A3F12003EBD1D9
:1041F000BFF34F8FBFF36F8FB0BDD4D4D4D4D4D41A
:10420000B0B5D8B10129B8BFB0BD00F01F0211444C
:10421000A1F1200202EAE272BFF34F8FD2431144B0
:10422000012202EB511E4EF68051CEF2000100BF7A
:10423000C1F8F00120300FF005C829E04EF680509B
:104240000021CEF2000043F6E07C4160BFF34F8FC7
:104250000268C2F34E31D308C2F3C902541C9A0754
:104260004B0100BF00BF00BF03EA0C0544F001E0B2
:10427000154400BF00BF00BFC0F8F45105F1404530
:104280000FF007C00029A1F10101A3F12003EBD138
:10429000BFF34F8FBFF36F8FB0BDF0B581B0044651
:1042A00041604E69EFF31087012080F3108843F2DC
:1042B00008000D46C4F22000016821F400310160BD
:1042C00000681E20012102F068FB47F2004187F3DD
:1042D0001088C4F234014FF6FE72CFF6BF728868C0
:1042E00020F0020088607068104008603069086241
:1042F00070694862F06A88653089C86070890861B1
:10430000B0894861F0898861308BC862F0690863C0
:10431000306A4863706A8863306B086670680A6840
:10432000400860F341020A60706BC1F80003B06B93
:10433000C1F80403F06BC1F80803306CC1F80C033A
:10434000706DC1F82802B06DC1F82C02F06DC1F893
:104350003002306EC1F83402706EC1F83802B06EAF
:10436000C1F83C02F06EC1F84002306FC1F844025F
:10437000706FC1F8480270680A68400E60F35962B5
:104380000A6070680A68800B60F38F320A60F06C14
:10439000C1F89000306DC1F8A40070680A68800E02
:1043A00060F39A620A60706CC1F88000F06F086474
:1043B000B6F8802006F178008A6400212161D5E9F1
:1043C0000312C4E90212214600F0B8F806F17A009F
:1043D000214600F0B3F8316807C91268904720B948
:1043E00044F64E11C5F25621216001B0F0BD70B502
:1043F00047F2004604464068C4F234064569306816
:10440000306820F001003060B06820F00200B06039
:104410007068C00708BF706D286881680068C96847
:104420008847306820F080603060286881680068C4
:104430004968884795F979104EF2801CCEF2000C3D
:10444000012601F01F0349094FF0000EC4F800E0F7
:1044500006FA03F34CF82130BFF34F8FBFF36F8F91
:1044600095F9791095F97B3043F6CC04C2F2092412
:104470005A0944F821E003F01F0106FA01F14CF853
:104480002210BFF34F8FBFF36F8F95F97B1044F865
:1044900021E043F20801C4F22001EFF3108586F316
:1044A000108804460A681E2042F400320A60096837
:1044B000012102F072FA85F31088204670BD406831
:1044C000406990F82820012A47F20042C4F23402E1
:1044D00002D1116351639163116841F4800111604D
:1044E0001168C1F380511168C1F380511168C1F3A3
:1044F00080511168C1F380511168C1F38051116876
:10450000C1F380511168C1F380511168C1F380512A
:104510001168C1F380511168C1F38051816CC2F8F8
:104520008410116841F001011160916841F00201AD
:1045300091600068816800688968084780B590F9D3
:10454000012003784EF2001C002ACEF2000C4FEA44
:10455000031304D40CEB020080F8003307E04EF69E
:10456000145002F00F0ECEF200000EF8003043F6A9
:10457000CC000123C2F2092040F822104CF2003096
:10458000C4F2000050F8221021F4803140F82210CB
:1045900050F82200500902F01F02BFF35F8F0CEBAE
:1045A000800103FA02F2C1F880214CF8202080BD7E
:1045B000012000F000B82DE9F0418AB04FF07042C0
:1045C000EFF3038102EB016147F2044C43F6CC04A4
:1045D0008B15C4F2340CC2F20924091654F8038076
:1045E000DCF80020DCF840308DE80D0098064FF034
:1045F000000003900FD5DCF80000C04310F0180F46
:1046000001D1002006E0DCF80000C0F3C1400CEB53
:104610008000C06A039043F08022D8F80C00049018
:1046200042F00100CCF840004CF20030C4F200002F
:1046300050F8212022F4803240F8212050F8210047
:10464000D8F81000694658B103460DF1140C93E8F0
:10465000F4008CE8F400024691E8F800F8C200E0AB
:104660000846D8F808108847D8F8100018B105A9EE
:1046700091E8EC00ECC00AB0BDE8F081D4D4D4D409
:10468000F0B546F6004391F80CC0C4F234039A6CBE
:1046900022F0010262444EF2200CC4F2010C9A6432
:1046A000DCF80020BCF80440844644EA123E5FEA8D
:1046B0000E70C2F3033E04F00F0009D443F61C123F
:1046C000C2F20922126802FA00F020FA0EF01BE092
:1046D00000F00704032505FA04F40126170B082847
:1046E00038BF06FA00F407F0070043F61C17C2F2C1
:1046F000092705FA00F012043D6805FB04F258BFD3
:1047000006FA0EF0B2FBF0F04DF683621F68C4F2B9
:104710001B32A0FB02024FF0FF3000EB92403A0A3E
:1047200062F31F201860186940F00100186100BF93
:10473000D869C007FCD0087B012810D108685860F0
:104740000879DA6860F30402DA60986820F0010002
:10475000986000BF00BF00BFD869C005FCD588685D
:1047600002686FF3DF425A6242689A628268DA62D4
:10477000C2681A6302695A63007D44F65012986356
:10478000C4F65052186A40F0010018620020CCE9CB
:104790000021F0BD46F60842C4F23402916921F0CE
:1047A00001019161116841F00101116093680146B6
:1047B00023F001009060002000220A607047D4D4EA
:1047C00070B504464160EFF31086012080F3108835
:1047D00043F20800C4F220000D46016821F40031C4
:1047E000016000681E20012102F0D7F886F31088CE
:1047F000296807C9126890470646002858D147F231
:104800001001C4F23401C86820F00100C86000BF84
:10481000C869C007FCD168680860A8688860286912
:10482000086368694863D5E90602C1E91402E868CB
:10483000C1F87002E86A8866286B8867686BC1F8FF
:1048400088004FF0100E05F1380001F1F80200BFAA
:1048500050F8043B42F8103B0FF007C0AA6FC1F8B4
:10486000F821EA6FC1F87C2205F1200000212161C6
:10487000D5E92012C4E90212214600F0CAF805F178
:104880002200214600F0C5F805F12400214600F081
:10489000C0F805F12600214600F0BBF805F128001C
:1048A000214600F0B6F844F64310C4F6505020609C
:1048B000304670BD2DE9F041804640684EF28012CE
:1048C00090F92110CEF200024D0901F01F030121E1
:1048D00001FA03F342F82530BFF34F8FBFF36F8F18
:1048E00090F9236090F9214043F6CC030025C2F2F1
:1048F0000923770906F01F0643F8245001FA06F64B
:1049000042F82760BFF34F8FBFF36F8F90F923708A
:1049100090F92560740943F8275006F01F0701FA43
:1049200007F742F82470BFF34F8FBFF36F8F90F9F2
:10493000257090F92760740943F8275006F01F0787
:1049400001FA07F742F82470BFF34F8FBFF36F8F60
:1049500090F9277090F92960740943F8275006F000
:104960001F07B94042F82410BFF34F8FBFF36F8F7A
:1049700090F9291043F8215000688168006849685F
:10498000884708B1BDE8F081C8F80050BDE8F08163
:1049900047F21C010020C4F234010A6842F001020F
:1049A0000A60704747F21C00C4F23400816D89032D
:1049B00001D401207047016821F001010160C16844
:1049C00041F00101C1600020704747F28420C4F229
:1049D0003400026812F47F4F07D0026942F00102EE
:1049E0000261C0680860002070470D20704747F2E0
:1049F0007002C4F23402106810F4003F4FF001005E
:104A000050EA009008700020516841F40031516074
:104A1000704780B590F9012003784EF2001C002AFF
:104A2000CEF2000C4FEA031304D40CEB020080F822
:104A3000003307E04EF6145002F00F0ECEF20000E5
:104A40000EF8003043F6CC000123C2F2092040F8F2
:104A500022104CF20030C4F2000050F8221021F471
:104A6000803140F8221050F82200500902F01F0255
:104A7000BFF35F8F0CEB800103FA02F2C1F88021D3
:104A80004CF8202080BD70B588B04FF07041EFF336
:104A9000038001EB006043F6CC018015C2F20921CE
:104AA000EE460C584FF47F41ADF8001047F270010C
:104AB000C4F234010A680192E368039302F40032FD
:104AC0004A604CF20031C4F20001425822F48032B4
:104AD00042504058206958B103460DF1100C93E83C
:104AE00066008CE8660001469EE86C006CC100E040
:104AF0007046A1688847206918B104A991E86C0044
:104B00006CC008B070BD2DE9F04389B04FF0704122
:104B1000EFF3038001EB006043F6CC0147F2500253
:104B20008015C2F20921C4F234020C58D2F8009068
:104B3000116BD2F8408021F08073536328F08073AA
:104B400053644CF20032C4F20002835823F48033E1
:104B500083508058E06804905FEAC9704FF001000C
:104B60008DF804001CD02069029101A94FF00002C9
:104B70008DF8052058B103460DF1140C93E8E400BC
:104B80008CE8E400024691E8E800E8C200E008464C
:104B9000A1688847206918B105A991E8CC00CCC06C
:104BA0005FEA89701CD5206901218DF8051001A9E3
:104BB000CDF8088058B103460DF1140C93E8E400D9
:104BC0008CE8E400024691E8E800E8C200E008460C
:104BD000A1688847206918B105A991E8CC00CCC02C
:104BE00009B0BDE8F083F0B589B04FF07041EFF344
:104BF000038001EB006043F6CC018015C2F209216D
:104C00000F5847F25001C4F23401096802218DF8AF
:104C10000410F96804914CF20031C4F200014258CA
:104C200022F4803242504058FF208DF80500386948
:104C30000021029101A958B103460DF1140C93E82B
:104C400074008CE87400024691E8780078C200E0B5
:104C50000846B9688847386918B105A991E8CC00B9
:104C6000CCC009B0F0BD80B545F25422C5F24F0268
:104C70000260084600F004F8002080BDD4D4D4D4EB
:104C800070B5044600F060F843F6C80CEFF31081ED
:104C9000C2F2092C012080F31088DCF8000038B93A
:104CA00040F614500022C4F240000270402202700C
:104CB000DCF800000130CCF8000081F31088208877
:104CC00028B340F6000E0021C4F2400E00BF00BF22
:104CD000606800EBC10250F831309288D8034FEA87
:104CE0001220D2B20BD50EEB801555F8226026F4B7
:104CF000803645F8226023F4803645F822600EEBBA
:104D00008010013140F8223020888142E0D3012018
:104D1000EFF3108180F31088DCF8000020B1DCF89C
:104D200000000138CCF80000DCF8000038B940F68B
:104D300014500022C4F2400002708022027081F3FD
:104D4000108870BDD4D4D4D42DE9F04F81B004467E
:104D50000088002865D04EF64C4B0025C4F2010BAC
:104D60004FF0010A00BF00BF4DF2447642F2400806
:104D70000027C0F20A26C4F2200800BF00BF00BF0F
:104D8000606836F8021B00EBC50082888A423FD17A
:104D900000689BF8001000F0B8500AFA07F9B0F16B
:104DA000807F09EA010017D158B9012001F09BFE6C
:104DB0009BF8000040EA09008BF80000012001F098
:104DC0006BFE98F90000002822D498F8000040F00B
:104DD000800017E000BF00BF58B1012001F083FE42
:104DE0009BF8000020EA09008BF80000012001F088
:104DF00053FE98F90000B0F1FF3F09DC98F800007D
:104E000000F07F0088F80000C820012101F0C5FDF6
:104E1000013708F10208032FB2D1208801358542FD
:104E2000A2D301B0BDE8F08FF0B581B00C4609788F
:104E300005464EF20000C4F2250043F2040700EBE1
:104E400001202861A0686860207B2C602872E069DE
:104E50006863206AE8630020A863C4F22007C5E9FC
:104E60000500C5E9070085F8290085F82A0085F8BE
:104E70002B0085F82C000120EFF3108680F31088BA
:104E80002178C1F109018840396821EA00003860C1
:104E900038681E20012101F080FD86F31088284625
:104EA000214600F0D1F8A06958B141684FF40022C2
:104EB00009680A60D0E90112006812689047064646
:104EC00098B9606928B341684FF0006209680A60C8
:104ED000D0E90112006812689047D0B10646A06977
:104EE00018B181680068096A88470120EFF31085CE
:104EF00080F3108821783A68C1F1090188400121C6
:104F00001043386038681E2001F047FD85F3108893
:104F100005E044F643100026C5F24920E86030461B
:104F200001B0F0BD9C46012380F82AC000F084B98E
:104F30009C46002380F82AC000F07EB9034600207A
:104F400059601A727047B0B5044600690025C571F2
:104F50002046216800F078F894F82600A16984F8CA
:104F600028002069C4E90751B32184F82C5084F843
:104F70002A50C1712069C571E5602068816921B13D
:104F80008A680868116A88472068416921B18A687F
:104F90000868116A8847206890F911004EF2801164
:104FA000CEF20001430900F01F02012000FA02F2D4
:104FB00041F82320BFF34F8FBFF36F8F226892F920
:104FC0000E20530902F01F0200FA02F241F82320DA
:104FD000BFF34F8FBFF36F8F226892F910205309F0
:104FE00002F01F0200FA02F241F82320BFF34F8FB4
:104FF000BFF36F8F226892F90F20530902F01F024E
:1050000000FA02F241F8232043F20402BFF34F8F6B
:10501000BFF36F8FEFF3108580F310882168C4F21F
:10502000200209781368C1F1090188400121184361
:10503000106010681E2001F0B0FC85F3108800207D
:10504000B0BDD4D4D4D4D4D4F0B502690023137045
:10505000402302691370026913785B06FCD5C023F4
:1050600013700268036908254EF6185C526ACEF286
:10507000000C127942F0E0021A7402680369526A65
:10508000D27842F0E0025A7402680369526A927858
:1050900062F306159D7002680569526A13785278AA
:1050A000012B5FEA1F9343EA420242F00402EA70D6
:1050B000026844F24025C0F20F0503695268AA4213
:1050C0004FF0770208BF6FF008025A71002302699F
:1050D0009371B3230269D3714EF2001291F911401A
:1050E0004B7BCEF20002002C4FEA031303D41519B8
:1050F00085F8003304E004F00F05654405F8043C2E
:1051000043F6CC0E4CF20033C2F2092EC4F2000377
:1051100001274EF8240053F8245025F4803543F835
:10512000245053F82450650904F01F04BFF35F8F27
:1051300002EB850607FA04F4C6F8804142F82540E0
:1051400091F90F404D7B002C4FEA051503D4161939
:1051500086F8005304E004F00F06664406F8045C89
:105160004EF8240053F8245025F4803543F8245099
:1051700053F82450650904F01F04BFF35F8F02EB5E
:10518000850607FA04F4C6F8804142F8254091F9F3
:1051900010404D7B002C4FEA051503D4161986F8F4
:1051A000005304E004F00F06664406F8045C4EF871
:1051B000240053F8245025F4803543F8245053F844
:1051C0002450650904F01F04BFF35F8F02EB8506CE
:1051D00007FA04F4C6F8804142F8254091F90E40E0
:1051E000497B002C4FEA011103D4171987F80013EB
:1051F00005E004F00F0505EB0C0707F8041C4EF85A
:10520000240004F01F0753F82410012621F48031F4
:1052100043F8241053F82410610906FA07F7BFF386
:105220005F8F02EB8103C3F8807142F821709F21E8
:1052300000690170F0BDD4D490F808C0C0E905122F
:10524000BCF1010F09D190F804C04FF48071A0F8AF
:10525000251043EA4C0180F8241010B581B04EF2BD
:10526000200180F82930C4F20101096800910099F9
:1052700001F00F210091DDF800E0DDF800C00169C8
:105280000B7C90F82C40B4B9CEF30322A2EB1C6245
:1052900003FA02F2042A09D3920800BF00BF00BF3C
:1052A00091F90130002B03D5013AF9D1082169E0C9
:1052B0000022CA7182690021C0E9072190F82620E6
:1052C00080F8281080F8272080F82B1080F82D1007
:1052D00080F82E1080F82F1080F830100168496A8D
:1052E0000A784B7891F805C08C79012A5FEA1F9201
:1052F00042EA4302036942EA0C1242EAC41242F053
:105300000402DA700269137943F010031371026921
:10531000137903F0F70313710269137903F0EF03B4
:1053200013710269C979137903F07F0343EAC1114C
:10533000117101694A7942F001024A71016891F9DB
:105340000F1000290BD401F01F02012303FA02F20F
:105350004EF200134909CEF2000343F821200169FF
:105360004A7A02F0F3024A720169BF22CA7190F8C8
:105370002C1019B1002180F82C1003E000690221E3
:1053800041700021084601B010BD10B582B04FF049
:105390007041EFF3038001EB00604CF200328015A6
:1053A000C4F20002835823F4803383508058EFF313
:1053B000038001EB006043F6CC018015C2F20921A5
:1053C0000C5894F82D0038B194F82E0001284DD1D6
:1053D000002084F82E0081E0A069022804D820690A
:1053E000017941F040010171E06901280ED1206985
:1053F000017941F0100101712069017941F0080142
:1054000001712069017901F0EF0101712068826961
:10541000D2B1216994F82930012B15D1A369042B4D
:1054200012D3D2F808C0033B13311068DCF808C06F
:1054300062699BB2E0472068A2690321033AC4E98C
:105440000712012184F82E10406AC079012803D187
:105450000521204600F048FA2069C07C8DF807003D
:105460009DF80700012084F82D0037E0E069A8B31B
:105470002168496AC979012904D10521204600F033
:1054800033FAE06901282BD0022806D0032813D173
:105490002069017941F040010DE02069017941F076
:1054A000100101712069017941F008010171206941
:1054B000017901F0EF010171D4E90401C07C226A95
:1054C0008854D4E90701013801F10101C4E9070159
:1054D00004D12069017901F0BF01017102B010BD52
:1054E00094F82A00012831D120684EF28013CEF2C0
:1054F000000390F90F00420900F01F01012000FA9B
:1055000001F143F82210BFF34F8FBFF36F8F216972
:10551000CA7942F08002CA7121690A7942F0100208
:105520000A7121690A7902F0F7020A7121690A7980
:1055300002F0EF020A71216904224A7021694A7956
:1055400002F0FE024A7184F82C00B5E72069417A26
:1055500001F0F7014172206908214170ACE7D4D411
:10556000B0B54FF07041EFF3038001EB00604CF2F7
:1055700000358015C4F20005425922F480324251B0
:105580004059EFF3038001EB006043F6CC01801536
:10559000C2F209210C5894F82700B0B394F82610F1
:1055A000032907D194F82810022903D194F8301068
:1055B000002952D094F824500128206919D121687B
:1055C0004969B1B194F829209AB9A2698AB1D1F890
:1055D00008C0A38B00F112020868DCF808C06169FA
:1055E000E04720690021A269C4E90712012184F87B
:1055F0002F10857494F8280094F82710013084F84F
:105600002800481E84F82700B0BD94F8290020BB6C
:105610002068406AC079012808D194F82B0028B985
:10562000206A18B10521204600F05EF994F82F0099
:10563000012804D1002084F82F00E0690CE0E06923
:1056400060B1D4E90401226A895C8174D4E907104D
:10565000421C481EC4E9070200B1B0BD2069C179EF
:1056600001F07F01C17120696FF0BE0100BF00BF72
:1056700090F90720B2F1FF3F03DC002901F101019D
:10568000F6D1206890F9100055F8201021F48031EF
:1056900045F8201055F82000206890F910000028E7
:1056A0000BD44EF2802300F01F014009CEF200031C
:1056B000012202FA01F143F820102069C17941F07A
:1056C0004001C171B0BDD4D410B54FF07041EFF3BB
:1056D000038001EB006043F6CC018015C2F2092182
:1056E0000C582068406AC079012803D10521204662
:1056F00000F0FAF894F82900012806D194F8270060
:10570000012802D194F8300080B3E06970BB94F8AE
:105710002A00012822D120684EF28013CEF2000325
:10572000012290F90F0000F01F01400902FA01F177
:1057300043F82010BFF34F8FBFF36F8F2069C179FB
:1057400041F08001C17120690421417020694179D3
:1057500001F0FE01417184F82C2007E02069417AB4
:1057600001F0F70141722069082141702069C17977
:1057700001F0BF01C17120696FF0BE0100BF00BF21
:10578000C279520603D5002901F10101F8D14FF089
:105790007041EFF3038001EB00604CF200318015A3
:1057A000C4F20001425822F480324250405810BDE9
:1057B000B0B54FF07041EFF3038001EB006043F6AA
:1057C000CC018015C2F209210C5821694A7A4B7A22
:1057D00002F01F0002F003020F2803F0E0034B72F7
:1057E00001D83AB923E021694B785B0658BF42F0F3
:1057F0000102CAB1012084F82B0020690025C5717F
:1058000020462168FFF720FC94F82600A16984F85F
:1058100028002069C4E90751B32184F82C5084F88A
:105820002A50C17101214BE04A78520611D4010778
:1058300006D494F82C20012A31D110F004022ED085
:10584000E06910B994F82B0090B3002919D4012015
:1058500035E0012084F82B00082048702068236977
:10586000406A41790278807942EA011141EAC01028
:1058700040F00200D8702069417941F00101417186
:1058800021E00020A169C4E9070194F8261084F8FA
:10589000281084F82C0084F82A0001200CE040072E
:1058A00011D52068406AC07901280CD1042107E095
:1058B00094F8290080F003002169B322CA71C1B2B3
:1058C000204600F011F84FF07041EFF3038001EB38
:1058D00000604CF200318015C4F20001425822F4FD
:1058E000803242504058B0BDB0B582B0856B04469E
:1058F00025B1D5E90002CDE9000200E06D4620683F
:10590000E36B2B60297142693AB194F8291021B9EF
:1059100091681068096988472068806938B194F8EF
:105920002910012903D18168006809698847616BE2
:1059300028468847A06B18B1DDE90012C0E90012C3
:10594000002084F82B0002B0B0BD2DE9F04781465D
:1059500000260670EFF31084012080F3108843F2D4
:1059600008000D46C4F2200043F2044843F2000A46
:10597000C4F234080168C4F2340A21F01001016055
:1059800000681E20012101F008F884F31088DAF87D
:10599000000040F48030CAF80000D5F8840095F883
:1059A0003C100279407903294FF0400108BF4FF4C1
:1059B0008251002A00F03F0008BF01F580710844C1
:1059C000C8F84C0095F84000D5F88410002818BF9E
:1059D0004FF4BC70CAF8E403C8F8006091F90060A5
:1059E00091F9012091F90200711C48F64821D3B2C7
:1059F000C0F2002113D095F830402CB9D8F81840E7
:105A000044F01004C8F8184051F82660346844F097
:105A100002043460EE8D6FF3DF26C8F81460FF2BAC
:105A2000C3B211D095F83A602EB9D8F8086046F0A4
:105A30001006C8F8086051F82220166816602A8FF0
:105A40006FF3DF22C8F80420FF2B1FD095F83F200A
:105A500012B90122C8F8242051F82000016841F051
:105A600007010160A88D698D6FF3DF206FF3DF21DF
:105A700041EA0040C8F81C00E88EA98E6FF3DF20D1
:105A80006FF3DF2141EA0040C8F80C00688E298DD1
:105A900043F65C036FF3DF20C2F209236FF3DF21CB
:105AA00041EA0040CAF804004FF00110CAF80800AB
:105AB000A88D698D01306FF3DF216FF3DF2041EA9C
:105AC0000040CAF81000E88EA98E01306FF3DF2184
:105AD0006FF3DF2041EA0040CAF80C0095F845005A
