:020000040200F8
:1000000080C30022F9770002E17500020378000244
:1000100003780002037800020378000203780002EC
:100020000000000000000000000000000378000253
:100030000378000200000000037800020378000249
:100040004B5F0002216100028962000271630002BD
:100050007151000247560002C7560002A75700021E
:10006000B96C00023B6D00028F6D0002C14C0002B2
:10007000A9280002AB280002AD280002AF28000228
:100080003D500000AAAA3200FFFFFF0008304200E6
:100090000331130003310300003000000430FF007F
:1000A00002301C000630C3000E3045002E30080020
:1000B000343018001F500000004332001836000092
:1000C00012362900093752000C370300203840004F
:1000D000213801003036360031360E003236E2006B
:1000E000333612002136E0000437A00003375A00EF
:1000F00015377800173701000B37600005371A00F5
:10010000053902000639100001390A0031371200A2
:1001100000360800013633002D30600020365200D2
:100120001B3720001C475000133A4300183A0000C8
:10013000193AF800353613003636030034364000DD
:1001400022360100014002000440020005401A006E
:100150000150A30003350700003500000135FF0002
:10016000023500000A3500000B3520000F3A300040
:10017000103A28001B3A30001E3A2600113A60005F
:100180001F3A1400183A0000193A7C0006340000A7
:10019000003407000134700002340400033400000E
:1001A000043405000534C000805401008154080067
:1001B00082541400835428008454510085546500EF
:1001C0008654710087547D008854870089549100BB
:1001D0008A549A008B54AA008C54B8008D54CD00D8
:1001E0008E54DD008F54EA0090541D0080550600A7
:1001F0008355400084551000895510008A55000031
:100200008B55F800005823000158140002580F00C5
:1002100003580F00045812000558260006580C0019
:100220000758080008580500095805000A58080032
:100230000B580D000C5808000D5803000E58000014
:100240000F580000105803001158090012580700F9
:1002500013580300145800001558010016580300E5
:100260001758080018580D00195808001A580500AA
:100270001B5806001C5808001D580E001E58290067
:100280001F5817002058110021581100225815003E
:1002900023582800245846002558260026580800D0
:1002A0002758260028586400295826002A58240078
:1002B0002B5822002C5824002D5824002E580600BC
:1002C0002F58220030584000315842003258240044
:1002D000335826003458240035582200365822005E
:1002E0003758260038584400395824003A58260018
:1002F0003B5828003C5842003D58CE000050A70013
:1003000020384600213800001438310015383100FB
:100310000338040008380400093800000A380200D5
:100320000B3858000C4622003748100024380200D1
:100330000150A3003D50000041470000FFFFFF00B7
:1003400020CD002200000000000000000003002279
:10035000000000000000000000000000001B3B68DF
:100360000004580200040000020000000000000029
:10037000000000000000000000FF0000000000007E
:100380000000080000000000000000000000000065
:100390000000100800000000000000000000000045
:0203A000010159
:1003B0002DE9F04190B0054690469FED1A0A4FF4A2
:1003C00040324FF0FF330846294600F029FE49F23B
:1003D000B8710DF1300EC0F2002172460DF1200C03
:1003E00091E8D800D8C249F2F8726346C0F2002200
:1003F00004AF92E8530053C349F608003946C0F2EF
:10040000002090E85C005CC14FF440320423284691
:100410004146CDF800E0CDE901C700F055FF10B02E
:10042000BDE8F0818180003C2DE9F04F95B049F6A0
:1004300018090DF1440EC0F2002949F6280ACC46ED
:10044000C0F2002A0DF134084FF0040B9CE8F000D4
:100450008EE8F000564645460C930B91144607462D
:1004600096E80F000FC549F6980011AEC0F20020C3
:10047000009001A849F6780249F68803C44680E84E
:100480004018C0F20022C0F200232046394607F58A
:10049000C0454FF00008CDE90888CDE904B8CDE9A2
:1004A000068800F0E9FD4FF4C0421E98394607F077
:1004B0005FFC30460DAC99E88E008EC020469AE86D
:1004C0008E008EC049F6680049F64802C0F200204E
:1004D00049F658038DE84108C0F20022C0F200231B
:1004E0000B982946CDE90888CDF81480CDE9034B57
:1004F000CDE9068800F0C0FD4FF4C0420C982946B3
:1005000007F036FC15B0BDE8F08F2DE9F04F95B03F
:1005100049F618090DF1440EC0F2002949F6280ADF
:10052000CC46C0F2002A0DF134084FF0040B9CE8D1
:10053000F0008EE8F000564645460C930B911446A9
:10054000074696E80F000FC549F6F80011AEC0F255
:100550000020009001A849F6D80249F6E803C446F5
:1005600080E84018C0F20022C0F20023204639463D
:1005700007F5C0454FF00008CDE90888CDE904B87B
:10058000CDE9068800F078FD4FF4C0421E98394648
:1005900007F0EEFB30460DAC99E88E008EC0204689
:1005A0009AE88E008EC049F6C80049F6A802C0F24B
:1005B000002049F6B8038DE84108C0F20022C0F2DD
:1005C00000230B982946CDE90888CDF81480CDE9A1
:1005D000034BCDE9068800F04FFD4FF4C0420C9864
:1005E000294607F0C5FB15B0BDE8F08F2DE9F04FA7
:1005F00095B049F618090DF1440EC0F2002949F6EC
:10060000280ACC46C0F2002A0DF134084FF0040B42
:100610009CE8F0008EE8F000564645460C930B919E
:100620001446074696E80F000FC549F6581011AE5C
:10063000C0F20020009001A849F6381249F648138C
:10064000C44680E84018C0F20022C0F200232046D1
:10065000394607F5C0454FF00008CDE90888CDE9D7
:1006600004B8CDE9068800F007FD4FF4C0421E989B
:10067000394607F07DFB30460DAC99E88E008EC000
:1006800020469AE88E008EC049F6281049F60812D6
:10069000C0F2002049F618138DE84108C0F200228C
:1006A000C0F200230B982946CDE90888CDF81480C4
:1006B000CDE9034BCDE9068800F0DEFC4FF4C042E3
:1006C0000C98294607F054FB15B0BDE8F08F2DE9D2
:1006D000F04F95B049F268790DF1440EC0F200294F
:1006E00049F2D87ACC46C0F2002A0DF134084FF016
:1006F000040B9CE8F0008EE8F000564645460C934B
:100700000B911446074696E80F000FC549F6B8103E
:1007100011AEC0F20020009001A849F6981249F6E7
:10072000A813C44680E84018C0F20022C0F200239B
:100730002046394607F540554FF00008CDE90888B6
:10074000CDE904B8CDE9068800F096FC4FF440529C
:100750001E98394607F00CFB30460DAC99E88E0028
:100760008EC020469AE88E008EC049F6881049F661
:100770006812C0F2002049F678138DE84108C0F2F3
:100780000022C0F200230B982946CDE90888CDF855
:100790001480CDE9034BCDE9068800F06DFC4FF4E1
:1007A00040520C98294607F0E3FA15B0BDE8F08FE7
:1007B0002DE9F04F95B049F268790DF1440EC0F281
:1007C000002949F2D87ACC46C0F2002A0DF134084B
:1007D0004FF0040B9CE8F0008EE8F00056464546CA
:1007E0000C930B911446074696E80F000FC549F687
:1007F000182011AEC0F20020009001A849F6F812AE
:1008000049F60823C44680E84018C0F20022C0F22E
:1008100000232046394607F540554FF00008CDE942
:100820000888CDE904B8CDE9068800F025FC4FF42E
:1008300040521E98394607F09BFA30460DAC99E8B5
:100840008E008EC020469AE88E008EC049F6E810D1
:1008500049F6C812C0F2002049F6D8138DE84108C5
:10086000C0F20022C0F200230B982946CDE9088887
:10087000CDF81480CDE9034BCDE9068800F0FCFBF0
:100880004FF440520C98294607F072FA15B0BDE8B3
:10089000F08F2DE9F04F95B049F268790DF1440ED3
:1008A000C0F2002949F2D87ACC46C0F2002A0DF1F4
:1008B00034084FF0040B9CE8F0008EE8F000564638
:1008C00045460C930B911446074696E80F000FC55A
:1008D00049F6782011AEC0F20020009001A849F638
:1008E000582249F66823C44680E84018C0F2002226
:1008F000C0F200232046394607F540554FF0000866
:10090000CDE90888CDE904B8CDE9068800F0B4FB4C
:100910004FF440521E98394607F02AFA30460DAC83
:1009200099E88E008EC020469AE88E008EC049F667
:10093000482049F62822C0F2002049F638238DE8E5
:100940004108C0F20022C0F200230B982946CDE9ED
:100950000888CDF81480CDE9034BCDE9068800F076
:100960008BFB4FF440520C98294607F001FA15B062
:10097000BDE8F08F2DE9F04F95B049F268790DF19F
:10098000440EC0F2002949F2D87ACC46C0F2002ABF
:100990000DF134084FF0040B9CE8F0008EE8F000F5
:1009A000564645460C930B911446074696E80F00B1
:1009B0000FC549F6D82011AEC0F20020009001A862
:1009C00049F6B82249F6C823C44680E84018C0F268
:1009D0000022C0F200232046394607F540554FF06B
:1009E0000008CDE90888CDE904B8CDE9068800F013
:1009F00043FB4FF440521E98394607F0B9F9304690
:100A00000DAC99E88E008EC020469AE88E008EC00C
:100A100049F6A82049F68822C0F2002049F698231A
:100A20008DE84108C0F20022C0F200230B9829464D
:100A3000CDE90888CDF81480CDE9034BCDE90688CF
:100A400000F01AFB4FF440520C98294607F090F939
:100A500015B0BDE8F08F2DE9F04F95B049F26879F7
:100A60000DF1440EC0F2002949F2D87ACC46C0F20A
:100A7000002A0DF134084FF0040B9CE8F0008EE8DA
:100A8000F000564645460C930B911446074696E8EF
:100A90000F000FC549F6383011AEC0F200200090AB
:100AA00001A849F6183249F62833C44680E84018B0
:100AB000C0F20022C0F200232046394607F5405517
:100AC0004FF00008CDE90888CDE904B8CDE90688E3
:100AD00000F0D2FA4FF440521E98394607F048F918
:100AE00030460DAC99E88E008EC020469AE88E0004
:100AF0008EC049F6083049F6E822C0F2002049F6D7
:100B0000F8238DE84108C0F20022C0F200230B98C0
:100B10002946CDE90888CDF81480CDE9034BCDE90D
:100B2000068800F0A9FA4FF440520C98294607F0C5
:100B30001FF915B0BDE8F08F2DE9F04F95B049F2DF
:100B400068790DF1440EC0F2002949F2D87ACC46FA
:100B5000C0F2002A0DF134084FF0040B9CE8F000BD
:100B60008EE8F000564645460C930B911446074616
:100B700096E80F000FC549F6983011AEC0F200207C
:100B8000009001A849F6783249F68833C44680E8D7
:100B90004018C0F20022C0F200232046394607F573
:100BA00040554FF00008CDE90888CDE904B8CDE9FB
:100BB000068800F061FA4FF440521E98394607F05B
:100BC000D7F830460DAC99E88E008EC020469AE8E2
:100BD0008E008EC049F6683049F64832C0F20020D7
:100BE00049F658338DE84108C0F20022C0F20023D4
:100BF0000B982946CDE90888CDF81480CDE9034B40
:100C0000CDE9068800F038FA4FF440520C98294696
:100C100007F0AEF815B0BDE8F08F2DE9F04F95B0B4
:100C200049F268790DF1440EC0F2002949F2D87AF0
:100C3000CC46C0F2002A0DF134084FF0040B9CE8BA
:100C4000F0008EE8F000564645460C930B91144692
:100C5000074696E80F000FC549F6F83011AEC0F20E
:100C60000020009001A849F6D83249F6E833C4467E
:100C700080E84018C0F20022C0F200232046394626
:100C800007F540554FF00008CDE90888CDE904B8D4
:100C9000CDE9068800F0F0F94FF440521E9839462D
:100CA00007F066F830460DAC99E88E008EC02046FD
:100CB0009AE88E008EC049F6C83049F6A832C0F2D4
:100CC000002049F6B8338DE84108C0F20022C0F296
:100CD00000230B982946CDE90888CDF81480CDE98A
:100CE000034BCDE9068800F0C7F94FF440520C9849
:100CF000294607F03DF815B0BDE8F08F2DE9F04F1B
:100D000095B049F2E8790DF1440EC0F2002949F29C
:100D1000C87ACC46C0F2002A0DF134084FF0040B1B
:100D20009CE8F0008EE8F000564645460C930B9187
:100D30001446074696E80F000FC549F6584011AE15
:100D4000C0F20020009001A849F6384249F6484315
:100D5000C44680E84018C0F20022C0F200232046BA
:100D6000394607F5C0554FF00008CDE90888CDE9B0
:100D700004B8CDE9068800F07FF94FF4C0521E9800
:100D8000394606F0F5FF30460DAC99E88E008EC06E
:100D900020469AE88E008EC049F6284049F608425F
:100DA000C0F2002049F618438DE84108C0F2002245
:100DB000C0F200230B982946CDE90888CDF81480AD
:100DC000CDE9034BCDE9068800F056F94FF4C05247
:100DD0000C98294606F0CCFF15B0BDE8F08F2DE940
:100DE000F04F95B049F2E8790DF1440EC0F20029B8
:100DF00049F2C87ACC46C0F2002A0DF134084FF00F
:100E0000040B9CE8F0008EE8F000564645460C9333
:100E10000B911446074696E80F000FC549F6B840F7
:100E200011AEC0F20020009001A849F6984249F6A0
:100E3000A843C44680E84018C0F20022C0F2002354
:100E40002046394607F5C0554FF00008CDE908881F
:100E5000CDE904B8CDE9068800F00EF94FF4C05290
:100E60001E98394606F084FF30460DAC99E88E0096
:100E70008EC020469AE88E008EC049F6884049F61A
:100E80006842C0F2002049F678438DE84108C0F27C
:100E90000022C0F200230B982946CDE90888CDF83E
:100EA0001480CDE9034BCDE9068800F0E5F84FF456
:100EB000C0520C98294606F05BFF15B0BDE8F08FD4
:100EC0002DE9F04F95B049F2E8790DF1440EC0F2EA
:100ED000002949F2C87ACC46C0F2002A0DF1340844
:100EE0004FF0040B9CE8F0008EE8F00056464546B3
:100EF0000C930B911446074696E80F000FC549F670
:100F0000185011AEC0F20020009001A849F6F84236
:100F100049F60853C44680E84018C0F20022C0F2E7
:100F200000232046394607F5C0554FF00008CDE9AB
:100F30000888CDE904B8CDE9068800F09DF84FF4A3
:100F4000C0521E98394606F013FF30460DAC99E8A2
:100F50008E008EC020469AE88E008EC049F6E8408A
:100F600049F6C842C0F2002049F6D8438DE841084E
:100F7000C0F20022C0F200230B982946CDE9088870
:100F8000CDF81480CDE9034BCDE9068800F074F864
:100F90004FF4C0520C98294606F0EAFE15B0BDE8A1
:100FA000F08FD4D42DE9F0418AB049F288780DF160
:100FB000180CC0F2002864460DF1080E98E8E10014
:100FC00049F63808C0F20028E1C4744698E8E10008
:100FD000E1C41C4610460D4610990022CDE90022BE
:100FE0006246734600F0A8F99FED050A4FF4D862F7
:100FF00000232846214600F02BF80AB0BDE8F08116
:10100000BFE97D3E94469FED040A4FF4D852002379
:101010000846614600F01CB86C21B23ED4D4D4D44A
:101020009AB100BF00BF00BFB0EC011A81EE001AF8
:10103000B8FE411ABDEEC11A013A11EE10CA9C4425
:101040000CF3070C01F801CBEED17047D4D4D4D403
:1010500080B542F00FC000BF10F9012BD21A01EE8B
:10106000102AB8EEC11A20EE011AA1EC011A0FF0F5
:101070000DC880BDD4D4D4D42DE9F04FB5B00DF156
:10108000F80B1F461390DDE942900E91DDE94646CC
:10109000039420ACDDE944158DE823009BE8080C9F
:1010A000204611463A46CDE9046B00F0CDF90DF12A
:1010B0006C0800208DF8D200052350465946424660
:1010C00000F09AF916AA05234198494600F094F9D0
:1010D00005222046594600F0EFF9002220464146FD
:1010E00000F045FA0646002220464146334600F00D
:1010F00062FA054601222046414600F038FA0346CE
:10110000012220464146069300F055FA099002223A
:101110002046414600F02BFA034602222046414673
:10112000089300F048FA0B9003222046414600F055
:101130001EFA03460322204641460A9300F03BFA7A
:10114000129004222046414600F011FA8146042202
:10115000204641464B4600F02EFA14902D993198C6
:10116000119028463246079500F062F9002800F0F9
:10117000A88014984FF0000BA0EB09000D90139875
:10118000CDF8409048440C902E990998069C00BFD9
:10119000224600F04DF9002800F08A801594089C42
:1011A0002F990B98224600F043F900280F94149CC5
:1011B00077D000BF00BF00BFDDF828A0309912989B
:1011C000524600F035F9002861D000BF00BF00BFD3
:1011D0001198012820D10D9FDDF83CE0012F4BDB59
:1011E000DDE91E0148431D9B159D00FB06F24543AA
:1011F00002FB03FC0C9A01FB0A213A4600FB0E108D
:101200001C9905FB03000CFB01010E98584406F0E5
:10121000AFFDBB4430E000BF319920464A4600F0A4
:1012200007F948B30E98DDF83C8000EB0B0500BFD2
:10123000DDE91E01374648431D9B159C0BF1010B50
:1012400000FB06F21C9E44435A437243139E4E44D5
:1012500001FB0A6100FB0810319904FB0300149C98
:1012600089443E46805C4A4605F8010B204600F062
:10127000DFF808B12FF025C0309912988A44524601
:1012800000F0D6F8DDF8409008B12FF05FC82F9934
:101290000F9A0A440B980F9200F0CAF808B12FF089
:1012A00075C82E99159C0C44099871E700BF00BFC2
:1012B0002D9907980E44324600F0BAF808B12FF085
:1012C0009DC835B0BDE8F08F012AB8BF70472DE941
:1012D000F04F9A46DDE909984FF0000B00BF00BFC0
:1012E000BAF1010F1CDB4AF001E0002647464C46EC
:1012F0000B9B00BF00BF00BF57F8045B9BFBF5FCD6
:101300000CFB15BC53F8045B9CFBF5FC54F8045B28
:101310000CFB05660FF011C003E000BF00BF00BF6B
:101320000026835D01F80B300BF1010B9345D7D1FB
:10133000BDE8F04F7047D4D42DE9F04F8DB01E6852
:101340000296012E089053DB9768D0680790784387
:1013500052680590504306970190D86804900C4657
:101360001799169E5D68D3F808A00023DDF8188051
:10137000049F09920A9500BF012D03932FDB0020E3
:10138000009109992A4633460B90B34600F048F97C
:10139000BAF1010F1CDB059A089900FB02104FF00F
:1013A00000095546079E0C90179800904846414604
:1013B00052465B4600F034F90C9900FB06112046BA
:1013C0003A4606F0D5FC013D3C4409F10109EBD158
:1013D0000B980A9D01301799A8425E46D0D1039B15
:1013E00002980133019A8342089810440890C3D1AF
:1013F0000DB0BDE8F08FD4D480B5012BB8BF80BD4F
:10140000A3EB010C8900A1EB830143F001E0084448
:10141000002100BF00BF00BF614501DA012300E0E9
:1014200003680131043042F8043B0FF00BC880BD63
:1014300082425FEADF905FEAAF92002950EA428081
:101440007047D4D4D4D4D4D42DE9F04F81B00F4612
:1014500054211D4616468346DDE90AA9DDE90E84BE
:1014600006F082FC012C8BF800408BF818408BF8BA
:10147000304013DB0BF11C0024F001E000BF00BF83
:10148000B7EC041F00ED061FB6EC041FA0EC041F10
:10149000B5EC041F80ED021F1FF00FC0ABF848A091
:1014A0000020ABF84A00ABF84C90ABF84E00ABF81C
:1014B000508001B0BDE8F08FB0B590F900E0BEF10A
:1014C000010FA2EB0E0C13DB00EB8E0100EB82048C
:1014D00001F1180304F118019C698C6153F8184C50
:1014E00041F8184C53F8044941F804490FF00DC075
:1014F000BCF1010F10DB80EF500080EF512000F1B4
:101500001C012CF001E000BF01ED061FA1EC043F1F
:1015100081ED023F1FF009C0B0F85010B0F84A301A
:10152000B0F84E404FF0FF3E01FA0CF1A0F8501019
:1015300003FA0CF104FA0CF5B0F84830B0F84C405E
:10154000A0F84A100EFA0CF1A0F84E5003FA0CF372
:1015500004FA0CF563EA0103A0F8483065EA0101DA
:10156000A0F84C100270027680F83020B0BD80B533
:1015700000EB820C51F82210DCF80430DCF834E087
:10158000B0F848C0002B48BF0B44BEF1010F06DB8A
:1015900099424FF00000A8BF23EAE37105E0481E1E
:1015A00099420146C8BF43EAE3712CFA02F2D2071E
:1015B00051EA008080BD10B5B0F850E04FF0010C4A
:1015C0000CFA02FC51F822101CEA0E0F03D08B42D9
:1015D00053EAA39010BD00EB820490F852E0E26958
:1015E000BEF1000F646B18BF1A44B0F84C00002A1B
:1015F00048BF0A44012C00EA0C0005DB0B4691426F
:10160000A8BF22EAE27306E04B1E91424FF0FF3181
:10161000C8BF42EAE273002853EA018010BDD4D467
:1016200080B5DDF808C06BB1022A0BDBA1F1010E19
:1016300000EE10EA013A01EE102AB8EEC00AB8EE48
:10164000411A07E000EE101A01EE102AB8EEC00AA7
:10165000B8EEC11ABCF1000F03EE100A80EE010AC9
:101660009FED112AB6EE001AB8EEC33A02FE011A37
:1016700031EE031A21EE000A23B1B8FE400ABDEE96
:10168000C00A05E0B7EEC00ABBFE400BBDEEC00BC2
:1016900010EE100A0139884250EAB180BCF1000F07
:1016A00018BF20EAE07080BD0000000040F200009A
:1016B000C6F60000704740F20000C6F60C00704706
:1016C00046F60040C6F60C0070472DE9F04F9DB07D
:1016D00004464BF61830C0F2002042F6D025C6F67C
:1016E0001E054CF6FC310068C0F2002105EB000835
:1016F0004BF61430C0F2002042F6D027C6F6290778
:1017000046F6D02B0068C6F62B0B05EB00090868DF
:101710004CF6F8313844C0F2002102904AF6D0224B
:1017200047F2D023086842F22C71384401904DF6FC
:101730007C50C0F20121C0F20020C6F62D02C6F690
:10174000380348F240760068C6F60F065844049005
:101750004DF67850C0F200200068584403900868A5
:1017600042F22871C0F2012110440690086847F245
:10177000AC411044059044F6CC5048F6D022C0F25B
:101780000120C6F62F02C0F2012100681044089023
:1017900044F6C850C0F20120006810440790086861
:1017A00047F2A8414AF6D022C0F20121C6F6300223
:1017B00010440A9008684CF28C211044099049F6B4
:1017C0002C304CF6D022C0F20120C6F63102C0F215
:1017D0000121006810440C9049F62830C0F2012025
:1017E000006810440B9008684CF288214EF6D02215
:1017F000C0F20121C6F6320210440E90086841F290
:101800004C0110440D904EF61C1040F6D022C0F250
:101810000120C6F63402C0F2022100681044109084
:101820004EF61810C0F20120006810440F900868AE
:1018300041F2480142F6D022C0F20221C6F635023A
:101840001044129008684CF64C71104411904CF6FC
:10185000487044F6D022C0F20220C6F63602C0F22A
:101860000221006810441C904CF65070C0F2022017
:10187000006810441490086849F6DC011044139085
:1018800043F20C4045F2D022C0F20320C6F63702E4
:10189000C0F2032100681044169043F20840C0F2E1
:1018A0000320006810441590086849F6D8014EF2EC
:1018B000D022C0F20321C6F63702104418900868FF
:1018C0004CF24811104417904CF62C30C0F2052110
:1018D000C0F204204DF6D0220968C6F6380200682E
:1018E00018441A904CF62830C0F2042000681844BE
:1018F000199050181B9048F2007040F20001C6F693
:101900000C00C6F600013246FEF752FD4BF61030D1
:101910004FF44032C0F2002031460068284406F0FF
:1019200027FA204600F098FA44F2807648F2407098
:10193000C6F613064AF2807AC6F6120041464A46B7
:101940003346C6F6130ACDF800A0FEF76DFD4CF63F
:10195000F4304FF4C042C0F20020314600683844F1
:1019600006F006FA4CF6F0304FF4C042C0F2002008
:1019700051460068384406F0FBF9204600F0C0FAF2
:1019800042F2C0764CF2C077C6F6150640F280707F
:10199000C6F614070096C6F61400DDE901213B46A1
:1019A000FEF7B3FD4DF674504FF4C042C0F2002074
:1019B00039460068584406F0DBF94DF670504FF494
:1019C000C042C0F2002031460068584406F0D0F909
:1019D000204600F0EDFA4AF6000544F60006C6F689
:1019E000160548F2C070C6F616060095C6F6150034
:1019F000DDE903213346FEF7F9FD42F224704AF691
:101A0000D027C0F20120C6F62D074FF4C042314660
:101A10000068384406F0ACF942F220704FF4C0423E
:101A2000C0F2012029460068384406F0A1F920469A
:101A300000F016FB49F6400546F64006C6F61705C7
:101A400040F60000C6F617060095C6F61700DDE959
:101A500005213346FEF73BFE44F6C45048F6D02736
:101A6000C0F20120C6F62F074FF4405231460068FD
:101A7000384406F07DF944F6C0504FF44052C0F2AD
:101A8000012029460068384406F072F9204600F02B
:101A90003FFB45F6800542F68006C6F618054CF673
:101AA0004000C6F618060095C6F61700DDE90721C6
:101AB0003346FEF77DFE47F2A4404AF6D027C0F237
:101AC0000120C6F630074FF44052314600683844D2
:101AD00006F04EF947F2A0404FF44052C0F2012008
:101AE00029460068384406F043F9204600F068FBB8
:101AF00041F6C0054EF6C006C6F6190548F6800048
:101B0000C6F618060095C6F61800DDE90921334629
:101B1000FEF7BFFE49F624304CF6D027C0F2012074
:101B2000C6F631074FF4405231460068384406F09B
:101B30001FF949F620304FF44052C0F201202946E7
:101B40000068384406F014F9204600F091FB4DF689
:101B500000154AF60016C6F6190544F6C000C6F68A
:101B600019060095C6F61900DDE90B213346FEF78C
:101B700001FF4CF284204EF6D027C0F20120C6F6B9
:101B800032074FF4405231460068384406F0F0F80E
:101B90004CF280204FF44052C0F2012029460068E8
:101BA000384406F0E5F8204600F0BAFB49F6401547
:101BB00046F64016C6F61A0540F60010C6F61A0696
:101BC0000095C6F61A00DDE90D213346FEF743FF06
:101BD0004EF6141040F6D027C0F20120C6F63407A6
:101BE0004FF4405231460068384406F0C1F84EF6D2
:101BF00010104FF44052C0F20120294600683844CA
:101C000006F0B6F8204600F0E3FB45F6801542F6F4
:101C10008016C6F61B054CF64010C6F61B0600954E
:101C2000C6F61A00DDE90F213346FEF785FF41F2C3
:101C3000440042F6D027C0F20220C6F635074FF422
:101C4000405231460068384406F092F841F24000B4
:101C50004FF44052C0F2022029460068384406F092
:101C600087F8204600F00CFC41F6C0154EF6C01671
:101C7000C6F61C0548F68010C6F61B060095C6F68B
:101C80001B00DDE911213346FEF7C7FF4CF6447017
:101C900044F6D027C0F20220C6F636074FF4405271
:101CA00031460068384406F063F84CF640704FF453
:101CB0004052C0F2022029460068384406F058F825
:101CC000204600F035FC49F2002547F60026C6F60E
:101CD0001C0544F6C010C6F61C060095C6F61C008E
:101CE000DDE913213346FFF709F843F2044045F2DA
:101CF000D027C0F20320C6F637074FF4C052314652
:101D00000068384406F034F843F200404FF4C05203
:101D1000C0F2032029460068384406F029F820461E
:101D200000F062FC4FF240254DF64026C6F61C0539
:101D30004AF60020C6F61C060095C6F61C00DDE932
:101D400015213346FFF74BF849F6D4004EF2D02761
:101D5000C0F20320C6F637074FF4C0523146006880
:101D6000384406F005F849F6D0004FF4C052C0F2EE
:101D7000032029460068384405F0FAFF204600F0A9
:101D80008BFC45F2802543F68026C6F61D0540F6FD
:101D90004020C6F61D060095C6F61D00DDE9172198
:101DA0003346FFF78DF84CF6243047F2D027C0F2C7
:101DB0000420C6F638074FF4C05231460068384454
:101DC00005F0D6FF4CF620304FF4C052C0F204208C
:101DD00029460068384405F0CBFF204600F0B4FCEB
:101DE00046F6C02546F68020C6F61D0546F6004399
:101DF0000095C6F61D00C6F60C03DDE91921FFF7B4
:101E0000D1F84CF244104DF6D026C0F20520C6F6AB
:101E100038064FF4C0421C990068304405F0A8FF12
:101E20004CF240104FF44042C0F2052029460068B1
:101E3000304405F09DFF204600F0E2FC42F6C02051
:101E400040F20002C6F61E00C6F60C021B991DB039
:101E5000BDE8F04FFFF7D6B8B0B596B04AF20C32F5
:101E600042F6D024C0F200224AF210310025C6F614
:101E70001E040028C0F200210B950A9111680491FC
:101E8000CDE90C454FF430214FF440300790CDE9B7
:101E90000E45CDE90511CDE910450AD04FF440417A
:101EA000204605F061FF04F5C0304FF4404105F0D5
:101EB0005BFF04F5C031CDE9141549F628514FF404
:101EC0004040C0F200210890099004A80A680090E0
:101ED0004CF6205049F63051C2F20020C0F20021E9
:101EE0000AABCDE912450624CDE9014502F065FEB5
:101EF00001305FEA1FA016B0B0BDD4D4D4D4D4D47E
:101F000070B598B04BF6B0724BF6C071C0F20022BB
:101F100042F6D025C0F200210A9111680391C6F65D
:101F200029051FA1002405F540460B94CDE90C546A
:101F300091ED001F11941095CDE90E541394129653
:101F40008DED041F38B142F6D0204FF4C031C6F6F3
:101F5000290005F009FF4BF61C314FF44040C0F258
:101F600000210890099003A80A6800904CF62050C0
:101F70004BF62031C2F20020C0F200210AABCDE9BD
:101F800014640726CDE91654CDE9016402F015FE6C
:101F900001305FEA1FA018B070BD00BF00BF00BFD6
:101FA00000400200004002000060000000600000ED
:101FB00070B598B04DF240110024C0F20021CDE977
:101FC0000A144DF2381146F6D025C0F20021C6F6AB
:101FD0002B051FA205F540460968039105F5C04190
:101FE000CDE90C5492ED001F11941091CDE90E54DF
:101FF000139412968DED041F38B146F6D0204FF49D
:10200000C031C6F62B0005F0AFFE4CF600414FF490
:102010004040C0F200210890099003A80A6800908F
:102020004CF620504CF61041C2F20020C0F20021C4
:102030000AABCDE914640726CDE91654CDE9016455
:1020400002F0BBFD01305FEA1FA018B070BD00BFF9
:10205000004002000040020000600000006000003C
:1020600070B598B04EF2B8524EF2C051C0F2002294
:102070004AF6D024C0F200210A9111680391C6F6F5
:102080002D041FA1002604F540450B96CDE90C4612
:1020900091ED001F11961094CDE90E4613961295FE
:1020A0008DED041F48B14FF4C041204605F05CFEA1
:1020B0004FF4C041284605F057FE4DF680514FF4CD
:1020C000C040C0F200210890099003A80A6800905F
:1020D0004CF620504DF69051C2F20020C0F2002183
:1020E0000AABCDE91446CDE916560725CDE90156D0
:1020F00002F063FD01305FEA1FA018B070BD00BFA1
:1021000000E0010000E0010000600000006000004D
:1021100070B598B042F6C43242F6D031C0F2012216
:1021200048F6D025C0F201210A9111680391C6F644
:102130002F051FA1002405F5C0460B94CDE90C54D2
:1021400091ED001F11941095CDE90E541394129641
:102150008DED041F38B148F6D0204FF44041C6F64B
:102160002F0005F001FE42F230714FF4C040C0F282
:1021700001210890099003A80A6800904CF62050AD
:1021800042F24071C2F20020C0F201210AABCDE957
:1021900014640726CDE91654CDE9016402F00DFD63
:1021A00001305FEA1FA018B070BD00BF00BF00BFC4
:1021B000002001000020010000300000003000007D
:1021C00070B598B045F2FC2245F20031C0F2012210
:1021D0004AF6D025C0F201210A9111680391C6F692
:1021E00030051FA1002405F5C0460B94CDE90C5421
:1021F00091ED001F11941095CDE90E541394129691
:102200008DED041F38B14AF6D0204FF44041C6F698
:10221000300005F0A9FD44F6D0514FF4C040C0F2A3
:1022200001210890099003A80A6800904CF62050FC
:1022300044F6E051C2F20020C0F201210AABCDE920
:1022400014640726CDE91654CDE9016402F0B5FC0B
:1022500001305FEA1FA018B070BD00BF00BF00BF13
:1022600000200100002001000030000000300000CC
:1022700070B598B047F6341247F64011C0F201220B
:102280004CF6D025C0F201210A9111680391C6F6DF
:1022900031051FA1002405F5C0460B94CDE90C546F
:1022A00091ED001F11941095CDE90E5413941296E0
:1022B0008DED041F38B14CF6D0204FF44041C6F6E6
:1022C000310005F051FD47F2B0414FF4C040C0F27B
:1022D00001210890099003A80A6800904CF620504C
:1022E00047F2C041C2F20020C0F201210AABCDE9A1
:1022F00014640726CDE91654CDE9016402F05DFCB3
:1023000001305FEA1FA018B070BD00BF00BF00BF62
:10231000002001000020010000300000003000001B
:1023200070B598B04AF24C024AF25001C0F2012254
:102330004EF6D025C0F201210A9111680391C6F62C
:1023400032051FA1002405F5C0460B94CDE90C54BD
:1023500091ED001F11941095CDE90E54139412962F
:102360008DED041F38B14EF6D0204FF44041C6F633
:10237000320005F0F9FC49F630314FF4C040C0F2AC
:1023800001210890099003A80A6800904CF620509B
:1023900049F64031C2F20020C0F201210AABCDE97A
:1023A00014640726CDE91654CDE9016402F005FC5A
:1023B00001305FEA1FA018B070BD00BF00BF00BFB2
:1023C000002001000020010000300000003000006B
:1023D00070B598B04CF224724CF23071C0F2012208
:1023E00040F6D025C0F201210A9111680391C6F68A
:1023F00034051FA1002405F5C0460B94CDE90C540B
:1024000091ED001F11941095CDE90E54139412967E
:102410008DED041F38B140F6D0204FF44041C6F690
:10242000340005F0A1FC4CF290214FF4C040C0F202
:1024300001210890099003A80A6800904CF62050EA
:102440004CF2A021C2F20020C0F201210AABCDE97A
:1024500014640726CDE91654CDE9016402F0ADFB02
:1024600001305FEA1FA018B070BD00BF00BF00BF01
:1024700000200100002001000030000000300000BA
:1024800070B598B04EF63C624EF64061C0F2012243
:1024900042F6D025C0F201210A9111680391C6F6D7
:1024A00035051FA1002405F5C0460B94CDE90C5459
:1024B00091ED001F11941095CDE90E5413941296CE
:1024C0008DED041F38B142F6D0204FF44041C6F6DE
:1024D000350005F049FC4EF620114FF4C040C0F223
:1024E00001210890099003A80A6800904CF620503A
:1024F0004EF63011C2F20020C0F201210AABCDE944
:1025000014640726CDE91654CDE9016402F055FBA9
:1025100001305FEA1FA018B070BD00BF00BF00BF50
:102520000020010000200100003000000030000009
:1025300070B59CB041F6281241F63011C0F202226B
:1025400044F6D025C0F202210C9111680491C6F620
:10255000360521A1002405F5C0460D94CDE90E54A1
:1025600091ED001F13941295CDE910541594149613
:102570008DED051F38B144F6D0204FF44041C6F62A
:10258000360005F0F1FB4FF4C041099141F25001D2
:1025900005F51040C0F20221CDE918044FF4405077
:1025A0000A900B900A6804A800904CF6205041F263
:1025B0006001C2F20020C0F202210CABCDE916543A
:1025C000CDE91A640826CDE9016402F0F6FA01307B
:1025D0005FEA1FA01CB070BD0008010000080100E8
:1025E000003000000030000070B598B04DF260423D
:1025F0004DF27041C0F2022245F2D025C0F2022114
:102600000A9111680391C6F637051FA1002405F54C
:1026100040560B94CDE90C5491ED001F1194109588
:10262000CDE90E54139412968DED041F38B145F286
:10263000D0204FF4C041C6F6370005F095FB4CF6AC
:1026400054714FF44050C0F202210890099003A841
:102650000A6800904CF620504CF66071C2F20020DF
:10266000C0F202210AABCDE914640726CDE9165465
:10267000CDE9016402F0A1FA01305FEA1FA018B0B1
:1026800070BD00BF00BF00BF0090000000900000C0
:10269000001800000018000070B598B043F618123A
:1026A00043F62011C0F203224EF2D025C0F20321DE
:1026B0000A9111680391C6F637051FA1002405F59C
:1026C00040560B94CDE90C5491ED001F11941095D8
:1026D000CDE90E54139412968DED041F38B14EF2CD
:1026E000D0204FF4C041C6F6370005F03DFB43F261
:1026F00010414FF44050C0F203210890099003A804
:102700000A6800904CF6205043F22041C2F20020AB
:10271000C0F203210AABCDE914640726CDE91654B3
:10272000CDE9016402F049FA01305FEA1FA018B058
:1027300070BD00BF00BF00BF00900000009000000F
:102740000018000000180000B0B598B049F6B0724B
:1027500047F2D024C0F2032249F6C071C6F638040D
:10276000C0F203210A911168039104F5C051109140
:102770001FA100250B950F95CDE90C4591ED001F8C
:102780000E941195139512948DED041F50B104F51C
:10279000E0504FF4405105F0E7FA4FF4D86120467D
:1027A00005F0E2FA49F6E00104F5E050C0F2032139
:1027B000CDE914054FF4405008904FF4D8600990CB
:1027C0000A6803A800904CF6205049F6F001C2F2C6
:1027D0000020C0F203210AABCDE916450724CDE95C
:1027E000014502F0EAF901305FEA1FA018B0B0BD60
:1027F00000680000006800000018000000180000D9
:10280000B0B596B04CF690724DF6D025C0F20422C9
:102810004CF6A071C6F63805C0F204210A91116881
:10282000049105F5C03110911BA100240B940F9465
:10283000CDE90C5491ED001F0E951194139412954F
:102840008DED051F28B105F5D8504FF4D85105F08E
:102850008BFA4CF6303105F5D850C0F20421CDE9A1
:1028600014044FF4D85009900A6804A800904CF65C
:1028700020504CF64031C2F20020C0F204210AABD5
:102880000625CDE9015402F098F901305FEA1FA056
:1028900016B0B0BD00BF00BF004002000040020003
:1028A00000C000000060000070477047704770472C
:1028B00010B54CF2B034A821C2F20024204605F035
:1028C00053FA0320206160614CF221604CF25841C0
:1028D000C0F20520A061C2F20021E1614FF4006165
:1028E00021620021A1626162E1624CF658422066D9
:1028F0004FF0100E4CF24C10C2F200226266C4F887
:1029000068E02167E1666167BFF35F8FC0F2052071
:102910000F3000BF00BF00BF10F8011904F8011B01
:102920000FF007C0BFF35F8F10BDD4D4D4D4D4D47C
:102930002DE9F04381B014460D468046C7684FF03C
:10294000000900BF00BF00BFD8F81000FA43B8422A
:1029500006D91044D8F8081006E000BF00BF00BF39
:10296000D8F8081010440844C91B884250EA318046
:102970002946A04250EA3486D8F80400384432464A
:1029800005F0F6F9F019D8F80810411AA4EB06047E
:1029900050EA1187B1443544BFF35F8FC8F80C701B
:1029A0000CB12FF02FC8484601B0BDE8F0832DE9E7
:1029B000F04381B000EB40004CF2B033C2F2002390
:1029C000144603EBC003894603F11805D86A0228B0
:1029D00012D0012808D000283ED1EE682869F143C2
:1029E000B04234D9084435E0EE682969B1420BD9C8
:1029F000F0430144A8680BE028464946224601B04E
:102A0000BDE8F043FFF794BFF243A86811440144C6
:102A1000A14251EA3484871B68683044BC4207D223
:102A20004946224605F0A4F9BFF35F8F26440CE027
:102A300049463A4605F09CF9E61B686809EB070130
:102A4000324605F095F9BFF35F8FEE6025E0AA6886
:102A500008441044A04201D200241EE0D5E901013F
:102A60008F1B3044BC4208D24946224605F080F90B
:102A7000BFF35F8F06EB04080DE049463A4605F0C8
:102A800077F9A4EB0708686809EB0701424605F0EF
:102A90006FF9BFF35F8FC5F80C80204601B0BDE829
:102AA000F083F0B581B04CF2B0331446C2F200238B
:102AB0000D4606461B78532B01D0FFF7F9FEEFF3C6
:102AC00011874FF0200181F31188304629462246B4
:102AD000FFF76DFF87F3118801B0F0BDD4D4D4D4D3
:102AE0002DE9F04F9BB091460F46002406A91691A0
:102AF00040211791002105901A90CDE9181100BFCF
:102B000017F8011B252907D0002900F06F8116A8AE
:102B100000F07BF9E5E000BF4FF0000800BF00BF08
:102B200039782C2908DC23290ED02B2918D1042030
:102B30000FE000BF00BF00BF2D2909D030290FD101
:102B4000022006E000BF00BF082002E000BF00BF77
:102B5000012048EA00080137E2E700BF00BF00BFDC
:102B6000A1F13A0010F10A0F02D2002012E000BFDA
:102B700000200A4600BF00BF17F8011F00EB8000CD
:102B8000A1F13A0302EB400013F10B0FA0F130006A
:102B90000A46F1D82E290FD13A4612F8011F2A29E8
:102BA0000DD1D9F8001002370A1DC9F800200E68AF
:102BB00001211DE000BF00BF0021002618E0A1F1A7
:102BC0003A0313F10A0F02D2002100260FE000267B
:102BD00012F8013F06EB8607A3F13A0601EB470125
:102BE00016F10B0FA1F130061946F1D80121174655
:102BF00017F8012B02F0FB03682BF9D0632A0FDCD6
:102C0000252A2ED0582A24D0632A6AD1D9F8000068
:102C1000011DC9F80010017879E700BF00BF00BFAF
:102C2000A2F17003082B1ED8DFE803F0055B5B619F
:102C30005B4E5B5B1300D9F800001022011DC9F840
:102C400000100168082300200826CDE9006016A8BE
:102C500045E0D9F800100A1DC9F8002009681022C3
:102C600039E0252153E7642A3BD1D9F800104CF60E
:102C7000CD4C0A1DC9F80020D1F800E0CCF6CC4CB0
:102C8000CEF100017246BEF1000F48BF0A460A2A83
:102C900003914FF0010107DBA2FB0C35632A01F120
:102CA00001014FEAD502F7D88E4256EA818B0028FF
:102CB00040D0BEF1000F5FEA5F9108F0040241EAE4
:102CC0009201A0EB010A37E0D9F800100A1DC9F8FB
:102CD000002009680A22CDE9000816A8334600F052
:102CE000B7F8199CB4F1FF3F3FF70AAF89E0D9F874
:102CF0000000021DC9F8002000684CF25032002884
:102D0000C0F2052250EA12855FEA018800BF00BFC9
:102D10002978002E5FEA18800029E2D00028E0D14F
:102D200016A8013500F071F8199C013EB4F1FF3F7F
:102D3000EEDC66E04FF0000A5FEA88750CD55EB9FC
:102D4000002CCED4BEF1000F29D45FEA4870CDF834
:102D500010E02DD52B2125E05FEAC870F0D1BAF143
:102D6000000FEDD0D345EBD20295CDF810E0AAF1DB
:102D7000010500BF00BF00BF202116A800F045F8E4
:102D8000199C002C3DD4681EA84202D2AB450546D2
:102D9000F2D300F1010ADDF810E0029DD0E72D2109
:102DA0000398049016A800F030F8199C002C28D441
:102DB000002D05D40A22CDE900A816A804998DE7B4
:102DC00008F001003043F5D1BAF1000FF2D0AAF1BA
:102DD0000105554538BFD345ECD2302116A800F087
:102DE00014F8199CAA46002CF1D50AE044B1189DAC
:102DF00025B106A905982A46FFF753FE2C4400E0AA
:102E0000002420461BB0BDE8F08F10B50446D0E981
:102E10000120431C934207D822681154A360E06844
:102E200062680130E0601846904218BF10BD21680A
:102E30002069FFF736FEA168884202D10020A06019
:102E400010BD4FF0FF30E06010BDD4D4D4D4D4D442
:102E50002DE9F04F81B015460E4691421F4681463E
:102E6000DDF828B04FF0010007D3314600BF00BFA6
:102E7000B1FBF5F10130A942FAD2874257EA808AC4
:102E8000BBF1000F0B991BD011F0010018D188077E
:102E90004FF0200048BF30202021002F50EA018849
:102EA000BBF1000F0CD0DA450AD248464146ABF1DF
:102EB000010BFFF7AAFFD9F80C00B0F1FF3FEFDCE0
:102EC000D9F80C0000283CD4012400BF00BF00BF8B
:102ED000022F01D3013F03E0B6FBF4F0A84201D377
:102EE0006C43F5E749F27878C0F2002800BF00BFD4
:102EF000B6FBF4F7484618F80710FFF786FFD9F835
:102F00000C00002806D4B4FBF5F007FB1466A542BC
:102F10000446EDD90B98C00718BFBBF1000F0AD1CA
:102F20000FE020214846FFF770FFD9F80C00A346B8
:102F3000B0F1FF3F05DDABF101045C4538BFDA4578
:102F4000EFD301B0BDE8F08F82B080B582B0CDE99B
:102F5000042304AA019201AAFFF7C2FD02B0BDE852
:102F6000804002B07047D4D42DE9F04782B04CF2D3
:102F700060384CF24869871C4AF6AA244FF6FF7560
:102F8000C0F205280DF1070AC0F2052900218DF8CD
:102F9000071000BF00BF00BF37F8020CA0420FD0DF
:102FA000A84214D0397800F0F5FA90B937F8020C3D
:102FB000514600F0A4FA70B907E000BF00BF00BF9F
:102FC00038784FF47A7104F0C8FA0437E4E7002641
:102FD0000FE0064601E00646C8464CF22A614CF274
:102FE0001F32C0F20521C0F2052200204346FFF740
:102FF000ABFF304602B0BDE8F087D4D4F0B581B065
:103000002DED048B0A204FF47A7104F0A6FA4CF6E9
:10301000C0503C21C2F20020012202F06FFD28B115
:103020004CF6BD030446C0F20523B6E04CF68065BD
:10303000EFF31080C2F20025012181F3108840F6E1
:1030400014542968C4F2400419B9002121704021A8
:10305000217029684FF6D04601312960CFF6FF76FE
:1030600080F3108843F6FA770121CFF6FE77A05956
:1030700038400430A051EFF3108081F310882968A4
:1030800011B1296801392960296819B90021217015
:103090008021217080F3108814204FF47A7104F09D
:1030A0005CFA0121EFF3108081F31088296819B9C7
:1030B000002121704021217029680131296080F3AD
:1030C00010880121A059384040F00500A051EFF3CD
:1030D000108081F31088296811B1296801392960AD
:1030E000296819B9002121708021217080F310888E
:1030F00014204FF47A7104F030FA40F24C00C2F21E
:103100000020FFF731FF28B14CF2EA330446C0F249
:10311000052342E032204FF47A7104F01EFA43F2A4
:103120003500122100F036FA28B14CF2A8230446EB
:10313000C0F2052322E043F236007B2100F02AFA98
:1031400028B14CF204230446C0F2052316E043F2F2
:103150003700082100F01EFA28B14CF21E73044615
:10316000C0F205230AE043F20810122100F012FA1F
:1031700018B34CF27C630446C0F205234CF22A617A
:103180004CF26B72C0F20521C0F205220020FFF75D
:10319000DBFE4CF29A13C0F205234CF22A614CF28A
:1031A0008B22C0F20521C0F205220020FFF7CCFEE1
:1031B0002046BDEC048B01B0F0BD4CF668404DF6E6
:1031C0000001C2F20020C0F2B8519FED270AB6EE0E
:1031D000008A0160B1EEC09A9FED240AB0EE481A51
:1031E00009EE001A43F60C00BCEEC10A10EE105AAC
:1031F000290A00F0CFF9B8B9E9B243F60D0000F0A2
:10320000C9F988B939EE080A43F60E00BCEEC00AC7
:1032100010EE105A290A00F0BDF928B9E9B243F6B8
:103220000F0000F0B7F9A0B14CF22A614CF2235222
:103230004CF283730446C0F20521C0F20522C0F2AD
:1032400005230020FFF780FE4CF2FE63C0F2052349
:10325000A3E700F00DF828B14CF2F2430446C0F2A7
:1032600005239AE70024A3E7007C9249ABAAAA3F72
:1032700010B582B00DF1070144F6140000F03FF9DB
:1032800028B14CF6EF030446C0F205230FE09DF889
:10329000070000F03F0144F614008DF8071000F01D
:1032A00079F990B14CF283730446C0F205234CF2D5
:1032B0002A614CF29C72C0F20521C0F20522002066
:1032C000FFF742FE204602B010BD0024FAE710B519
:1032D00043F20800022100F05DF928B14CF28D5351
:1032E0000446C0F205230AE044F20220002100F067
:1032F00051F988B14CF2E2730446C0F205234CF256
:103300002A614CF25A72C0F20521C0F20522002057
:10331000FFF71AFE204610BD0024FBE710B544F26B
:1033200002200F2100F036F9044670B14CF22A61F8
:103330004CF232324CF22943C0F20521C0F2052290
:10334000C0F205230020FFF7FFFD204610BDD4D4B6
:1033500070B5A2B04CF66850C2F200200078A0B15F
:103360004CF66850C2F2002003F0ABFA68B14CF2A0
:103370002A614CF2C5224CF23B730446C0F205218F
:10338000C0F20522C0F2052352E04DF234016C4632
:10339000C0F205218822204604F0EAFC4CF676456E
:1033A0004CF67846C2F20025C2F200262888318801
:1033B000ADF804004CF66850ADF80610C2F20020DB
:1033C000214603F0A2F828B14CF299630446C0F2FA
:1033D000052325E0288840F21C31C2F20021032396
:1033E0003288888003EB40004FF6FC73CA80184097
:1033F000886050434CF67042C2F2002241F600331E
:10340000C6F63B030B6010604CF66850C2F2002019
:1034100003F0C7FA90B14CF232530446C0F20523D0
:103420004CF22A614CF2C522C0F20521C0F20522FD
:103430000020FFF789FD204622B070BD4CF66C409D
:103440000021C2F200200170017809B92FF005C0F7
:103450000024F0E70078032818BF70474CF66C4052
:103460000121C2F200200170704700F0CDB802289F
:1034700018BF704780B54CF6A8504DF24871C2F2A3
:103480000020C0F2052102F0CEF90120BDE8804005
:1034900004F04EB910B54CF6C0504DF26021C2F2A6
:1034A0000020C0F2052102F09FFA044670B14CF2F0
:1034B0002A614CF614024CF2D023C0F20521C0F26E
:1034C0000522C0F205230020FFF73EFD204610BD77
:1034D000B0B54CF67445C2F200252978884208BF81
:1034E000B0BD044600BF00BF2878012803D00A20E1
:1034F000012104F032F828788442F5D1B0BDF0B54E
:1035000081B04CF6744640BAADF80200C2F2002613
:103510004CF6C0500D46C2F200200DF1020102220D
:1035200001230027377002F0E3FA68B14CF22A61F8
:103530004CF25D124CF2C3130446C0F20521C0F2F6
:103540000522C0F205231AE00320FFF7C1FF4CF665
:10355000C0500122C2F2002000232946377002F039
:10356000C1FA90B14CF22A614CF25D124CF625037F
:103570000446C0F20521C0F20522C0F20523002056
:10358000FFF7E2FC204601B0F0BD0220FFF7A0FFEC
:103590000024F7E710B582B0020A8DF806004CF659
:1035A00074408DF80520C2F200208DF8071000212C
:1035B000032201704CF6C050C2F200200DF105014B
:1035C000002302F095FA044678B14CF22A614CF6D9
:1035D0008A024CF2C313C0F20521C0F20522C0F2E8
:1035E00005230020FFF7B0FC02E00320FFF770FF87
:1035F000204602B010BD28B14CF674410079C2F2E9
:10360000002108707047D4D4ADF5CA6D0020CDF804
:1036100044060DF2446003F094FF9DF847364CF6E3
:1036200007114CF200229DF845769DF84666C0F2DF
:103630000521C0F205220020CDE90067FFF784FCD8
:103640004CF62A310020C0F20521FFF77DFCFFF780
:1036500021FF4CF25C41C0F2052100F060FC0A2021
:103660004FF47A7103F079FFFFF7C8FC4CF2774111
:10367000C0F2052100F053FC4CF600704CF6764584
:10368000C0F205204CF67844C2F20025C2F20024B4
:1036900001894089298020800A204FF47A7103F043
:1036A0005CFFFFF755FE4CF20E41C0F2052100F021
:1036B00036FC0A204FF47A7103F04FFF49F60030D0
:1036C0004FF49611C6F6600004F04EFB45F600304C
:1036D0004FF49611C6F6730004F046FB41F6003035
:1036E0004FF49611C6F6860004F03EFB2E880320A8
:1036F000002E4BD02788002F48D04CF698444DF22E
:103700008C15C2F20024C0F20525842220462946E9
:1037100004F02EFB286DB5F84820C0F30B4C6FF376
:103720001F30B5F84A30504369890CFB03F2EB892E
:10373000B0FBF7F0A4F848000133B2FBF6F001311A
:10374000A4F84A00206D47EA06457340626800F01D
:10375000F02025F0F02579402844206541EA030057
:1037600022F08061000418BF01F180614CF67C4CAE
:1037700061604DF21021C2F2002CC0F205216246B8
:1037800091E8E900E9C20020CCF814404CF2515114
:10379000C0F2052100F0C3FB0A204FF47A7103F058
:1037A000DCFEFFF7BBFD002800F06A834CF26823C3
:1037B0000446C0F205234CF22A614CF29722C0F273
:1037C0000521C0F205220020FFF7BEFB4CF2BC71C0
:1037D0002046C0F2052100F0A2FB0A204FF47A71C6
:1037E00003F0BBFE40F24000C2F20020FFF7BCFB3A
:1037F0004CF2D961C0F2052100F091FB4CF26B5103
:103800000020C0F205214FF0000BFFF79DFB0A20BE
:103810004FF47A7103F0A1FE40F204304DF214012E
:10382000C2F20020C0F2052101F0DEF94CF2944111
:10383000C0F2052100F073FB0A204FF47A7103F007
:103840008CFE4CF66C444CF6944541F60039C2F2BD
:103850000024C2F20025C6F63B099FEDB4AA9FEDF5
:10386000B4BAB6EE008A9FEDB39A9FEDB3CA9FED4E
:10387000B3DA9FEDB3EA4FF0020800BF00BF00BF0C
:1038800084F800B000BF00BF207808B92FF005C051
:103890002968002900F0E0824FF49612484604F0AF
:1038A00067FAFDF703FFD5F800C0002500BF00BF91
:1038B0004FF49651002705FB01F34FF60001C0F2CB
:1038C0001F0106460B404FF4807141F001E0634454
:1038D000C7F3092407F5167703EB440494F8A811FD
:1038E00094F8A941CA0800EE102A04F01F0201EE64
:1038F000102A44EA0121B8EE411AC1F3451102EE43
:10390000101AB8EE400A06F50022B8EE422A06F573
:10391000802121EE0A1A20EE0A0A22EE0B2A82EDFD
:10392000000AA6EC011A81ED002A0FF02FC801351C
:1039300000F58060B5F5807FBAD10020FDF7C5FEA7
:10394000FDF7B9FE0746FDF7BBFE4CF6107211AE4F
:10395000044610213846C0F20522B0EE480A33462C
:103960004025CDE9005B00F033FB4CF628720821BE
:10397000CDE900502046C0F20522B0EE480A334699
:1039800000F026FB01463046B0EE490A00F01CFD6F
:1039900001280390C0F25882002100BF00BF00BF81
:1039A00001EB4100049111A901EBC00340F22B315E
:1039B00093ED000A93ED021A20EE0C0A93ED012A12
:1039C00021EE0C1A93ED033A22EE0C2A93F814C060
:1039D00020EE0D0A21EE0D1A23EE0C3ABDEEC00AC0
:1039E000BDEEC11A10EE100A22EE0D2A069023EE4B
:1039F0000D0A00F1D40211EE100A0792BDEEC22AA0
:103A0000884250EAB18A4CF66070BDEEC00AC0F23E
:103A1000052022EAE27112EE105A40F2572230F8E5
:103A20001C7010EE100A0AF1D40693ED040A9042BD
:103A300050EAB280B14225EAE57317DC079ADC024E
:103A4000B24252EAC686C20204EB410402EB4102D2
:103A50004C4426EAE676761A06F1010E09EB0206D8
:103A600024F8027B26F8027B0FF007C083421BDCA0
:103A7000854255EAC080DA0202EB4A0620EAE0708D
:103A8000C01A09EB060300F1010E02EB410103F538
:103A9000D470494400BF00BF0F80078000F500606C
:103AA00001F500610FF009C0B0EE481A4DF20401B3
:103AB000A0EE0E1AC0F2052109AC4CF2443251F8C6
:103AC0002C302021C0F20522BCEEC10A10EE100AF3
:103AD0000090204604F06AFA0220112DC8BF6FF052
:103AE000110028440890204604F052F9069EB6F5CD
:103AF0004B7FDCBF0899B1F5167F40F35D819DF8DF
:103B00002400002800F0508109AA00BF00BF00BFB8
:103B10000692A0F130024CF66871492AC0F20521E4
:103B200000F25F800FF21C00D0E812F00821043D83
:103B30002108823C6666E63E000016440000803B99
:103B40000000C8425600A9009F00AE00B300C700A5
:103B5000A4009000B800D100D600F600F600F600F0
:103B6000F600F600F600F600BD00DB009500F6005A
:103B7000F600F600F600F600F600F600F600F60095
:103B8000F600F6009A00F600F600F600F600F600E1
:103B9000F600F600F600F600F600F600F600F60075
:103BA000F600F600F6007700F6007C008100EA00DF
:103BB000F600F600F6008600F6006D00CC00F60078
:103BC0008B00E000C200F600EF00E5006800630033
:103BD000F600F600F60072004CF67771C0F205218F
:103BE0009AE0202840F098804CF66D71C0F20521D3
:103BF00092E04CF6F971C0F205218DE04CF6F471BB
:103C0000C0F2052188E04CF69A01C0F2052183E05C
:103C10004CF6FE71C0F205217EE04CF6BD71C0F29B
:103C2000052179E04CF6C271C0F2052174E04CF632
:103C3000C771C0F205216FE04CF6D171C0F20521C9
:103C40006AE04CF6DB71C0F2052165E04CF69A7132
:103C5000C0F2052160E04CF6B371C0F205215BE0D3
:103C60004CF6B871C0F2052156E04CF68171C0F2F5
:103C7000052151E04CF69571C0F205214CE04CF65F
:103C80007C71C0F2052147E04CF68671C0F2052137
:103C900042E04CF68B71C0F205213DE04CF69F717D
:103CA000C0F2052138E04CF6A971C0F2052133E0DD
:103CB0004CF6E571C0F205212EE04CF69071C0F291
:103CC000052129E04CF6D671C0F2052124E04CF61E
:103CD000A471C0F205211FE04CF67271C0F20521FB
:103CE0001AE04CF6AE71C0F2052115E04CF6E07119
:103CF000C0F2052110E04CF6EF71C0F205210BE097
:103D00004CF6CC71C0F2052106E04CF6EA71C0F227
:103D1000052100BF00BF00BF08794FF0000A8DF8F1
:103D20004C060868CDF848060DF5C96010F80A2061
:103D3000079800EB4A03002022FA00F1C90722D0BD
:103D40000899012401EB4006002100BF00BF00BF1D
:103D50003144CD084A2D10D848F001E009EBC12CC0
:103D6000002100BF00BF00BF1944BBEB912F08BF6B
:103D70002CF8117001210FF009C8E1074FF0010183
:103D80004FF00004E4D101300728D5D10AF1010A2F
:103D9000BAF1050FC8D1069A07990C31079112F8AC
:103DA000010F08B12FF04DC10499039801318142F0
:103DB0007FF4F6AD48E000BF00EB4000089901F148
:103DC0000F0206EB800000F1D60151EA02003FF538
:103DD00096AE40F2572308980128D8BF01209A4296
:103DE00052EAB385421EAA423FF789AE40F2FF3342
:103DF00006F1D302861E994251EAB38C22EAE27A96
:103E0000C202CDF818C0E2455AEACC8102EB4A0260
:103E1000A1EB0A0108EB4101059109EB0201A1F5B3
:103E2000006400BF00BF00BFE24505DC20460599E5
:103E300003F09AFFDDF818C0013604F50064AE42C5
:103E4000F2DB5CE600BF00BF4CF66C444CF69445D8
:103E5000C2F20024C2F200254CF668500022C2F2E1
:103E60000020494602F0B4FD40F2EE3188423FF4B2
:103E700007AD4CF64C01C0F2052100F050F8FFE40C
:103E80004CF69450C2F20020006868B14CF6945091
:103E9000C2F2002001F08BF830B14CF2B23304468C
:103EA000C0F20523FFF787BC43F208004221FFF769
:103EB00071FB30B14CF26C130446C0F20523FFF7DE
:103EC0007ABC4CF694504CF67C41C2F20020C2F20F
:103ED000002100F0C2FF30B14CF6D9630446C0F2B5
:103EE0000523FFF768BC4CF694500021C2F2002075
:103EF00001F0C5F830B14CF2F7230446C0F20523B7
:103F0000FFF759BCFFF7E3F930B14CF2B763044651
:103F1000C0F20523FFF74FBC0024FFF757BC002871
:103F200046D010B504460020FFF70EF84CF694502A
:103F3000C2F200200068A8B14CF69450C2F20020F2
:103F400001F035F870B14CF22A614CF221224CF2AA
:103F50008133C0F20521C0F20522C0F20523002002
:103F6000FEF7F2FF4CF6C050C2F20020C068A8B1C4
:103F70004CF6C050C2F2002001F0C5FD70B14CF209
:103F80002A614CF221224CF2B953C0F20521C0F251
:103F90000522C0F205230020FEF7D6FF4CF2AC410B
:103FA0000020C0F205212246FEF7CEFF00BE10BD64
:103FB00070470168012909D1017A890658BF704705
:103FC0004CF69441C068C2F2002108607047704707
:103FD0002DE9F04F81B02DED108B94B02F9ECDE9DF
:103FE0000220002E4FF0000000F1E2810B902E988D
:103FF0000128A4BF88460129C0F2DB81039800286C
:1040000000F0D7810298002800F0D3811C46002BD5
:1040100000F0CF8108FB08F5B0EE408A00EE108A70
:104020002E9BB8EE400A9FEDE6AA05EB8500039AA9
:104030008AEE00BA9E4256EA338102EB800C0B9165
:1040400005EBC501B3EE00CA4FEA8509BBEE00DA05
:104050000026B7EE00EADFEDDBBAB2EE04FA880024
:10406000FAEE048A0090F6EE00AA4FEA8800069065
:10407000019504F128000A90581E099000BF00BF66
:1040800006EBC600019D00FB05F1DDF80CE0821C8B
:10409000C31C6A4304960EEB81011291411C04304B
:1040A0006943CDF814C06B43684365460EEB81014C
:1040B00011910EEB820110910EEB83010F910EEB2B
:1040C00080000E900298002100EBC6000C9000BF0B
:1040D00001FB08F000EE101A4FF0000B139008914E
:1040E000B8EE400A8DED0D0A079500BF00BF00BF76
:1040F00013980E995844119A109B01EB800102EB22
:10410000800291ED000A1299B4EE4C0A01EB800195
:10411000F1EE10FAB1EE401AD1ED00FAB4EE40DA49
:104120000F993DFE011A03EB8003F1EE10FA01EB4B
:104130008000D2ED00EAD3ED00DA3CFE010AD0EDBA
:1041400000CA05F01FFAB0EE409A0026AA460027E2
:10415000F0EE6B9A00BF00BF9AED000AB4EE4C0A75
:10416000F1EE10FAB1EE401AB4EE40DA3DFE011A5B
:10417000F1EE10FA3CFE010A05F004FA30EE0E0AE8
:10418000CA448EEE000AB4EE690AF1EE10FA57EA5C
:10419000C68607F1010770FE299A042FDCD139EE9B
:1041A0000E0A8EEE000A20EE299AB4EE489AF1EE3D
:1041B00010FA00F1E580F4EE4CFAF1EE10FAB1EEEF
:1041C0006F0AB4EE6FDA3DFE000AF1EE10FA3CFE23
:1041D000000A05F0D7F930EE0E0A01EE10BAF4EE3F
:1041E0004CEA8EEE000AB8EE411AF1EE10FA30EE0B
:1041F000010AB4EE6EDAB1EE6E1A3DFE011AF1EE6E
:1042000010FA6BEE00EA3CFE010A05F0BBF930EE55
:104210000E0A9DED0D1AF4EE4FDAF1EE10FA8EEE65
:10422000000AF4EE6D8A30EE010A3FFE2D1AF1EE1F
:1042300010FA6BEE00DA38FE810A05F0A3F9F4EE0D
:104240004FCA0C9FF1EE10FAF4EE6C8A97ED001A4B
:1042500060EE019A3FFE2C2AF1EE10FA38FE820A37
:1042600005F090F9B0EE6E1A97ED012AA9EEEA1A60
:1042700020EE023AB0EE6D2AE9EEAAEAB4EE4A1A4E
:10428000A3EE6A2AF1EE10FAB5EE401AE3EE2ADA4E
:104290003AFE010AF1EE10FAB4EE4A2A48BFB0EE37
:1042A0006B0AF1EE10FAB5EE402A3AFE021AF1EE70
:1042B00010FAF4EE4AEA48BFB0EE6B1AF1EE10FACB
:1042C000F5EE40EA3AFE2E2AF1EE10FAF4EE4ADA62
:1042D00048BFB0EE6B2AF1EE10FAF5EE40DA3AFE86
:1042E0002D3AF1EE10FAB4EE402A48BFB0EE6B3A28
:1042F000F1EE10FA44D9B4EE413AF1EE10FA3FD99A
:104300002E980B99814206DA01EB410001310B91A5
:1043100004EBC00027E0022819D30998012140F0DE
:1043200001E000200A9A00BF00EB400392ED004A32
:10433000183204EBC30393ED045AB4EE454AF1EE90
:1043400010FA51EA408001310FF013C000E0002064
:1043500000EB400004EBC00090ED044AB4EE449A38
:10436000F1EE10FA0CDD80ED000A80ED011A80ED0F
:10437000022A80ED033A80ED049A067500BF00BF63
:104380000BF1010B0435C3457FF4B2AE089901313E
:10439000DDE90605414505447FF49AAE049EDDF84B
:1043A00014C001360098032E84447FF469AE00E007
:1043B0000B900B9814B0BDEC108B01B0BDE8F08FE2
:1043C00000008043000000002DE9F04F89B0002874
:1043D0004FF0000800F0E6800129C0F2E380B7EE5C
:1043E000001AB4EE410AF1EE10FAB5EE400A31FEC1
:1043F000001A9FED6E0AF1EE10FA48BFB0EE401AB7
:104400000229009145D3009900F1280B8A1E013939
:104410004FF0000CCDE90112A1EB0C0EE2460CF1BD
:10442000010C5B466646554605EB450793ED002AB1
:10443000183300EBC70797ED043AB4EE432AF1EEC8
:1044400010FA56EAC58501360FF013C055451CD049
:104450000AEB4A0303AA05EB4507644600EBC30ECB
:10446000734600EBC70793E8621382E8621339468C
:10447000A446B84691E8FC0003A98EE8FC0091E848
:10448000FC0088E8FC00DDE9011292450BF1180BF5
:10449000C2D100F10C0C4FF000094FF00008DDF81C
:1044A00000B000BF00BF00BFB8F1010F09EB490E1B
:1044B00067DB00EBCE0466464746257D00BF00BFA4
:1044C000317A8D4259D194ED002A16ED033AB4EEBB
:1044D000432A94ED014AF1EE10FA16ED025A94EDDA
:1044E000027AB4EE454A16ED016A72FE032AD4ED53
:1044F000030AF1EE10FAB4EE476AD6ED001A74FE24
:10450000053AF1EE10FAF4EE601A77FE064AF1EE83
:1045100010FA74EEE22AF0EE404AF5EE402A70FE00
:10452000A15AF1EE10FA23D975EEE33AF0EE404AC3
:10453000F5EE403AF1EE10FA1AD937EE422A36EE8D
:10454000433A31EEC55A30EEC44A23EE053A02EE44
:10455000043A22EEA32AF0EE404A33EE423A82EECB
:10456000032AB5EE403AF1EE10FA88BFF0EE424A67
:10457000F4EE414AF1EE10FA0FDC013F06F11806A5
:104580009ED108EB480108F1010800EBCE0700EBD3
:10459000C10A97E87E008AE87E0009F10109D94541
:1045A0007FF482AF404609B0BDE8F08F0000000004
:1045B00080B5FEF75AFF002080BD704780E80E00EE
:1045C0008A6A0021B1EB127F07D180B500F008F8AC
:1045D00000285FEA1F91BDE8804008467047D4D4A8
:1045E00090E80E00002B5FEA0F93002A48F29F62CA
:1045F00008BF0233CB60C0F20102016800BF00BFF8
:104600004B681B0703D5002AA2F10102F8D14A68C2
:10461000120726D44A6A4368002B5FEA1F9312F000
:10462000020F5FEA1F9293421BD04A6A836802F02E
:104630000102002B5FEA1F93934212D00222CA614B
:10464000016845F25352CA6300220168C0F61F7226
:104650000A6401684A6401688A640068C2640020D0
:1046600000E0FF2040B27047F0B581B0069F092FEF
:104670003ADA1C460B461646054600214FF0FF323B
:104680001846FFF79AFF00293DD12968012F0861DC
:104690002868066211DB0026D4E900013246FFF7E4
:1046A0008CFF91B92968013F01EBC60106F10106B3
:1046B00004F10804C1F88000EED12868816801F097
:1046C0000C010131816001B0F0BD4CF22E204CF69E
:1046D0009F024CF2EB13C0F20520C0F20522C0F29B
:1046E0000523A42102F034FF4CF22E204CF69F0249
:1046F0004CF2CC43C0F20520C0F20522C0F20523E3
:10470000942102F025FF4CF22E204CF69F024CF62D
:104710007403C0F20520C0F20522C0F205239821DF
:1047200002F016FF704701688A6802F00C0202323C
:104730008A600068416849075CBF41685FEAC161FF
:1047400001D500207047416809065CBF41685FEAF7
:10475000C151F6D44068C0F340107047D0F800C093
:10476000012ADCF8080000F0040308BF0833022A1D
:1047700008BF00F00C0303F00800012908BF043053
:10478000022953EA00810020CCF80810704780B558
:104790000368986AD3F800E0814201D101200FE05C
:1047A000FF2380EA010CCFF200031CEA030F5FEA4B
:1047B0001F9311F0006F5FEA1F9141EAD06018402B
:1047C0008EEA02010023B3EB117F07D1C2F3075138
:1047D000CEF307528A4238BF002080BD002080BD42
:1047E0004CF60060C2F200207047002070470020A5
:1047F000704780B5012003F057FB08B1002101701C
:1048000080BDD4D4D4D4D4D40278014600BF00BF34
:1048100012B920BF0A78FBE70020013A0A707047FE
:1048200001780131017040BF002070477047704728
:10483000B0B50446407C012808BFB0BD2046022523
:104840002574FFF770FF002818BF00256574E06A23
:10485000BDE8B040FFF7E4BF2DE9F04381B04CF66E
:1048600004681E46C2F200280D460446D8F80070BF
:10487000002F174604D1FFF7B3FFC8F80000C8B3F4
:104880004CF60869C2F20029D9F8000020B9FFF7F8
:10489000B0FFC9F8000068B3DDE908230020C4E9CF
:1048A0000C702946C4E90E6040F20220A4F84100D1
:1048B0002046FFF783FEE8B1FFF79BFFE062C8B137
:1048C00004F110001C2103F04FFAD8F80000FFF7A4
:1048D0008CFF4CF60C60C2F2002001680460D8F82E
:1048E0000000E160FFF783FFD9F80000FFF798FFB1
:1048F000002001E04FF0FF3001B0BDE8F08310B5BB
:104900000446FFF76DFE10B14FF0FF3010BDE06BB5
:1049100000285FEA1F9120460A46FFF71FFF00208C
:1049200010BD10B50446C06B002800F10100E06323
:1049300001D0002010BD2046FFF7E1FF0028F8D08D
:10494000E06B0138E0634FF0FF3010BDD4D4D4D415
:10495000F0B581B00446054614F8100F00284ED07B
:10496000022803D0012847D1002953D0686A0128C2
:1049700013DB0026002700BF95F84210F940C90755
:1049800007D0D5E90701805951F8271000F018FA2F
:10499000686A013708368742EEDBE86A4FF0FF327B
:1049A0004FF0FF33FFF730FF00280CD5012068746B
:1049B000297C022907D168744FF0FF32E86A4FF072
:1049C000FF33FFF721FFA96A2846FFF730FFE86BA6
:1049D00038B10138E86304D1012101222846FFF7EC
:1049E000BDFE687C70B1687C022802D12846FFF7C2
:1049F00099FE2846FFF783FF4FF0FF3503E06FF085
:104A0000010504E000251C21204603F0ADF92846ED
:104A100001B0F0BD0125FAE72DE9F04F83B0002980
:104A200000F09B80002B00F0A88004460C98002822
:104A300000F0B380254615F8107F17BB00262674BA
:104A400004F11406DDE90DEC20620EC69607C4E9F8
:104A500009EC12D144F643770E68C3F25017BE42F8
:104A60000BD1BEF1030F13DBD4E90C7C57EA0C0623
:104A70000ED0A66B8068B04208D91C21284603F0EE
:104A800073F94FF0FF3003B0BDE8F08FC3E9047C49
:104A900002EB01080F1D47455DD23878052858D034
:104AA00002280AD00128E8D1D7E901122046FFF7F1
:104AB0006EFE0028E1D00C37EDE707F1040B5FEA4A
:104AC0000B70DAD178787E880290606A012824DB46
:104AD000E169024600BF00BF0B781B07CDD1013A48
:104AE00001F10801F8D14FF0000A4FF0000900BFB2
:104AF00094F8411021FA09F1C90708D0D4E9070157
:104B000050F80A0051F8291000F00AF9606A09F11A
:104B100001090AF1080A8145EADB2046FFF701FF97
:104B20000028AAD1029846EA0046012020742046B7
:104B3000A16A4FEA8609FFF779FEE369606A00908F
:104B4000204659464A46FFF78FFD07EB8600071DB2
:104B5000A1E704379FE7002095E74CF2EF504CF2B5
:104B600068624CF29A33C0F20520C0F20522C0F20E
:104B7000052340F2822102F0EBFC4CF2EF504CF2A4
:104B800068624CF2DD53C0F20520C0F20522C0F28B
:104B9000052340F2832102F0DBFC4CF2EF504CF293
:104BA00068624CF2D333C0F20520C0F20522C0F295
:104BB00005234FF4217102F0CBFC70B584B008AD31
:104BC000064631CD8DE831003046FFF725FF00283D
:104BD00006D40121304604B0BDE87040FFF7B8BEEE
:104BE0004FF0FF3004B070BDF0B583B0EFF3108626
:104BF000012282F3108843F20002C4F220020D4623
:104C000007461E201368012123F4803313601268C5
:104C100002F0A3FC86F310880021B8686E7BAC7BA1
:104C2000C4F21401006800220023CDE90064FFF7FC
:104C300013FE08B1032041E095F90C102A7A4EF2D8
:104C400000100029CEF200004FEA021203D44318EC
:104C500083F8002306E04EF6145601F00F03CEF25F
:104C600000069A554CF684620126C2F2002242F8F0
:104C700021704CF20032C4F2000252F8213023F4C9
:104C8000803342F8213052F821204A0901F01F01F7
:104C9000BFF35F8F00EB820306FA01F1C3F88011C6
:104CA00040F822100020D5E90012C7E9031044F2B1
:104CB00054517D60C5F24D217A61396003B0F0BD79
:104CC000B0B582B04FF07041EFF3038001EB0060AC
:104CD0004CF684628115C2F2002204165558A96868
:104CE0000868FFF7A5FDE96861B1286910B102689D
:104CF000019200E001A86A6902608847286908B14A
:104D0000019901604CF20030C4F2000050F8241008
:104D100021F4803140F8241050F8240002B0B0BDD6
:104D2000B0B5D8B10129B8BFB0BD00F01F02114421
:104D3000A1F1200202EAE272BFF34F8FD243114485
:104D4000012202EB511E4EF68051CEF2000100BF4F
:104D5000C1F8E80120300FF005C829E04EF6805078
:104D60000021CEF2000043F6E07C4160BFF34F8F9C
:104D70000268C2F34E31D308C2F3C902541C9A0729
:104D80004B0100BF00BF00BF03EA0C0544F001E087
:104D9000154400BF00BF00BFC0F8EC5105F140450D
:104DA0000FF007C00029A1F10101A3F12003EBD10D
:104DB000BFF34F8FBFF36F8FB0BDD4D4D4D4D4D44E
:104DC000B0B5D8B10129B8BFB0BD00F01F02114481
:104DD000A1F1200202EAE272BFF34F8FD2431144E5
:104DE000012202EB511E4EF68051CEF2000100BFAF
:104DF000C1F8F00120300FF005C829E04EF68050D0
:104E00000021CEF2000043F6E07C4160BFF34F8FFB
:104E10000268C2F34E31D308C2F3C902541C9A0788
:104E20004B0100BF00BF00BF03EA0C0544F001E0E6
:104E3000154400BF00BF00BFC0F8F45105F1404564
:104E40000FF007C00029A1F10101A3F12003EBD16C
:104E5000BFF34F8FBFF36F8FB0BDF0B581B0044685
:104E600041604E69EFF31087012080F3108843F210
:104E700008000D46C4F22000016821F400310160F1
:104E800000681E20012102F068FB47F2004187F311
:104E90001088C4F234014FF6FE72CFF6BF728868F4
:104EA00020F0020088607068104008603069086275
:104EB00070694862F06A88653089C86070890861E5
:104EC000B0894861F0898861308BC862F0690863F5
:104ED000306A4863706A8863306B086670680A6875
:104EE000400860F341020A60706BC1F80003B06BC8
:104EF000C1F80403F06BC1F80803306CC1F80C036F
:104F0000706DC1F82802B06DC1F82C02F06DC1F8C7
:104F10003002306EC1F83402706EC1F83802B06EE3
:104F2000C1F83C02F06EC1F84002306FC1F8440293
:104F3000706FC1F8480270680A68400E60F35962E9
:104F40000A6070680A68800B60F38F320A60F06C48
:104F5000C1F89000306DC1F8A40070680A68800E36
:104F600060F39A620A60706CC1F88000F06F0864A8
:104F7000B6F8802006F178008A6400212161D5E925
:104F80000312C4E90212214600F0B8F806F17A00D3
:104F9000214600F0B3F8316807C91268904720B97C
:104FA00044F64E11C5F25621216001B0F0BD70B536
:104FB00047F2004604464068C4F23406456930684A
:104FC000306820F001003060B06820F00200B0606E
:104FD0007068C00708BF706D286881680068C9687C
:104FE0008847306820F080603060286881680068F9
:104FF0004968884795F979104EF2801CCEF2000C72
:10500000012601F01F0349094FF0000EC4F800E02B
:1050100006FA03F34CF82130BFF34F8FBFF36F8FC5
:1050200095F9791095F97B304CF68464C2F200242E
:105030005A0944F821E003F01F0106FA01F14CF887
:105040002210BFF34F8FBFF36F8F95F97B1044F899
:1050500021E043F20801C4F22001EFF3108586F34A
:10506000108804460A681E2042F400320A6009686B
:10507000012102F072FA85F31088204670BD406865
:10508000406990F82820012A47F20042C4F2340215
:1050900002D1116351639163116841F48001116081
:1050A0001168C1F380511168C1F380511168C1F3D7
:1050B00080511168C1F380511168C1F380511168AA
:1050C000C1F380511168C1F380511168C1F380515F
:1050D0001168C1F380511168C1F38051816CC2F82D
:1050E0008410116841F001011160916841F00201E2
:1050F00091600068816800688968084780B590F908
:10510000012003784EF2001C002ACEF2000C4FEA78
:10511000031304D40CEB020080F8003307E04EF6D2
:10512000145002F00F0ECEF200000EF800304CF6D4
:1051300084600123C2F2002040F822104CF20030BB
:10514000C4F2000050F8221021F4803140F82210FF
:1051500050F82200500902F01F02BFF35F8F0CEBE2
:10516000800103FA02F2C1F880214CF8202080BDB2
:10517000012000F000B82DE9F0418AB04FF07042F4
:10518000EFF3038102EB016147F2044C4CF68464B7
:105190008B15C4F2340CC2F20024091654F80380B3
:1051A000DCF80020DCF840308DE80D0098064FF068
:1051B000000003900FD5DCF80000C04310F0180F7A
:1051C00001D1002006E0DCF80000C0F3C1400CEB88
:1051D0008000C06A039043F08022D8F80C0004904D
:1051E00042F00100CCF840004CF20030C4F2000064
:1051F00050F8212022F4803240F8212050F821007C
:10520000D8F81000694658B103460DF1140C93E824
:10521000F4008CE8F400024691E8F800F8C200E0DF
:105220000846D8F808108847D8F8100018B105A922
:1052300091E8EC00ECC00AB0BDE8F081D4D4D4D43D
:10524000F0B546F6004391F80CC0C4F234039A6CF2
:1052500022F0010262444EF2200CC4F2010C9A6466
:10526000DCF80020BCF80440844644EA123E5FEAC1
:105270000E70C2F3033E04F00F0009D44CF6D46262
:10528000C2F20022126802FA00F020FA0EF01BE0CF
:1052900000F00704032505FA04F40126170B08287B
:1052A00038BF06FA00F407F007004CF6D467C2F2E4
:1052B000002705FA00F012043D6805FB04F258BF10
:1052C00006FA0EF0B2FBF0F04DF683621F68C4F2EE
:1052D0001B32A0FB02024FF0FF3000EB92403A0A73
:1052E00062F31F201860186940F00100186100BFC8
:1052F000D869C007FCD0087B012810D10868586025
:105300000879DA6860F30402DA60986820F0010036
:10531000986000BF00BF00BFD869C005FCD5886891
:1053200002686FF3DF425A6242689A628268DA6208
:10533000C2681A6302695A63007D44F6501298638A
:10534000C4F65052186A40F0010018620020CCE9FF
:105350000021F0BD46F60842C4F23402916921F002
:1053600001019161116841F00101116093680146EA
:1053700023F001009060002000220A607047D4D41E
:1053800070B504464160EFF31086012080F3108869
:1053900043F20800C4F220000D46016821F40031F8
:1053A000016000681E20012102F0D7F886F3108802
:1053B000296807C9126890470646002858D147F265
:1053C0001001C4F23401C86820F00100C86000BFB9
:1053D000C869C007FCD168680860A8688860286947
:1053E000086368694863D5E90602C1E91402E86800
:1053F000C1F87002E86A8866286B8867686BC1F834
:1054000088004FF0100E05F1380001F1F80200BFDE
:1054100050F8043B42F8103B0FF007C0AA6FC1F8E8
:10542000F821EA6FC1F87C2205F1200000212161FA
:10543000D5E92012C4E90212214600F0CAF805F1AC
:105440002200214600F0C5F805F12400214600F0B5
:10545000C0F805F12600214600F0BBF805F1280050
:10546000214600F0B6F844F64310C4F650502060D0
:10547000304670BD2DE9F041804640684EF2801202
:1054800090F92110CEF200024D0901F01F03012115
:1054900001FA03F342F82530BFF34F8FBFF36F8F4C
:1054A00090F9236090F921404CF684630025C2F204
:1054B0000023770906F01F0643F8245001FA06F688
:1054C00042F82760BFF34F8FBFF36F8F90F92370BF
:1054D00090F92560740943F8275006F01F0701FA78
:1054E00007F742F82470BFF34F8FBFF36F8F90F927
:1054F000257090F92760740943F8275006F01F07BC
:1055000001FA07F742F82470BFF34F8FBFF36F8F94
:1055100090F9277090F92960740943F8275006F034
:105520001F07B94042F82410BFF34F8FBFF36F8FAE
:1055300090F9291043F82150006881680068496893
:10554000884708B1BDE8F081C8F80050BDE8F08197
:1055500047F21C010020C4F234010A6842F0010243
:105560000A60704747F21C00C4F23400816D890361
:1055700001D401207047016821F001010160C16878
:1055800041F00101C1600020704747F28420C4F25D
:105590003400026812F47F4F07D0026942F0010222
:1055A0000261C0680860002070470D20704747F214
:1055B0007002C4F23402106810F4003F4FF0010092
:1055C00050EA009008700020516841F400315160A9
:1055D000704780B590F9012003784EF2001C002A34
:1055E000CEF2000C4FEA031304D40CEB020080F857
:1055F000003307E04EF6145002F00F0ECEF200001A
:105600000EF800304CF684600123C2F2002040F80E
:1056100022104CF20030C4F2000050F8221021F4A5
:10562000803140F8221050F82200500902F01F0289
:10563000BFF35F8F0CEB800103FA02F2C1F8802107
:105640004CF8202080BD70B588B04FF07041EFF36A
:10565000038001EB00604CF684618015C2F20021EA
:10566000EE460C584FF47F41ADF8001047F2700140
:10567000C4F234010A680192E368039302F4003231
:105680004A604CF20031C4F20001425822F48032E8
:1056900042504058206958B103460DF1100C93E870
:1056A00066008CE8660001469EE86C006CC100E074
:1056B0007046A1688847206918B104A991E86C0078
:1056C0006CC008B070BD2DE9F04389B04FF0704157
:1056D000EFF3038001EB00604CF6846147F2500267
:1056E0008015C2F20021C4F234020C58D2F80090A6
:1056F000116BD2F8408021F08073536328F08073DF
:1057000053644CF20032C4F20002835823F4803315
:1057100083508058E06804905FEAC9704FF0010040
:105720008DF804001CD02069029101A94FF00002FD
:105730008DF8052058B103460DF1140C93E8E400F0
:105740008CE8E400024691E8E800E8C200E0084680
:10575000A1688847206918B105A991E8CC00CCC0A0
:105760005FEA89701CD5206901218DF8051001A917
:10577000CDF8088058B103460DF1140C93E8E4000D
:105780008CE8E400024691E8E800E8C200E0084640
:10579000A1688847206918B105A991E8CC00CCC060
:1057A00009B0BDE8F083F0B589B04FF07041EFF378
:1057B000038001EB00604CF684618015C2F2002189
:1057C0000F5847F25001C4F23401096802218DF8E4
:1057D0000410F96804914CF20031C4F200014258FF
:1057E00022F4803242504058FF208DF8050038697D
:1057F0000021029101A958B103460DF1140C93E860
:1058000074008CE87400024691E8780078C200E0E9
:105810000846B9688847386918B105A991E8CC00ED
:10582000CCC009B0F0BD80B545F25422C5F24F029C
:105830000260084600F004F8002080BDD4D4D4D41F
:1058400070B5044600F060F84CF6806CEFF3108100
:10585000C2F2002C012080F31088DCF8000038B977
:1058600040F614500022C4F2400002704022027040
:10587000DCF800000130CCF8000081F310882088AB
:1058800028B340F6000E0021C4F2400E00BF00BF56
:10589000606800EBC10250F831309288D8034FEABB
:1058A0001220D2B20BD50EEB801555F8226026F4EB
:1058B000803645F8226023F4803645F822600EEBEE
:1058C0008010013140F8223020888142E0D301204D
:1058D000EFF3108180F31088DCF8000020B1DCF8D1
:1058E00000000138CCF80000DCF8000038B940F6C0
:1058F00014500022C4F2400002708022027081F332
:10590000108870BDD4D4D4D42DE9F04F81B00446B2
:105910000088002865D04EF64C4B0025C4F2010BE0
:105920004FF0010A00BF00BF4DF2947642F24008EA
:105930000027C0F20526C4F2200800BF00BF00BF48
:10594000606836F8021B00EBC50082888A423FD1AE
:1059500000689BF8001000F0B8500AFA07F9B0F19F
:10596000807F09EA010017D158B9012001F09BFEA0
:105970009BF8000040EA09008BF80000012001F0CC
:105980006BFE98F90000002822D498F8000040F03F
:10599000800017E000BF00BF58B1012001F083FE76
:1059A0009BF8000020EA09008BF80000012001F0BC
:1059B00053FE98F90000B0F1FF3F09DC98F80000B1
:1059C00000F07F0088F80000C820012101F0C5FD2B
:1059D000013708F10208032FB2D120880135854232
:1059E000A2D301B0BDE8F08FF0B581B00C460978C4
:1059F00005464EF20000C4F2250043F2040700EB16
:105A000001202861A0686860207B2C602872E06912
:105A10006863206AE8630020A863C4F22007C5E930
:105A20000500C5E9070085F8290085F82A0085F8F2
:105A30002B0085F82C000120EFF3108680F31088EE
:105A40002178C1F109018840396821EA00003860F5
:105A500038681E20012101F080FD86F31088284659
:105A6000214600F0D1F8A06958B141684FF40022F6
:105A700009680A60D0E9011200681268904706467A
:105A800098B9606928B341684FF0006209680A60FC
:105A9000D0E90112006812689047D0B10646A069AB
:105AA00018B181680068096A88470120EFF3108502
:105AB00080F3108821783A68C1F1090188400121FA
:105AC0001043386038681E2001F047FD85F31088C8
:105AD00005E044F643100026C5F24920E860304650
