:020000040200F8
:1000000080C30022F16B0002D9690002FB6B000281
:10001000FB6B0002FB6B0002FB6B0002FB6B000240
:10002000000000000000000000000000FB6B000268
:10003000FB6B000200000000FB6B0002FB6B000288
:10004000435300021955000281560002695700020D
:10005000694500023F4A0002BF4A00029F4B00026E
:10006000B16000023361000287610002B940000202
:100070004D1F00024F1F0002511F0002531F0002BC
:100080003D500000AAAA3200FFFFFF0008304200E6
:100090000331130003310300003000000430FF007F
:1000A00002301C000630C3000E3045002E30080020
:1000B000343018001F500000004332001836000092
:1000C00012362900093752000C370300203840004F
:1000D000213801003036360031360E003236E2006B
:1000E000333612002136E0000437A00003375A00EF
:1000F00015377800173701000B37600005371A00F5
:10010000053902000639100001390A0031371200A2
:1001100000360800013633002D30600020365200D2
:100120001B3720001C475000133A4300183A0000C8
:10013000193AF800353613003636030034364000DD
:1001400022360100014002000440020005401A006E
:100150000150A30003350700003500000135FF0002
:10016000023500000A3500000B3520000F3A300040
:10017000103A28001B3A30001E3A2600113A60005F
:100180001F3A1400183A0000193A7C0006340000A7
:10019000003407000134700002340400033400000E
:1001A000043405000534C000805401008154080067
:1001B00082541400835428008454510085546500EF
:1001C0008654710087547D008854870089549100BB
:1001D0008A549A008B54AA008C54B8008D54CD00D8
:1001E0008E54DD008F54EA0090541D0080550600A7
:1001F0008355400084551000895510008A55000031
:100200008B55F800005823000158140002580F00C5
:1002100003580F00045812000558260006580C0019
:100220000758080008580500095805000A58080032
:100230000B580D000C5808000D5803000E58000014
:100240000F580000105803001158090012580700F9
:1002500013580300145800001558010016580300E5
:100260001758080018580D00195808001A580500AA
:100270001B5806001C5808001D580E001E58290067
:100280001F5817002058110021581100225815003E
:1002900023582800245846002558260026580800D0
:1002A0002758260028586400295826002A58240078
:1002B0002B5822002C5824002D5824002E580600BC
:1002C0002F58220030584000315842003258240044
:1002D000335826003458240035582200365822005E
:1002E0003758260038584400395824003A58260018
:1002F0003B5828003C5842003D58CE000050A70013
:1003000020384600213800001438310015383100FB
:100310000338040008380400093800000A380200D5
:100320000B3858000C4622003748100024380200D1
:100330000150A3003D50000041470000FFFFFF00B7
:1003400010C40E2200000000000000000003002284
:100350000000000000000000000000000000006835
:100360000004580200040000020000000000000029
:10037000000000000000000000FF0000000000007E
:100380000000080000000000000000000000000065
:100390000000100800000000000000000000000045
:0203A000010159
:1003B0002DE9F04385B018461546884601240821EA
:1003C000202220230C9E4FF0000C18278DE8D0002F
:1003D000CDF80CC04FF0080906F0D2FD082120220C
:1003E000202328460094CDF80C90CDE9016706F053
:1003F000C7FD0821202220231020039040468DE8CD
:10040000D00006F0BDFD05B0BDE8F0832DE9F04752
:1004100084B01E4690468946DDE90C071021102263
:1004200010234FF0000C40240125CDE900574FF078
:10043000100A0294CDF80CC006F0A2FD1021102283
:10044000102330460095CDF80CA0CDE9017406F0DC
:1004500097FD20200390102110221023484600957C
:10046000CDE9017406F08CFD1021102210233020FC
:1004700003904046CDE90057029406F081FD04B098
:10048000BDE8F0872DE9F04784B01E4690468946C6
:10049000DDE90C072021082208234FF0000C8024FE
:1004A0000125CDE900574FF0200A0294CDF80CC089
:1004B00006F066FD20210822082330460095CDF87D
:1004C0000CA0CDE9017406F05BFD402003902021D3
:1004D0000822082348460095CDE9017406F050FD36
:1004E000202108220823602003904046CDE90057D0
:1004F000029406F045FD04B0BDE8F0872DE9F04315
:1005000085B018461546884601244021042204235C
:100510000C9E4FF0000CC0278DE8D000CDF80CC029
:100520004FF0400906F02CFD402104220423284608
:100530000094CDF80C90CDE9016706F021FD402133
:10054000042204238020039040468DE8D00006F06A
:1005500017FD05B0BDE8F0832DE9F04784B099465A
:1005600016460846402104220423DDE90C874FF09B
:10057000000C4FF480740125CDE900574FF0400A7C
:100580000294CDF80CC006F0FBFC402104220423A9
:1005900030460095CDF80CA0CDE9017406F0F0FCD2
:1005A0008020039040210422042348460095CDE991
:1005B000017406F0E5FC402104220423C0200390CE
:1005C0004046CDE90057029406F0DAFC04B0BDE8DD
:1005D000F0872DE9F04385B018461546884601247A
:1005E0004021042204230C9E4FF0000CC0278DE80C
:1005F000D000CDF80CC04FF0400906F0C1FC4021FE
:100600000422042328460094CDF80C90CDE901671C
:1006100006F0B6FC402104220423802003904046CB
:100620008DE8D00006F0ACFC05B0BDE8F0832DE904
:10063000F04184B01D4610460C460127CDE90073F9
:100640008021082208234FF0000CC0260296CDF826
:100650000CC04FF0800806F093FC402108220823CC
:100660002046CDE90075CDE9026806F089FC04B0AA
:10067000BDE8F0812DE9F04385B01846154688465F
:1006800001242021082208230C9E4FF0000C602733
:100690008DE8D000CDF80CC04FF0200906F070FCBA
:1006A00020210822082328460094CDF80C90CDE99B
:1006B000016706F065FC20210822082340200390F2
:1006C00040468DE8D00006F05BFC05B0BDE8F08345
:1006D0002DE9F04184B01D4610460C460127CDE9B6
:1006E00000734021102210234FF0000C6026029668
:1006F000CDF80CC04FF0400806F042FC202110223B
:1007000010232046CDE90075CDE9026806F038FCDB
:1007100004B0BDE8F0812DE9F04385B018461546D8
:10072000884601241021102210230C9E4FF0000C4B
:1007300030278DE8D000CDF80CC04FF0100906F03E
:100740001FFC10211022102328460094CDF80C9095
:10075000CDE9016706F014FC10211022102320209F
:10076000039040468DE8D00006F00AFC05B0BDE8D5
:10077000F0832DE9F04184B01D4610460C46012758
:10078000CDE900732021082208234FF0000C6026D9
:100790000296CDF80CC04FF0200806F0F1FB402186
:1007A000082208232046CDE90075CDE9026806F04D
:1007B000E7FB04B0BDE8F0812DE9F04385B01846B1
:1007C0001546884601242021082208230C9E4FF05C
:1007D000000C60278DE8D000CDF80CC04FF0200948
:1007E00006F0CEFB20210822082328460094CDF8ED
:1007F0000C90CDE9016706F0C3FB202108220823F5
:100800004020039040468DE8D00006F0B9FB05B0CB
:10081000BDE8F0832DE9F04184B01D4610460C463A
:100820000127CDE900734021042204234FF0000C7E
:10083000C0260296CDF80CC04FF0400806F0A0FB91
:100840008021042204232046CDE90075CDE9026809
:1008500006F096FB04B0BDE8F0812DE9F04385B0C9
:1008600018461546884601244021042204230C9E84
:100870004FF0000CC0278DE8D000CDF80CC04FF031
:10088000400906F07DFB4021042204232846009401
:10089000CDF80C90CDE9016706F072FB40210422EF
:1008A00004238020039040468DE8D00006F068FBCA
:1008B00005B0BDE8F08370B58CB048F6182E0DF188
:1008C000200CC0F2002E63469EE8710071C30846FA
:1008D00048F6E4166FF07F034BF6C6244FF4A86188
:1008E000CDE9003104930423114662464FF0010E16
:1008F000C0F200260025C7F6EE74CDE90245CDE929
:10090000056E00F04DF80CB070BD2DE9F04184B0DB
:100910001D4610460C460127CDE900730121022235
:100920004FF4A8734FF0000C04260296CDF80CC0CB
:100930004FF0020806F040FB012102224FF4A87399
:100940002046CDE90075CDE9026806F035FB04B01C
:10095000BDE8F0812DE9F04184B01D4614460846FB
:100960000127CDE90073012104224FF4A8734FF051
:10097000000C05260296CDF80CC04FF0040806F0D6
:100980001BFB012101224FF4A8732046CDE900751D
:10099000CDE9026806F010FB04B0BDE8F081D4D4C4
:1009A0002DE9F04F03AF8DB089460446A7F124002E
:1009B00014219A469046D7F81CB006F00BFC07208D
:1009C000002500EB8B0047F838DC20F0070047F8E3
:1009D000285CADEB000647F82C5C47F8305CB54668
:1009E0004FEA8B01304606F0F5FB4846594606F0C3
:1009F000F1FB47F8345C82B0A7F13003A7F1340073
:100A000000905046D7E90B1200F07EF802B00028A3
:100A100000F0718047F83C9CA7F1240900BF00BF9B
:100A200082B00023504641464A46009500F0ACF89B
:100A300002B0834657F8343C82B0A7F130000090F2
:100A4000504641464A4600F09FF802B014F90B1098
:100A500056F82020114446F82010504641464A4698
:100A600000F0C2F808B12FF025C857F8340C012166
:100A700001281CDB80EF5100FC69A7F1300120F058
:100A800001E000BF00BF00BFB1EC043F98FC434F42
:100A900020EF54091FF009C051EC110BD7F828B012
:100AA00053EC102B484302FB03F1414302E0D7F81B
:100AB00028B0FC69012CD7E9080957F83C5C1ADB1F
:100AC000BA694FEAE07A01FB02F800BF00BF00BF3D
:100AD00056F8040BA0EB080082B03A6A5346CDF8F2
:100AE000009000F09FF802B05844013C00F307006A
:100AF00005F8010BECD157F838DCA7F10C04A5463A
:100B0000BDE8F08FD4D4D4D42DE9F043DDF81CE057
:100B10004FF0010C4FF00007CEF8007070B3012ABF
:100B20002CDB4FF000084FF0000900BF00BF00BFF2
:100B300051F82960002E48BF0644B6F1FF3F5FEA36
:100B4000DF9786425FEAA78CBCF1010F16D1B8F19E
:100B5000010F1F46444605DB57F8045BB54209D038
:100B6000013CF9D143F82860DEF8004004F10108A7
:100B7000CEF8008009F101099145D9D16046BDE860
:100B8000F083D4D4D4D4D4D42DE9F041012828DB87
:100B9000DDF818C040F001E0BCF1000F5FEA1F97DC
:100BA000012B5FEAAF960025002047EA060800BF48
:100BB000B8F1000F66461F4608D100BF00BF00BF56
:100BC00056F8044BA54207D0013FF9D151F8254012
:100BD00052F8256004FB006001350FF017C8BDE82E
:100BE000F0810020BDE8F08110B56FF0030303EB46
:100BF000800319441A4400BF034601280EDB106825
:100C000051F804E900F1010CBEEB0C0454EA009029
:100C1000E64542F80409A3F10100EDD0002B5FEA9C
:100C2000DF9010BD70B5C117A2FB0046DDF810C003
:100C300002FB0161CCF11E0E0025012252EA0DE5F6
:100C400003FB00111019CCF11F02694150EA2D215C
:100C500070BD49F650704DF69051C0F20020C2F2BE
:100C600002210068084470474CF2B030C2F2002004
:100C700070472DE9F04FB1B0044649F65C70C0F200
:100C800000204DF69051C2F2022149F654720068DC
:100C9000C0F200220844039049F6587049F6905675
:100CA000C0F20020C2F2042643F690554AF690594D
:100CB0000068C2F20525084402901068C2F20529B6
:100CC00001EB000A4EF6BC70C0F200204EF6B8717F
:100CD000C0F200214EF290580068C2F2052830445C
:100CE00008904EF6C0704FF69017C0F20020C2F286
:100CF000052741F290124AF6E0230068C2F206226C
:100D00003044079008684BF2D421304406904EF6E8
:100D1000B470C0F20121C0F20020C2F20E230068BC
:100D20003044049008684BF2E021C0F201212844CD
:100D3000269008684BF2DC2128440B904BF2E4200B
:100D4000C0F20121C0F20120006828440A9008681E
:100D500046F6A411284409904BF2D820C0F2032192
:100D6000C0F20120006828440590086846F6B011DA
:100D7000C0F2032148441B90086846F6A811484475
:100D80000E9046F6AC10C0F20321C0F203200068BA
:100D900048440D9008684FF2AC3148440C904FF233
:100DA000A430C0F20321C0F2032000684044129036
:100DB0004FF2A830C0F20320006840441190086848
:100DC00043F69C31404410904FF2B030C0F2052100
:100DD000C0F20320006840440F90086843F6983141
:100DE000C0F205213844159008684CF69421384427
:100DF000149043F69430C0F20521C0F2052000683B
:100E00003844139008684CF69821C0F2052110442C
:100E10002B90086844F2A4311044169044F2AC3090
:100E200044F29012C0F20620C2F20622C0F206215D
:100E300000681044199044F2A830C0F206200068FF
:100E400010441890086849F6EC511044179047F286
:100E5000247048F29012C0F20620C2F20622C0F2BC
:100E6000062100681044239047F22870C0F2062043
:100E7000006810441A90086849F6E8514EF2901242
:100E8000C0F20621C2F2062210441E9008684CF6F9
:100E9000445110441D9049F6E450C0F20621C0F2BE
:100EA0000620006810441C9008684CF6485146F231
:100EB0009012C0F20621C2F2072210442C9008685A
:100EC00043F2E41110441F9043F2EC104BF29012E5
:100ED000C0F20720C2F20722C0F2072100681044C6
:100EE000229043F2E810C0F20720006810442190DD
:100EF000086844F6EC311044209046F6C4304DF6B4
:100F00009012C0F20720C2F20722C0F20821006846
:100F100010442A9046F6C830C0F2072000681044FA
:100F20002490086844F6E83140F29012C0F208219B
:100F3000C2F208221044289008684AF24001104486
:100F4000279044F6E430C0F20A21C0F2082000687D
:100F50001044259008684AF23C0141F69012C0F214
:100F60000A21C2F208221044299008684AF6342166
:100F7000104430904AF26870C0F20A21C0F20A2090
:100F80004BF260520968C2F20E22006818442E909B
:100F90004AF26470C0F20A20006818442D9050187C
:100FA0002F90204600F011FA4CF64C2B4CF64020C6
:100FB000C2F2002BCDF800B0C2F20020DDE9022120
:100FC0005346FFF7F5F94EF6B0704FF4C042C0F249
:100FD000002059460068304406F000F9204600F031
:100FE00047FA42F6582642F64C20C2F201260499EE
:100FF000CDE90016C2F201200899DDE90632FFF7BB
:1010000005FA4BF2D0204FF48042C0F20120314665
:101010000068284406F0E2F8204600F081FA46F61F
:10102000642546F65820C2F201250599CDE9001540
:10103000C2F201200B99DDE90932FFF723FA46F6E7
:10104000A0104FF40052C0F2032029460068484423
:1010500006F0C4F8204600F0CBFA48F6702548F6B2
:101060006420C2F201250095C2F201200E99DDE94B
:101070000C32FFF743FA4FF2A0304FF44062C0F257
:10108000032029460068404406F0A8F8204600F0F6
:101090000FFB49F27C6549F27060C2F201250F999D
:1010A000CDE90015C2F201201299DDE91032FFF7F7
:1010B00053FA43F690304FF48052C0F2052029468F
:1010C0000068384406F08AF8204600F047FB4AF2F0
:1010D00088654AF27C60C2F201250095C2F20120C7
:1010E0001599DDE91332FFF774FA4CF6902041F2BE
:1010F0009011C0F20520C2F206214FF44062006850
:101100000844294606F06AF8204600F07AFB4BF2C4
:1011100094254BF28820C2F20125C2F201201B99CE
:10112000169A2B46FFF783FA44F2A03044F290114E
:10113000C0F20620C2F206214FF440520068084473
:10114000294606F04BF8204600F0B0FB4EF2A025F1
:101150004EF29420C2F201250095C2F201201999A5
:10116000DDE91732FFF786FA47F2207048F2901156
:10117000C0F20620C2F206214FF4C05200680844B3
:10118000294606F02BF8204600F0E5FB4FF6AC258B
:101190004FF6A020C2F20125C2F2012026991A9A28
:1011A0002B46FFF795FA49F6E0504EF29011C0F247
:1011B0000620C2F206214FF4C042006808442946C6
:1011C00006F00CF8204600F01BFC45F6B82545F665
:1011D000AC20C2F202250095C2F202201E99DDE980
:1011E0001C32FFF798FA4CF6405046F29011C0F2CC
:1011F0000620C2F207214FF44052006808442946F5
:1012000005F0ECFF204600F050FC48F6C42548F6F7
:10121000B820C2F20225C2F2022023991F9A2B465F
:10122000FFF7A7FA43F2E0104BF29011C0F207204B
:10123000C2F207214FF4C05200680844294605F065
:10124000CDFF204600F081FC4AF2D0254AF2C420AE
:10125000C2F202250095C2F202202299DDE9203275
:10126000FFF7AAFA46F6C0304DF69011C0F20720FB
:10127000C2F207214FF4C05200680844294605F025
:10128000ADFF204600F0B6FC4BF6DC254BF6D02037
:10129000C2F20225C2F202202B99249A2B46FFF7B4
:1012A000B9FA44F6E03040F29011C0F20820C2F2E0
:1012B00008214FF4406200680844294605F08EFF7B
:1012C000204600F0ECFC4CF2E8654CF2DC60C2F227
:1012D00002250095C2F20220DDE92721259BFFF7B8
:1012E000BCFA4AF2300041F69016C0F20A20C2F26F
:1012F00008264FF400522C990068304405F06EFF28
:101300004AF234004FF48052C0F20A202A99006851
:10131000304405F063FF4AF238004FF44062C0F2F7
:101320000A2029460068304405F058FF204600F0A6
:101330000FFD4DF2F4254DF2E820C2F20225C2F273
:10134000022029992A46FFF7B6FA4AF260704AF657
:10135000E021C0F20A20C2F20E214FF4A862006818
:101360000844294605F03AFF204600F05DFD4DF6A1
:1013700040054DF63400C2F20225C2F20220DDE93A
:101380002D212B46FFF7C1FA4AF630204BF260516F
:10139000C0F20A20C2F20E214FF4A862006808448D
:1013A000294605F01BFF204600F08CFD4DF68050CD
:1013B0004CF2B033C2F20220C2F20023DDE92F1258
:1013C00031B0BDE8F04FFFF7C5BAB0B598B048F6F8
:1013D000B4624DF69055C0F2002248F6C061002478
:1013E000C2F202250028C0F200210B940A91116874
:1013F0000391CDE90C544FF4E0314FF44040069096
:10140000CDE90E54CDE90411CDE9105407D04DF6C5
:1014100090504FF4C041C2F2022005F0DBFE05F50A
:101420000050CDE9140405F580404FF40051CDE99A
:10143000160448F62820C0F200200991CDE90711D2
:1014400048F63021026803A800904CF21040C2F226
:101450000E20C0F200210AABCDE912540725CDE9D8
:10146000015402F0A6FD01305FEA1FA018B0B0BD24
:10147000B0B59CB04AF2684249F69055C0F20022DD
:101480004AF270410024C2F204250028C0F2002173
:101490000D940C9111680491CDE90E544FF4204144
:1014A0004FF4C0400790CDE91054CDE90511CDE9C6
:1014B000125407D049F690504FF48041C2F20420F4
:1014C00005F088FE05F58051CDE9161449F66071E6
:1014D00005F50050C0F20021CDE9180405F5405093
:1014E0001A900A6804A800904CF2104049F67071F6
:1014F000C2F20E20C0F200210CAB81EF5002CDE908
:10150000145408251B948DED081FCDE9015402F0F9
:1015100050FD01305FEA1FA01CB0B0BDD4D4D4D4BC
:1015200070B59EB04FF2B0510024C0F20021CDE959
:101530000C144FF2A05143F69055C0F20021C2F2B4
:10154000052505F50056002809680391CDE90E54DC
:101550004FF4E0414FF480400690CDE91054CDE9BE
:101560000411CDE9126407D043F690504FF4804146
:10157000C2F2052005F02EFE05F52051CDE9181424
:101580004EF6C47116A0C0F200210CAB90ED001F06
:1015900005F54050CDE91A0405F560500A68CDE91B
:1015A0001C044FF400600B9003A800904CF2104014
:1015B0004EF6D071C2F20E20C0F200218DED071F51
:1015C000CDE91454CDE916640826CDE9016402F092
:1015D000F0FC01305FEA1FA01EB070BD00BF00BF6D
:1015E00000200000000800000008000000080000C3
:1015F00070B59CB04BF2B0710024C0F20121CDE96E
:101600000C144BF2A0714AF69055C0F20121C2F2BF
:10161000052505F58056002809680491CDE90E548A
:101620004FF460514FF400500790CDE91054CDE9CC
:101630000511CDE9126407D04AF690504FF4E051FD
:10164000C2F2052005F0C6FD4BF2E82114A0C0F25D
:1016500001210CAB90ED001F05F5A050CDE9180459
:1016600005F5C0501A900A6804A800904CF210408A
:101670004BF2F021C2F20E20C0F201218DED081FC5
:101680001B94CDE91454CDE916640826CDE9016414
:1016900002F08FFC01305FEA1FA01CB070BD00BFDC
:1016A000001000000004000000040000000400001E
:1016B000B0B59CB046F6F4324EF29055C0F203221B
:1016C00046F600410024C2F205250028C0F203219D
:1016D0000D940C9111680491CDE90E544FF4A05172
:1016E0004FF440600790CDE91054CDE90511CDE9E4
:1016F000125407D04EF290504FF48051C2F20520A0
:1017000005F068FD05F58061CDE9161446F6B411C3
:1017100005F50060C0F20321CDE9180405F540602D
:101720001A900A6804A800904CF2104046F6C011C6
:10173000C2F20E20C0F203210CAB80EF5402CDE9BF
:10174000145408251B948DED081FCDE9015402F0B7
:1017500030FC01305FEA1FA01CB0B0BDB0B598B03E
:101760004FF670024FF69015C0F203224FF680013B
:101770000024C2F205250028C0F203210B940A912F
:1017800011680391CDE90C544FF4C0514FF48050CF
:101790000690CDE90E54CDE90411CDE9105407D0DF
:1017A0004FF690104FF44061C2F2052005F012FD93
:1017B00005F58060CDE9140405F500604FF4806103
:1017C000CDE916044FF2B430C0F203200991CDE9FF
:1017D00007114FF2C031026803A800904CF210408C
:1017E000C2F20E20C0F203210AABCDE91254072544
:1017F000CDE9015402F0DDFB01305FEA1FA018B013
:10180000B0BDB0B596B043F6B0610025C0F2052179
:10181000CDE90A1543F6A86141F29014C0F2052102
:10182000C2F206240028CDE90C45096804914FF462
:101830004051CDE90E454FF440600790CDE90511C8
:1018400004F50061CDE910150AD04FF4006120467F
:1018500005F0C0FC04F580504FF4005105F0BAFCCF
:1018600043F6A0314FF40060C0F20521089004F562
:101870008050CDE914054FF4005009900A6804A87F
:1018800000904CF2104043F6B031C2F20E20C0F28C
:1018900005210AABCDE912450624CDE9014502F048
:1018A00088FB01305FEA1FA016B0B0BD70B598B0DC
:1018B0004CF610610026C0F20521CDE90A164CF65F
:1018C000046144F29014C0F20521C2F2062404F52A
:1018D0008055002809680391CDE90C464FF48041FA
:1018E0004FF440500690CDE90E46CDE90411CDE904
:1018F000105609D04FF40061204605F06BFC4FF400
:101900008051284605F066FC04F5C050CDE9140668
:101910004CF69C204FF40061C0F20520CDE9071180
:1019200009914CF6A021026803A800904CF21040E7
:10193000C2F20E20C0F205210AABCDE912560725EE
:10194000CDE91646CDE9015602F033FB01305FEADE
:101950001FA018B070BDB0B596B044F2A0610025CC
:10196000C0F20621CDE90A1544F2946148F29014C0
:10197000C0F20621C2F206240028CDE90C45096810
:1019800004914FF4C041CDE90E454FF4C05007908B
:10199000CDE9051104F58051CDE910150AD04FF4B9
:1019A0008051204605F016FC04F500504FF48041AC
:1019B00005F010FC44F2B0314FF48050C0F2062123
:1019C000089004F50050CDE914054FF480400990CB
:1019D0000A6804A800904CF2104044F2C031C2F2F0
:1019E0000E20C0F206210AABCDE912450624CDE94E
:1019F000014502F0DEFA01305FEA1FA016B0B0BD6B
:101A000070B598B047F670210026C0F20621CDE9E6
:101A10000A1647F66C214EF29014C0F20621C2F26B
:101A2000062404F50055002809680391CDE90C4609
:101A30004FF400414FF4C0400690CDE90E46CDE989
:101A40000411CDE9105609D04FF48051204605F01D
:101A5000C1FB4FF40051284605F0BCFB04F5405093
:101A6000CDE9140647F22C704FF48051C0F20620E5
:101A7000CDE90711099147F23071026803A800907F
:101A80004CF21040C2F20E20C0F206210AABCDE9A2
:101A900012560725CDE91646CDE9015602F089FA1E
:101AA00001305FEA1FA018B070BD70B596B049F65E
:101AB000D0710024C0F20621CDE90A1449F6C471A0
:101AC00046F29015C0F20621C2F2072505F5005630
:101AD000002809680491CDE90C544FF4A0414FF45B
:101AE00040500790CDE90E54CDE90511CDE91064C1
:101AF00007D046F290104FF42051C2F2072005F0B3
:101B000069FB49F6F0514FF40050C0F206210890ED
:101B10004FF4006009900A6804A800904CF210404D
:101B200049F60061C2F20E20C0F206210AABCDE9EF
:101B30001254CDE914640626CDE9016402F039FAA5
:101B400001305FEA1FA016B070BD70B598B04DF2BD
:101B5000C0010026C0F20621CDE90A164DF2B401FB
:101B60004BF29014C0F20621C2F2072404F580550E
:101B7000002809680391CDE90C464FF420514FF439
:101B8000C0500690CDE90E46CDE90411CDE91056BE
:101B900009D04FF40061204605F01CFB4FF4805142
:101BA000284605F017FB04F5C050CDE914064CF6A5
:101BB0004C504FF40061C0F20620CDE907110991A5
:101BC0004CF65051026803A800904CF21040C2F24B
:101BD0000E20C0F206210AABCDE912560725CDE949
:101BE0001646CDE9015602F0E4F901305FEA1FA084
:101BF00018B070BDB0B596B043F240410025C0F2B8
:101C00000721CDE90A1543F234414DF69014C0F294
:101C10000721C2F207240028CDE90C450968049188
:101C20004FF42051CDE90E454FF4C0500790CDE957
:101C3000051104F58051CDE910150AD04FF48051FB
:101C4000204605F0C7FA04F500504FF4806105F016
:101C5000C1FA43F2F0114FF48050C0F2072108900E
:101C600004F50050CDE914054FF4806009900A682E
:101C700004A800904CF2104043F20021C2F20E2062
:101C8000C0F207210AABCDE912450624CDE9014592
:101C900002F08FF901305FEA1FA016B0B0BDB0B5F9
:101CA00098B047F250010025C0F20721CDE90A158E
:101CB00047F24C0140F29014C0F20721C2F208240E
:101CC0000028CDE90C45096803914FF4C051CDE9D6
:101CD0000E454FF440600690CDE9041104F54061D3
:101CE000CDE910150AD004F5A0504FF4806105F03D
:101CF00071FA4FF40061204605F06CFA04F5A0502B
:101D0000CDE9140504F580604FF48061CDE9160536
:101D100046F6CC30C0F207200991CDE9071146F60E
:101D2000D031026803A800904CF21040C2F20E209D
:101D3000C0F207210AABCDE912450724CDE90145E0
:101D400002F037F901305FEA1FA018B0B0BDD4D45B
:101D5000B0B59CB030A146F2C042C0F2082241F6B4
:101D6000901491ED001F46F2D041C2F20824C0F257
:101D700008210C911168049141F250110025214471
:101D8000CDE9121504F5A8710028CDE9141543F228
:101D900050110D9511958DED051F21444FF44060B4
:101DA00010940990CDE90E45CDE916150BD04FF4EE
:101DB000A871204605F00EFA45F250504FF4A85194
:101DC000204405F007FA44F6F0314FF4A870C0F251
:101DD00008210A9045F250500CAB2044CDE91A0579
:101DE0004FF4A8500B900A6804A800904CF21040E1
:101DF00044F60041C2F20E20C0F208211995189451
:101E00000824CDE9014502F0D4F801305FEA1FA0B3
:101E10001CB0B0BD00BF00BF50910600509106003D
:101E20000020000000100000B0B596B04AF2102269
:101E30004AF6E025C0F20A224AF220210024C2F22A
:101E40000E250028C0F20A210B940A911168049112
:101E5000CDE90C544FF428614FF4A8600790CDE908
:101E60000E54CDE90511CDE9105405D005F5A86053
:101E70004FF4A86105F0AEF905F5FC61CDE9141445
:101E80004AF2440105F5A860C0F20A21CDE9120426
:101E90004FF42870089009900A6804A800904CF24A
:101EA00010404AF25001C2F20E20C0F20A210AABE1
:101EB0000625CDE9015402F07CF801305FEA1FA04D
:101EC00016B0B0BD70B592B04AF6E0010024C0F281
:101ED0000A21CDE908144AF6D4014BF26055C0F24C
:101EE0000A21C2F20E254FF4A86609680391CDE9D4
:101EF0000A540F940E95CDE90C540696CDE904666C
:101F000038B14BF260504FF4A861C2F20E2005F0D8
:101F100061F94AF26C704AF27071C0F20A20C0F2A4
:101F20000A2108ABCDE91054026803A800904CF2D6
:101F30001040C2F20E2007960526CDE9016402F09A
:101F400038F801305FEA1FA012B070BD70477047CB
:101F500070477047D4D4D4D410B54BF6A024A82130
:101F6000C2F20E24204605F035F90320206160619D
:101F70004AF6FF604BF64831C0F20A20A061C2F277
:101F80000E21E1614FF4006121620021A1626162D2
:101F9000E1624CF2483220664FF0100E4AF63820CB
:101FA000C2F20E226266C4F868E02167E1666167EA
:101FB000BFF35F8FC0F20A200F3000BF00BF00BF29
:101FC00010F8011904F8011B0FF007C0BFF35F8F71
:101FD00010BDD4D4D4D4D4D42DE9F04381B0144668
:101FE0000D468046C7684FF0000900BF00BF00BF24
:101FF000D8F81000FA43B84206D91044D8F80810AF
:1020000006E000BF00BF00BFD8F808101044084425
:10201000C91B884250EA31802946A04250EA3486E2
:10202000D8F804003844324605F0D8F8F019D8F84A
:102030000810411AA4EB060450EA1187B144354454
:10204000BFF35F8FC8F80C700CB12FF02FC8484653
:1020500001B0BDE8F0832DE9F04381B000EB400012
:102060004BF6A023C2F20E23144603EBC0038946AD
:1020700003F11805D86A022812D0012808D00028D8
:102080003ED1EE682869F143B04234D9084435E0C6
:10209000EE682969B1420BD9F0430144A8680BE00E
:1020A00028464946224601B0BDE8F043FFF794BFF9
:1020B000F243A86811440144A14251EA3484871BC9
:1020C00068683044BC4207D24946224605F086F88B
:1020D000BFF35F8F26440CE049463A4605F07EF890
:1020E000E61B686809EB0701324605F077F8BFF395
:1020F0005F8FEE6025E0AA6808441044A04201D238
:1021000000241EE0D5E901018F1B3044BC4208D2F7
:102110004946224605F062F8BFF35F8F06EB0408DC
:102120000DE049463A4605F059F8A4EB07086868FF
:1021300009EB0701424605F051F8BFF35F8FC5F880
:102140000C80204601B0BDE8F083F0B581B04BF6BD
:10215000A0231446C2F20E230D4606461B78532BCD
:1021600001D0FFF7F9FEEFF311874FF0200181F363
:102170001188304629462246FFF76DFF87F3118804
:1021800001B0F0BDD4D4D4D42DE9F04F9BB091462A
:102190000F46002406A916914021179100210590B1
:1021A0001A90CDE9181100BF17F8011B252907D097
:1021B000002900F06F8116A800F07BF9E5E000BF70
:1021C0004FF0000800BF00BF39782C2908DC232914
:1021D0000ED02B2918D104200FE000BF00BF00BF94
:1021E0002D2909D030290FD1022006E000BF00BF01
:1021F000082002E000BF00BF012048EA00080137C4
:10220000E2E700BF00BF00BFA1F13A0010F10A0FE2
:1022100002D2002012E000BF00200A4600BF00BF2B
:1022200017F8011F00EB8000A1F13A0302EB400018
:1022300013F10B0FA0F130000A46F1D82E290FD16F
:102240003A4612F8011F2A290DD1D9F80010023799
:102250000A1DC9F800200E6801211DE000BF00BF63
:102260000021002618E0A1F13A0313F10A0F02D26F
:10227000002100260FE0002612F8013F06EB86073A
:10228000A3F13A0601EB470116F10B0FA1F130065D
:102290001946F1D80121174617F8012B02F0FB036C
:1022A000682BF9D0632A0FDC252A2ED0582A24D097
:1022B000632A6AD1D9F80000011DC9F8001001781D
:1022C00079E700BF00BF00BFA2F17003082B1ED842
:1022D000DFE803F0055B5B615B4E5B5B1300D9F8E5
:1022E00000001022011DC9F8001001680823002019
:1022F0000826CDE9006016A845E0D9F800100A1DAF
:10230000C9F800200968102239E0252153E7642A22
:102310003BD1D9F800104CF6CD4C0A1DC9F800206D
:10232000D1F800E0CCF6CC4CCEF100017246BEF103
:10233000000F48BF0A460A2A03914FF0010107DB4C
:10234000A2FB0C35632A01F101014FEAD502F7D84F
:102350008E4256EA818B002840D0BEF1000F5FEA22
:102360005F9108F0040241EA9201A0EB010A37E014
:10237000D9F800100A1DC9F8002009680A22CDE921
:10238000000816A8334600F0B7F8199CB4F1FF3FD7
:102390003FF70AAF89E0D9F80000021DC9F8002014
:1023A00000684AF645420028C0F20A2250EA128527
:1023B0005FEA018800BF00BF2978002E5FEA18801D
:1023C0000029E2D00028E0D116A8013500F071F80C
:1023D000199C013EB4F1FF3FEEDC66E04FF0000ACD
:1023E0005FEA88750CD55EB9002CCED4BEF1000F23
:1023F00029D45FEA4870CDF810E02DD52B2125E0D7
:102400005FEAC870F0D1BAF1000FEDD0D345EBD23E
:102410000295CDF810E0AAF1010500BF00BF00BF92
:10242000202116A800F045F8199C002C3DD4681E08
:10243000A84202D2AB450546F2D300F1010ADDF80D
:1024400010E0029DD0E72D210398049016A800F01B
:1024500030F8199C002C28D4002D05D40A22CDE98F
:1024600000A816A804998DE708F001003043F5D1C3
:10247000BAF1000FF2D0AAF10105554538BFD34596
:10248000ECD2302116A800F014F8199CAA46002CB2
:10249000F1D50AE044B1189D25B106A905982A4650
:1024A000FFF753FE2C4400E0002420461BB0BDE89B
:1024B000F08F10B50446D0E90120431C934207D8A1
:1024C00022681154A360E06862680130E060184639
:1024D000904218BF10BD21682069FFF736FEA16841
:1024E000884202D10020A06010BD4FF0FF30E060B4
:1024F00010BDD4D4D4D4D4D42DE9F04F81B0154636
:102500000E4691421F468146DDF828B04FF001008B
:1025100007D3314600BF00BFB1FBF5F10130A9423E
:10252000FAD2874257EA808ABBF1000F0B991BD081
:1025300011F0010018D188074FF0200048BF30206B
:102540002021002F50EA0188BBF1000F0CD0DA45A2
:102550000AD248464146ABF1010BFFF7AAFFD9F872
:102560000C00B0F1FF3FEFDCD9F80C0000283CD4A0
:10257000012400BF00BF00BF022F01D3013F03E0D1
:10258000B6FBF4F0A84201D36C43F5E748F6E8182F
:10259000C0F2002800BF00BFB6FBF4F7484618F8A9
:1025A0000710FFF786FFD9F80C00002806D4B4FB0B
:1025B000F5F007FB1466A5420446EDD90B98C00759
:1025C00018BFBBF1000F0AD10FE020214846FFF7EA
:1025D00070FFD9F80C00A346B0F1FF3F05DDABF169
:1025E00001045C4538BFDA45EFD301B0BDE8F08F98
:1025F00082B080B582B0CDE9042304AA019201AA79
:10260000FFF7C2FD02B0BDE8804002B07047D4D4ED
:102610002DE9F04782B04AF64C484AF62679871CE5
:102620004AF6AA244FF6FF75C0F20A280DF1070AF0
:10263000C0F20A2900218DF8071000BF00BF00BFBB
:1026400037F8020CA0420FD0A84214D0397800F01D
:10265000F5FA90B937F8020C514600F0A4FA70B9B7
:1026600007E000BF00BF00BF38784FF47A7104F074
:1026700070F90437E4E700260FE0064601E006465D
:10268000C8464AF608714AF61A42C0F20A21C0F258
:102690000A2200204346FFF7ABFF304602B0BDE8F8
:1026A000F087D4D4F0B581B02DED048B0A204FF41F
:1026B0007A7104F04EF94CF2B0403C21C2F20E2087
:1026C000012202F017FC28B14BF29B130446C0F222
:1026D0000A23B6E04CF27055EFF31080C2F20E25DB
:1026E000012181F3108840F614542968C4F2400493
:1026F00019B9002121704021217029684FF6D04678
:1027000001312960CFF6FF7680F3108843F6FA771F
:102710000121CFF6FE77A05938400430A051EFF3E5
:10272000108081F31088296811B129680139296066
:10273000296819B9002121708021217080F3108847
:1027400014204FF47A7104F004F90121EFF31080A2
:1027500081F31088296819B9002121704021217066
:1027600029680131296080F310880121A05938407F
:1027700040F00500A051EFF3108081F31088296824
:1027800011B1296801392960296819B9002121701E
:102790008021217080F3108814204FF47A7104F0A6
:1027A000D8F840F24C00C2F20020FFF731FF28B108
:1027B0004AF6D6430446C0F20A2342E032204FF4E0
:1027C0007A7104F0C6F843F23500122100F036FAAF
:1027D00028B14AF6A3330446C0F20A2322E043F2AA
:1027E00036007B2100F02AFA28B14AF6FF2304467E
:1027F000C0F20A2316E043F23700082100F01EFA67
:1028000028B14AF6FC730446C0F20A230AE043F2F8
:102810000810122100F012FA18B34AF65A7304464F
:10282000C0F20A234AF608714BF24902C0F20A21AB
:10283000C0F20A220020FFF7DBFE4AF69523C0F221
:102840000A234AF608714AF68632C0F20A21C0F21B
:102850000A220020FFF7CCFE2046BDEC048B01B01D
:10286000F0BD4CF258304DF60001C2F20E20C0F21D
:10287000B8519FED270AB6EE008A0160B1EEC09A0A
:102880009FED240AB0EE481A09EE001A43F60C0038
:10289000BCEEC10A10EE105A290A00F0CFF9B8B9FF
:1028A000E9B243F60D0000F0C9F988B939EE080A1B
:1028B00043F60E00BCEEC00A10EE105A290A00F0D2
:1028C000BDF928B9E9B243F60F0000F0B7F9A0B19D
:1028D0004AF608714AF609624BF261030446C0F2F7
:1028E0000A21C0F20A22C0F20A230020FFF780FE6C
:1028F0004AF6DC73C0F20A23A3E700F00DF828B112
:102900004AF6D8530446C0F20A239AE70024A3E704
:10291000007C9249ABAAAA3F10B582B00DF1070125
:1029200044F6140000F03FF928B14BF2CD130446F1
:10293000C0F20A230FE09DF8070000F03F0144F6C3
:1029400014008DF8071000F079F990B14BF2610393
:102950000446C0F20A234AF608714BF27A02C0F22A
:102960000A21C0F20A220020FFF742FE204602B0F0
:1029700010BD0024FAE710B543F20800022100F070
:102980005DF928B14AF673630446C0F20A230AE0EF
:1029900044F20220002100F051F988B14BF2C0034B
:1029A0000446C0F20A234AF608714BF23802C0F21C
:1029B0000A21C0F20A220020FFF71AFE204610BDAD
:1029C0000024FBE710B544F202200F2100F036F995
:1029D000044670B14AF608714AF62D424AF60F5382
:1029E000C0F20A21C0F20A22C0F20A230020FFF737
:1029F000FFFD204610BDD4D470B5A2B04CF25840B3
:102A0000C2F20E200078A0B14CF25840C2F20E2063
:102A100003F053F968B14AF608714AF6C0324BF236
:102A200019030446C0F20A21C0F20A22C0F20A23A6
:102A300052E04BF6B0016C46C0F20A2188222046D3
:102A400004F0CCFB4CF266354CF26836C2F20E252F
:102A5000C2F20E2628883188ADF804004CF25840A6
:102A6000ADF80610C2F20E20214602F04AFF28B14E
:102A70004AF677730446C0F20A2325E0288840F21C
:102A80001C31C2F2002103233288888003EB40000E
:102A90004FF6FC73CA801840886050434CF2603295
:102AA000C2F20E2240F20003C6F600030B60106073
:102AB0004CF25840C2F20E2003F06FF990B14AF682
:102AC00018630446C0F20A234AF608714AF6C03277
:102AD000C0F20A21C0F20A220020FFF789FD204639
:102AE00022B070BD4CF25C300021C2F20E200170A9
:102AF000017809B92FF005C00024F0E70078032819
:102B000018BF70474CF25C300121C2F20E200170F8
:102B1000704700F0CDB8022818BF704780B54CF25E
:102B200098404BF65871C2F20E20C0F20A2102F012
:102B300076F80120BDE8804003F0F6BF10B54CF2F6
:102B4000B0404BF6E021C2F20E20C0F20A2102F0A2
:102B500047F9044670B14AF608714BF2F2024AF6A0
:102B6000CB33C0F20A21C0F20A22C0F20A230020AD
:102B7000FFF73EFD204610BDB0B54CF26435C2F201
:102B80000E252978884208BFB0BD044600BF00BFAB
:102B90002878012803D00A20012103F0DAFE2878E2
:102BA0008442F5D1B0BDF0B581B04CF2643640BA84
:102BB000ADF80200C2F20E264CF2B0400D46C2F251
:102BC0000E200DF10201022201230027377002F0CE
:102BD0008BF968B14AF608714AF658224AF6BE23C4
:102BE0000446C0F20A21C0F20A22C0F20A231AE007
:102BF0000320FFF7C1FF4CF2B0400122C2F20E20C9
:102C000000232946377002F069F990B14AF608713D
:102C10004AF658224BF203130446C0F20A21C0F2CE
:102C20000A22C0F20A230020FFF7E2FC204601B08E
:102C3000F0BD0220FFF7A0FF0024F7E710B582B037
:102C4000020A8DF806004CF264308DF80520C2F2BD
:102C50000E208DF807100021032201704CF2B040C5
:102C6000C2F20E200DF10501002302F03DF90446E9
:102C700078B14AF608714BF268124AF6BE23C0F2E8
:102C80000A21C0F20A22C0F20A230020FFF7B0FC9A
:102C900002E00320FFF770FF204602B010BD28B10C
:102CA0004CF264310079C2F20E2108707047D4D41E
:102CB000ADF5CB6D0020CDF84C060DF24C6003F065
:102CC0003CFE9DF84F364BF2E5114AF6FB229DF88B
:102CD0004D769DF84E66C0F20A21C0F20A2200200D
:102CE000CDE90067FFF784FC4BF208410020C0F2F9
:102CF0000A21FFF77DFCFFF721FF4AF64251C0F29F
:102D00000A2100F060FC0A204FF47A7103F021FEE2
:102D1000FFF7C8FC4AF65D51C0F20A2100F053FCEF
:102D20004BF2DE704CF26635C0F20A204CF2683489
:102D3000C2F20E25C2F20E2401894089298020802A
:102D40000A204FF47A7103F004FEFFF755FE4AF6AD
:102D5000FA41C0F20A2100F036FC0A204FF47A71E1
:102D600003F0F7FD48F200004FF49611C6F6250077
:102D700004F030FA44F200004FF49611C6F6380021
:102D800004F028FA40F200004FF49611C6F64B000A
:102D900004F020FA2E880320002E4BD02788002F25
:102DA00048D04CF288344BF60C25C2F20E24C0F207
:102DB0000A2584222046294604F010FA286DB5F829
:102DC0004820C0F30B4C6FF31F30B5F84A30504326
:102DD00069890CFB03F2EB89B0FBF7F0A4F848001B
:102DE0000133B2FBF6F00131A4F84A00206D47EA46
:102DF00006457340626800F0F02025F0F025794028
:102E00002844206541EA030022F08061000418BFD5
:102E100001F180614CF26C3C61604BF69021C2F292
:102E20000E2CC0F20A21624691E8E900E9C20020B6
:102E3000CCF814404AF63761C0F20A2100F0C3FB17
:102E40000A204FF47A7103F084FDFFF7BBFD0028E0
:102E500000F06A834AF663330446C0F20A234AF656
:102E600008714AF69232C0F20A21C0F20A2200200A
:102E7000FFF7BEFB4BF29A012046C0F20A2100F098
:102E8000A2FB0A204FF47A7103F063FD40F2400088
:102E9000C2F20020FFF7BCFB4AF6B771C0F20A216C
:102EA00000F091FB4AF651610020C0F20A214FF078
:102EB0000009FFF79DFB0A204FF47A7103F049FDEA
:102EC00040F204304BF69001C2F20020C0F20A2119
:102ED00001F086F84AF67A51C0F20A2100F073FB3D
:102EE0000A204FF47A7103F034FD4CF25C364CF258
:102EF0008437C2F20E26C2F20E279FEDB28A9FEDF2
:102F0000B29A9FEDB2AA9FEDB2BA9FEDB2CAB6EEE9
:102F100000DA4FF0020A4FF47845012200BF00BFEB
:102F200040F200004FF49611C6F6000002FB0104C7
:102F3000029204F5D4700490A4F50060039000BFE1
:102F400086F8009000BF00BF307808B92FF005C0A8
:102F50003968002900F0C4824FF49612204642F2EC
:102F6000091804F03BF9FDF774FE39680791821CDB
:102F700000214FF0800B00BF4FF4165008914843DA
:102F80004FF60001C0F21F014BF001E00840079925
:102F900008440A9000271046099200BF00BF00BFF6
:102FA000C7F3C9110A9A07F5167702EB410191F8A8
:102FB000A86191F8A9114FEAD60C41EA062201F066
:102FC0001F01C2F345124FEA0C23A3EBD60344F2D0
:102FD0000516C2EB022203FB08F3C1EB0121724389
:102FE00001FB08F18BEA934300F8023C8BEA125292
:102FF00000F8012C8BEA914100F8031B0FF031C05F
:103000000899099A013142F20918802902F5C07223
:10301000B2D10020FDF72DFEFDF726FE13AE4022B3
:103020003146B0EE480A00F027FB01463046B0EECC
:10303000490A00F0C5FB01280590C0F24982002131
:1030400001EB4100069113A940F22B3201EBC000C5
:1030500090ED000A90ED021A20EE0A0A90ED012A86
:1030600021EE0A1A90ED033A22EE0A2A20EE0B0A0C
:1030700021EE0B1A23EE0A3ABDEEC00A22EE0B2A0D
:10308000BDEEC11A10EE108A23EE0B0A11EE101AD3
:1030900008F1D403BDEEC22A0993BDEEC00A9142E5
:1030A00051EAB28C23EAE37112EE10BA40F25723D0
:1030B00010EE102A0CF1D40790ED040A9A4252EA5D
:1030C000B382B9422BEAEB7320DC099E4FEAC32E90
:1030D000BE4256EAC787D602CDF828C0C44606EBE2
:1030E000410827EAE7777F1A0EEB410601372644AD
:1030F00047F001E004EB0807E046DDF828C000BF18
:1031000026F8025B27F8025B0FF007C0934217DC3A
:1031100093455BEAC282DF0222EAE272D21A07EB2F
:103120004C0302F1010E07EB4102224404991944B9
:1031300015800D8001F5006102F500620FF009C0F5
:10314000B0EE4D1A007DA0EE0C1A4BF68C01C0F2C9
:103150000A210BAE51F820302021BCEEC10A3046C6
:1031600010EE102A00924AF63F42C0F20A2204F002
:103170004DF90220BBF1110FC8BF6FF01100584488
:103180000A90304604F03AF8B8F54B7FDCBF0A9954
:10319000B1F5167F40F358819DF82C00002800F00F
:1031A0004B810BAA00BF00BF0892A0F130024BF286
:1031B000EE71492AC0F20A2100F25D800FF2180078
:1031C000D0E812F0CDCCCC3E6666E63E0000164458
:1031D0000000003C0000C8425400A7009D00AC0065
:1031E000B100C500A2008E00B600CF00D400F200EE
:1031F000F200F200F200F200F200F200BB00D9008F
:103200009300F200F200F200F200F200F200F2008D
:10321000F200F200F200F2009800F200F200F20078
:10322000F200F200F200F200F200F200F200F2000E
:10323000F200F200F200F200F2007500F2007A00F3
:103240007F00E800F200F200F2008400F2006B0060
:10325000CA00F2008900DE00C000F200ED00E300C9
:1032600066006100F200F200F20070004BF2FD71A6
:10327000C0F20A2198E0202840F096804BF2F371CA
:10328000C0F20A2190E04BF67F01C0F20A218BE0E8
:103290004BF67A01C0F20A2186E04BF27811C0F2B7
:1032A0000A2181E04BF68401C0F20A217CE04BF652
:1032B0004301C0F20A2177E04BF64801C0F20A212F
:1032C00072E04BF64D01C0F20A216DE04BF657015A
:1032D000C0F20A2168E04BF66101C0F20A2163E006
:1032E0004BF62001C0F20A215EE04BF63901C0F234
:1032F0000A2159E04BF63E01C0F20A2154E04BF698
:103300000701C0F20A214FE04BF61B01C0F20A216F
:103310004AE04BF60201C0F20A2145E04BF60C01EF
:10332000C0F20A2140E04BF61101C0F20A213BE055
:103330004BF62501C0F20A2136E04BF62F01C0F210
:103340000A2131E04BF66B01C0F20A212CE04BF66A
:103350001601C0F20A2127E04BF65C01C0F20A21F7
:1033600022E04BF62A01C0F20A211DE04BF2F8716F
:10337000C0F20A2118E04BF63401C0F20A2113E032
:103380004BF66601C0F20A210EE04BF67501C0F261
:103390000A2109E04BF65201C0F20A2104E04BF683
:1033A0007001C0F20A2100BF08794FF000088DF8C3
:1033B00054060868CDF850060DF5CA6010F808B03C
:1033C000099800EB480300202BFA00F1C90722D02E
:1033D0000A99012601EB4007002100BF00BF00BF92
:1033E0003944CA084A2A10D84AF001E004EBC12C3B
:1033F000002100BF00BF00BF1944B9EB912F08BFE7
:103400002CF8115001210FF009C8F1074FF001010C
:103410004FF00006E4D101300728D5D108F10108AA
:10342000B8F1050FC8D1089A09990C31099112F821
:10343000010F08B12FF049C1069905980131814269
:103440007FF4FEAD44E000BF00EB40000A9901F1BB
:103450000F0208EB800000F1D60151EA02003FF5AF
:103460009BAE0A9B0120012B53EAC08040F25723F8
:103470009A4252EAB38C421E62453FF78DAE40F24B
:10348000FF3308F1D302871E994251EAB38E22EA34
:10349000E27B039ACDF820E0F3455BEACE81A1EB15
:1034A0000B010AEB41010791C10201EB4B015618D8
:1034B000F34507DC30460799E04603F08BFEDDF864
:1034C00020E0C446013706F500666745F0DB63E699
:1034D0004CF25C364CF28437C2F20E26C2F20E2752
:1034E00086F8009000BF00BF307808B92FF005C003
:1034F0004CF258400022C2F20E20214602F064FC39
:1035000040F2EE3188423FF41BAD48B14BF22A1134
:10351000C0F20A2100F057F812E500BF00BF00BF5B
:10352000029A82F00102FBE44CF28440C2F20E20C7
:10353000006868B14CF28440C2F20E2000F033FF04
:1035400030B14AF69E430446C0F20A23FFF787BC17
:1035500043F208004221FFF771FB30B14AF66723BE
:103560000446C0F20A23FFF77ABC4CF284404CF2C6
:103570006C31C2F20E20C2F20E2100F06AFE30B1B0
:103580004BF2B7730446C0F20A23FFF768BC4CF253
:1035900084400021C2F20E2000F06DFF30B14AF6E7
:1035A000F2330446C0F20A23FFF759BCFFF7E3F9F0
:1035B00030B14AF695730446C0F20A23FFF74FBCB8
:1035C0000024FFF757BC002846D010B50446002061
:1035D000FFF70EF84CF28440C2F20E200068A8B14A
:1035E0004CF28440C2F20E2000F0DDFE70B14AF6CB
:1035F00008714AF61C324AF66D43C0F20A21C0F245
:103600000A22C0F20A230020FEF7F2FF4CF2B0407B
:10361000C2F20E20C068A8B14CF2B040C2F20E2037
:1036200001F06DFC70B14AF608714AF61C324AF698
:103630009F63C0F20A21C0F20A22C0F20A230020CE
:10364000FEF7D6FF4AF692510020C0F20A21224628
:10365000FEF7CEFF00BE10BD70470168012909D1F9
:10366000017A890658BF70474CF28431C068C2F2B3
:103670000E2108607047704700284FF0000C00F0E2
:103680009980002900F09680012AC0F293802DE9EC
:10369000F04F81B02DED088B82B042F29B4BA2F12E
:1036A00001094FF0000884EF53269FED431A4FF0B5
:1036B0003A0AC3F60A4B80EF504000274FF0000C47
:1036C00001F12803019300BF07EB8703034493F93B
:1036D00004603A3606EE106AB8EEC66A26EE016A53
:1036E000B4EE406AF1EE10FA5AD493ED008F29EE51
:1036F0004A8FBBFF488639EE6B8E08FF528D39EE3C
:10370000031F33FE09AF39EECF1F35FE0B8FB4EE2A
:10371000489AF1EE10FA43D9F4EE689AF1EE10FAF5
:103720003ED9944508DA0CEB4C030CF1010401EB93
:10373000C3066346A44626E0022A18D349F001E0F6
:1037400000230125019E00BF03EB430496ED007AA0
:10375000183601EBC404D4ED040AB4EE607AF1EE3D
:1037600010FA55EA438301350FF013C000E000233F
:1037700003EB430601EBC60696ED047AB4EE476A06
:10378000F1EE10FA0CDD86ED009F86ED046A03EB86
:10379000430301EBC303C3F8148000BF00BF00BFA5
:1037A0000137B7F5A87F8FD102B0BDEC088B01B00F
:1037B000BDE8F04F604670479B240A3CD4D4D4D473
:1037C0002DE9F04F89B000284FF0000800F0E680A6
:1037D0000129C0F2E380B7EE001AB4EE410AF1EE1F
:1037E00010FAB5EE400A31FE001A9FED6E0AF1EEB6
:1037F00010FA48BFB0EE401A0229009145D3009953
:1038000000F1280B8A1E01394FF0000CCDE901129E
:10381000A1EB0C0EE2460CF1010C5B4666465546E8
:1038200005EB450793ED002A183300EBC70797ED2A
:10383000043AB4EE432AF1EE10FA56EAC585013691
:103840000FF013C055451CD00AEB4A0303AA05EB41
:103850004507644600EBC30E734600EBC70793E8C9
:10386000621382E862133946A446B84691E8FC0028
:1038700003A98EE8FC0091E8FC0088E8FC00DDE983
:10388000011292450BF1180BC2D100F10C0C4FF054
:1038900000094FF00008DDF800B000BF00BF00BF16
:1038A000B8F1010F09EB490E67DB00EBCE04664669
:1038B0004746257D00BF00BF317A8D4259D194ED36
:1038C000002A16ED033AB4EE432A94ED014AF1EED4
:1038D00010FA16ED025A94ED027AB4EE454A16ED4E
:1038E000016A72FE032AD4ED030AF1EE10FAB4EE77
:1038F000476AD6ED001A74FE053AF1EE10FAF4EEBE
:10390000601A77FE064AF1EE10FA74EEE22AF0EE43
:10391000404AF5EE402A70FEA15AF1EE10FA23D982
:1039200075EEE33AF0EE404AF5EE403AF1EE10FA69
:103930001AD937EE422A36EE433A31EEC55A30EE06
:10394000C44A23EE053A02EE043A22EEA32AF0EE30
:10395000404A33EE423A82EE032AB5EE403AF1EEA7
:1039600010FA88BFF0EE424AF4EE414AF1EE10FA46
:103970000FDC013F06F118069ED108EB480108F163
:10398000010800EBCE0700EBC10A97E87E008AE849
:103990007E0009F10109D9457FF482AF404609B0A4
:1039A000BDE8F08F0000000080B5FFF7B2F80020FE
:1039B00080BD704780E80E008A6A0021B1EB127F5B
:1039C00007D180B500F008F800285FEA1F91BDE834
:1039D000804008467047D4D490E80E00002B5FEA80
:1039E0000F93002A48F29F6208BF0233CB60C0F2F7
:1039F0000102016800BF00BF4B681B0703D5002A06
:103A0000A2F10102F8D14A68120726D44A6A436833
:103A1000002B5FEA1F9312F0020F5FEA1F9293429E
:103A20001BD04A6A836802F00102002B5FEA1F93F1
:103A3000934212D00222CA61016845F25352CA630E
:103A400000220168C0F61F720A6401684A640168B6
:103A50008A640068C264002000E0FF2040B2704722
:103A6000F0B581B0069F092F3ADA1C460B46164680
:103A7000054600214FF0FF321846FFF79AFF002954
:103A80003DD12968012F08612868066211DB0026F4
:103A9000D4E900013246FFF78CFF91B92968013F54
:103AA00001EBC60106F1010604F10804C1F880002B
:103AB000EED12868816801F00C010131816001B00C
:103AC000F0BD4AF629304BF27D124AF6E623C0F2E9
:103AD0000A20C0F20A22C0F20A23A42102F034FF15
:103AE0004AF629304BF27D124AF6B253C0F20A2050
:103AF000C0F20A22C0F20A23942102F025FF4AF6FE
:103B000029304BF27D124BF25213C0F20A20C0F260
:103B10000A22C0F20A23982102F016FF70470168BA
:103B20008A6802F00C0202328A6000684168490724
:103B30005CBF41685FEAC16101D500207047416800
:103B400009065CBF41685FEAC151F6D44068C0F322
:103B500040107047D0F800C0012ADCF8080000F0DF
:103B6000040308BF0833022A08BF00F00C0303F067
:103B70000800012908BF0430022953EA008100200F
:103B8000CCF80810704780B50368986AD3F800E055
:103B9000814201D101200FE0FF2380EA010CCFF226
:103BA00000031CEA030F5FEA1F9311F0006F5FEA46
:103BB0001F9141EAD06018408EEA02010023B3EB66
:103BC000117F07D1C2F30751CEF307528A4238BFA3
:103BD000002080BD002080BD4CF2F040C2F20E20DB
:103BE0007047002070470020704780B5012003F027
:103BF00091FB08B10021017080BDD4D4D4D4D4D4B9
:103C00000278014600BF00BF12B920BF0A78FBE767
:103C10000020013A0A70704701780131017040BFFD
:103C20000020704770477047B0B50446407C0128BB
:103C300008BFB0BD204602252574FFF770FF00289D
:103C400018BF00256574E06ABDE8B040FFF7E4BF27
:103C50002DE9F04381B04CF2F4481E46C2F20E2822
:103C60000D460446D8F80070002F174604D1FFF720
:103C7000B3FFC8F80000C8B34CF2F849C2F20E29ED
:103C8000D9F8000020B9FFF7B0FFC9F8000068B309
:103C9000DDE908230020C4E90C702946C4E90E6060
:103CA00040F20220A4F841002046FFF783FEE8B16D
:103CB000FFF79BFFE062C8B104F110001C2103F084
:103CC00089FAD8F80000FFF78CFF4CF2FC40C2F2F2
:103CD0000E2001680460D8F80000E160FFF783FF60
:103CE000D9F80000FFF798FF002001E04FF0FF3007
:103CF00001B0BDE8F08310B50446FFF76DFE10B1CA
:103D00004FF0FF3010BDE06B00285FEA1F912046A6
:103D10000A46FFF71FFF002010BD10B50446C06B18
:103D2000002800F10100E06301D0002010BD204612
:103D3000FFF7E1FF0028F8D0E06B0138E0634FF0B7
:103D4000FF3010BDD4D4D4D4F0B581B004460546BC
:103D500014F8100F00284ED0022803D0012847D1B4
:103D6000002953D0686A012813DB0026002700BF12
:103D700095F84210F940C90707D0D5E907018059E5
:103D800051F8271000F018FA686A013708368742A0
:103D9000EEDBE86A4FF0FF324FF0FF33FFF730FF02
:103DA00000280CD501206874297C022907D1687489
:103DB0004FF0FF32E86A4FF0FF33FFF721FFA96AA7
:103DC0002846FFF730FFE86B38B10138E86304D1CB
:103DD000012101222846FFF7BDFE687C70B1687C96
:103DE000022802D12846FFF799FE2846FFF783FFF5
:103DF0004FF0FF3503E06FF0010504E000251C21C2
:103E0000204603F0E7F9284601B0F0BD0125FAE7A6
:103E10002DE9F04F83B0002900F09B80002B00F0CB
:103E2000A88004460C98002800F0B380254615F8B9
:103E3000107F17BB0026267404F11406DDE90DEC93
:103E400020620EC69607C4E909EC12D144F6437706
:103E50000E68C3F25017BE420BD1BEF1030F13DB45
:103E6000D4E90C7C57EA0C060ED0A66B8068B042F1
:103E700008D91C21284603F0ADF94FF0FF3003B0FC
:103E8000BDE8F08FC3E9047C02EB01080F1D474534
:103E90005DD23878052858D002280AD00128E8D108
:103EA000D7E901122046FFF76EFE0028E1D00C375B
:103EB000EDE707F1040B5FEA0B70DAD178787E88C2
:103EC0000290606A012824DBE169024600BF00BF5E
:103ED0000B781B07CDD1013A01F10801F8D14FF061
:103EE000000A4FF0000900BF94F8411021FA09F1CF
:103EF000C90708D0D4E9070150F80A0051F8291081
:103F000000F00AF9606A09F101090AF1080A81451D
:103F1000EADB2046FFF701FF0028AAD1029846EA13
:103F20000046012020742046A16A4FEA8609FFF767
:103F300079FEE369606A0090204659464A46FFF7D9
:103F40008FFD07EB8600071DA1E704379FE70020E0
:103F500095E74AF6CD604AF646724AF68643C0F2C5
:103F60000A20C0F20A22C0F20A2340F2822102F0A3
:103F7000EBFC4AF6CD604AF646724AF6BB63C0F2E5
:103F80000A20C0F20A22C0F20A2340F2832102F082
:103F9000DBFC4AF6CD604AF646724AF6BF43C0F2F1
:103FA0000A20C0F20A22C0F20A234FF4217102F063
:103FB000CBFC70B584B008AD064631CD8DE831003C
:103FC0003046FFF725FF002806D40121304604B013
:103FD000BDE87040FFF7B8BE4FF0FF3004B070BDD1
:103FE000F0B583B0EFF31086012282F3108843F21C
:103FF0000002C4F220020D4607461E20136801216C
:1040000023F480331360126802F0A3FC86F3108857
:104010000021B8686E7BAC7BC4F2140100680022FA
:104020000023CDE90064FFF713FE08B1032041E04F
:1040300095F90C102A7A4EF200100029CEF20000F9
:104040004FEA021203D4431883F8002306E04EF629
:10405000145601F00F03CEF200069A554CF274523A
:104060000126C2F20E2242F821704CF20032C4F254
:10407000000252F8213023F4803342F8213052F804
:1040800021204A0901F01F01BFF35F8F00EB82037B
:1040900006FA01F1C3F8801140F822100020D5E99A
:1040A0000012C7E9031044F254517D60C5F24D215E
:1040B0007A61396003B0F0BDB0B582B04FF07041A5
:1040C000EFF3038001EB00604CF274528115C2F2F1
:1040D0000E2204165558A9680868FFF7A5FDE9687F
:1040E00061B1286910B10268019200E001A86A6913
:1040F00002608847286908B1019901604CF20030DC
:10410000C4F2000050F8241021F4803140F824104B
:1041100050F8240002B0B0BDB0B5D8B10129B8BF85
:10412000B0BD00F01F021144A1F1200202EAE272C8
:10413000BFF34F8FD2431144012202EB511E4EF6C2
:104140008051CEF2000100BFC1F8E80120300FF02D
:1041500005C829E04EF680500021CEF2000043F65B
:10416000E07C4160BFF34F8F0268C2F34E31D30849
:10417000C2F3C902541C9A074B0100BF00BF00BF25
:1041800003EA0C0544F001E0154400BF00BF00BF86
:10419000C0F8EC5105F140450FF007C00029A1F12E
:1041A0000101A3F12003EBD1BFF34F8FBFF36F8F5A
:1041B000B0BDD4D4D4D4D4D4B0B5D8B10129B8BF0B
:1041C000B0BD00F01F021144A1F1200202EAE27228
:1041D000BFF34F8FD2431144012202EB511E4EF622
:1041E0008051CEF2000100BFC1F8F00120300FF085
:1041F00005C829E04EF680500021CEF2000043F6BB
:10420000E07C4160BFF34F8F0268C2F34E31D308A8
:10421000C2F3C902541C9A074B0100BF00BF00BF84
:1042200003EA0C0544F001E0154400BF00BF00BFE5
:10423000C0F8F45105F140450FF007C00029A1F185
:104240000101A3F12003EBD1BFF34F8FBFF36F8FB9
:10425000B0BDF0B581B0044641604E69EFF3108700
:10426000012080F3108843F208000D46C4F22000BC
:10427000016821F40031016000681E20012102F074
:1042800068FB47F2004187F31088C4F234014FF60F
:10429000FE72CFF6BF72886820F0020088607068F6
:1042A000104008603069086270694862F06A886589
:1042B0003089C86070890861B0894861F089886177
:1042C000308BC862F0690863306A4863706A88633B
:1042D000306B086670680A68400860F341020A6043
:1042E000706BC1F80003B06BC1F80403F06BC1F848
:1042F0000803306CC1F80C03706DC1F82802B06D72
:10430000C1F82C02F06DC1F83002306EC1F83402F1
:10431000706EC1F83802B06EC1F83C02F06EC1F8A0
:104320004002306FC1F84402706FC1F848027068F3
:104330000A68400E60F359620A6070680A68800B70
:1043400060F38F320A60F06CC1F89000306DC1F8F4
:10435000A40070680A68800E60F39A620A60706C4C
:10436000C1F88000F06F0864B6F8802006F178008C
:104370008A6400212161D5E90312C4E902122146B1
:1043800000F0B8F806F17A00214600F0B3F8316881
:1043900007C91268904720B944F64E11C5F256215C
:1043A000216001B0F0BD70B547F200460446406898
:1043B000C4F2340645693068306820F0010030608E
:1043C000B06820F00200B0607068C00708BF706D70
:1043D000286881680068C9688847306820F0806074
:1043E00030602868816800684968884795F97910C5
:1043F0004EF2801CCEF2000C012601F01F03490989
:104400004FF0000EC4F800E006FA03F34CF8213038
:10441000BFF34F8FBFF36F8F95F9791095F97B300C
:104420004CF27454C2F20E245A0944F821E003F00D
:104430001F0106FA01F14CF82210BFF34F8FBFF3B2
:104440006F8F95F97B1044F821E043F20801C4F224
:104450002001EFF3108586F3108804460A681E20B9
:1044600042F400320A600968012102F072FA85F311
:104470001088204670BD4068406990F82820012AC5
:1044800047F20042C4F2340202D1116351639163D6
:10449000116841F4800111601168C1F38051116805
:1044A000C1F380511168C1F380511168C1F380518B
:1044B0001168C1F380511168C1F380511168C1F3D3
:1044C00080511168C1F380511168C1F380511168A6
:1044D000C1F38051816CC2F88410116841F0010170
:1044E0001160916841F00201916000688168006884
:1044F0008968084780B590F9012003784EF2001CC6
:10450000002ACEF2000C4FEA031304D40CEB020095
:1045100080F8003307E04EF6145002F00F0ECEF292
:1045200000000EF800304CF274500123C2F20E204D
:1045300040F822104CF20030C4F2000050F8221073
:1045400021F4803140F8221050F82200500902F086
:104550001F02BFF35F8F0CEB800103FA02F2C1F878
:1045600080214CF8202080BD012000F000B82DE90A
:10457000F0418AB04FF07042EFF3038102EB01612A
:1045800047F2044C4CF274548B15C4F2340CC2F252
:104590000E24091654F80380DCF80020DCF84030C3
:1045A0008DE80D0098064FF0000003900FD5DCF861
:1045B0000000C04310F0180F01D1002006E0DCF825
:1045C0000000C0F3C1400CEB8000C06A039043F0D0
:1045D0008022D8F80C00049042F00100CCF8400092
:1045E0004CF20030C4F2000050F8212022F4803256
:1045F00040F8212050F82100D8F81000694658B141
:1046000003460DF1140C93E8F4008CE8F400024624
:1046100091E8F800F8C200E00846D8F8081088478A
:10462000D8F8100018B105A991E8EC00ECC00AB068
:10463000BDE8F081D4D4D4D4F0B546F6004391F867
:104640000CC0C4F234039A6C22F0010262444EF2B0
:10465000200CC4F2010C9A64DCF80020BCF8044081
:10466000844644EA123E5FEA0E70C2F3033E04F051
:104670000F0009D44CF2C452C2F20E22126802FAA0
:1046800000F020FA0EF01BE000F00704032505FA05
:1046900004F40126170B082838BF06FA00F407F0C7
:1046A00007004CF2C457C2F20E2705FA00F01204BC
:1046B0003D6805FB04F258BF06FA0EF0B2FBF0F0BD
:1046C0004DF683621F68C4F21B32A0FB02024FF05A
:1046D000FF3000EB92403A0A62F31F20186018691D
:1046E00040F00100186100BFD869C007FCD0087B0A
:1046F000012810D1086858600879DA6860F304026C
:10470000DA60986820F00100986000BF00BF00BF29
:10471000D869C005FCD5886802686FF3DF425A6229
:1047200042689A628268DA62C2681A6302695A63EE
:10473000007D44F650129863C4F65052186A40F057
:10474000010018620020CCE90021F0BD46F60842C5
:10475000C4F23402916921F001019161116841F0C4
:10476000010111609368014623F001009060002070
:1047700000220A607047D4D470B504464160EFF35C
:104780001086012080F3108843F20800C4F2200054
:104790000D46016821F40031016000681E200121EE
:1047A00002F0D7F886F31088296807C91268904785
:1047B0000646002858D147F21001C4F23401C868F7
:1047C00020F00100C86000BFC869C007FCD168685C
:1047D0000860A86888602869086368694863D5E943
:1047E0000602C1E91402E868C1F87002E86A886646
:1047F000286B8867686BC1F888004FF0100E05F1D0
:10480000380001F1F80200BF50F8043B42F8103BB9
:104810000FF007C0AA6FC1F8F821EA6FC1F87C2237
:1048200005F1200000212161D5E92012C4E902121E
:10483000214600F0CAF805F12200214600F0C5F833
:1048400005F12400214600F0C0F805F126002146BC
:1048500000F0BBF805F12800214600F0B6F844F658
:104860004310C4F650502060304670BD2DE9F04131
:10487000804640684EF2801290F92110CEF200027C
:104880004D0901F01F03012101FA03F342F825301D
:10489000BFF34F8FBFF36F8F90F9236090F92140E2
:1048A0004CF274530025C2F20E23770906F01F065E
:1048B00043F8245001FA06F642F82760BFF34F8F01
:1048C000BFF36F8F90F9237090F92560740943F856
:1048D000275006F01F0701FA07F742F82470BFF3CC
:1048E0004F8FBFF36F8F90F9257090F9276074098F
:1048F00043F8275006F01F0701FA07F742F8247023
:10490000BFF34F8FBFF36F8F90F9277090F9296035
:10491000740943F8275006F01F07B94042F82410E5
:10492000BFF34F8FBFF36F8F90F9291043F82150D9
:104930000068816800684968884708B1BDE8F0816F
:10494000C8F80050BDE8F08147F21C010020C4F215
:1049500034010A6842F001020A60704747F21C0005
:10496000C4F23400816D890301D4012070470168CD
:1049700021F001010160C16841F00101C160002026
:10498000704747F28420C4F23400026812F47F4F6B
:1049900007D0026942F001020261C068086000208D
:1049A00070470D20704747F27002C4F2340210685D
:1049B00010F4003F4FF0010050EA00900870002012
:1049C000516841F400315160704780B590F9012081
:1049D00003784EF2001C002ACEF2000C4FEA0313BB
:1049E00004D40CEB020080F8003307E04EF61450BC
:1049F00002F00F0ECEF200000EF800304CF27450B0
:104A00000123C2F20E2040F822104CF20030C4F212
:104A1000000050F8221021F4803140F8221050F8A4
:104A20002200500902F01F02BFF35F8F0CEB8001E0
:104A300003FA02F2C1F880214CF8202080BD70B545
:104A400088B04FF07041EFF3038001EB00604CF24F
:104A500074518015C2F20E21EE460C584FF47F417E
:104A6000ADF8001047F27001C4F234010A680192F7
:104A7000E368039302F400324A604CF20031C4F25E
:104A80000001425822F4803242504058206958B107
:104A900003460DF1100C93E866008CE866000146B1
:104AA0009EE86C006CC100E07046A16888472069F0
:104AB00018B104A991E86C006CC008B070BD2DE974
:104AC000F04389B04FF07041EFF3038001EB0060D9
:104AD0004CF2745147F250028015C2F20E21C4F21A
:104AE00034020C58D2F80090116BD2F8408021F0BB
:104AF0008073536328F0807353644CF20032C4F225
:104B00000002835823F4803383508058E068049077
:104B10005FEAC9704FF001008DF804001CD02069D5
:104B2000029101A94FF000028DF8052058B103460B
:104B30000DF1140C93E8E4008CE8E400024691E8DF
:104B4000E800E8C200E00846A1688847206918B17B
:104B500005A991E8CC00CCC05FEA89701CD520691A
:104B600001218DF8051001A9CDF8088058B1034640
:104B70000DF1140C93E8E4008CE8E400024691E89F
:104B8000E800E8C200E00846A1688847206918B13B
:104B900005A991E8CC00CCC009B0BDE8F083F0B520
:104BA00089B04FF07041EFF3038001EB00604CF2ED
:104BB00074518015C2F20E210F5847F25001C4F211
:104BC0003401096802218DF80410F96804914CF24F
:104BD0000031C4F20001425822F480324250405861
:104BE000FF208DF8050038690021029101A958B114
:104BF00003460DF1140C93E874008CE8740002462F
:104C000091E8780078C200E00846B96888473869BA
:104C100018B105A991E8CC00CCC009B0F0BD80B5B1
:104C200045F25422C5F24F020260084600F004F833
:104C3000002080BDD4D4D4D470B5044600F060F810
:104C40004CF2705CEFF31081C2F20E2C012080F365
:104C50001088DCF8000038B940F614500022C4F285
:104C60004000027040220270DCF800000130CCF8F5
:104C7000000081F31088208828B340F6000E002140
:104C8000C4F2400E00BF00BF606800EBC10250F8E4
:104C900031309288D8034FEA1220D2B20BD50EEBF6
:104CA000801555F8226026F4803645F8226023F4FA
:104CB000803645F822600EEB8010013140F822303A
:104CC00020888142E0D30120EFF3108180F3108827
:104CD000DCF8000020B1DCF800000138CCF800005E
:104CE000DCF8000038B940F614500022C4F240004D
:104CF00002708022027081F3108870BDD4D4D4D4A5
:104D00002DE9F04F81B004460088002865D04EF6AA
:104D10004C4B0025C4F2010B4FF0010A00BF00BF4D
:104D20004BF6A47642F240080027C0F20A26C4F2ED
:104D3000200800BF00BF00BF606836F8021B00EB10
:104D4000C50082888A423FD100689BF8001000F0BD
:104D5000B8500AFA07F9B0F1807F09EA010017D1CB
:104D600058B9012001F09BFE9BF8000040EA0900C1
:104D70008BF80000012001F06BFE98F9000000287C
:104D800022D498F8000040F0800017E000BF00BF78
:104D900058B1012001F083FE9BF8000020EA0900D1
:104DA0008BF80000012001F053FE98F90000B0F1EB
:104DB000FF3F09DC98F8000000F07F0088F8000051
:104DC000C820012101F0C5FD013708F10208032FB9
:104DD000B2D1208801358542A2D301B0BDE8F08F61
:104DE000F0B581B00C46097805464EF20000C4F2D9
:104DF000250043F2040700EB01202861A0686860E9
:104E0000207B2C602872E0696863206AE8630020D8
:104E1000A863C4F22007C5E90500C5E9070085F8C5
:104E2000290085F82A0085F82B0085F82C00012040
:104E3000EFF3108680F310882178C1F109018840D2
:104E4000396821EA0000386038681E20012101F02D
:104E500080FD86F310882846214600F0D1F8A0692D
:104E600058B141684FF4002209680A60D0E9011284
:104E7000006812689047064698B9606928B341688F
:104E80004FF0006209680A60D0E9011200681268F8
:104E90009047D0B10646A06918B181680068096AD8
:104EA00088470120EFF3108580F3108821783A6855
:104EB000C1F10901884001211043386038681E2083
:104EC00001F047FD85F3108805E044F64310002605
:104ED000C5F24920E860304601B0F0BD9C46012390
:104EE00080F82AC000F084B99C46002380F82AC0CC
:104EF00000F07EB90346002059601A727047B0B5C1
:104F0000044600690025C5712046216800F078F844
:104F100094F82600A16984F828002069C4E90751A3
:104F2000B32184F82C5084F82A50C1712069C571CE
:104F3000E5602068816921B18A680868116A88473C
:104F40002068416921B18A680868116A8847206829
:104F500090F911004EF28011CEF20001430900F0E9
:104F60001F02012000FA02F241F82320BFF34F8F05
:104F7000BFF36F8F226892F90E20530902F01F02CF
:104F800000FA02F241F82320BFF34F8FBFF36F8F77
:104F9000226892F91020530902F01F0200FA02F26F
:104FA00041F82320BFF34F8FBFF36F8F226892F930
:104FB0000F20530902F01F0200FA02F241F82320E9
:104FC00043F20402BFF34F8FBFF36F8FEFF31085EF
:104FD00080F310882168C4F2200209781368C1F1B7
:104FE0000901884001211843106010681E2001F05B
:104FF000B0FC85F310880020B0BDD4D4D4D4D4D470
:10500000F0B502690023137040230269137002692E
:1050100013785B06FCD5C02313700268036908256A
:105020004EF6185C526ACEF2000C127942F0E002A1
:105030001A7402680369526AD27842F0E0025A7424
:1050400002680369526A927862F306159D700268DD
:105050000569526A13785278012B5FEA1F9343EA7D
:10506000420242F00402EA70026844F24025C0F2B3
:105070000F0503695268AA424FF0770208BF6FF02C
:1050800008025A71002302699371B3230269D37134
:105090004EF2001291F911404B7BCEF20002002C2F
:1050A0004FEA031303D4151985F8003304E004F024
:1050B0000F05654405F8043C4CF2745E4CF2003375
:1050C000C2F20E2EC4F2000301274EF8240053F85A
:1050D000245025F4803543F8245053F824506509B2
:1050E00004F01F04BFF35F8F02EB850607FA04F498
:1050F000C6F8804142F8254091F90F404D7B002CC5
:105100004FEA051503D4161986F8005304E004F09D
:105110000F06664406F8045C4EF8240053F8245049
:1051200025F4803543F8245053F82450650904F0E1
:105130001F04BFF35F8F02EB850607FA04F4C6F87D
:10514000804142F8254091F910404D7B002C4FEAF8
:10515000051503D4161986F8005304E004F00F0671
:10516000664406F8045C4EF8240053F8245025F4F5
:10517000803543F8245053F82450650904F01F0487
:10518000BFF35F8F02EB850607FA04F4C6F880418F
:1051900042F8254091F90E40497B002C4FEA01115D
:1051A00003D4171987F8001305E004F00F0505EB89
:1051B0000C0707F8041C4EF8240004F01F0753F8EE
:1051C0002410012621F4803143F8241053F82410D0
:1051D000610906FA07F7BFF35F8F02EB8103C3F89B
:1051E000807142F821709F2100690170F0BDD4D414
:1051F00090F808C0C0E90512BCF1010F09D190F880
:1052000004C04FF48071A0F8251043EA4C0180F8E7
:10521000241010B581B04EF2200180F82930C4F27C
:10522000010109680091009901F00F210091DDF85A
:1052300000E0DDF800C001690B7C90F82C40B4B9A7
:10524000CEF30322A2EB1C6203FA02F2042A09D372
:10525000920800BF00BF00BF91F90130002B03D5B9
:10526000013AF9D1082169E00022CA71826900215E
:10527000C0E9072190F8262080F8281080F8272020
:1052800080F82B1080F82D1080F82E1080F82F1049
:1052900080F830100168496A0A784B7891F805C0A7
:1052A0008C79012A5FEA1F9242EA4302036942EACB
:1052B0000C1242EAC41242F00402DA700269137955
:1052C00043F0100313710269137903F0F7031371AC
:1052D0000269137903F0EF0313710269C979137935
:1052E00003F07F0343EAC111117101694A7942F069
:1052F00001024A71016891F90F1000290BD401F0E5
:105300001F02012303FA02F24EF200134909CEF202
:10531000000343F8212001694A7A02F0F3024A723D
:105320000169BF22CA7190F82C1019B1002180F8D0
:105330002C1003E00069022141700021084601B0F1
:1053400010BD10B582B04FF07041EFF3038001EB58
:1053500000604CF200328015C4F20002835823F43E
:10536000803383508058EFF3038001EB00604CF2F0
:1053700074518015C2F20E210C5894F82D0038B1EA
:1053800094F82E0001284DD1002084F82E0081E0F1
:10539000A069022804D82069017941F04001017117
:1053A000E06901280ED12069017941F010010171F5
:1053B0002069017941F0080101712069017901F04A
:1053C000EF01017120688269D2B1216994F8293016
:1053D000012B15D1A369042B12D3D2F808C0033BCB
:1053E00013311068DCF808C062699BB2E04720689E
:1053F000A2690321033AC4E90712012184F82E109F
:10540000406AC079012803D10521204600F048FAFE
:105410002069C07C8DF807009DF80700012084F802
:105420002D0037E0E069A8B32168496AC9790129EC
:1054300004D10521204600F033FAE06901282BD081
:10544000022806D0032813D12069017941F04001D8
:105450000DE02069017941F01001017120690179A5
:1054600041F0080101712069017901F0EF0101713A
:10547000D4E90401C07C226A8854D4E907010138C8
:1054800001F10101C4E9070104D12069017901F0AA
:10549000BF01017102B010BD94F82A00012831D17A
:1054A00020684EF28013CEF2000390F90F004209FB
:1054B00000F01F01012000FA01F143F82210BFF3B0
:1054C0004F8FBFF36F8F2169CA7942F08002CA7192
:1054D00021690A7942F010020A7121690A7902F001
:1054E000F7020A7121690A7902F0EF020A71216953
:1054F00004224A7021694A7902F0FE024A7184F856
:105500002C00B5E72069417A01F0F701417220696A
:1055100008214170ACE7D4D4B0B54FF07041EFF33F
:10552000038001EB00604CF200358015C4F20005E9
:10553000425922F4803242514059EFF3038001EB8B
:1055400000604CF274518015C2F20E210C5894F890
:105550002700B0B394F82610032907D194F8281037
:10556000022903D194F83010002952D094F8245025
:105570000128206919D121684969B1B194F829201D
:105580009AB9A2698AB1D1F808C0A38B00F11202BE
:105590000868DCF808C06169E04720690021A26959
:1055A000C4E90712012184F82F10857494F82800AB
:1055B00094F82710013084F82800481E84F827004A
:1055C000B0BD94F8290020BB2068406AC07901284A
:1055D00008D194F82B0028B9206A18B1052120467B
:1055E00000F05EF994F82F00012804D1002084F81F
:1055F0002F00E0690CE0E06960B1D4E90401226A9F
:10560000895C8174D4E90710421C481EC4E9070272
:1056100000B1B0BD2069C17901F07F01C17120697D
:105620006FF0BE0100BF00BF90F90720B2F1FF3F4D
:1056300003DC002901F10101F6D1206890F9100086
:1056400055F8201021F4803145F8201055F820003D
:10565000206890F9100000280BD44EF2802300F04F
:105660001F014009CEF20003012202FA01F143F8C2
:1056700020102069C17941F04001C171B0BDD4D47E
:1056800010B54FF07041EFF3038001EB00604CF276
:1056900074518015C2F20E210C582068406AC079FE
:1056A000012803D10521204600F0FAF894F82900DA
:1056B000012806D194F82700012802D194F830007F
:1056C00080B3E06970BB94F82A00012822D12068D9
:1056D0004EF28013CEF20003012290F90F0000F089
:1056E0001F01400902FA01F143F82010BFF34F8F68
:1056F000BFF36F8F2069C17941F08001C1712069CA
:10570000042141702069417901F0FE01417184F862
:105710002C2007E02069417A01F0F70141722069ED
:10572000082141702069C17901F0BF01C171206970
:105730006FF0BE0100BF00BFC279520603D5002939
:1057400001F10101F8D14FF07041EFF3038001EB5B
:1057500000604CF200318015C4F20001425822F47E
:1057600080324250405810BDB0B54FF07041EFF359
:10577000038001EB00604CF274518015C2F20E21DF
:105780000C5821694A7A4B7A02F01F0002F003029A
:105790000F2803F0E0034B7201D83AB923E02169E6
:1057A0004B785B0658BF42F00102CAB1012084F871
:1057B0002B0020690025C57120462168FFF720FCD9
:1057C00094F82600A16984F828002069C4E90751EB
:1057D000B32184F82C5084F82A50C17101214BE088
:1057E0004A78520611D4010706D494F82C20012AD5
:1057F00031D110F004022ED0E06910B994F82B00DA
:1058000090B3002919D4012035E0012084F82B0041
:105810000820487020682369406A417902788079BD
:1058200042EA011141EAC01040F00200D87020693C
:10583000417941F00101417121E00020A169C4E9F1
:10584000070194F8261084F8281084F82C0084F8B6
:105850002A0001200CE0400711D52068406AC07979
:1058600001280CD1042107E094F8290080F00300FE
:105870002169B322CA71C1B2204600F011F84FF07D
:105880007041EFF3038001EB00604CF200318015B2
:10589000C4F20001425822F4803242504058B0BD58
:1058A000B0B582B0856B044625B1D5E90002CDE9DB
:1058B000000200E06D462068E36B2B6029714269AD
:1058C0003AB194F8291021B991681068096988479C
:1058D0002068806938B194F82910012903D18168C2
:1058E000006809698847616B28468847A06B18B132
:1058F000DDE90012C0E90012002084F82B0002B09C
:10590000B0BD2DE9F047814600260670EFF3108404
:10591000012080F3108843F208000D46C4F22000F5
:1059200043F2044843F2000AC4F234080168C4F2A6
:10593000340A21F01001016000681E20012101F0ED
:1059400008F884F31088DAF8000040F48030CAF8D0
:105950000000D5F8840095F83C10027940790329BD
:105960004FF0400108BF4FF48251002A00F03F0081
:1059700008BF01F580710844C8F84C0095F8400054
:10598000D5F88410002818BF4FF4BC70CAF8E4039F
:10599000C8F8006091F9006091F9012091F90200C6
:1059A000711C48F6F811D3B2C0F2002113D095F85B
:1059B00030402CB9D8F8184044F01004C8F818400A
:1059C00051F82660346844F002043460EE8D6FF3C1
:1059D000DF26C8F81460FF2BC3B211D095F83A60E7
:1059E0002EB9D8F8086046F01006C8F8086051F8DB
:1059F0002220166816602A8F6FF3DF22C8F8042071
:105A0000FF2B1FD095F83F2012B90122C8F824209F
:105A100051F82000016841F007010160A88D698DEF
:105A20006FF3DF206FF3DF2141EA0040C8F81C006C
:105A3000E88EA98E6FF3DF206FF3DF2141EA00408B
:105A4000C8F80C00688E298D4CF204536FF3DF20E8
:105A5000C2F20E236FF3DF2141EA0040CAF80400CE
:105A60004FF00110CAF80800A88D698D01306FF35E
:105A7000DF216FF3DF2041EA0040CAF81000E88E12
:105A8000A98E01306FF3DF216FF3DF2041EA004080
:105A9000CAF80C0095F8450095F8461095F8442092
:105AA000000240EA01404CF200511044CAF81400D0
:105AB000C2F20E21A88D6A8D08804CF20251C2F20A
:105AC0000E21E88E1A80002208804CF20651C2F2A4
:105AD0000E21A88E088005F15C01284600F09AF995
