:020000040200F8
:1000000060830022A93E0002C93C0002B33E000208
:10001000B33E0002B33E0002B33E0002B33E000214
:10002000000000000000000000000000B33E0002DD
:10003000B33E000200000000B33E0002B33E0002E7
:100040003B2600021128000279290002612A0002E1
:1000500065180002371D0002B71D0002971E00023E
:10006000A93300022B3400027F340002EF14000297
:10007000890300028B0300028D0300028F0300023C
:100080003D500000AAAA3200FFFFFF0008304200E6
:100090000331130003310300003000000430FF007F
:1000A00002301C000630C3000E3045002E30080020
:1000B000343018001F500000004332001836000092
:1000C00012362900093752000C370300203840004F
:1000D000213801003036360031360E003236E2006B
:1000E000333612002136E0000437A00003375A00EF
:1000F00015377800173701000B37600005371A00F5
:10010000053902000639100001390A0031371200A2
:1001100000360800013633002D30600020365200D2
:100120001B3720001C475000133A4300183A0000C8
:10013000193AF800353613003636030034364000DD
:1001400022360100014002000440020005401A006E
:100150000150A30003350700003500000135FF0002
:10016000023500000A3500000B3520000F3A300040
:10017000103A28001B3A30001E3A2600113A60005F
:100180001F3A1400183A0000193A7C0006340000A7
:10019000003407000134700002340400033400000E
:1001A000043405000534C000805401008154080067
:1001B00082541400835428008454510085546500EF
:1001C0008654710087547D008854870089549100BB
:1001D0008A549A008B54AA008C54B8008D54CD00D8
:1001E0008E54DD008F54EA0090541D0080550600A7
:1001F0008355400084551000895510008A55000031
:100200008B55F800005823000158140002580F00C5
:1002100003580F00045812000558260006580C0019
:100220000758080008580500095805000A58080032
:100230000B580D000C5808000D5803000E58000014
:100240000F580000105803001158090012580700F9
:1002500013580300145800001558010016580300E5
:100260001758080018580D00195808001A580500AA
:100270001B5806001C5808001D580E001E58290067
:100280001F5817002058110021581100225815003E
:1002900023582800245846002558260026580800D0
:1002A0002758260028586400295826002A58240078
:1002B0002B5822002C5824002D5824002E580600BC
:1002C0002F58220030584000315842003258240044
:1002D000335826003458240035582200365822005E
:1002E0003758260038584400395824003A58260018
:1002F0003B5828003C5842003D58CE000050A70013
:1003000020384000213806001438310015383100FB
:100310000338040008380400093800000A380200D5
:100320000B3858000C4622003748100024380200D1
:100330000150A3003D50000041470000FFFFFF00B7
:1003400000000068000458020004000002000000E1
:1003500000000000000000000000000000FF00009E
:100360000000080000000000000000000000000085
:100370000000100800000000000000000000000065
:02038000010179
:10038800704770477047704710B548F28C34A82101
:10039800C2F20024204603F04BFF03202061606175
:1003A80044F24A6048F23441C0F20020A061C2F22F
:1003B8000021E1614FF4006121620021A1626162C4
:1003C800E16248F6344220664FF0100E44F29C2059
:1003D800C2F200226266C4F868E02167E1666167DC
:1003E800BFF35F8FC0F200200F3000BF00BF00BF17
:1003F80010F8011904F8011B0FF007C0BFF35F8F55
:1004080010BDD4D4D4D4D4D42DE9F04381B014464B
:100418000D468046C7684FF0000900BF00BF00BF07
:10042800D8F81000FA43B84206D91044D8F8081092
:1004380006E000BF00BF00BFD8F808101044084409
:10044800C91B884250EA31802946A04250EA3486C6
:10045800D8F804003844324603F0EEFEF019D8F814
:100468000810411AA4EB060450EA1187B144354438
:10047800BFF35F8FC8F80C700CB12FF02FC8484637
:1004880001B0BDE8F0832DE9F04381B000EB4000F6
:1004980048F28C33C2F20023144603EBC0038946AA
:1004A80003F11805D86A022812D0012808D00028BC
:1004B8003ED1EE682869F143B04234D9084435E0AA
:1004C800EE682969B1420BD9F0430144A8680BE0F2
:1004D80028464946224601B0BDE8F043FFF794BFDD
:1004E800F243A86811440144A14251EA3484871BAD
:1004F80068683044BC4207D24946224603F09CFE55
:10050800BFF35F8F26440CE049463A4603F094FE59
:10051800E61B686809EB0701324603F08DFEBFF35E
:100528005F8FEE6025E0AA6808441044A04201D21B
:1005380000241EE0D5E901018F1B3044BC4208D2DB
:100548004946224603F078FEBFF35F8F06EB0408A6
:100558000DE049463A4603F06FFEA4EB07086868C9
:1005680009EB0701424603F067FEBFF35F8FC5F84A
:100578000C80204601B0BDE8F083F0B581B048F2A8
:100588008C331446C2F200230D4606461B78532BC3
:1005980001D0FFF7F9FEEFF311874FF0200181F347
:1005A8001188304629462246FFF76DFF87F31188E8
:1005B80001B0F0BDD4D4D4D42DE9F04F9BB091460E
:1005C8000F46002406A91691402117910021059095
:1005D8001A90CDE9181100BF17F8011B252907D07B
:1005E800002900F06F8116A800F07BF9E5E000BF54
:1005F8004FF0000800BF00BF39782C2908DC2329F8
:100608000ED02B2918D104200FE000BF00BF00BF77
:100618002D2909D030290FD1022006E000BF00BFE4
:10062800082002E000BF00BF012048EA00080137A7
:10063800E2E700BF00BF00BFA1F13A0010F10A0FC6
:1006480002D2002012E000BF00200A4600BF00BF0F
:1006580017F8011F00EB8000A1F13A0302EB4000FC
:1006680013F10B0FA0F130000A46F1D82E290FD153
:100678003A4612F8011F2A290DD1D9F8001002377D
:100688000A1DC9F800200E6801211DE000BF00BF47
:100698000021002618E0A1F13A0313F10A0F02D253
:1006A800002100260FE0002612F8013F06EB86071E
:1006B800A3F13A0601EB470116F10B0FA1F1300641
:1006C8001946F1D80121174617F8012B02F0FB0350
:1006D800682BF9D0632A0FDC252A2ED0582A24D07B
:1006E800632A6AD1D9F80000011DC9F80010017801
:1006F80079E700BF00BF00BFA2F17003082B1ED826
:10070800DFE803F0055B5B615B4E5B5B1300D9F8C8
:1007180000001022011DC9F80010016808230020FC
:100728000826CDE9006016A845E0D9F800100A1D92
:10073800C9F800200968102239E0252153E7642A06
:100748003BD1D9F800104CF6CD4C0A1DC9F8002051
:10075800D1F800E0CCF6CC4CCEF100017246BEF1E7
:10076800000F48BF0A460A2A03914FF0010107DB30
:10077800A2FB0C35632A01F101014FEAD502F7D833
:100788008E4256EA818B002840D0BEF1000F5FEA06
:100798005F9108F0040241EA9201A0EB010A37E0F8
:1007A800D9F800100A1DC9F8002009680A22CDE905
:1007B800000816A8334600F0B7F8199CB4F1FF3FBB
:1007C8003FF70AAF89E0D9F80000021DC9F80020F8
:1007D800006844F245420028C0F2002250EA12851F
:1007E8005FEA018800BF00BF2978002E5FEA188001
:1007F8000029E2D00028E0D116A8013500F071F8F0
:10080800199C013EB4F1FF3FEEDC66E04FF0000AB0
:100818005FEA88750CD55EB9002CCED4BEF1000F06
:1008280029D45FEA4870CDF810E02DD52B2125E0BA
:100838005FEAC870F0D1BAF1000FEDD0D345EBD222
:100848000295CDF810E0AAF1010500BF00BF00BF76
:10085800202116A800F045F8199C002C3DD4681EEC
:10086800A84202D2AB450546F2D300F1010ADDF8F1
:1008780010E0029DD0E72D210398049016A800F0FF
:1008880030F8199C002C28D4002D05D40A22CDE973
:1008980000A816A804998DE708F001003043F5D1A7
:1008A800BAF1000FF2D0AAF10105554538BFD3457A
:1008B800ECD2302116A800F014F8199CAA46002C96
:1008C800F1D50AE044B1189D25B106A905982A4634
:1008D800FFF753FE2C4400E0002420461BB0BDE87F
:1008E800F08F10B50446D0E90120431C934207D885
:1008F80022681154A360E06862680130E06018461D
:10090800904218BF10BD21682069FFF736FEA16824
:10091800884202D10020A06010BD4FF0FF30E06097
:1009280010BDD4D4D4D4D4D42DE9F04F81B0154619
:100938000E4691421F468146DDF828B04FF001006F
:1009480007D3314600BF00BFB1FBF5F10130A94222
:10095800FAD2874257EA808ABBF1000F0B991BD065
:1009680011F0010018D188074FF0200048BF30204F
:100978002021002F50EA0188BBF1000F0CD0DA4586
:100988000AD248464146ABF1010BFFF7AAFFD9F856
:100998000C00B0F1FF3FEFDCD9F80C0000283CD484
:1009A800012400BF00BF00BF022F01D3013F03E0B5
:1009B800B6FBF4F0A84201D36C43F5E744F6D468DB
:1009C800C0F2002800BF00BFB6FBF4F7484618F88D
:1009D8000710FFF786FFD9F80C00002806D4B4FBEF
:1009E800F5F007FB1466A5420446EDD90B98C0073D
:1009F80018BFBBF1000F0AD10FE020214846FFF7CE
:100A080070FFD9F80C00A346B0F1FF3F05DDABF14C
:100A180001045C4538BFDA45EFD301B0BDE8F08F7B
:100A280082B080B582B0CDE9042304AA019201AA5C
:100A3800FFF7C2FD02B0BDE8804002B07047D4D4D1
:100A48002DE9F04782B044F24C4844F27169871CA2
:100A58004AF6AA244FF6FF75C0F200280DF1070ADE
:100A6800C0F2002900218DF8071000BF00BF00BFA9
:100A780037F8020CA0420FD0A84214D0397800F001
:100A8800F5FA90B937F8020C514600F0A4FA70B99B
:100A980007E000BF00BF00BF38784FF47A7103F059
:100AA800CBF80437E4E700260FE0064601E00646E7
:100AB800C84644F2536144F22042C0F20021C0F219
:100AC800002200204346FFF7ABFF304602B0BDE8E6
:100AD800F087D4D4F0B581B02DED048B0A204FF403
:100AE8007A7103F0A9F848F650503C21C2F2002070
:100AF800012201F077FB28B144F695030446C0F2C1
:100B08000023B6E048F60065EFF31080C2F2002536
:100B1800012181F3108840F614542968C4F2400476
:100B280019B9002121704021217029684FF6D0465B
:100B380001312960CFF6FF7680F3108843F6FA7703
:100B48000121CFF6FE77A05938400430A051EFF3C9
:100B5800108081F31088296811B12968013929604A
:100B6800296819B9002121708021217080F310882B
:100B780014204FF47A7103F05FF80121EFF310802D
:100B880081F31088296819B900212170402121704A
:100B980029680131296080F310880121A059384063
:100BA80040F00500A051EFF3108081F31088296808
:100BB80011B1296801392960296819B90021217002
:100BC8008021217080F3108814204FF47A7103F08B
:100BD80033F840F24C00C2F20020FFF731FF28B191
:100BE80044F2A3430446C0F2002342E032204FF40B
:100BF8007A7103F021F843F23500122100F036FA39
:100C080028B144F2A9330446C0F2002322E043F29B
:100C180036007B2100F02AFA28B144F23F3304461B
:100C2800C0F2002316E043F23700082100F01EFA54
:100C380028B144F233730446C0F200230AE043F2B9
:100C48000810122100F012FA18B344F29163044616
:100C5800C0F2002344F2536144F28072C0F20021D2
:100C6800C0F200220020FFF7DBFE44F2EA23C0F2C4
:100C7800002344F2536144F28C32C0F20021C0F2E6
:100C880000220020FFF7CCFE2046BDEC048B01B00B
:100C9800F0BD48F644404DF60001C2F20020C0F213
:100CA800B8519FED270AB6EE008A0160B1EEC09AEE
:100CB8009FED240AB0EE481A09EE001A43F60C001C
:100CC800BCEEC10A10EE105A290A00F0CFF9B8B9E3
:100CD800E9B243F60D0000F0C9F988B939EE080AFF
:100CE80043F60E00BCEEC00A10EE105A290A00F0B6
:100CF800BDF928B9E9B243F60F0000F0B7F9A0B181
:100D080044F2536144F2985244F298730446C0F294
:100D18000021C0F20022C0F200230020FFF780FE6D
:100D280044F21373C0F20023A3E700F00DF828B1D2
:100D380044F267530446C0F200239AE70024A3E76D
:100D4800007C9249ABAAAA3F10B582B00DF1070109
:100D580044F6140000F03FF928B144F6C7030446EE
:100D6800C0F200230FE09DF8070000F03F0144F6B1
:100D780014008DF8071000F079F990B144F29873D7
:100D88000446C0F2002344F2536144F2B172C0F247
:100D98000021C0F200220020FFF742FE204602B0E8
:100DA80010BD0024FAE710B543F20800022100F054
:100DB8005DF928B144F202630446C0F200230AE058
:100DC80044F20220002100F051F988B144F2F37393
:100DD8000446C0F2002344F2536144F26F72C0F239
:100DE8000021C0F200220020FFF71AFE204610BDA5
:100DF8000024FBE710B544F202200F2100F036F979
:100E0800044670B144F2536144F2334244F2DC4385
:100E1800C0F20021C0F20022C0F200230020FFF738
:100E2800FFFD204610BDD4D470B5A2B048F6F840F6
:100E3800C2F200200078A0B148F6F840C2F20020C3
:100E480002F0B3F868B144F2536144F2C63244F296
:100E580050730446C0F20021C0F20022C0F2002301
:100E680052E044F624716C46C0F2002188222046E4
:100E780003F0E2F948F6524548F65446C2F2002516
:100E8800C2F2002628883188ADF8040048F6F840F8
:100E9800ADF80610C2F20020214601F0AAFE28B1E2
:100EA80044F2AE630446C0F2002325E0288840F2ED
:100EB8000031C2F2002103233288888003EB40000E
:100EC8004FF6FC73CA8018408860504348F64C427D
:100ED800C2F2002240F20003C6F600030B60106065
:100EE80048F6F840C2F2002002F0CFF890B144F280
:100EF800A7530446C0F2002344F2536144F2C632B9
:100F0800C0F20021C0F200220020FFF789FD204630
:100F180022B070BD48F648400021C2F2002001709E
:100F2800017809B92FF005C00024F0E700780328FC
:100F380018BF704748F648400121C2F200200170EE
:100F4800704700F0CDB8022818BF704780B548F642
:100F5800385045F2C851C2F20020C0F2002100F01A
:100F6800D6FF0120BDE8804002F036BF10B548F634
:100F7800505045F25011C2F20020C0F2002101F099
:100F8800A7F8044670B144F2536144F6250244F2CE
:100F9800D133C0F20021C0F20022C0F200230020A9
:100FA800FFF73EFD204610BDB0B548F65045C2F2E9
:100FB80000252978884208BFB0BD044600BF00BF9D
:100FC8002878012803D00A20012102F035FE28786C
:100FD8008442F5D1B0BDF0B581B048F6504640BA6C
:100FE800ADF80200C2F2002648F650500D46C2F293
:100FF80000200DF10201022201230027377001F0C1
:10100800EBF868B144F2536144F2AD2244F2133371
:101018000446C0F20021C0F20022C0F200231AE008
:101028000320FFF7C1FF48F650500122C2F200200A
:1010380000232946377001F0C9F890B144F2536192
:1010480044F2AD2244F636030446C0F20021C0F251
:101058000022C0F200230020FFF7E2FC204601B086
:10106800F0BD0220FFF7A0FF0024F7E710B582B01B
:10107800020A8DF8060048F650408DF80520C2F2A5
:1010880000208DF8071000210322017048F6505007
:10109800C2F200200DF10501002301F09DF804467D
:1010A80078B144F2536144F6850244F21333C0F236
:1010B8000021C0F20022C0F200230020FFF7B0FC9C
:1010C80002E00320FFF770FF204602B010BD28B1F0
:1010D80048F650410079C2F2002108707047D4D414
:1010E80084B00020039003A802F09FFD9DF80F3004
:1010F80044F6DF0144F23B329DF80D709DF80E6016
:10110800C0F20021C0F200220020CDE90067FFF7FD
:1011180087FC44F602310020C0F20021FFF780FC72
:10112800FFF724FF44F20F51C0F2002100F048F904
:101138000A204FF47A7102F07FFDFFF7CBFC44F2EE
:101148002A51C0F2002100F03BF944F6047048F639
:101158005245C0F2002048F65444C2F20025C2F2BB
:10116800002401894089298020800A204FF47A715F
:1011780002F062FDFFF758FE44F2C741C0F20021B9
:1011880000F01EF90A204FF47A7102F055FD48F27A
:1011980000004FF49611C6F6250003F049F844F212
:1011A80000004FF49611C6F6380003F041F840F2FB
:1011B80000004FF49611C6F64B0003F039F82E885C
:1011C8000320002E4BD02788002F48D048F67444BF
:1011D80045F27C05C2F20024C0F200258422204694
:1011E800294603F029F8286DB5F84820C0F30B4CC0
:1011F8006FF31F30B5F84A30504369890CFB03F28E
:10120800EB89B0FBF7F0A4F848000133B2FBF6F025
:101218000131A4F84A00206D47EA06457340626828
:1012280000F0F02025F0F02579402844206541EAB7
:10123800030022F08061000418BF01F1806148F6C4
:10124800584C616045F20011C2F2002CC0F2002136
:10125800624691E8E900E9C20020CCF8144044F263
:10126800C651C0F2002100F0ABF80A204FF47A71A1
:1012780002F0E2FCFFF7BEFD002858D044F26933C3
:101288000446C0F2002344F2536144F29832C0F29B
:101298000021C0F200220020FFF7C2FB44F2D17106
:1012A8002046C0F2002100F08BF80A204FF47A7132
:1012B80002F0C2FC40F24000C2F20020FFF7C0FB7F
:1012C80044F2EE61C0F2002100F07AF844F2E051F5
:1012D8000020C0F200214FF00009FFF7A1FB48F6FB
:1012E800484748F6704548F6F84444F65D08C2F2A7
:1012F8000027C2F20025C2F2002440F2EE36C0F206
:10130800002800BF00BF00BF87F8009000BF00BFE3
:10131800387808B92FF005C029680022204601F066
:10132800CBFEB042F0D0414600F04AF8ECE748F670
:101338002450C2F20020006860B148F62450C2F27E
:10134800002000F0AAF928B144F282430446C0F212
:10135800002398E743F208004221FFF787FE28B1EF
:1013680044F2BC230446C0F200238CE748F624501C
:1013780048F65841C2F20020C2F2002100F0E3F81A
:1013880028B144F6B1630446C0F200237BE748F66F
:1013980024500021C2F2002000F0E7F928B144F2FD
:1013A800F8330446C0F200236DE7FFF7FCFC28B1D0
:1013B80044F2CC630446C0F2002364E700246DE7DE
:1013C800002846D010B504460020FFF729FB48F650
:1013D8002450C2F200200068A8B148F62450C2F296
:1013E800002000F05AF970B144F2536144F25C32C3
:1013F80044F26D43C0F20021C0F20022C0F2002383
:101408000020FFF70DFB48F65050C2F20020C068DC
:10141800A8B148F65050C2F2002000F0E8FE70B1C2
:1014280044F2536144F25C3244F22E63C0F200216C
:10143800C0F20022C0F200230020FFF7F1FA44F2C4
:1014480047510020C0F200212246FFF7E9FA00BE0A
:1014580010BD70470168012909D1017A890658BF72
:10146800704748F67041C068C2F2002108607047B2
:10147800704780B5FFF765FD002080BD01688A6868
:1014880002F00C0202328A600068416849075CBFBA
:1014980041685FEAC16101D50020704741680906CB
:1014A8005CBF41685FEAC151F6D44068C0F34010A0
:1014B800704701780131017040BF00207047B0B516
:1014C8000446407C012808BFB0BD2046022525748B
:1014D800FFF7D4FF002818BF00256574E06ABDE84F
:1014E800B040FFF7E6BFB0B582B04FF07041EFF300
:1014F800038001EB006048F604628115C2F2002205
:1015080004165558A9680868FFF7D9FFE96861B15A
:10151800286910B10268019200E001A86A690260B6
:101528008847286908B1019901604CF20030C4F27B
:10153800000050F8241021F4803140F8241050F8AD
:10154800240002B0B0BDF0B581B0044641604E69D8
:10155800EFF31087012080F3108843F208000D464E
:10156800C4F22000016821F40031016000681E20E7
:10157800012102F061FB47F2004187F31088C4F2B1
:1015880034014FF6FE72CFF6BF72886820F0020071
:101598008860706810400860306908627069486245
:1015A800F06A88653089C86070890861B0894861C7
:1015B800F0898861308BC862F0690863306A4863D3
:1015C800706A8863306B086670680A68400860F360
:1015D80041020A60706BC1F80003B06BC1F80403E4
:1015E800F06BC1F80803306CC1F80C03706DC1F8DA
:1015F8002802B06DC1F82C02F06DC1F83002306ECF
:10160800C1F83402706EC1F83802B06EC1F83C02FD
:10161800F06EC1F84002306FC1F84402706FC1F833
:10162800480270680A68400E60F359620A60706880
:101638000A68800B60F38F320A60F06CC1F8900082
:10164800306DC1F8A40070680A68800E60F39A6271
:101658000A60706CC1F88000F06F0864B6F88020EA
:1016680006F178008A6400212161D5E90312C4E9F2
:101678000212214600F0B8F806F17A00214600F07F
:10168800B3F8316807C91268904720B944F64E117B
:10169800C5F25621216001B0F0BD70B547F2004691
:1016A80004464068C4F2340645693068306820F062
:1016B80001003060B06820F00200B0607068C007B8
:1016C80008BF706D286881680068C96888473068F5
:1016D80020F0806030602868816800684968884721
:1016E80095F979104EF2801CCEF2000C012601F01B
:1016F8001F0349094FF0000EC4F800E006FA03F38F
:101708004CF82130BFF34F8FBFF36F8F95F97910E5
:1017180095F97B3048F60464C2F200245A0944F86B
:1017280021E003F01F0106FA01F14CF82210BFF383
:101738004F8FBFF36F8F95F97B1044F821E043F288
:101748000801C4F22001EFF3108586F310880446DF
:101758000A681E2042F400320A600968012102F07A
:101768006BFA85F31088204670BD4068406990F890
:101778002820012A47F20042C4F2340202D1116340
:1017880051639163116841F4800111601168C1F3DC
:1017980080511168C1F380511168C1F380511168FB
:1017A800C1F380511168C1F380511168C1F38051B0
:1017B8001168C1F380511168C1F380511168C1F3F8
:1017C80080511168C1F38051816CC2F8841011688E
:1017D80041F001011160916841F0020191600068D7
:1017E800816800688968084780B590F90120037806
:1017F8004EF2001C002ACEF2000C4FEA031304D468
:101808000CEB020080F8003307E04EF6145002F0AB
:101818000F0ECEF200000EF8003048F604600123E7
:10182800C2F2002040F822104CF20030C4F200004E
:1018380050F8221021F4803140F8221050F822008C
:10184800500902F01F02BFF35F8F0CEB800103FA0F
:1018580002F2C1F880214CF8202080BD012000F060
:1018680000B82DE9F0418AB04FF07042EFF30381E0
:1018780002EB016147F2044C48F604648B15C4F28C
:10188800340CC2F20024091654F80380DCF8002056
:10189800DCF840308DE80D0098064FF0000003900A
:1018A8000FD5DCF80000C04310F0180F01D100205C
:1018B80006E0DCF80000C0F3C1400CEB8000C06A11
:1018C800039043F08022D8F80C00049042F0010005
:1018D800CCF840004CF20030C4F2000050F821204F
:1018E80022F4803240F8212050F82100D8F8100066
:1018F800694658B103460DF1140C93E8F4008CE8DE
:10190800F400024691E8F800F8C200E00846D8F86A
:1019180008108847D8F8100018B105A991E8EC001C
:10192800ECC00AB0BDE8F081F0B546F6004391F886
:101938000CC0C4F234039A6C22F0010262444EF2E5
:10194800200CC4F2010C9A64DCF80020BCF80440B6
:10195800844644EA123E5FEA0E70C2F3033E04F086
:101968000F0009D448F65062C2F20022126802FA47
:1019780000F020FA0EF01BE000F00704032505FA3A
:1019880004F40126170B082838BF06FA00F407F0FC
:10199800070048F65067C2F2002705FA00F0120463
:1019A8003D6805FB04F258BF06FA0EF0B2FBF0F0F2
:1019B8004DF683621F68C4F21B32A0FB02024FF08F
:1019C800FF3000EB92403A0A62F31F201860186952
:1019D80040F00100186100BFD869C007FCD0087B3F
:1019E800012810D1086858600879DA6860F30402A1
:1019F800DA60986820F00100986000BF00BF00BF5F
:101A0800D869C005FCD5886802686FF3DF425A625E
:101A180042689A628268DA62C2681A6302695A6323
:101A2800007D44F650129863C4F65052186A40F08C
:101A3800010018620020CCE90021F0BD46F60842FA
:101A4800C4F23402916921F001019161116841F0F9
:101A5800010111609368014623F0010090600020A5
:101A680000220A607047D4D470B504464160EFF391
:101A78001086012080F3108843F20800C4F2200089
:101A88000D46016821F40031016000681E20012123
:101A980002F0D2F886F31088296807C912689047BF
:101AA8000646002858D147F21001C4F23401C8682C
:101AB80020F00100C86000BFC869C007FCD1686891
:101AC8000860A86888602869086368694863D5E978
:101AD8000602C1E91402E868C1F87002E86A88667B
:101AE800286B8867686BC1F888004FF0100E05F105
:101AF800380001F1F80200BF50F8043B42F8103BEF
:101B08000FF007C0AA6FC1F8F821EA6FC1F87C226C
:101B180005F1200000212161D5E92012C4E9021253
:101B2800214600F0CAF805F12200214600F0C5F868
:101B380005F12400214600F0C0F805F126002146F1
:101B480000F0BBF805F12800214600F0B6F844F68D
:101B58004310C4F650502060304670BD2DE9F04166
:101B6800804640684EF2801290F92110CEF20002B1
:101B78004D0901F01F03012101FA03F342F8253052
:101B8800BFF34F8FBFF36F8F90F9236090F9214017
:101B980048F604630025C2F20023770906F01F0601
:101BA80043F8245001FA06F642F82760BFF34F8F36
:101BB800BFF36F8F90F9237090F92560740943F88B
:101BC800275006F01F0701FA07F742F82470BFF301
:101BD8004F8FBFF36F8F90F9257090F927607409C4
:101BE80043F8275006F01F0701FA07F742F8247058
:101BF800BFF34F8FBFF36F8F90F9277090F929606B
:101C0800740943F8275006F01F07B94042F824101A
:101C1800BFF34F8FBFF36F8F90F9291043F821500E
:101C28000068816800684968884708B1BDE8F081A4
:101C3800C8F80050BDE8F08147F21C010020C4F24A
:101C480034010A6842F001020A60704747F21C003A
:101C5800C4F23400816D890301D401207047016802
:101C680021F001010160C16841F00101C16000205B
:101C7800704747F28420C4F23400026812F47F4FA0
:101C880007D0026942F001020261C06808600020C2
:101C980070470D20704747F27002C4F23402106892
:101CA80010F4003F4FF0010050EA00900870002047
:101CB800516841F400315160704780B590F90120B6
:101CC80003784EF2001C002ACEF2000C4FEA0313F0
:101CD80004D40CEB020080F8003307E04EF61450F1
:101CE80002F00F0ECEF200000EF8003048F6046045
:101CF8000123C2F2002040F822104CF20030C4F256
:101D0800000050F8221021F4803140F8221050F8D9
:101D18002200500902F01F02BFF35F8F0CEB800115
:101D280003FA02F2C1F880214CF8202080BD70B57A
:101D380088B04FF07041EFF3038001EB006048F684
:101D480004618015C2F20021EE460C584FF47F4121
:101D5800ADF8001047F27001C4F234010A6801922C
:101D6800E368039302F400324A604CF20031C4F293
:101D78000001425822F4803242504058206958B13C
:101D880003460DF1100C93E866008CE866000146E6
:101D98009EE86C006CC100E07046A1688847206925
:101DA80018B104A991E86C006CC008B070BD2DE9A9
:101DB800F04389B04FF07041EFF3038001EB00600E
:101DC80048F6046147F250028015C2F20021C4F2BD
:101DD80034020C58D2F80090116BD2F8408021F0F0
:101DE8008073536328F0807353644CF20032C4F25A
:101DF8000002835823F4803383508058E0680490AD
:101E08005FEAC9704FF001008DF804001CD020690A
:101E1800029101A94FF000028DF8052058B1034640
:101E28000DF1140C93E8E4008CE8E400024691E814
:101E3800E800E8C200E00846A1688847206918B1B0
:101E480005A991E8CC00CCC05FEA89701CD520694F
:101E580001218DF8051001A9CDF8088058B1034675
:101E68000DF1140C93E8E4008CE8E400024691E8D4
:101E7800E800E8C200E00846A1688847206918B170
:101E880005A991E8CC00CCC009B0BDE8F083F0B555
:101E980089B04FF07041EFF3038001EB006048F622
:101EA80004618015C2F200210F5847F25001C4F2B4
:101EB8003401096802218DF80410F96804914CF284
:101EC8000031C4F20001425822F480324250405896
:101ED800FF208DF8050038690021029101A958B149
:101EE80003460DF1140C93E874008CE87400024664
:101EF80091E8780078C200E00846B96888473869F0
:101F080018B105A991E8CC00CCC009B0F0BD80B5E6
:101F180045F25422C5F24F020260084600F004F868
:101F2800002080BDD4D4D4D470B5044600F060F845
:101F380048F6006CEFF31081C2F2002C012080F308
:101F48001088DCF8000038B940F614500022C4F2BA
:101F58004000027040220270DCF800000130CCF82A
:101F6800000081F31088208828B340F6000E002175
:101F7800C4F2400E00BF00BF606800EBC10250F819
:101F880031309288D8034FEA1220D2B20BD50EEB2B
:101F9800801555F8226026F4803645F8226023F42F
:101FA800803645F822600EEB8010013140F822306F
:101FB80020888142E0D30120EFF3108180F310885C
:101FC800DCF8000020B1DCF800000138CCF8000093
:101FD800DCF8000038B940F614500022C4F2400082
:101FE80002708022027081F3108870BDD4D4D4D4DA
:101FF8002DE9F04F81B004460088002865D04EF6E0
:102008004C4B0025C4F2010B4FF0010A00BF00BF82
:1020180045F2146642F240080027C0F20026C4F2D6
:10202800200800BF00BF00BF606836F8021B00EB45
:10203800C50082888A423FD100689BF8001000F0F2
:10204800B8500AFA07F9B0F1807F09EA010017D100
:1020580058B9012001F097FE9BF8000040EA0900FA
:102068008BF80000012001F067FE98F900000028B5
:1020780022D498F8000040F0800017E000BF00BFAD
:1020880058B1012001F07FFE9BF8000020EA09000A
:102098008BF80000012001F04FFE98F90000B0F124
:1020A800FF3F09DC98F8000000F07F0088F8000086
:1020B800C820012101F0C0FD013708F10208032FF3
:1020C800B2D1208801358542A2D301B0BDE8F08F96
:1020D800F0B581B00C46097805464EF20000C4F20E
:1020E800250043F2040700EB01202861A06868601E
:1020F800207B2C602872E0696863206AE86300200E
:10210800A863C4F22007C5E90500C5E9070085F8FA
:10211800290085F82A0085F82B0085F82C00012075
:10212800EFF3108680F310882178C1F10901884007
:10213800396821EA0000386038681E20012101F062
:102148007BFD86F310882846214600F0D1F8A06967
:1021580058B141684FF4002209680A60D0E90112B9
:10216800006812689047064698B9606928B34168C4
:102178004FF0006209680A60D0E90112006812682D
:102188009047D0B10646A06918B181680068096A0D
:1021980088470120EFF3108580F3108821783A688A
:1021A800C1F10901884001211043386038681E20B8
:1021B80001F042FD85F3108805E044F6431000263F
:1021C800C5F24920E860304601B0F0BD9C460123C5
:1021D80080F82AC000F084B99C46002380F82AC001
:1021E80000F07EB90346002059601A727047B0B5F6
:1021F800044600690025C5712046216800F078F87A
:1022080094F82600A16984F828002069C4E90751D8
:10221800B32184F82C5084F82A50C1712069C57103
:10222800E5602068816921B18A680868116A884771
:102238002068416921B18A680868116A884720685E
:1022480090F911004EF28011CEF20001430900F01E
:102258001F02012000FA02F241F82320BFF34F8F3A
:10226800BFF36F8F226892F90E20530902F01F0204
:1022780000FA02F241F82320BFF34F8FBFF36F8FAC
:10228800226892F91020530902F01F0200FA02F2A4
:1022980041F82320BFF34F8FBFF36F8F226892F965
:1022A8000F20530902F01F0200FA02F241F823201E
:1022B80043F20402BFF34F8FBFF36F8FEFF3108524
:1022C80080F310882168C4F2200209781368C1F1EC
:1022D8000901884001211843106010681E2001F090
:1022E800ABFC85F310880020B0BDD4D4D4D4D4D4AA
:1022F800F0B5026900231370402302691370026964
:1023080013785B06FCD5C02313700268036908259F
:102318004EF6185C526ACEF2000C127942F0E002D6
:102328001A7402680369526AD27842F0E0025A7459
:1023380002680369526A927862F306159D70026812
:102348000569526A13785278012B5FEA1F9343EAB2
:10235800420242F00402EA70026844F24025C0F2E8
:102368000F0503695268AA424FF0770208BF6FF061
:1023780008025A71002302699371B3230269D37169
:102388004EF2001291F911404B7BCEF20002002C64
:102398004FEA031303D4151985F8003304E004F059
:1023A8000F05654405F8043C48F6046E4CF200330A
:1023B800C2F2002EC4F2000301274EF8240053F89D
:1023C800245025F4803543F8245053F824506509E7
:1023D80004F01F04BFF35F8F02EB850607FA04F4CD
:1023E800C6F8804142F8254091F90F404D7B002CFA
:1023F8004FEA051503D4161986F8005304E004F0D3
:102408000F06664406F8045C4EF8240053F824507E
:1024180025F4803543F8245053F82450650904F016
:102428001F04BFF35F8F02EB850607FA04F4C6F8B2
:10243800804142F8254091F910404D7B002C4FEA2D
:10244800051503D4161986F8005304E004F00F06A6
:10245800664406F8045C4EF8240053F8245025F42A
:10246800803543F8245053F82450650904F01F04BC
:10247800BFF35F8F02EB850607FA04F4C6F88041C4
:1024880042F8254091F90E40497B002C4FEA011192
:1024980003D4171987F8001305E004F00F0505EBBE
:1024A8000C0707F8041C4EF8240004F01F0753F823
:1024B8002410012621F4803143F8241053F8241005
:1024C800610906FA07F7BFF35F8F02EB8103C3F8D0
:1024D800807142F821709F2100690170F0BDD4D449
:1024E80090F808C0C0E90512BCF1010F09D190F8B5
:1024F80004C04FF48071A0F8251043EA4C0180F81D
:10250800241010B581B04EF2200180F82930C4F2B1
:10251800010109680091009901F00F210091DDF88F
:1025280000E0DDF800C001690B7C90F82C40B4B9DC
:10253800CEF30322A2EB1C6203FA02F2042A09D3A7
:10254800920800BF00BF00BF91F90130002B03D5EE
:10255800013AF9D1082169E00022CA718269002193
:10256800C0E9072190F8262080F8281080F8272055
:1025780080F82B1080F82D1080F82E1080F82F107E
:1025880080F830100168496A0A784B7891F805C0DC
:102598008C79012A5FEA1F9242EA4302036942EA00
:1025A8000C1242EAC41242F00402DA70026913798A
:1025B80043F0100313710269137903F0F7031371E1
:1025C8000269137903F0EF0313710269C97913796A
:1025D80003F07F0343EAC111117101694A7942F09E
:1025E80001024A71016891F90F1000290BD401F01A
:1025F8001F02012303FA02F24EF200134909CEF238
:10260800000343F8212001694A7A02F0F3024A7272
:102618000169BF22CA7190F82C1019B1002180F805
:102628002C1003E00069022141700021084601B026
:1026380010BD10B582B04FF07041EFF3038001EB8D
:1026480000604CF200328015C4F20002835823F473
:10265800803383508058EFF3038001EB006048F625
:1026680004618015C2F200210C5894F82D0038B18D
:1026780094F82E0001284DD1002084F82E0081E026
:10268800A069022804D82069017941F0400101714C
:10269800E06901280ED12069017941F0100101712A
:1026A8002069017941F0080101712069017901F07F
:1026B800EF01017120688269D2B1216994F829304B
:1026C800012B15D1A369042B12D3D2F808C0033B00
:1026D80013311068DCF808C062699BB2E0472068D3
:1026E800A2690321033AC4E90712012184F82E10D4
:1026F800406AC079012803D10521204600F048FA34
:102708002069C07C8DF807009DF80700012084F837
:102718002D0037E0E069A8B32168496AC979012921
:1027280004D10521204600F033FAE06901282BD0B6
:10273800022806D0032813D12069017941F040010D
:102748000DE02069017941F01001017120690179DA
:1027580041F0080101712069017901F0EF0101716F
:10276800D4E90401C07C226A8854D4E907010138FD
:1027780001F10101C4E9070104D12069017901F0DF
:10278800BF01017102B010BD94F82A00012831D1AF
:1027980020684EF28013CEF2000390F90F00420930
:1027A80000F01F01012000FA01F143F82210BFF3E5
:1027B8004F8FBFF36F8F2169CA7942F08002CA71C7
:1027C80021690A7942F010020A7121690A7902F036
:1027D800F7020A7121690A7902F0EF020A71216988
:1027E80004224A7021694A7902F0FE024A7184F88B
:1027F8002C00B5E72069417A01F0F70141722069A0
:1028080008214170ACE7D4D4B0B54FF07041EFF374
:10281800038001EB00604CF200358015C4F200051E
:10282800425922F4803242514059EFF3038001EBC0
:10283800006048F604618015C2F200210C5894F833
:102848002700B0B394F82610032907D194F828106C
:10285800022903D194F83010002952D094F824505A
:102868000128206919D121684969B1B194F8292052
:102878009AB9A2698AB1D1F808C0A38B00F11202F3
:102888000868DCF808C06169E04720690021A2698E
:10289800C4E90712012184F82F10857494F82800E0
:1028A80094F82710013084F82800481E84F827007F
:1028B800B0BD94F8290020BB2068406AC07901287F
:1028C80008D194F82B0028B9206A18B105212046B0
:1028D80000F05EF994F82F00012804D1002084F854
:1028E8002F00E0690CE0E06960B1D4E90401226AD4
:1028F800895C8174D4E90710421C481EC4E90702A8
:1029080000B1B0BD2069C17901F07F01C1712069B2
:102918006FF0BE0100BF00BF90F90720B2F1FF3F82
:1029280003DC002901F10101F6D1206890F91000BB
:1029380055F8201021F4803145F8201055F8200072
:10294800206890F9100000280BD44EF2802300F084
:102958001F014009CEF20003012202FA01F143F8F7
:1029680020102069C17941F04001C171B0BDD4D4B3
:1029780010B54FF07041EFF3038001EB006048F6AB
:1029880004618015C2F200210C582068406AC079A1
:10299800012803D10521204600F0FAF894F829000F
:1029A800012806D194F82700012802D194F83000B4
:1029B80080B3E06970BB94F82A00012822D120680E
:1029C8004EF28013CEF20003012290F90F0000F0BE
:1029D8001F01400902FA01F143F82010BFF34F8F9D
:1029E800BFF36F8F2069C17941F08001C1712069FF
:1029F800042141702069417901F0FE01417184F898
:102A08002C2007E02069417A01F0F7014172206922
:102A1800082141702069C17901F0BF01C1712069A5
:102A28006FF0BE0100BF00BFC279520603D500296E
:102A380001F10101F8D14FF07041EFF3038001EB90
:102A480000604CF200318015C4F20001425822F4B3
:102A580080324250405810BDB0B54FF07041EFF38E
:102A6800038001EB006048F604618015C2F2002182
:102A78000C5821694A7A4B7A02F01F0002F00302CF
:102A88000F2803F0E0034B7201D83AB923E021691B
:102A98004B785B0658BF42F00102CAB1012084F8A6
:102AA8002B0020690025C57120462168FFF720FC0E
:102AB80094F82600A16984F828002069C4E9075120
:102AC800B32184F82C5084F82A50C17101214BE0BD
:102AD8004A78520611D4010706D494F82C20012A0A
:102AE80031D110F004022ED0E06910B994F82B000F
:102AF80090B3002919D4012035E0012084F82B0077
:102B08000820487020682369406A417902788079F2
:102B180042EA011141EAC01040F00200D870206971
:102B2800417941F00101417121E00020A169C4E926
:102B3800070194F8261084F8281084F82C0084F8EB
:102B48002A0001200CE0400711D52068406AC079AE
:102B580001280CD1042107E094F8290080F0030033
:102B68002169B322CA71C1B2204600F011F84FF0B2
:102B78007041EFF3038001EB00604CF200318015E7
:102B8800C4F20001425822F4803242504058B0BD8D
:102B9800B0B582B0856B044625B1D5E90002CDE910
:102BA800000200E06D462068E36B2B6029714269E2
:102BB8003AB194F8291021B99168106809698847D1
:102BC8002068806938B194F82910012903D18168F7
:102BD800006809698847616B28468847A06B18B167
:102BE800DDE90012C0E90012002084F82B0002B0D1
:102BF800B0BD2DE9F047814600260670EFF310843A
:102C0800012080F3108843F208000D46C4F220002A
:102C180043F2044843F2000AC4F234080168C4F2DB
:102C2800340A21F01001016000681E20012101F022
:102C380003F884F31088DAF8000040F48030CAF80A
:102C48000000D5F8840095F83C10027940790329F2
:102C58004FF0400108BF4FF48251002A00F03F00B6
:102C680008BF01F580710844C8F84C0095F8400089
:102C7800D5F88410002818BF4FF4BC70CAF8E403D4
:102C8800C8F8006091F9006091F9012091F90200FB
:102C9800711C44F6E461D3B2C0F2002113D095F858
:102CA80030402CB9D8F8184044F01004C8F818403F
:102CB80051F82660346844F002043460EE8D6FF3F6
:102CC800DF26C8F81460FF2BC3B211D095F83A601C
:102CD8002EB9D8F8086046F01006C8F8086051F810
:102CE8002220166816602A8F6FF3DF22C8F80420A6
:102CF800FF2B1FD095F83F2012B90122C8F82420D5
:102D080051F82000016841F007010160A88D698D24
:102D18006FF3DF206FF3DF2141EA0040C8F81C00A1
:102D2800E88EA98E6FF3DF206FF3DF2141EA0040C0
:102D3800C8F80C00688E298D48F694536FF3DF208D
:102D4800C2F200236FF3DF2141EA0040CAF8040011
:102D58004FF00110CAF80800A88D698D01306FF393
:102D6800DF216FF3DF2041EA0040CAF81000E88E47
:102D7800A98E01306FF3DF216FF3DF2041EA0040B5
:102D8800CAF80C0095F8450095F8461095F84420C7
:102D9800000240EA014048F690511044CAF8140075
:102DA800C2F20021A88D6A8D088048F69251C2F2BD
:102DB8000021E88E1A800022088048F69651C2F257
:102DC8000021A88E088005F15C01284600F09AF9D8
:102DD80005F1140005F16801012200F093F995F856
:102DE8003C0045F22266C0F2002645F22664C0F295
:102DF800002495F85830375C95F83D2095F83E103A
:102E0800265C012B4FEA074316D1D5F88440A779F1
:102E1800022F0FD1E77994F808C094F809E0A47A52
:102E28003F0347EA0C2747EA0E1727433B4343F47F
:102E3800001301E043F480133703012A08BF07F1A8
:102E48008057012948F2800108BF07F180770328DD
:102E58004FF4007008BF07F50077CAF8C473CAF8C2
:102E6800D433CAF8C8034FF00220C0F28001CAF870
:102E7800CC03CAF8D01348F69852D5E91F01C9E91E
:102E88000101E88EA98EC2F20022C9F80C5008444C
:102E9800C2F800900130DAF8501248F6046260F384
:102EA8000A01CAF850120620C8F83C000720C8F8E2
:102EB8004000D9F80C304EF200104CF20031CEF23E
:102EC800000093F97770C4F20001C2F20022002FCB
:102ED8001FD493F87430C61901251B0186F80033F6
:102EE80042F8279051F8273023F4803341F82730EF
:102EF80051F827307B0907F01F07BFF35F8F00EBFE
:102F0800830605FA07F7C6F8807140F82370D9F8E8
:102F18000C3093F97870002F1FD493F87530C619C8
:102F280001251B0186F8003342F8279051F8273015
:102F380023F4803341F8273051F827307B0907F014
:102F48001F07BFF35F8F00EB830605FA07F7C6F884
:102F5800807140F82370D9F80C3093F97970002FFC
:102F68001DD493F87630C6191B0186F8003342F851
:102F7800279007F01F0351F8272022F4803241F8E8
:102F8800272051F8271079090127BFF35F8F00EB3D
:102F9800810207FA03F3C2F8803140F8213000209B
:102FA800012189F80010BDE8F08770B543F20006EA
:102FB8000446C4F234063168C90702D0204600F03E
:102FC800D0F9B069C0055CD4E1684EF28010CEF249
:102FD800000091F97720002A0CD4510902F01F0251
:102FE800012303FA02F240F82120BFF34F8FBFF309
:102FF8006F8FE16891F97820002A0CD4510902F00A
:103008001F02012303FA02F240F82120BFF34F8F79
:10301800BFF36F8FE16891F9791000290BD44A0941
:1030280001F01F01012303FA01F140F82210BFF358
:103038004F8FBFF36F8F43F244400025C4F2340032
:10304800C6F840540560306820F0010030603068F0
:1030580020F480303060EFF31086012080F3108870
:1030680043F20800C4F22000016841F01001016039
:1030780000681E20012100F0DFFD86F3108825700E
:1030880001E040F2EE35284670BD43F20002C4F27A
:103098003402116841F480711160116841F0010136
:1030A8001160D2F84034014643F00100C2F84004F0
:1030B800002002220A70704743F20003C4F234036E
:1030C80003EB0220D0F80021D20718D11A68D205E4
:1030D80015D400F58070012200295FEA0F9C18BF03
:1030E8000322036A23F002031A430262C0F804C0F1
:1030F800C160016841F0010101600020704740F2A1
:10310800EE3070470368002B43F20013C4F2340317
:1031180032D02DE9F04F85B0077B45F21A6644F6A8
:10312800F46CC0F20026C0F2002C03EB0229F65D15
:1031380002923CF8172048F6905E0192826800924D
:103148003707C9F81C7048F69457C2F20027067B67
:103158000D8888463C8882682FB23CF81630C2F247
:10316800002EA7420FD9B7F1FF3F3CDD01680027C9
:103178004FF0000A049711E003EB022001210162DD
:1031880000214160704786881FFA87FAA4EB0A0776
:103198000168B74257EAB68700260496BCB2867B18
:1031A800B8F802B004FB03F5CDF80C80012E0FFA35
:1031B8008BF84FEAD50C02D1C6880CFB06FC48F602
:1031C8009656C2F200263688464505D2B8F1FF3F2A
:1031D80017DD4FF0000E1EE0C288A6EB08069642E7
:1031E80056EA328E19E085883D44012DBEDB083E43
:1031F80016F1030F00F29480DE084024B4FBF6F6C3
:103208008FE0C78807EB080EBEF1010FE1DB5A43D8
:10321800D20802FB18114FF0000BC9F80C1048F641
:103228009053827B0CF13F06C2F200230399012AD6
:10323800049A42EA040709D1028A0025C9F8105005
:103248001FFA8EF5008A964668430CE0DDE90052C5
:103258006A43407BD208002852EA02B00004C9F849
:1032680010001FFA8EF0AEF101024FF0FF356FF338
:10327800DF2205EB9616C6EA0242C9F818201A881A
:103288006FF3DF273C466FF3DF20524462F31A44A2
:10329800C9F828401A88524462F31A4748F69252ED
:1032A800C2F20022C9F8307012885A4462F31A40F8
:1032B800C9F82400C9F82C00087A28B1012805D1DA
:1032C800487A0021000407E0032018E0487A4FF408
:1032D8007F01000400F18070029AC9F8340048F6B2
:1032E800A450C9F83810C2F2002048F69C51C2F226
:1032F80000210068023041F8220041F20300C9F8B9
:1033080020000120C9F804000021C9F8501040F23B
:103318004031C2F200210870487005B0BDE8F08F56
:1033280001267C42BEF900E0B4FBF6FC76450CFBB6
:10333800164405EB040C03FB07F5C4F100045CEA32
:10334800CC87C5F100061FFA84FA04684FF000051F
:1033580004EBD606C8BF4FF0000A049526F03F01DB
:103368001CE743F20001C4F23401D1F80021D2076E
:1033780008D1D1F80022D20704BFD1F8C0235FEAF0
:10338800C27202D040F2EE3070470A68D205F9D412
:103398000A6822F001020A600121017000207047CA
:1033A80048F6985048F6A451C2F20020C2F2002113
:1033B80000680A6801320A60096831B948F69C5108
:1033C8000022C2F20021C1E9002280B582B040F299
:1033D80040310122C2F200210A704A70416831B1BD
:1033E80080680190684603228DF80020884743F2E0
:1033F8004840C4F23400016841F0010101604FF017
:103408007041EFF3038001EB00604CF2003180154E
:10341800C4F20001425822F480324250405802B0AF
:1034280080BD80B582B048F69850C2F2002000688E
:10343800416831B180680190684601228DF800200A
:10344800884743F24840C4F23400016841F0020161
:1034580001604FF07041EFF3038001EB00604CF224
:1034680000318015C4F20001425822F480324250E3
:10347800405802B080BD80B582B048F69850C2F27C
:1034880000200068416831B18068019068460222D6
:103498008DF80020884743F24840C4F234000168A0
:1034A80041F0040101604FF07041EFF3038001EB3C
:1034B80000604CF200318015C4F20001425822F439
:1034C80080324250405802B080BD2DE9F04148F6A4
:1034D800A85240F20006C2F200220D460446C2F28B
:1034E800002613780BBB43F200004FF00108C4F22A
:1034F800200082F80080EFF3108788F310880168B5
:1035080021F48001016000681E20012100F094FB75
:1035180087F310884021304600F08AFE4AF60C40B6
:10352800C4F20000866080F80080686890F90000A6
:10353800002805D456F8201029B10820BDE8F081EC
:103548000B20BDE8F0812968207111B1204600F0F8
:10355800DFF844F20030C4F2544020600020BDE897
:10356800F081D4D4D4D4D4D4B0B5044690F90400AE
:103578004CF20035C4F2000555F8202022F0807284
:1035880045F8202094F904004AF60E42C4F20002DD
:1035980040F4004000BF00BF13889842FCD020468A
:1035A80000F0B6F894F90410002055F8212042F0F4
:1035B800807245F82120B0BD10B582B0019100920B
:1035C80090F904104CF2003C40F20002C4F2000CE6
:1035D800C2F2002252F821E05CF8212022F0807229
:1035E8004CF8212090F904204AF60E41C4F200015B
:1035F80042F4004200BF00BF0C88A242FCD008225F
:103608008A70019A12B1019ACEF80420009A12B178
:10361800009ACEF80820DEF80020B2F1404F02DA16
:10362800AEF80C3005E00024B4EB927F08BFAEF88A
:103638000E3018228A7090F9041000205CF82120BE
:1036480042F080724CF8212002B010BD90F90410AD
:103658004CF20032C4F20002002052F8213043F04C
:10366800807342F82130704790F904104CF2003210
:10367800C4F20002002052F8213023F0807342F88F
:1036880021307047062070470620704790F90400E3
:1036980040F20002C2F2002252F820000022C1E9E2
:1036A80000220268B2F1804F05D24FF480328A605E
:1036B800C089C8600EE04FF480728A60C289D2B2B5
:1036C800CA600268B2F1404F04DA4FF480320A60EF
:1036D8008089486000207047014690F904204CF228
:1036E800003040F2000CC4F20000C2F2002C50F886
:1036F800223023F0807340F82230002000234CF859
:1037080022300B6070470620704706207047D4D4DB
:1037180080B501F10E0200BF52F80EECBEF1804FE9
:1037280006D3B2F800C05FFA8CF343EA0C23138087
:103738001EF4400F02F11002EED14AF6104208239F
:10374800C4F20002137040F2000390F90400C2F2C0
:10375800002343F820101820107080BD4EF2240179
:10376800C4F201018878098801F00F02A2F108016A
:1037780003293BD8DFE801F0022C101E48F2603123
:10378800C2F2002151F820004AF6AB21CAF6AA215C
:10379800A0FB0101480830E048F26031C2F2002184
:1037A80051F820004AF6AB21CAF6AA21A0FB010174
:1037B800C80822E048F26031C2F2002151F8200026
:1037C8004AF6AB21CAF6AA21A0FB0101080914E0B8
:1037D80048F26031C2F2002151F820004AF6AB21CC
:1037E800CAF6AA21A0FB0101880806E048F2603168
:1037F800C2F2002151F82000D04048F65061C2F2D0
:10380800002108607047D4D42DE9F041DAA04EF2C7
:10381800FA38C4F201084AF20151CFF6FF7190ED6F
:10382800001F48F260300231A8F80010C2F20020F0
:10383800D5A14EF6014680ED001F4EF600474EF228
:10384800140591ED001F48F2004140F6000280ED9A
:10385800041F2030C1F2D77143F60003C4F20106F9
:10386800C4F20107C4F20105C2F6AF72C1F69C4367
:103878000EC0FFF773FF4FF650600A21CFF6FF70B6
:103888003954092085F88E00387818B930788007BF
:1038980000F06C81387850B901203870C8200121B7
:1038A80000F0CAF900BF00BF38780128FCD1002019
:1038B800307038704AF20156002085F82200A87747
:1038C80095F828000007FBD542F602314EF6145051
:1038D800C0F20101C5F8B41040F223416987002203
:1038E80085F836204FF60211C5F8981040F251417C
:1038F8002987CEF200004EF20001BFF34F8FBFF3CD
:103908006F8F0368CEF2010123F400330360C0F81F
:103918003C22BFF34F8FBFF36F8F0A6822F44052E7
:103928000A60BFF34F8FBFF36F8F2A7802F0F80257
:1039380001322A7000BF00BF2A78D206FCD40A6878
:1039480042F440520A60BFF34F8FBFF36F8F016894
:10395800890312D4BFF34F8FBFF36F8F0021C0F8D4
:103968003C12BFF34F8FBFF36F8F016841F40031F2
:103978000160BFF34F8FBFF36F8F0020A87500BFA2
:1039880095F828008006FBD54CF200070020C4F209
:10399800130738703878387838787868FA2807D074
:1039A800FA20C1F6006000BF78607968FA29FBD177
:1039B800B8687D2808D07D20CEF2001000BF00BF77
:1039C800B860B9687D29FBD143F23240C3F22320A5
:1039D800E86042F2201028820520A874FFF7BEFE96
:1039E8001E200121012400F027F978686FF39F2039
:1039F800652828BF3C70FFF7B1FE42F200004FF483
:103A08002541C4F200000680BFF35F8F0472BFF344
:103A18005F8F018085F83F40002085F82A008020CC
:103A280085F82A0095F8620040F0400085F86200A9
:103A380095F96200B0F1FF3FFADC032085F85A00DF
:103A4800CA2085F8620095F8620000F0BF0085F88A
:103A5800620000BF00BF00BF95F962000028FBD4D8
:103A680095F8410040F0400085F8410000BF00BFD4
:103A780095F94100B0F1FF3FFADC022085F84000DB
:103A8800CA2085F8410095F8410000F0BF0085F88C
:103A9800410000BF00BF00BF95F941000028FBD4DA
:103AA80095F8430040F0400085F8430000BF00BF90
:103AB80095F94300B0F1FF3FFADC002085F8420099
:103AC800C72085F8430095F8430000F0BF0085F84B
:103AD800430000BF00BF00BF95F943000028FBD496
:103AE80095F8490040F0400085F8490000BF00BF44
:103AF80095F94900B0F1FF3FFADC012085F848004C
:103B0800C62085F8490095F8490000F0BF0085F8FF
:103B1800490000BF00BF00BF95F949000028FBD449
:103B280095F84B0040F0400085F84B0000BF00BFFF
:103B380095F94B00B0F1FF3FFADC012085F84A0007
:103B4800CA2085F84B0095F84B0000F0BF0085F8B7
:103B58004B0000BF00BF00BF95F94B000028FBD405
:103B68004FF42540A8F80000BDE8F0814FF47A70C2
:103B780000F012F89EE600BF006CDC0200127A002A
:103B88000080000000366E010080000000CA9A3BE9
:103B98000046C3235543DE137047D4D4D4D4D4D4B9
:103BA800B0B542F22404C820C4F220040121002543
:103BB800257100F041F82570207808B12FF005C074
:103BC800207840F00200207020788007FCD4002084
:103BD80004F8020C00BF00BF14F8020C08B12FF063
:103BE80005C84FF0030E002004F11C0100BF00BF00
:103BF80011F8102002F07F0201F8102000BF00BF6A
:103C080011F91020002AFBD401300FF00FC8012051
:103C180000F0B9F84EF64C410120C4F2010100222F
:103C28000A70BDE8B04000F087B8014600220020C5
:103C3800C0F204620A60704748F6506241F20023FD
:103C4800C2F20022C0F27A03484312689A420FD3A4
:103C580044F23F21C0F20F0111444DF68362C4F2D1
:103C68001B32A1FB0212910CA0FB0101C9B11BE0A0
:103C78004CF60021C3F69A31B1FBF2F148F638123E
:103C8800C0F24102904205D24FF47A725043B0FB21
:103C9800F1F006E0B0FBF1F0904205D24FF47A71F2
:103CA800484328B100F008B84FF0FF3000F004B8DE
:103CB8007047D4D4D4D4D4D401380028FCD1704768
:103CC800F0B581B04CF2001548F6AC57C4F20005C7
:103CD8000024C2F200272868296A01EA000600BF0A
:103CE80026FA04F0C00703D0396809B1204688478E
:103CF80001340437152CF3D12E6100BF00BF00BF7B
:103D0800286A3042FCD101B0F0BDD4D4D4D4D4D484
:103D180080B54FF0100E4CF2003045F2D451C4F289
:103D28000000C0F2002100BF31F8022B02B102608E
:103D380004300FF007C880BDEFF31081012282F331
:103D4800108848F64462C2F2002232F8103023B1DB
:103D580032F81030013B22F8103032F810207AB9CE
:103D68004EF2FA3245F6A40CC4F20102C0F2002C5D
:103D780013883CF8100043F4254323EA0000108020
:103D880081F31088704710B5EFF31081012282F398
:103D9800108848F64462C2F2002232F8103083B923
:103DA8004EF2FA3E45F6A40CC4F2010EC0F2002C05
:103DB800BEF800403CF81030234343F42543AEF8E6
:103DC800003032F81030013322F8103081F31088B7
:103DD80010BDD4D4D4D4D4D470B543F60045044629
:103DE800C4F2000500BF00BF95F8500008B12FF0DD
:103DF80005C84FF08700A8844FF0100028709CB1C8
:103E08000020FFF7C0FF4EF253000126C4F2010064
:103E180006700020FFF790FF85F8206000BF00BF04
:103E280095F850000007FBD40120A87000206870A6
:103E380095F8500008B12FF005C842F20350C0F2BF
:103E48000500ACB14FF40C71A5F8481000BF00BFD5
:103E580095F85010C907FBD16864002085F8400028
:103E680047F2A830A8820120A8751120287070BDDB
:103E78006864002085F8400047F2A830A882012035
:103E8800A87500BF00BF00BF2878C007FCD195F80F
:103E9800500008B12FF009C00120287470BDD4D497
:103EA80000F006F8FDF7E5FAFEE700BE7047D4D447
:103EB800F0B581B04EF6005540F20120CEF2000573
:103EC800C0F20E004EF200066861CEF20106BFF3A2
:103ED8004F8FBFF36F8F29683368C1F3035043F0E6
:103EE800040301285FEA1F92336011F00F0F5FEAA5
:103EF8000F91BFF34F8FBFF36F8F11420DD1012880
:103F08000BD84EF20800CEF20000016841F480316F
:103F18000160BFF34F8FBFF36F8F4FF4700040F213
:103F28000001C5F888000020C0F20021A960002423
:103F3800FDF709F8FFF768FC4EF2FA304EF6B022AA
:103F4800C4F20100C4F201024AF202510180147065
:103F58004FF4254101800120FCF7F5FF40F2603065
:103F6800C2F2002080F30A883068800724D5A86848
:103F7800B0F1007F20D130694FF40071C0F3C30065
:103F8800726901FA00F3C2F3C30081400020DA0825
:103F9800CB080146064642F007C800BF00BF00BF75
:103FA800E6E802010FF005C04FF0005243F005C0EB
:103FB800E2E802010FF005C0002000F009F9FFF760
:103FC800CDFBFFF7EDFD0320FFF7DDFE4FF00E0EF2
:103FD80040F63050C4F2400020F8044B0FF005C002
:103FE8000320FFF7A9FE0320FFF7CDFE44F20400EB
:103FF8000021C4F22000016041608160C16003209B
:10400800FFF79AFE45F27861D5F8C020C0F200218A
:10401800442363F30702C5F8C020086918B3496947
:1040280000244FF0200E4FF0010C002600BF00BF07
:1040380001EBC40251F83430526822F01F02203AD2
:104048000EEB5217B7EB531F09D942F001026CF37C
:104058000403C5F89840C5F89C30C5F8A02001367F
:10406800F4B2A042E4D8BFF35F8F0520C5F89400EE
:10407800686A40F480306862BFF34F8FBFF36F8F78
:104088006869C0032ED40020C5F88400BFF34F8FA1
:10409800D5F8801043F6E073C1F34E30CA08C1F377
:1040A800C9014E1C9107420102EA030746F001E0EC
:1040B800CC1900BF00BF00BFC5F8604204F14044FE
:1040C8000FF007C00028A0F10100A2F12002EBD1F7
:1040D800BFF34F8F686940F480306861BFF34F8F3A
:1040E800BFF36F8F4EF21014C4F20104D4F8C80263
:1040F800800714D42078A0B10120FFF744FE00BF48
:1041080094F9000010F1410FFADC0020207000BF84
:1041180020783F28FCD80120FFF70EFE01E0D4F8F4
:10412800C802D4F8C802400715D42079A8B10120E4
:10413800FFF729FE00BF00BF94F9040010F1410FFA
:10414800FADC0020207100BF20793F28FCD801202C
:10415800FFF7F2FD01E0D4F8C8020220FCF7F3FEF5
:10416800012000F035F848F65864C2F200242046D1
:1041780000F072F8204600F083F8BFF34F8FBFF3CA
:104188006F8F0020C5F8500245F6FE0045F6FE0187
:10419800C0F20020C0F20021BFF34F8F081ABFF30E
:1041A8006F8F8410012C08DB45F6FE05C0F2002550
:1041B80055F8040B8047013CFAD1FFF7A9FD002010
:1041C80001B0BDE8F04000F032B8D4D4D4D4D4D48F
:1041D800F0B581B045F278650446C0F200252E6836
:1041E80076B16868071D00BF7879844204D157E921
:1041F8000101091A00F01CF8013E07F10C07F3D180
:10420800AE6896B1E86800F1080500BF00BF00BFBE
:104218006879844205D155E902022968121A00F02A
:104228000BF8013E05F11005F2D101B0F0BD704761
:104238000A46002100F009B810B5002322B1CC5C71
:10424800013AC4540133F9E710BD03461AB103F823
:10425800011B013AFAE7704710B505490446054ABB
:10426800FFF7EAFF044805492044FFF7E1FF10BDC6
:1042780082030002000000000000000000000000AF
:104288000249401A02490860704700BF0800000050
:10429800548E002200000000000054545220524561
:1042A8004747455300726561645F7265675F3136E1
:1042B8006269740077726974655F7265675F313629
:1042C80062697420746F20706F77657220646F77ED
:1042D8006E2063616D657261206661696C65640D4D
:1042E8000A00202A2A2063616D6572615F636F6E20
:1042F8006669677572655F636C6F636B73204641AF
:10430800494C4544202A2A200D0A00202A2A2052F6
:104318005F4949435F4D41535445525F5772697431
:104328006520415049204641494C4544202A2A20CD
:104338000D0A00312E300053657420307833303345
:1043480036207265676973746572206661696C6589
:10435800640D0A0068616E646C655F6572726F72E5
:1043680000202A2A2063616D6572615F737472652B
:10437800616D5F6F6666204641494C4544202A2A94
:10438800200D0A0063616D6572615F6F70656E0074
:1043980076696E5F63616D6572615F737461727473
:1043A800005365742030783330333520726567697F
:1043B80073746572206661696C65640D0A00676CC8
:1043C8006364635F696E697400202A2A20525F491A
:1043D80049435F4D41535445525F4F70656E2041CC
:1043E8005049204641494C4544202A2A200D0A00BC
:1043F800202A2A20525F56494E5F436170747572B5
:1044080065537461727420415049204641494C45B6
:1044180044202A2A200D0A0063616D6572615F7766
:10442800726974655F61727261790063616D65724A
:10443800615F73747265616D5F6F666600284E55C3
:104448004C4C2900202A2A2077726974655F7265AE
:10445800675F3136626974204641494C4544202AD9
:104468002A200D0A00525F56494E5F436C6F7365F0
:10447800204641494C45440D0A00202A2A20525F13
:1044880056494E5F436C6F73652041504920464141
:10449800494C4544202A2A200D0A00202A2A206354
:1044A800616D6572615F77726974655F617272616F
:1044B80079204641494C4544202A2A200D0A0067A4
:1044C8006C6364635F696E6974204641494C454476
:1044D800200D0A0077726974655F7265675F31360F
:1044E80062697420746F207475726E206F6666201E
:1044F80073747265616D2063616D657261206661B8
:10450800696C65640D0A006932635F636F6E74726B
:104518006F6C5F696E6974204641494C4544200DB3
:104528000A00202A2A2063616D6572615F6F7065D9
:104538006E204641494C4544202A2A200D0A000D88
:104548000A52657475726E6564204572726F7220C6
:10455800436F64653A203078257820200D0A0020C2
:104568002A2A2063616D6572615F7365745F6D6986
:1045780070695F7669727475616C5F6368616E6E8D
:10458800656C204641494C4544202A2A200D0A00E2
:1045980063616D6572615F6670735F736574002A2D
:1045A8002A20525F474C4344435F5374617274201E
:1045B800415049204641494C4544202A2A00766901
:1045C8006E5F7363616C655F696D61676520464105
:1045D800494C4544200D0A000D0A4C697665206354
:1045E800616D6572612073747265616D696E6720B3
:1045F800737461727465640D0A0077726974655F1B
:104608007265675F313662697420746F20706F77E6
:1046180065722075702063616D65726120666169DD
:104628006C65640D0A00525F4949435F4D4153541C
:1046380045525F436C6F7365204641494C45440DB4
:104648000A005465726D696E616C000D0A5B455213
:10465800525D20496E2046756E6374696F6E3A200C
:10466800257328292C20257300202A2A20726561A9
:10467800645F7265675F3136626974204641494CF0
:104688004544202A2A200D0A0053657420307833C7
:1046980031303820726567697374657220666169A4
:1046A8006C65640D0A002A2A20525F474C43444334
:1046B8005F4F70656E20415049204641494C454442
:1046C800202A2A00202A2A2063616D6572615F739F
:1046D800747265616D5F6F6E204641494C45442098
:1046E8002A2A200D0A004368616E676520746F20CE
:1046F8006C6976652063616D657261206D6F6465B4
:10470800204641494C4544200D0A00202A2A2063AE
:10471800616D6572615F6670735F73657420464191
:10472800494C4544202A2A200D0A0053657420303C
:104738007833303337207265676973746572206621
:1047480061696C65640D0A002A2A20525F474C4350
:1047580044435F436C6F736520415049204641498B
:104768004C4544202A2A0063616D6572615F737449
:104778007265616D5F6F6E0063616D6572615F6325
:104788006F6E6669677572655F636C6F636B7300E4
:1047980077726974655F7265675F31366269742024
:1047A8006661696C65640D0A0063616D6572615FBD
:1047B8007365745F6D6970695F7669727475616C31
:1047C8005F6368616E6E656C00202A2A2076696EC8
:1047D8005F63616D6572615F7374617274204641D5
:1047E800494C4544202A2A200D0A007772697465CD
:1047F8005F7265675F313662697420746F20747503
:10480800726E206F6E2073747265616D2063616DC6
:10481800657261206661696C65640D0A00693263BE
:104828005F636F6E74726F6C5F696E697400202AC3
:104838002A20525F4949435F4D41535445525F52C4
:1048480065616420415049204641494C4544202A2D
:104858002A200D0A002A2A20525F474C4344435F0E
:104868004275666665724368616E676520415049A6
:10487800204641494C4544202A2A0D0A007772698E
:1048880074655F7265675F313662697400202A2A31
:1048980020525F4949435F4D41535445525F536C21
:1048A8006176654164647265737353657420415021
:1048B80049204641494C4544202A2A200D0A0072C5
:1048C8006561645F7265675F31366269742066612D
:1048D800696C65640D0A000D0A2A2A2A2A2A2A2ADE
:1048E8002A2A2A2A2A2A2A2A2A2A2A2A2A2A2A2A20
:1048F8002A2A2A2A2A2A2A2A2A2A2A2A2A2A2A2A10
:104908002A2A2A2A2A2A2A2A2A2A2A2A2A2A2A2AFF
:104918002A2A2A2A2A2A2A2A2A2A2A2A2A2A2A2AEF
:104928002A2A2A2A2A2A2A2A2A0D0A2A2020205212
:10493800656E6573617320465350204578616D70CC
:104948006C652050726F6A65637420666F7220729E
:104958005F6D6970695F637369204D6F64756C651D
:10496800202020202020202020202020202020203F
:10497800202020202020202020202A0D0A2A202044
:10498800204578616D706C652050726F6A6563743C
:104998002056657273696F6E2025732020202020B1
:1049A80020202020202020202020202020202020FF
:1049B80020202020202020202020202020202020EF
:1049C80020202020202020202020202A0D0A2A20F4
:1049D8002020466C657820536F6674776172652075
:1049E8005061636B2056657273696F6E2020256471
:1049F8002E25642E25642020202020202020202001
:104A0800202020202020202020202020202020209E
:104A1800202020202020202020202020202020208E
:104A28002A0D0A2A2A2A2A2A2A2A2A2A2A2A2A2A1B
:104A38002A2A2A2A2A2A2A2A2A2A2A2A2A2A2A2ACE
:104A48002A2A2A2A2A2A2A2A2A2A2A2A2A2A2A2ABE
:104A58002A2A2A2A2A2A2A2A2A2A2A2A2A2A2A2AAE
:104A68002A2A2A2A2A2A2A2A2A2A2A2A2A2A2A2A9E
:104A78002A2A2A0D0A526566657220746F207468A6
:104A880065206163636F6D70616E79696E67202E52
:104A98006D642066696C6520666F72204578616D6B
:104AA800706C652050726F6A656374206465746108
:104AB800696C7320616E640D0A4653502055736506
:104AC800722773204D616E75616C20666F72206D60
:104AD8006F726520696E666F726D6174696F6E20A2
:104AE80061626F757420725F6D6970695F63736965
:104AF800206472697665720D0A000D0A546869733C
:104B0800206578616D706C652070726F6A6563747A
:104B18002064656D6F6E7374726174657320746858
:104B2800652062617369632066756E6374696F6E70
:104B3800616C697479206F66204D49504920435350
:104B480049206F6E2052656E657361730D0A52417C
:104B5800204D435573207573696E672052656E65E5
:104B6800736173204653502E2054686520493243A0
:104B7800206D6F64756C6520636F6E66696775720A
:104B8800657320616E2065787465726E616C206350
:104B9800616D6572612073656E736F7220746F0D3D
:104BA8000A6F70657261746520776974682074682B
:104BB80065204D49504920696E7465726661636568
:104BC8002E20436170747572656420696D61676534
:104BD8002064617461206973207265636569766514
:104BE8006420627920746865204D495049204353F8
:104BF800490D0A6D6F64756C652C207468656E20AC
:104C080070726F6365737365642062792074686578
:104C18002056494E206D6F64756C653A20636C6947
:104C28007070656420706572204954552D52204279
:104C3800542E3630312C20636F6E7665727465643D
:104C48002066726F6D0D0A59436243722D343232F9
:104C580020746F205247422C207363616C65642076
:104C6800746F2074686520757365722D73656C6543
:104C780063746564207265736F6C7574696F6E2CEC
:104C880020616E642073746F72656420696E2053AE
:104C98004452414D2E0D0A546865207265736F6C3D
:104CA8007574696F6E206368616E6765206973202B
:104CB80068616E646C65642062792074686520564A
:104CC800494E206D6F64756C652C20616C6C6F7734
:104CD800696E672064796E616D6963206F757470A1
:104CE80075740D0A726573697A696E6720776974DD
:104CF800686F7574207265636F6E6669677572692F
:104D08006E67207468652063616D657261207365E4
:104D18006E736F722E0D0A0D0A4265666F726520FA
:104D280063686F6F73696E67207468652063616D6F
:104D3800657261206D6F64652C20746865207573D9
:104D480065722069732070726F6D70746564207667
:104D58006961207465726D696E616C20746F20736F
:104D6800656C656374207468650D0A64657369729F
:104D7800656420696D616765207265736F6C757411
:104D8800696F6E2E20416674657220746861742C98
:104D98002074686520757365722063616E2063688E
:104DA8006F6F736520746F2063617074757265200E
:104DB80061206C69766520696D6167650D0A6F729F
:104DC80020612074657374207061747465726E203C
:104DD800627920747970696E67202731272C202723
:104DE80032272C206F722027332720746F2072659A
:104DF8007475726E20746F20746865206D61696EB9
:104E0800206D656E752E0D0A436170747572656448
:104E180020696D61676573206172652076696577C1
:104E280061626C65206173207261772064617461CE
:104E380020696E20653273747564696F20757369B3
:104E48006E6720746865204D656D6F72792076698C
:104E580065772E0D0A4966206120506172616C6C7D
:104E6800656C204772617068696373204C43442005
:104E7800697320636F6E6E65637465642C20746853
:104E88006520696D61676520697320616C736F20A7
:104E9800646973706C61796564206F6E2D736372D9
:104EA80065656E2E0D0A0D0A00202A2A20525F56CB
:104EB800494E5F4F70656E20415049204641494C2C
:104EC8004544202A2A200D0A00D4D4D43031323364
:104ED8003435363738394142434445460C3434403A
:104EE800143434401C34344024343440200020002E
:104EF800100010001000080004000100000000006D
:104F0800000458022003E0014001F0000100020003
:104F1800000900030303030000000000000000680C
:104F28000004580200040000020000000000000015
:104F380000000000E0015603E0010000020000004C
:104F48000000000030032003080001000000F00109
:104F5800E00108000100000000000001010000005D
:104F68000F0F0FFF0000000000000000000000000D
:104F78000000000001000000000000000000000028
:104F880000FF0000000000000000000000FF00001B
:104F98000C0C0C08090A0000350F00020000000084
:104FA800144F0002F7240100093E250006180000EE
:104FB8001C01140713080C000700000002007C0005
:104FC80004000000AC4F000200000000088D002221
:104FD800C44F0002F4550002D44F000202001A0127
:104FE8000A000A00000000000000000000000000A5
:104FF80000000040000000000C050C060C07FFDF55
:10500800FFDF0000000002000000000000000000B8
:10501800000000103F0301003F0301003F030100AF
:105028003F0301003F0301003F0301003F0301006C
:105038003F0301003F0301003F0301003F0301005C
:105048003F0301003F0301003F0301003F0301004C
:1050580000000000000000007914000200000000B9
:105068000000000000000000108D0022E04F000248
:10507800FC550002705000020800010000005702B1
:105088000000FF03001E00021100000000040000E1
:10509800008025680040386800004B680000000068
:1050A800100000AA000000009F1200000008000184
:1050B800020D891945204506000007400010001020
:1050C8004000400058020004070100000402640088
:1050D8000001018A681F0000D60EC2010008018A7B
:1050E800C2010000870EB70F0008018A0204FFDF23
:1050F8002200000000000000FFFFFFFFFFFFFFFF8E
:10510800FF0000005D140002000000007C50000257
:1051180000D4D4D42003002218510002408D00226C
:105128001C5100022C56000201D4D4D430030022B2
:1051380030510002488D0022345100022C560002E2
:105148000101020F0F00000001000000801A060094
:105158000000000001000001020300003C510002B1
:1051680024510002D710000200000000485100023C
:10517800450000000000000000400000060000009C
:105188000040000008000000004000000900000086
:10519800004000000C000000450000000D00000069
:1051A800000C011C00010000000C011C01010000A2
:1051B800000C011C02010000000C011C030100008E
:1051C800000C011C04010000000C011C050100007A
:1051D800000C011C0601000000400000070100004F
:1051E8000400000008010000450400000901000057
:1051F800104000000B010000000C010B0C01000026
:10520800000C010B0D010000000C010B0E01000049
:10521800000C010B0F01000000400000000200001C
:105228000008011907020000000C01000802000034
:10523800000C010009020000000C01000A02000035
:10524800000C01000B020000000001000C0200002D
:10525800000001000D020000000C010B000300001B
:10526800000C010B01030000000C010B02030000FD
:10527800040C0000030300000000011202040000F7
:1052880000000112030400000000011204040000E1
:1052980000040113070400000004011408040000BE
:1052A80000000113000500000008010301050000CB
:1052B8000004011B02050000000C010B030500009F
:1052C800000C010B04050000000C010B0505000093
:1052D800000C010B06050000000C010B070500007F
:1052E800000C010B08050000000C010B090500006B
:1052F800000C010B0A050000500401070B05000013
:10530800500401070C050000050C00000D05000005
:10531800050000000E050000000801190F05000037
:10532800040C000000060000000C010B070600003A
:10533800000C010B08060000000C010B0906000018
:10534800000C010B0A060000000C010B0B06000004
:10535800000C010B0C060000000C010B0D060000F0
:10536800000C010B0E060000000C010B0F060000DC
:1053780000080119070700000500000008070000E1
:10538800040C000009070000000801190B070000C1
:10539800000801190C070000000801190D0700009A
:1053A800000801190E070000000801190F07000086
:1053B800000C011C00080000000C011C0108000082
:1053C800000C011C02080000000C011C030800006E
:1053D800000C011C04080000000801190508000061
:1053E8000008011906080000000801190708000054
:1053F800000C011C080800000004011B0C08000038
:10540800000C010B0D080000000C01130E08000031
:10541800000C01130F080000000801190209000020
:105428000008011903090000000801190409000017
:10543800000801190A090000000801190B090000F9
:10544800000801190C090000000801190D090000E5
:10545800000801190E090000000801190F090000D1
:10546800000C010B000A0000000C010B010A0000EF
:10547800000C010B020A0000000C010B030A0000DB
:10548800000C010B040A0000000C010B050A0000C7
:10549800000C010B060A0000040C0000070A0000BB
:1054A800000C010B080A0000000C010B090A00009F
:1054B800000C010B0A0A0000000C010B0B0A00008B
:1054C800000C010B0C0A0000000C010B0D0A000077
:1054D800000C010B0E0A00000008010B0F0A000067
:1054E80000080119000B000000080119010B000059
:1054F80000080119020B000000080119030B000045
:1055080000080119040B000000080119050B000030
:1055180000080119060B000000080119070B00001C
:10552800000C010B000C0000000C010B010C00002A
:10553800000C010B020C0000000C010B030C000016
:10554800000C010B040C0000000C010B050C000002
:10555800000C010B060C0000000C010B070C0000EE
:10556800000C010B080C0000000C010B090C0000DA
:10557800000C010B0A0C0000000C010B0B0C0000C6
:10558800000C010B0C0C0000000C010B0D0C0000B2
:10559800000C010B0E0C0000000C010B0F0C00009E
:1055A800000C010B000D0000000C0104020D0000AE
:1055B800000C0104030D000000040114070D000095
:1055C8008A0000007851000200000000A100A2003B
:1055D800A300A40095038F03900391038203830320
:1055E80084036700FC02FD02FE02FF02311900027B
:1055F800451A0002711A0002651B0002411C0002D4
:10560800551C00027B1C00029F1C000202040304BC
:10561800040404010002030506070001020000015A
:105628000203D4D4D334000271350002C13500021C
:1056380055360002713600028D360002913600029E
:1056480095360002E13600020F37000213370002D8
:105658000000006800000068000000800000008072
:105668000000007000000070600300226003002248
:105678000B000000905600021900000014570002A9
:10568800040000005856000200000068000000688E
:105698000001000D00C05D6800C05D680001000DDC
:1056A8000000008000000080000100080000008069
:1056B8000000008000010008000000700000007079
:1056C8000001000A00000070000000700001000ADC
:1056D800000000000000000001000005000000209C
:1056E8000000002001000004600300226003002283
:1056F800000000038C830022588E00220000000363
:10570800588E0022588E0022000000030000006816
:1057180000000068000000900001090D000000680A
:10572800000000680000007800010B0D0000006810
:1057380000000068000000270001020D000000685A
:1057480000000068800000020001010D00000080D8
:10575800000000800000009000010908000000809F
:10576800000000800000007800010B0800000080A5
:1057780000000080000000270001020800000080EF
:105788000000008080000002000101080000007095
:1057980000000070000000900001090A000000707D
:1057A800000000700000007800010B0A0000007083
:1057B80000000070000000270001020A00000070CD
:1057C80000000070800000020001010A00000000D3
:1057D8000000000000000090010109050000000021
:1057E800000000000000007801010B050000000027
:1057F8000000000000000027010002050000000072
:1058080000000000800000020100010500000020E7
:1058180000000020000000900101090400000020A1
:10582800000000200000007801010B0400000020A7
:1058380000000020000000270100020400000020F2
:105848000000002080000002010001044000002246
:1058580040000022000000900001090340000022DF
:10586800400000220000007800010B0340000022E5
:105878004000002200000027000002034000002230
:10588800420300228000000200000103588E00221B
:10589800588E00228203000200000103010002006A
:1058A800080010002000D4D400000406362E342E40
:1058B80030004275696C7420776974682052656E8F
:1058C8006573617320416476616E63656420466C1C
:1058D800657869626C6520536F66747761726520BC
:1058E8005061636B6167652076657273696F6E20BE
:0658F800362E342E3000B4
:0400000502003EA90E
:00000001FF
