:020000040200F8
:1000000080C30022E1490002C9470002EB49000217
:10001000EB490002EB490002EB490002EB49000208
:10002000000000000000000000000000EB4900029A
:10003000EB49000200000000EB490002EB4900021E
:1000400033310002093300027134000259350002D5
:10005000592300022F280002AF2800028F29000236
:10006000A13E0002233F0002773F0002A91E0002CA
:1000700077040002790400027B0400027D04000280
:100080003D500000AAAA3200FFFFFF0008304200E6
:100090000331130003310300003000000430FF007F
:1000A00002301C000630C3000E3045002E30080020
:1000B000343018001F500000004332001836000092
:1000C00012362900093752000C370300203840004F
:1000D000213801003036360031360E003236E2006B
:1000E000333612002136E0000437A00003375A00EF
:1000F00015377800173701000B37600005371A00F5
:10010000053902000639100001390A0031371200A2
:1001100000360800013633002D30600020365200D2
:100120001B3720001C475000133A4300183A0000C8
:10013000193AF800353613003636030034364000DD
:1001400022360100014002000440020005401A006E
:100150000150A30003350700003500000135FF0002
:10016000023500000A3500000B3520000F3A300040
:10017000103A28001B3A30001E3A2600113A60005F
:100180001F3A1400183A0000193A7C0006340000A7
:10019000003407000134700002340400033400000E
:1001A000043405000534C000805401008154080067
:1001B00082541400835428008454510085546500EF
:1001C0008654710087547D008854870089549100BB
:1001D0008A549A008B54AA008C54B8008D54CD00D8
:1001E0008E54DD008F54EA0090541D0080550600A7
:1001F0008355400084551000895510008A55000031
:100200008B55F800005823000158140002580F00C5
:1002100003580F00045812000558260006580C0019
:100220000758080008580500095805000A58080032
:100230000B580D000C5808000D5803000E58000014
:100240000F580000105803001158090012580700F9
:1002500013580300145800001558010016580300E5
:100260001758080018580D00195808001A580500AA
:100270001B5806001C5808001D580E001E58290067
:100280001F5817002058110021581100225815003E
:1002900023582800245846002558260026580800D0
:1002A0002758260028586400295826002A58240078
:1002B0002B5822002C5824002D5824002E580600BC
:1002C0002F58220030584000315842003258240044
:1002D000335826003458240035582200365822005E
:1002E0003758260038584400395824003A58260018
:1002F0003B5828003C5842003D58CE000050A70013
:1003000020384000213806001438310015383100FB
:100310000338040008380400093800000A380200D5
:100320000B3858000C4622003748100024380200D1
:100330000150A3003D50000041470000FFFFFF00B7
:1003400020CD102200000000000000000003002269
:100350000000000000000000000000000000006835
:100360000004580200040000020000000000000029
:10037000000000000000000000FF0000000000007E
:100380000000080000000000000000000000000065
:100390000000100800000000000000000000000045
:0203A000010159
:1003B0004FF6C0504CF2B031C0F20020C2F2002122
:1003C0000068084470474FF6C4504CF2B031C0F298
:1003D0000020C2F2002100680844704700F000B815
:1003E000B0B592B046F280310024C0F20021CDE9D0
:1003F000081446F27C314CF2B035C0F20021C2F252
:1004000000250028CDE90A54096803914FF48011B2
:10041000CDE90C544FF440300690CDE9041105F5B8
:100420008021CDE90E1407D04CF2B0304FF480514A
:10043000C2F2002004F09CFC44F69C714FF4805002
:10044000C0F20021079003A800900A684CF62050E3
:1004500044F6A071C2F21020C0F2002108ABCDE931
:1004600010540525CDE9015401F09BFC01305FEAF1
:100470001FA012B0B0BD7047704770477047D4D40A
:1004800010B54CF2B034A821C2F21024204604F07A
:100490006FFC03202061606140F297204CF25841CC
:1004A000C0F20120A061C2F21021E1614FF40061AD
:1004B00021620021A1626162E1624CF6584220662D
:1004C0004FF0100E4FF6C850C2F210226266C4F808
:1004D00068E02167E1666167BFF35F8FC0F20020CB
:1004E0000F3000BF00BF00BF10F8011904F8011B56
:1004F0000FF007C0BFF35F8F10BDD4D4D4D4D4D4D1
:100500002DE9F04381B014460D468046C7684FF090
:10051000000900BF00BF00BFD8F81000FA43B8427E
:1005200006D91044D8F8081006E000BF00BF00BF8D
:10053000D8F8081010440844C91B884250EA31809A
:100540002946A04250EA3486D8F80400384432469E
:1005500004F012FCF019D8F80810411AA4EB0604B4
:1005600050EA1187B1443544BFF35F8FC8F80C706F
:100570000CB12FF02FC8484601B0BDE8F0832DE93B
:10058000F04381B000EB40004CF2B033C2F21023D4
:10059000144603EBC003894603F11805D86A022804
:1005A00012D0012808D000283ED1EE682869F14316
:1005B000B04234D9084435E0EE682969B1420BD91C
:1005C000F0430144A8680BE028464946224601B0A2
:1005D000BDE8F043FFF794BFF243A868114401441B
:1005E000A14251EA3484871B68683044BC4207D278
:1005F0004946224604F0C0FBBFF35F8F26440CE05F
:1006000049463A4604F0B8FBE61B686809EB070167
:10061000324604F0B1FBBFF35F8FEE6025E0AA68BD
:1006200008441044A04201D200241EE0D5E9010193
:100630008F1B3044BC4208D24946224604F09CFB42
:10064000BFF35F8F06EB04080DE049463A4604F01D
:1006500093FBA4EB0708686809EB0701424604F026
:100660008BFBBFF35F8FC5F80C80204601B0BDE85F
:10067000F083F0B581B04CF2B0331446C2F21023CF
:100680000D4606461B78532B01D0FFF7F9FEEFF31A
:1006900011874FF0200181F3118830462946224608
:1006A000FFF76DFF87F3118801B0F0BDD4D4D4D427
:1006B0002DE9F04F9BB091460F46002406A91691F4
:1006C00040211791002105901A90CDE9181100BF23
:1006D00017F8011B252907D0002900F06F8116A803
:1006E00000F07BF9E5E000BF4FF0000800BF00BF5D
:1006F00039782C2908DC23290ED02B2918D1042085
:100700000FE000BF00BF00BF2D2909D030290FD155
:10071000022006E000BF00BF082002E000BF00BFCB
:10072000012048EA00080137E2E700BF00BF00BF30
:10073000A1F13A0010F10A0F02D2002012E000BF2E
:1007400000200A4600BF00BF17F8011F00EB800021
:10075000A1F13A0302EB400013F10B0FA0F13000BE
:100760000A46F1D82E290FD13A4612F8011F2A293C
:100770000DD1D9F8001002370A1DC9F800200E6803
:1007800001211DE000BF00BF0021002618E0A1F1FB
:100790003A0313F10A0F02D2002100260FE00026CF
:1007A00012F8013F06EB8607A3F13A0601EB470179
:1007B00016F10B0FA1F130061946F1D801211746A9
:1007C00017F8012B02F0FB03682BF9D0632A0FDC2A
:1007D000252A2ED0582A24D0632A6AD1D9F80000BD
:1007E000011DC9F80010017879E700BF00BF00BF04
:1007F000A2F17003082B1ED8DFE803F0055B5B61F4
:100800005B4E5B5B1300D9F800001022011DC9F894
:1008100000100168082300200826CDE9006016A812
:1008200045E0D9F800100A1DC9F800200968102217
:1008300039E0252153E7642A3BD1D9F800104CF662
:10084000CD4C0A1DC9F80020D1F800E0CCF6CC4C04
:10085000CEF100017246BEF1000F48BF0A460A2AD7
:1008600003914FF0010107DBA2FB0C35632A01F174
:1008700001014FEAD502F7D88E4256EA818B002853
:1008800040D0BEF1000F5FEA5F9108F0040241EA38
:100890009201A0EB010A37E0D9F800100A1DC9F84F
:1008A000002009680A22CDE9000816A8334600F0A6
:1008B000B7F8199CB4F1FF3F3FF70AAF89E0D9F8C8
:1008C0000000021DC9F8002000684FF6C072002821
:1008D000C0F2002250EA12855FEA018800BF00BF23
:1008E0002978002E5FEA18800029E2D00028E0D1A4
:1008F00016A8013500F071F8199C013EB4F1FF3FD4
:10090000EEDC66E04FF0000A5FEA88750CD55EB950
:10091000002CCED4BEF1000F29D45FEA4870CDF888
:1009200010E02DD52B2125E05FEAC870F0D1BAF197
:10093000000FEDD0D345EBD20295CDF810E0AAF12F
:10094000010500BF00BF00BF202116A800F045F838
:10095000199C002C3DD4681EA84202D2AB45054626
:10096000F2D300F1010ADDF810E0029DD0E72D215D
:100970000398049016A800F030F8199C002C28D495
:10098000002D05D40A22CDE900A816A804998DE708
:1009900008F001003043F5D1BAF1000FF2D0AAF10E
:1009A0000105554538BFD345ECD2302116A800F0DB
:1009B00014F8199CAA46002CF1D50AE044B1189D00
:1009C00025B106A905982A46FFF753FE2C4400E0FE
:1009D000002420461BB0BDE8F08F10B50446D0E9D6
:1009E0000120431C934207D822681154A360E06899
:1009F00062680130E0601846904218BF10BD21685F
:100A00002069FFF736FEA168884202D10020A0606D
:100A100010BD4FF0FF30E06010BDD4D4D4D4D4D496
:100A20002DE9F04F81B015460E4691421F46814692
:100A3000DDF828B04FF0010007D3314600BF00BFFA
:100A4000B1FBF5F10130A942FAD2874257EA808A18
:100A5000BBF1000F0B991BD011F0010018D18807D2
:100A60004FF0200048BF30202021002F50EA01889D
:100A7000BBF1000F0CD0DA450AD248464146ABF133
:100A8000010BFFF7AAFFD9F80C00B0F1FF3FEFDC34
:100A9000D9F80C0000283CD4012400BF00BF00BFDF
:100AA000022F01D3013F03E0B6FBF4F0A84201D3CB
:100AB0006C43F5E740F66838C0F2012800BF00BF7C
:100AC000B6FBF4F7484618F80710FFF786FFD9F889
:100AD0000C00002806D4B4FBF5F007FB1466A54211
:100AE0000446EDD90B98C00718BFBBF1000F0AD11F
:100AF0000FE020214846FFF770FFD9F80C00A3460D
:100B0000B0F1FF3F05DDABF101045C4538BFDA45CC
:100B1000EFD301B0BDE8F08F82B080B582B0CDE9EF
:100B2000042304AA019201AAFFF7C2FD02B0BDE8A6
:100B3000804002B07047D4D42DE9F04782B04FF620
:100B4000C77840F2BE29871C4AF6AA244FF6FF75E3
:100B5000C0F200280DF1070AC0F2012900218DF82A
:100B6000071000BF00BF00BF37F8020CA0420FD033
:100B7000A84214D0397800F0F5FA90B937F8020C91
:100B8000514600F0A4FA70B907E000BF00BF00BFF3
:100B900038784FF47A7103F0D4FD0437E4E7002687
:100BA0000FE0064601E00646C84640F2A0214FF697
:100BB0009B72C0F20121C0F2002200204346FFF7E1
:100BC000ABFF304602B0BDE8F087D4D4F0B581B0B9
:100BD0002DED048B0A204FF47A7103F0B2FD4CF630
:100BE000C0503C21C2F21020012202F07BF828B153
:100BF00040F22A530446C0F20123B6E04CF6806569
:100C0000EFF31080C2F21025012181F3108840F625
:100C100014542968C4F2400419B9002121704021FC
:100C2000217029684FF6D04601312960CFF6FF7652
:100C300080F3108843F6FA770121CFF6FE77A059AA
:100C400038400430A051EFF3108081F310882968F8
:100C500011B1296801392960296819B90021217069
:100C60008021217080F3108814204FF47A7103F0F2
:100C700068FD0121EFF3108081F31088296819B90C
:100C8000002121704021217029680131296080F301
:100C900010880121A059384040F00500A051EFF321
:100CA000108081F31088296811B129680139296001
:100CB000296819B9002121708021217080F31088E2
:100CC00014204FF47A7103F03CFD40F24C00C2F264
:100CD0000020FFF731FF28B140F26E030446C0F256
:100CE000012342E032204FF47A7103F02AFD43F2EF
:100CF0003500122100F036FA28B14FF6247304466D
:100D0000C0F2002322E043F236007B2100F02AFAF1
:100D100028B14FF680630446C0F2002316E043F288
:100D20003700082100F01EFA28B140F2943304463F
:100D3000C0F201230AE043F20810122100F012FA77
:100D400018B340F2F2230446C0F2012340F2A0217E
:100D500040F2E132C0F20121C0F201220020FFF78F
:100D6000DBFE4FF61663C0F2002340F2A0214FF6DF
:100D70000772C0F20121C0F200220020FFF7CCFE72
:100D80002046BDEC048B01B0F0BD4CF668404DF63A
:100D90000001C2F21020C0F2B8519FED270AB6EE52
:100DA000008A0160B1EEC09A9FED240AB0EE481AA5
:100DB00009EE001A43F60C00BCEEC10A10EE105A00
:100DC000290A00F0CFF9B8B9E9B243F60D0000F0F6
:100DD000C9F988B939EE080A43F60E00BCEEC00A1C
:100DE00010EE105A290A00F0BDF928B9E9B243F60D
:100DF0000F0000F0B7F9A0B140F2A02140F2A1121B
:100E000040F2F9330446C0F20121C0F20122C0F2DF
:100E100001230020FFF780FE40F27433C0F201236B
:100E2000A3E700F00DF828B140F270130446C0F2B9
:100E300001239AE70024A3E7007C9249ABAAAA3FCA
:100E400010B582B00DF1070144F6140000F03FF92F
:100E500028B140F25C530446C0F201230FE09DF834
:100E6000070000F03F0144F614008DF8071000F071
:100E700079F990B140F2F9330446C0F2012340F20F
:100E8000A02140F21242C0F20121C0F20122002052
:100E9000FFF742FE204602B010BD0024FAE710B56D
:100EA00043F20800022100F05DF928B140F20B2363
:100EB0000446C0F201230AE044F20220002100F0BF
:100EC00051F988B140F254430446C0F2012340F284
:100ED000A02140F2D032C0F20121C0F20122002054
:100EE000FFF71AFE204610BD0024FBE710B544F2C0
:100EF00002200F2100F036F9044670B140F2A02123
:100F00004FF6AE7240F2A703C0F20121C0F20022F8
:100F1000C0F201230020FFF7FFFD204610BDD4D40E
:100F200070B5A2B04CF66850C2F210200078A0B1A3
:100F30004CF66850C2F2102002F0B7FD68B140F2E2
:100F4000A0214FF6417240F2B1330446C0F20121B4
:100F5000C0F20022C0F2012352E040F6C8316C46D4
:100F6000C0F201218822204603F006FF4CF67645A8
:100F70004CF67846C2F21025C2F210262888318835
:100F8000ADF804004CF66850ADF80610C2F210201F
:100F9000214602F0AEFB28B140F20F330446C0F206
:100FA000012325E0288840F21C31C2F200210323EE
:100FB0003288888003EB40004FF6FC73CA801840EB
:100FC000886050434CF67042C2F2102240F2000397
:100FD000C6F600030B6010604CF66850C2F2102099
:100FE00002F0D3FD90B140F2B0130446C0F20123E9
:100FF00040F2A0214FF64172C0F20121C0F200225E
:101000000020FFF789FD204622B070BD4CF66C40F1
:101010000021C2F210200170017809B92FF005C03B
:101020000024F0E70078032818BF70474CF66C40A6
:101030000121C2F210200170704700F0CDB80228E3
:1010400018BF704780B54CF6A85041F2E021C2F2BB
:101050001020C0F2012101F0DAFC0120BDE880403F
:1010600003F05ABC10B54CF6C05040F6F851C2F22D
:101070001020C0F2012101F0ABFD044670B140F236
:10108000A02140F286424FF64C73C0F20121C0F21B
:101090000122C0F200230020FFF73EFD204610BDD4
:1010A000B0B54CF67445C2F210252978884208BFC5
:1010B000B0BD044600BF00BF2878012803D00A2035
:1010C000012103F03EFB28788442F5D1B0BDF0B594
:1010D00081B04CF6744640BAADF80200C2F2102658
:1010E0004CF6C0500D46C2F210200DF10201022252
:1010F00001230027377001F0EFFD68B140F2A02115
:101100004FF6D9524FF63F630446C0F20121C0F2B8
:101110000022C0F200231AE00320FFF7C1FF4CF6C3
:10112000C0500122C2F2102000232946377001F07E
:10113000CDFD90B140F2A0214FF6D95240F2974335
:101140000446C0F20121C0F20022C0F201230020B7
:10115000FFF7E2FC204601B0F0BD0220FFF7A0FF40
:101160000024F7E710B582B0020A8DF806004CF6AD
:1011700074408DF80520C2F210208DF80710002170
:10118000032201704CF6C050C2F210200DF105018F
:10119000002301F0A1FD044678B140F2A02140F205
:1011A000FC424FF63F63C0F20121C0F20122C0F2BF
:1011B00000230020FFF7B0FC02E00320FFF770FFE0
:1011C000204602B010BD28B14CF674410079C2F23D
:1011D000102108707047D4D48EB000200D900DA857
:1011E00003F0A3FA9DF8373040F274514FF67C6259
:1011F0009DF835709DF83660C0F20121C0F20022E2
:101200000020CDE90067FFF787FC40F297710020CE
:10121000C0F20121FFF780FCFFF724FF40F2DA0162
:10122000C0F2012100F05DFA0A204FF47A7103F058
:1012300088FAFFF7CBFC40F2F501C0F2012100F083
:1012400050FA40F698304CF67645C0F201204CF644
:101250007844C2F21025C2F2102401894089298005
:1012600020800A204FF47A7103F06BFAFFF758FEE2
:1012700040F29201C0F2012100F033FA0A204FF44B
:101280007A7103F05EFA48F200004FF49611C6F648
:10129000250003F06DFD44F200004FF49611C6F6F0
:1012A000380003F065FD40F200004FF49611C6F6D9
:1012B0004B0003F05DFD2E880320002E4BD02788C5
:1012C000002F48D04CF6984440F62455C2F2102422
:1012D000C0F2012584222046294603F04DFD286DE9
:1012E000B5F84820C0F30B4C6FF31F30B5F84A3007
:1012F000504369890CFB03F2EB89B0FBF7F0A4F8CB
:1013000048000133B2FBF6F00131A4F84A00206D29
:1013100047EA06457340626800F0F02025F0F025AA
:1013200079402844206541EA030022F080610004EE
:1013300018BF01F180614CF67C4C616040F6A85109
:10134000C2F2102CC0F20121624691E8E900E9C224
:101350000020CCF8144040F2CF11C0F2012100F07F
:10136000C0F90A204FF47A7103F0EBF9FFF7BEFDE4
:10137000002800F06D814FF6E4630446C0F20023BC
:1013800040F2A0214FF61372C0F20121C0F20022F8
:101390000020FFF7C1FB40F232412046C0F201219C
:1013A00000F09FF90A204FF47A7103F0CAF940F275
:1013B0004000C2F20020FFF7BFFB40F24F31C0F205
:1013C000012100F08EF940F2E9110020C0F2012164
:1013D000FFF7A2FB0A204FF47A7103F0B2F940F252
:1013E000043040F6A831C2F20020C0F2012100F022
:1013F000EFFC40F21211C0F2012100F072F90A2054
:101400004FF47A7103F09DF94CF66C444FF4965A00
:10141000C2F210244FF478490020207000BF00BFB2
:10142000207808B92FF005C04CF69440C2F2102085
:101430000168002900F0F18040F200004FF496129C
:10144000C6F6000003F098FCFEF7B2FF4CF694419C
:101450004FF6000BC2F2102100F102080022C0F288
:101460001F0BD1F800C000BF02FB0AF04FF48071DF
:1014700041F001E0002700EA0B000CEB00034046BE
:10148000C7F3092507F5167703EB450595F8A8413D
:1014900095F8A95105F0E00104F0F80641EA0421AD
:1014A00046EA5416C4F3410444EAD101C5F3820468
:1014B00044EAC50486F0800500F8025C81F08001F2
:1014C00000F8011C84F0800100F8031B0FF029C014
:1014D000013208F54078B2F5807FC5D10120FEF7D2
:1014E0007DFF4FF41664FEF76EFF0026039000BFE9
:1014F00040F2432C200A40F243211422604506FBAF
:101500000AF738BF210A14284FEAC02038BF220A40
:101510008B1807F51667A3EB1423002515330A93E0
:10152000A0EBC2203A0A1423142AC3EB172353EA70
:1015300025830C93624540F24322039B049403EB02
:10154000C61308934AF2801338BF3A0A02F114080E
:1015500040F20002C6F60002B34602EBC12110447D
:101560001944079100F5C07100F5E87005904FF43B
:1015700016600024069100BF0990000A0599012514
:1015800001EB40010B91079901EB4007069901EB34
:101590004006089800EB840A1AF905003D2829DB6B
:1015A0002920394640F001E0304600BF00BF00BFAF
:1015B00020F8029B21F8029B0FF007C00C985946B7
:1015C00040450DD80A9840F001E00B9800BF00BFDD
:1015D00020F8509CA0F8009000F500600FF009C0C2
:1015E00000914FF6E8710020C0F200212A46234600
:1015F000FFF792FA0135042DCED101340998202C41
:1016000000F59650B8D10BF10106049C202E04F58C
:1016100096544FF4965A7FF46BAF4CF6685040F2F4
:1016200000010022C2F21020C6F6000102F0C4FA46
:1016300040F2EE314CF66C44C2F2102488423FF482
:10164000EBAE40F2BE41C0F2012100F04AF8E3E601
:101650004CF69450C2F21020006860B14CF69450E1
:10166000C2F2102000F097FD28B140F23603044684
:10167000C0F2012384E643F208004221FFF772FD25
:1016800028B14FF6E8530446C0F2002378E64CF642
:1016900094504CF67C41C2F21020C2F2102100F0AE
:1016A000D0FC28B140F646330446C0F2012367E679
:1016B0004CF694500021C2F2102000F0D4FD28B165
:1016C0004FF673730446C0F2002359E6FFF7E7FBB9
:1016D00028B140F22D330446C0F2012350E6002425
:1016E00059E6002846D010B504460020FFF714FA4A
:1016F0004CF69450C2F210200068A8B14CF69450F9
:10170000C2F2102000F047FD70B140F2A0214FF668
:101710009D6240F20903C0F20121C0F20022C0F232
:1017200001230020FFF7F8F94CF6C050C2F2102058
:10173000C068A8B14CF6C050C2F2102001F0D7FA30
:1017400070B140F2A0214FF69D6240F23723C0F203
:101750000121C0F20022C0F201230020FFF7DCF9D2
:1017600040F22A110020C0F201212246FFF7D4F9ED
:1017700000BE10BD70470168012909D1017A8906B0
:1017800058BF70474CF69441C068C2F210210860FF
:101790007047704780B5FFF750FC002080BD704750
:1017A00080E80E008A6A0021B1EB127F07D180B574
:1017B00000F00AF800285FEA1F91BDE88040084663
:1017C0007047D4D4D4D4D4D490E80E00002B5FEA70
:1017D0000F93002A48F29F6208BF0233CB60C0F229
:1017E0000102016800BF00BF4B681B0703D5002A38
:1017F000A2F10102F8D14A68120726D44A6A436866
:10180000002B5FEA1F9312F0020F5FEA1F929342D0
:101810001BD04A6A836802F00102002B5FEA1F9323
:10182000934212D00222CA61016845F25352CA6340
:1018300000220168C0F61F720A6401684A640168E8
:101840008A640068C264002000E0FF2040B2704754
:10185000F0B581B0069F092F3ADA1C460B461646B2
:10186000054600214FF0FF321846FFF798FF002988
:101870003DD12968012F08612868066211DB002626
:10188000D4E900013246FFF78AFF91B92968013F88
:1018900001EBC60106F1010604F10804C1F880005D
:1018A000EED12868816801F00C010131816001B03E
:1018B000F0BD4FF6AA6040F20C524FF66763C0F2DB
:1018C0000020C0F20122C0F20023A42102F034FF64
:1018D0004FF6AA6040F20C5240F24A13C0F20020C8
:1018E000C0F20122C0F20123942102F025FF4FF63D
:1018F000AA6040F20C5240F2E643C0F20020C0F26F
:101900000122C0F20123982102F016FF70470168FE
:101910008A6802F00C0202328A6000684168490756
:101920005CBF41685FEAC16101D500207047416832
:1019300009065CBF41685FEAC151F6D44068C0F354
:1019400040107047D0F800C0012ADCF8080000F011
:10195000040308BF0833022A08BF00F00C0303F099
:101960000800012908BF0430022953EA0081002041
:10197000CCF80810704780B50368986AD3F800E087
:10198000814201D101200FE0FF2380EA010CCFF258
:1019900000031CEA030F5FEA1F9311F0006F5FEA78
:1019A0001F9141EAD06018408EEA02010023B3EB98
:1019B000117F07D1C2F30751CEF307528A4238BFD5
:1019C000002080BD002080BD4CF60060C2F21020D7
:1019D0007047002070470020704780B5012003F059
:1019E0005FFA08B10021017080BDD4D4D4D4D4D41E
:1019F0000278014600BF00BF12B920BF0A78FBE79A
:101A00000020013A0A70704701780131017040BF2F
:101A10000020704770477047B0B50446407C0128ED
:101A200008BFB0BD204602252574FFF770FF0028CF
:101A300018BF00256574E06ABDE8B040FFF7E4BF59
:101A40002DE9F04381B04CF604681E46C2F210281E
:101A50000D460446D8F80070002F174604D1FFF752
:101A6000B3FFC8F80000C8B34CF60869C2F21029E9
:101A7000D9F8000020B9FFF7B0FFC9F8000068B33B
:101A8000DDE908230020C4E90C702946C4E90E6092
:101A900040F20220A4F841002046FFF781FEE8B1A1
:101AA000FFF79BFFE062C8B104F110001C2103F0B6
:101AB0005FF9D8F80000FFF78CFF4CF60C60C2F21B
:101AC000102001680460D8F80000E160FFF783FF90
:101AD000D9F80000FFF798FF002001E04FF0FF3039
:101AE00001B0BDE8F08310B50446FFF76DFE10B1FC
:101AF0004FF0FF3010BDE06B00285FEA1F912046D9
:101B00000A46FFF71FFF002010BD10B50446C06B4A
:101B1000002800F10100E06301D0002010BD204644
:101B2000FFF7E1FF0028F8D0E06B0138E0634FF0E9
:101B3000FF3010BDD4D4D4D4F0B581B004460546EE
:101B400014F8100F00284ED0022803D0012847D1E6
:101B5000002953D0686A012813DB0026002700BF44
:101B600095F84210F940C90707D0D5E90701805917
:101B700051F8271000F018FA686A013708368742D2
:101B8000EEDBE86A4FF0FF324FF0FF33FFF730FF34
:101B900000280CD501206874297C022907D16874BB
:101BA0004FF0FF32E86A4FF0FF33FFF721FFA96AD9
:101BB0002846FFF730FFE86B38B10138E86304D1FD
:101BC000012101222846FFF7BDFE687C70B1687CC8
:101BD000022802D12846FFF799FE2846FFF783FF27
:101BE0004FF0FF3503E06FF0010504E000251C21F4
:101BF000204603F0BDF8284601B0F0BD0125FAE704
:101C00002DE9F04F83B0002900F09B80002B00F0FD
:101C1000A88004460C98002800F0B380254615F8EB
:101C2000107F17BB0026267404F11406DDE90DECC5
:101C300020620EC69607C4E909EC12D144F6437738
:101C40000E68C3F25017BE420BD1BEF1030F13DB77
:101C5000D4E90C7C57EA0C060ED0A66B8068B04223
:101C600008D91C21284603F083F84FF0FF3003B059
:101C7000BDE8F08FC3E9047C02EB01080F1D474566
:101C80005DD23878052858D002280AD00128E8D13A
:101C9000D7E901122046FFF76EFE0028E1D00C378D
:101CA000EDE707F1040B5FEA0B70DAD178787E88F4
:101CB0000290606A012824DBE169024600BF00BF90
:101CC0000B781B07CDD1013A01F10801F8D14FF093
:101CD000000A4FF0000900BF94F8411021FA09F101
:101CE000C90708D0D4E9070150F80A0051F82910B3
:101CF00000F00AF9606A09F101090AF1080A814550
:101D0000EADB2046FFF701FF0028AAD1029846EA45
:101D10000046012020742046A16A4FEA8609FFF799
:101D200079FEE369606A0090204659464A46FFF70B
:101D30008FFD07EB8600071DA1E704379FE7002012
:101D400095E740F2652040F2DE2240F21E03C0F229
:101D50000120C0F20122C0F2012340F2822102F0F0
:101D6000EBFC40F2652040F2DE2240F25323C0F249
:101D70000120C0F20122C0F2012340F2832102F0CF
:101D8000DBFC40F2652040F2DE2240F25703C0F255
:101D90000120C0F20122C0F201234FF4217102F0B0
:101DA000CBFC70B584B008AD064631CD8DE831006E
:101DB0003046FFF725FF002806D40121304604B045
:101DC000BDE87040FFF7B8BE4FF0FF3004B070BD03
:101DD000F0B583B0EFF31086012282F3108843F24E
:101DE0000002C4F220020D4607461E20136801219E
:101DF00023F480331360126802F0A3FC86F310888A
:101E00000021B8686E7BAC7BC4F21401006800222C
:101E10000023CDE90064FFF713FE08B1032041E081
:101E200095F90C102A7A4EF200100029CEF200002B
:101E30004FEA021203D4431883F8002306E04EF65B
:101E4000145601F00F03CEF200069A554CF6846248
:101E50000126C2F2102242F821704CF20032C4F284
:101E6000000252F8213023F4803342F8213052F836
:101E700021204A0901F01F01BFF35F8F00EB8203AD
:101E800006FA01F1C3F8801140F822100020D5E9CC
:101E90000012C7E9031044F254517D60C5F24D2190
:101EA0007A61396003B0F0BDB0B582B04FF07041D7
:101EB000EFF3038001EB00604CF684628115C2F2FF
:101EC000102204165558A9680868FFF7A5FDE968AF
:101ED00061B1286910B10268019200E001A86A6945
:101EE00002608847286908B1019901604CF200300E
:101EF000C4F2000050F8241021F4803140F824107E
:101F000050F8240002B0B0BDB0B5D8B10129B8BFB7
:101F1000B0BD00F01F021144A1F1200202EAE272FA
:101F2000BFF34F8FD2431144012202EB511E4EF6F4
:101F30008051CEF2000100BFC1F8E80120300FF05F
:101F400005C829E04EF680500021CEF2000043F68D
:101F5000E07C4160BFF34F8F0268C2F34E31D3087B
:101F6000C2F3C902541C9A074B0100BF00BF00BF57
:101F700003EA0C0544F001E0154400BF00BF00BFB8
:101F8000C0F8EC5105F140450FF007C00029A1F160
:101F90000101A3F12003EBD1BFF34F8FBFF36F8F8C
:101FA000B0BDD4D4D4D4D4D4B0B5D8B10129B8BF3D
:101FB000B0BD00F01F021144A1F1200202EAE2725A
:101FC000BFF34F8FD2431144012202EB511E4EF654
:101FD0008051CEF2000100BFC1F8F00120300FF0B7
:101FE00005C829E04EF680500021CEF2000043F6ED
:101FF000E07C4160BFF34F8F0268C2F34E31D308DB
:10200000C2F3C902541C9A074B0100BF00BF00BFB6
:1020100003EA0C0544F001E0154400BF00BF00BF17
:10202000C0F8F45105F140450FF007C00029A1F1B7
:102030000101A3F12003EBD1BFF34F8FBFF36F8FEB
:10204000B0BDF0B581B0044641604E69EFF3108732
:10205000012080F3108843F208000D46C4F22000EE
:10206000016821F40031016000681E20012102F0A6
:1020700068FB47F2004187F31088C4F234014FF641
:10208000FE72CFF6BF72886820F002008860706828
:10209000104008603069086270694862F06A8865BB
:1020A0003089C86070890861B0894861F0898861A9
:1020B000308BC862F0690863306A4863706A88636D
:1020C000306B086670680A68400860F341020A6075
:1020D000706BC1F80003B06BC1F80403F06BC1F87A
:1020E0000803306CC1F80C03706DC1F82802B06DA4
:1020F000C1F82C02F06DC1F83002306EC1F8340224
:10210000706EC1F83802B06EC1F83C02F06EC1F8D2
:102110004002306FC1F84402706FC1F84802706825
:102120000A68400E60F359620A6070680A68800BA2
:1021300060F38F320A60F06CC1F89000306DC1F826
:10214000A40070680A68800E60F39A620A60706C7E
:10215000C1F88000F06F0864B6F8802006F17800BE
:102160008A6400212161D5E90312C4E902122146E3
:1021700000F0B8F806F17A00214600F0B3F83168B3
:1021800007C91268904720B944F64E11C5F256218E
:10219000216001B0F0BD70B547F2004604464068CA
:1021A000C4F2340645693068306820F001003060C0
:1021B000B06820F00200B0607068C00708BF706DA2
:1021C000286881680068C9688847306820F08060A6
:1021D00030602868816800684968884795F97910F7
:1021E0004EF2801CCEF2000C012601F01F034909BB
:1021F0004FF0000EC4F800E006FA03F34CF821306B
:10220000BFF34F8FBFF36F8F95F9791095F97B303E
:102210004CF68464C2F210245A0944F821E003F019
:102220001F0106FA01F14CF82210BFF34F8FBFF3E4
:102230006F8F95F97B1044F821E043F20801C4F256
:102240002001EFF3108586F3108804460A681E20EB
:1022500042F400320A600968012102F072FA85F343
:102260001088204670BD4068406990F82820012AF7
:1022700047F20042C4F2340202D111635163916308
:10228000116841F4800111601168C1F38051116837
:10229000C1F380511168C1F380511168C1F38051BD
:1022A0001168C1F380511168C1F380511168C1F305
:1022B00080511168C1F380511168C1F380511168D8
:1022C000C1F38051816CC2F88410116841F00101A2
:1022D0001160916841F002019160006881680068B6
:1022E0008968084780B590F9012003784EF2001CF8
:1022F000002ACEF2000C4FEA031304D40CEB0200C8
:1023000080F8003307E04EF6145002F00F0ECEF2C4
:1023100000000EF800304CF684600123C2F2102059
:1023200040F822104CF20030C4F2000050F82210A5
:1023300021F4803140F8221050F82200500902F0B8
:102340001F02BFF35F8F0CEB800103FA02F2C1F8AA
:1023500080214CF8202080BD012000F000B82DE93C
:10236000F0418AB04FF07042EFF3038102EB01615C
:1023700047F2044C4CF684648B15C4F2340CC2F260
:102380001024091654F80380DCF80020DCF84030F3
:102390008DE80D0098064FF0000003900FD5DCF893
:1023A0000000C04310F0180F01D1002006E0DCF857
:1023B0000000C0F3C1400CEB8000C06A039043F002
:1023C0008022D8F80C00049042F00100CCF84000C4
:1023D0004CF20030C4F2000050F8212022F4803288
:1023E00040F8212050F82100D8F81000694658B173
:1023F00003460DF1140C93E8F4008CE8F400024657
:1024000091E8F800F8C200E00846D8F808108847BC
:10241000D8F8100018B105A991E8EC00ECC00AB09A
:10242000BDE8F081D4D4D4D4F0B546F6004391F899
:102430000CC0C4F234039A6C22F0010262444EF2E2
:10244000200CC4F2010C9A64DCF80020BCF80440B3
:10245000844644EA123E5FEA0E70C2F3033E04F083
:102460000F0009D44CF6D462C2F21022126802FAAC
:1024700000F020FA0EF01BE000F00704032505FA37
:1024800004F40126170B082838BF06FA00F407F0F9
:1024900007004CF6D467C2F2102705FA00F01204C8
:1024A0003D6805FB04F258BF06FA0EF0B2FBF0F0EF
:1024B0004DF683621F68C4F21B32A0FB02024FF08C
:1024C000FF3000EB92403A0A62F31F20186018694F
:1024D00040F00100186100BFD869C007FCD0087B3C
:1024E000012810D1086858600879DA6860F304029E
:1024F000DA60986820F00100986000BF00BF00BF5C
:10250000D869C005FCD5886802686FF3DF425A625B
:1025100042689A628268DA62C2681A6302695A6320
:10252000007D44F650129863C4F65052186A40F089
:10253000010018620020CCE90021F0BD46F60842F7
:10254000C4F23402916921F001019161116841F0F6
:10255000010111609368014623F0010090600020A2
:1025600000220A607047D4D470B504464160EFF38E
:102570001086012080F3108843F20800C4F2200086
:102580000D46016821F40031016000681E20012120
:1025900002F0D7F886F31088296807C912689047B7
:1025A0000646002858D147F21001C4F23401C86829
:1025B00020F00100C86000BFC869C007FCD168688E
:1025C0000860A86888602869086368694863D5E975
:1025D0000602C1E91402E868C1F87002E86A886678
:1025E000286B8867686BC1F888004FF0100E05F102
:1025F000380001F1F80200BF50F8043B42F8103BEC
:102600000FF007C0AA6FC1F8F821EA6FC1F87C2269
:1026100005F1200000212161D5E92012C4E9021250
:10262000214600F0CAF805F12200214600F0C5F865
:1026300005F12400214600F0C0F805F126002146EE
:1026400000F0BBF805F12800214600F0B6F844F68A
:102650004310C4F650502060304670BD2DE9F04163
:10266000804640684EF2801290F92110CEF20002AE
:102670004D0901F01F03012101FA03F342F825304F
:10268000BFF34F8FBFF36F8F90F9236090F9214014
:102690004CF684630025C2F21023770906F01F066A
:1026A00043F8245001FA06F642F82760BFF34F8F33
:1026B000BFF36F8F90F9237090F92560740943F888
:1026C000275006F01F0701FA07F742F82470BFF3FE
:1026D0004F8FBFF36F8F90F9257090F927607409C1
:1026E00043F8275006F01F0701FA07F742F8247055
:1026F000BFF34F8FBFF36F8F90F9277090F9296068
:10270000740943F8275006F01F07B94042F8241017
:10271000BFF34F8FBFF36F8F90F9291043F821500B
:102720000068816800684968884708B1BDE8F081A1
:10273000C8F80050BDE8F08147F21C010020C4F247
:1027400034010A6842F001020A60704747F21C0037
:10275000C4F23400816D890301D4012070470168FF
:1027600021F001010160C16841F00101C160002058
:10277000704747F28420C4F23400026812F47F4F9D
:1027800007D0026942F001020261C06808600020BF
:1027900070470D20704747F27002C4F2340210688F
:1027A00010F4003F4FF0010050EA00900870002044
:1027B000516841F400315160704780B590F90120B3
:1027C00003784EF2001C002ACEF2000C4FEA0313ED
:1027D00004D40CEB020080F8003307E04EF61450EE
:1027E00002F00F0ECEF200000EF800304CF68460BE
:1027F0000123C2F2102040F822104CF20030C4F243
:10280000000050F8221021F4803140F8221050F8D6
:102810002200500902F01F02BFF35F8F0CEB800112
:1028200003FA02F2C1F880214CF8202080BD70B577
:1028300088B04FF07041EFF3038001EB00604CF67D
:1028400084618015C2F21021EE460C584FF47F418E
:10285000ADF8001047F27001C4F234010A68019229
:10286000E368039302F400324A604CF20031C4F290
:102870000001425822F4803242504058206958B139
:1028800003460DF1100C93E866008CE866000146E3
:102890009EE86C006CC100E07046A1688847206922
:1028A00018B104A991E86C006CC008B070BD2DE9A6
:1028B000F04389B04FF07041EFF3038001EB00600B
:1028C0004CF6846147F250028015C2F21021C4F226
:1028D00034020C58D2F80090116BD2F8408021F0ED
:1028E0008073536328F0807353644CF20032C4F257
:1028F0000002835823F4803383508058E0680490AA
:102900005FEAC9704FF001008DF804001CD0206907
:10291000029101A94FF000028DF8052058B103463D
:102920000DF1140C93E8E4008CE8E400024691E811
:10293000E800E8C200E00846A1688847206918B1AD
:1029400005A991E8CC00CCC05FEA89701CD520694C
:1029500001218DF8051001A9CDF8088058B1034672
:102960000DF1140C93E8E4008CE8E400024691E8D1
:10297000E800E8C200E00846A1688847206918B16D
:1029800005A991E8CC00CCC009B0BDE8F083F0B552
:1029900089B04FF07041EFF3038001EB00604CF61B
:1029A00084618015C2F210210F5847F25001C4F221
:1029B0003401096802218DF80410F96804914CF281
:1029C0000031C4F20001425822F480324250405893
:1029D000FF208DF8050038690021029101A958B146
:1029E00003460DF1140C93E874008CE87400024661
:1029F00091E8780078C200E00846B96888473869ED
:102A000018B105A991E8CC00CCC009B0F0BD80B5E3
:102A100045F25422C5F24F020260084600F004F865
:102A2000002080BDD4D4D4D470B5044600F060F842
:102A30004CF6806CEFF31081C2F2102C012080F371
:102A40001088DCF8000038B940F614500022C4F2B7
:102A50004000027040220270DCF800000130CCF827
:102A6000000081F31088208828B340F6000E002172
:102A7000C4F2400E00BF00BF606800EBC10250F816
:102A800031309288D8034FEA1220D2B20BD50EEB28
:102A9000801555F8226026F4803645F8226023F42C
:102AA000803645F822600EEB8010013140F822306C
:102AB00020888142E0D30120EFF3108180F3108859
:102AC000DCF8000020B1DCF800000138CCF8000090
:102AD000DCF8000038B940F614500022C4F240007F
:102AE00002708022027081F3108870BDD4D4D4D4D7
:102AF0002DE9F04F81B004460088002865D04EF6DD
:102B00004C4B0025C4F2010B4FF0010A00BF00BF7F
:102B100041F22C3642F240080027C0F20126C4F2EE
:102B2000200800BF00BF00BF606836F8021B00EB42
:102B3000C50082888A423FD100689BF8001000F0EF
:102B4000B8500AFA07F9B0F1807F09EA010017D1FD
:102B500058B9012001F09BFE9BF8000040EA0900F3
:102B60008BF80000012001F06BFE98F900000028AE
:102B700022D498F8000040F0800017E000BF00BFAA
:102B800058B1012001F083FE9BF8000020EA090003
:102B90008BF80000012001F053FE98F90000B0F11D
:102BA000FF3F09DC98F8000000F07F0088F8000083
:102BB000C820012101F0C5FD013708F10208032FEB
:102BC000B2D1208801358542A2D301B0BDE8F08F93
:102BD000F0B581B00C46097805464EF20000C4F20B
:102BE000250043F2040700EB01202861A06868601B
:102BF000207B2C602872E0696863206AE86300200B
:102C0000A863C4F22007C5E90500C5E9070085F8F7
:102C1000290085F82A0085F82B0085F82C00012072
:102C2000EFF3108680F310882178C1F10901884004
:102C3000396821EA0000386038681E20012101F05F
:102C400080FD86F310882846214600F0D1F8A0695F
:102C500058B141684FF4002209680A60D0E90112B6
:102C6000006812689047064698B9606928B34168C1
:102C70004FF0006209680A60D0E90112006812682A
:102C80009047D0B10646A06918B181680068096A0A
:102C900088470120EFF3108580F3108821783A6887
:102CA000C1F10901884001211043386038681E20B5
:102CB00001F047FD85F3108805E044F64310002637
:102CC000C5F24920E860304601B0F0BD9C460123C2
:102CD00080F82AC000F084B99C46002380F82AC0FE
:102CE00000F07EB90346002059601A727047B0B5F3
:102CF000044600690025C5712046216800F078F877
:102D000094F82600A16984F828002069C4E90751D5
:102D1000B32184F82C5084F82A50C1712069C57100
:102D2000E5602068816921B18A680868116A88476E
:102D30002068416921B18A680868116A884720685B
:102D400090F911004EF28011CEF20001430900F01B
:102D50001F02012000FA02F241F82320BFF34F8F37
:102D6000BFF36F8F226892F90E20530902F01F0201
:102D700000FA02F241F82320BFF34F8FBFF36F8FA9
:102D8000226892F91020530902F01F0200FA02F2A1
:102D900041F82320BFF34F8FBFF36F8F226892F962
:102DA0000F20530902F01F0200FA02F241F823201B
:102DB00043F20402BFF34F8FBFF36F8FEFF3108521
:102DC00080F310882168C4F2200209781368C1F1E9
:102DD0000901884001211843106010681E2001F08D
:102DE000B0FC85F310880020B0BDD4D4D4D4D4D4A2
:102DF000F0B5026900231370402302691370026961
:102E000013785B06FCD5C02313700268036908259C
:102E10004EF6185C526ACEF2000C127942F0E002D3
:102E20001A7402680369526AD27842F0E0025A7456
:102E300002680369526A927862F306159D7002680F
:102E40000569526A13785278012B5FEA1F9343EAAF
:102E5000420242F00402EA70026844F24025C0F2E5
:102E60000F0503695268AA424FF0770208BF6FF05E
:102E700008025A71002302699371B3230269D37166
:102E80004EF2001291F911404B7BCEF20002002C61
:102E90004FEA031303D4151985F8003304E004F056
:102EA0000F05654405F8043C4CF6846E4CF2003383
:102EB000C2F2102EC4F2000301274EF8240053F88A
:102EC000245025F4803543F8245053F824506509E4
:102ED00004F01F04BFF35F8F02EB850607FA04F4CA
:102EE000C6F8804142F8254091F90F404D7B002CF7
:102EF0004FEA051503D4161986F8005304E004F0D0
:102F00000F06664406F8045C4EF8240053F824507B
:102F100025F4803543F8245053F82450650904F013
:102F20001F04BFF35F8F02EB850607FA04F4C6F8AF
:102F3000804142F8254091F910404D7B002C4FEA2A
:102F4000051503D4161986F8005304E004F00F06A3
:102F5000664406F8045C4EF8240053F8245025F427
:102F6000803543F8245053F82450650904F01F04B9
:102F7000BFF35F8F02EB850607FA04F4C6F88041C1
:102F800042F8254091F90E40497B002C4FEA01118F
:102F900003D4171987F8001305E004F00F0505EBBB
:102FA0000C0707F8041C4EF8240004F01F0753F820
:102FB0002410012621F4803143F8241053F8241002
:102FC000610906FA07F7BFF35F8F02EB8103C3F8CD
:102FD000807142F821709F2100690170F0BDD4D446
:102FE00090F808C0C0E90512BCF1010F09D190F8B2
:102FF00004C04FF48071A0F8251043EA4C0180F81A
:10300000241010B581B04EF2200180F82930C4F2AE
:10301000010109680091009901F00F210091DDF88C
:1030200000E0DDF800C001690B7C90F82C40B4B9D9
:10303000CEF30322A2EB1C6203FA02F2042A09D3A4
:10304000920800BF00BF00BF91F90130002B03D5EB
:10305000013AF9D1082169E00022CA718269002190
:10306000C0E9072190F8262080F8281080F8272052
:1030700080F82B1080F82D1080F82E1080F82F107B
:1030800080F830100168496A0A784B7891F805C0D9
:103090008C79012A5FEA1F9242EA4302036942EAFD
:1030A0000C1242EAC41242F00402DA700269137987
:1030B00043F0100313710269137903F0F7031371DE
:1030C0000269137903F0EF0313710269C979137967
:1030D00003F07F0343EAC111117101694A7942F09B
:1030E00001024A71016891F90F1000290BD401F017
:1030F0001F02012303FA02F24EF200134909CEF235
:10310000000343F8212001694A7A02F0F3024A726F
:103110000169BF22CA7190F82C1019B1002180F802
:103120002C1003E00069022141700021084601B023
:1031300010BD10B582B04FF07041EFF3038001EB8A
:1031400000604CF200328015C4F20002835823F470
:10315000803383508058EFF3038001EB00604CF61E
:1031600084618015C2F210210C5894F82D0038B1FA
:1031700094F82E0001284DD1002084F82E0081E023
:10318000A069022804D82069017941F04001017149
:10319000E06901280ED12069017941F01001017127
:1031A0002069017941F0080101712069017901F07C
:1031B000EF01017120688269D2B1216994F8293048
:1031C000012B15D1A369042B12D3D2F808C0033BFD
:1031D00013311068DCF808C062699BB2E0472068D0
:1031E000A2690321033AC4E90712012184F82E10D1
:1031F000406AC079012803D10521204600F048FA31
:103200002069C07C8DF807009DF80700012084F834
:103210002D0037E0E069A8B32168496AC97901291E
:1032200004D10521204600F033FAE06901282BD0B3
:10323000022806D0032813D12069017941F040010A
:103240000DE02069017941F01001017120690179D7
:1032500041F0080101712069017901F0EF0101716C
:10326000D4E90401C07C226A8854D4E907010138FA
:1032700001F10101C4E9070104D12069017901F0DC
:10328000BF01017102B010BD94F82A00012831D1AC
:1032900020684EF28013CEF2000390F90F0042092D
:1032A00000F01F01012000FA01F143F82210BFF3E2
:1032B0004F8FBFF36F8F2169CA7942F08002CA71C4
:1032C00021690A7942F010020A7121690A7902F033
:1032D000F7020A7121690A7902F0EF020A71216985
:1032E00004224A7021694A7902F0FE024A7184F888
:1032F0002C00B5E72069417A01F0F701417220699D
:1033000008214170ACE7D4D4B0B54FF07041EFF371
:10331000038001EB00604CF200358015C4F200051B
:10332000425922F4803242514059EFF3038001EBBD
:1033300000604CF684618015C2F210210C5894F89C
:103340002700B0B394F82610032907D194F8281069
:10335000022903D194F83010002952D094F8245057
:103360000128206919D121684969B1B194F829204F
:103370009AB9A2698AB1D1F808C0A38B00F11202F0
:103380000868DCF808C06169E04720690021A2698B
:10339000C4E90712012184F82F10857494F82800DD
:1033A00094F82710013084F82800481E84F827007C
:1033B000B0BD94F8290020BB2068406AC07901287C
:1033C00008D194F82B0028B9206A18B105212046AD
:1033D00000F05EF994F82F00012804D1002084F851
:1033E0002F00E0690CE0E06960B1D4E90401226AD1
:1033F000895C8174D4E90710421C481EC4E90702A5
:1034000000B1B0BD2069C17901F07F01C1712069AF
:103410006FF0BE0100BF00BF90F90720B2F1FF3F7F
:1034200003DC002901F10101F6D1206890F91000B8
:1034300055F8201021F4803145F8201055F820006F
:10344000206890F9100000280BD44EF2802300F081
:103450001F014009CEF20003012202FA01F143F8F4
:1034600020102069C17941F04001C171B0BDD4D4B0
:1034700010B54FF07041EFF3038001EB00604CF6A4
:1034800084618015C2F210210C582068406AC0790E
:10349000012803D10521204600F0FAF894F829000C
:1034A000012806D194F82700012802D194F83000B1
:1034B00080B3E06970BB94F82A00012822D120680B
:1034C0004EF28013CEF20003012290F90F0000F0BB
:1034D0001F01400902FA01F143F82010BFF34F8F9A
:1034E000BFF36F8F2069C17941F08001C1712069FC
:1034F000042141702069417901F0FE01417184F895
:103500002C2007E02069417A01F0F701417220691F
:10351000082141702069C17901F0BF01C1712069A2
:103520006FF0BE0100BF00BFC279520603D500296B
:1035300001F10101F8D14FF07041EFF3038001EB8D
:1035400000604CF200318015C4F20001425822F4B0
:1035500080324250405810BDB0B54FF07041EFF38B
:10356000038001EB00604CF684618015C2F21021EB
:103570000C5821694A7A4B7A02F01F0002F00302CC
:103580000F2803F0E0034B7201D83AB923E0216918
:103590004B785B0658BF42F00102CAB1012084F8A3
:1035A0002B0020690025C57120462168FFF720FC0B
:1035B00094F82600A16984F828002069C4E907511D
:1035C000B32184F82C5084F82A50C17101214BE0BA
:1035D0004A78520611D4010706D494F82C20012A07
:1035E00031D110F004022ED0E06910B994F82B000C
:1035F00090B3002919D4012035E0012084F82B0074
:103600000820487020682369406A417902788079EF
:1036100042EA011141EAC01040F00200D87020696E
:10362000417941F00101417121E00020A169C4E923
:10363000070194F8261084F8281084F82C0084F8E8
:103640002A0001200CE0400711D52068406AC079AB
:1036500001280CD1042107E094F8290080F0030030
:103660002169B322CA71C1B2204600F011F84FF0AF
:103670007041EFF3038001EB00604CF200318015E4
:10368000C4F20001425822F4803242504058B0BD8A
:10369000B0B582B0856B044625B1D5E90002CDE90D
:1036A000000200E06D462068E36B2B6029714269DF
:1036B0003AB194F8291021B99168106809698847CE
:1036C0002068806938B194F82910012903D18168F4
:1036D000006809698847616B28468847A06B18B164
:1036E000DDE90012C0E90012002084F82B0002B0CE
:1036F000B0BD2DE9F047814600260670EFF3108437
:10370000012080F3108843F208000D46C4F2200027
:1037100043F2044843F2000AC4F234080168C4F2D8
:10372000340A21F01001016000681E20012101F01F
:1037300008F884F31088DAF8000040F48030CAF802
:103740000000D5F8840095F83C10027940790329EF
:103750004FF0400108BF4FF48251002A00F03F00B3
:1037600008BF01F580710844C8F84C0095F8400086
:10377000D5F88410002818BF4FF4BC70CAF8E403D1
:10378000C8F8006091F9006091F9012091F90200F8
:10379000711C40F67831D3B2C0F2012113D095F8F4
:1037A00030402CB9D8F8184044F01004C8F818403C
:1037B00051F82660346844F002043460EE8D6FF3F3
:1037C000DF26C8F81460FF2BC3B211D095F83A6019
:1037D0002EB9D8F8086046F01006C8F8086051F80D
:1037E0002220166816602A8F6FF3DF22C8F80420A3
:1037F000FF2B1FD095F83F2012B90122C8F82420D2
:1038000051F82000016841F007010160A88D698D21
:103810006FF3DF206FF3DF2141EA0040C8F81C009E
:10382000E88EA98E6FF3DF206FF3DF2141EA0040BD
:10383000C8F80C00688E298D4CF614636FF3DF20F6
:10384000C2F210236FF3DF2141EA0040CAF80400FE
:103850004FF00110CAF80800A88D698D01306FF390
:10386000DF216FF3DF2041EA0040CAF81000E88E44
:10387000A98E01306FF3DF216FF3DF2041EA0040B2
:10388000CAF80C0095F8450095F8461095F84420C4
:10389000000240EA01404CF610611044CAF81400DE
:1038A000C2F21021A88D6A8D08804CF61261C2F216
:1038B0001021E88E1A80002208804CF61661C2F2B0
:1038C0001021A88E088005F15C01284600F09AF9C5
:1038D00005F1140005F16801012200F093F995F853
:1038E0003C0041F23A36C0F2012641F23E34C0F2C9
:1038F000012495F85830375C95F83D2095F83E1036
:10390000265C012B4FEA074316D1D5F88440A779EE
:10391000022F0FD1E77994F808C094F809E0A47A4F
:103920003F0347EA0C2747EA0E1727433B4343F47C
:10393000001301E043F480133703012A08BF07F1A5
:103940008057012948F2800108BF07F180770328DA
:103950004FF4007008BF07F50077CAF8C473CAF8BF
:10396000D433CAF8C8034FF00220C0F28001CAF86D
:10397000CC03CAF8D0134CF61862D5E91F01C9E987
:103980000101E88EA98EC2F21022C9F80C50084439
:10399000C2F800900130DAF850124CF6846260F3FD
:1039A0000A01CAF850120620C8F83C000720C8F8DF
:1039B0004000D9F80C304EF200104CF20031CEF23B
:1039C000000093F97770C4F20001C2F21022002FB8
:1039D0001FD493F87430C61901251B0186F80033F3
:1039E00042F8279051F8273023F4803341F82730EC
:1039F00051F827307B0907F01F07BFF35F8F00EBFB
:103A0000830605FA07F7C6F8807140F82370D9F8E5
:103A10000C3093F97870002F1FD493F87530C619C5
:103A200001251B0186F8003342F8279051F8273012
:103A300023F4803341F8273051F827307B0907F011
:103A40001F07BFF35F8F00EB830605FA07F7C6F881
:103A5000807140F82370D9F80C3093F97970002FF9
:103A60001DD493F87630C6191B0186F8003342F84E
:103A7000279007F01F0351F8272022F4803241F8E5
:103A8000272051F8271079090127BFF35F8F00EB3A
:103A9000810207FA03F3C2F8803140F82130002098
:103AA000012189F80010BDE8F08770B543F20006E7
:103AB0000446C4F234063168C90702D0204600F03B
:103AC000D0F9B069C0055CD4E1684EF28010CEF246
:103AD000000091F97720002A0CD4510902F01F024E
:103AE000012303FA02F240F82120BFF34F8FBFF306
:103AF0006F8FE16891F97820002A0CD4510902F007
:103B00001F02012303FA02F240F82120BFF34F8F76
:103B1000BFF36F8FE16891F9791000290BD44A093E
:103B200001F01F01012303FA01F140F82210BFF355
:103B30004F8FBFF36F8F43F244400025C4F234002F
:103B4000C6F840540560306820F0010030603068ED
:103B500020F480303060EFF31086012080F310886D
:103B600043F20800C4F22000016841F01001016036
:103B700000681E20012100F0E4FD86F31088257006
:103B800001E040F2EE35284670BD43F20002C4F277
:103B90003402116841F480711160116841F0010133
:103BA0001160D2F84034014643F00100C2F84004ED
:103BB000002002220A70704743F20003C4F234036B
:103BC00003EB0220D0F80021D20718D11A68D205E1
:103BD00015D400F58070012200295FEA0F9C18BF00
:103BE0000322036A23F002031A430262C0F804C0EE
:103BF000C160016841F0010101600020704740F29E
:103C0000EE3070470368002B43F20013C4F2340314
:103C100032D02DE9F04F85B0077B41F2323640F6C5
:103C2000883CC0F20126C0F2012C03EB0229F65DAC
:103C300002923CF817204CF6106E019282680092B6
:103C40003707C9F81C704CF61467C2F21027067BC0
:103C50000D8888463C8882682FB23CF81630C2F244
:103C6000102EA7420FD9B7F1FF3F3CDD01680027B6
:103C70004FF0000A049711E003EB022001210162DA
:103C800000214160704786881FFA87FAA4EB0A0773
:103C90000168B74257EAB68700260496BCB2867B15
:103CA000B8F802B004FB03F5CDF80C80012E0FFA32
:103CB0008BF84FEAD50C02D1C6880CFB06FC4CF6FB
:103CC0001666C2F210263688464505D2B8F1FF3F87
:103CD00017DD4FF0000E1EE0C288A6EB08069642E4
:103CE00056EA328E19E085883D44012DBEDB083E40
:103CF00016F1030F00F29480DE084024B4FBF6F6C0
:103D00008FE0C78807EB080EBEF1010FE1DB5A43D5
:103D1000D20802FB18114FF0000BC9F80C104CF63A
:103D20001063827B0CF13F06C2F210230399012A33
:103D3000049A42EA040709D1028A0025C9F8105002
:103D40001FFA8EF5008A964668430CE0DDE90052C2
:103D50006A43407BD208002852EA02B00004C9F846
:103D600010001FFA8EF0AEF101024FF0FF356FF335
:103D7000DF2205EB9616C6EA0242C9F818201A8817
:103D80006FF3DF273C466FF3DF20524462F31A449F
:103D9000C9F828401A88524462F31A474CF6126256
:103DA000C2F21022C9F8307012885A4462F31A40E5
:103DB000C9F82400C9F82C00087A28B1012805D1D7
:103DC000487A0021000407E0032018E0487A4FF405
:103DD0007F01000400F18070029AC9F834004CF6AB
:103DE0002460C9F83810C2F210204CF61C61C2F2EF
:103DF00010210068023041F8220041F20300C9F8A6
:103E000020000120C9F804000021C9F8501040F238
:103E10006031C2F200210870487005B0BDE8F08F33
:103E200001267C42BEF900E0B4FBF6FC76450CFBB3
:103E3000164405EB040C03FB07F5C4F100045CEA2F
:103E4000CC87C5F100061FFA84FA04684FF000051C
:103E500004EBD606C8BF4FF0000A049526F03F01D8
:103E60001CE743F20001C4F23401D1F80021D2076B
:103E700008D1D1F80022D20704BFD1F8C0235FEAED
:103E8000C27202D040F2EE3070470A68D205F9D40F
:103E90000A6822F001020A600121017000207047C7
:103EA0004CF618604CF62461C2F21020C2F21021C8
:103EB00000680A6801320A60096831B94CF61C6171
:103EC0000022C2F21021C1E9002280B582B040F286
:103ED00060310122C2F200210A704A70416831B19A
:103EE00080680190684603228DF80020884743F2DD
:103EF0004840C4F23400016841F0010101604FF014
:103F00007041EFF3038001EB00604CF2003180154B
:103F1000C4F20001425822F480324250405802B0AC
:103F200080BD80B582B04CF61860C2F210200068E7
:103F3000416831B180680190684601228DF8002007
:103F4000884743F24840C4F23400016841F002015E
:103F500001604FF07041EFF3038001EB00604CF221
:103F600000318015C4F20001425822F480324250E0
:103F7000405802B080BD80B582B04CF61860C2F2E5
:103F800010200068416831B18068019068460222C3
:103F90008DF80020884743F24840C4F2340001689D
:103FA00041F0040101604FF07041EFF3038001EB39
:103FB00000604CF200318015C4F20001425822F436
:103FC00080324250405802B080BD2DE9F0414CF69D
:103FD000286240F20006C2F210220D460446C2F2E8
:103FE000002613780BBB43F200004FF00108C4F227
:103FF000200082F80080EFF3108788F310880168B2
:1040000021F48001016000681E20012100F099FB6D
:1040100087F310884021304600F0AAFE4AF60C4093
:10402000C4F20000866080F80080686890F90000A3
:10403000002805D456F8201029B10820BDE8F081E9
:104040000B20BDE8F0812968207111B1204600F0F5
:10405000DFF844F20030C4F2544020600020BDE894
:10406000F081D4D4D4D4D4D4B0B5044690F90400AB
:104070004CF20035C4F2000555F8202022F0807281
:1040800045F8202094F904004AF60E42C4F20002DA
:1040900040F4004000BF00BF13889842FCD0204687
:1040A00000F0B6F894F90410002055F8212042F0F1
:1040B000807245F82120B0BD10B582B00191009208
:1040C00090F904104CF2003C40F20002C4F2000CE3
:1040D000C2F2002252F821E05CF8212022F0807226
:1040E0004CF8212090F904204AF60E41C4F2000158
:1040F00042F4004200BF00BF0C88A242FCD008225C
:104100008A70019A12B1019ACEF80420009A12B175
:10411000009ACEF80820DEF80020B2F1404F02DA13
:10412000AEF80C3005E00024B4EB927F08BFAEF887
:104130000E3018228A7090F9041000205CF82120BB
:1041400042F080724CF8212002B010BD90F90410AA
:104150004CF20032C4F20002002052F8213043F049
:10416000807342F82130704790F904104CF200320D
:10417000C4F20002002052F8213023F0807342F88C
:1041800021307047062070470620704790F90400E0
:1041900040F20002C2F2002252F820000022C1E9DF
:1041A00000220268B2F1804F05D24FF480328A605B
:1041B000C089C8600EE04FF480728A60C289D2B2B2
:1041C000CA600268B2F1404F04DA4FF480320A60EC
:1041D0008089486000207047014690F904204CF225
:1041E000003040F2000CC4F20000C2F2002C50F883
:1041F000223023F0807340F82230002000234CF856
:1042000022300B6070470620704706207047D4D4D8
:1042100080B501F10E0200BF52F80EECBEF1804FE6
:1042200006D3B2F800C05FFA8CF343EA0C23138084
:104230001EF4400F02F11002EED14AF6104208239C
:10424000C4F20002137040F2000390F90400C2F2BD
:10425000002343F820101820107080BD4EF2240176
:10426000C4F201018878098801F00F02A2F1080167
:1042700003293BD8DFE801F0022C101E4CF28031FC
:10428000C2F2002151F820004AF6AB21CAF6AA2159
:10429000A0FB0101480830E04CF28031C2F200215D
:1042A00051F820004AF6AB21CAF6AA21A0FB010171
:1042B000C80822E04CF28031C2F2002151F82000FF
:1042C0004AF6AB21CAF6AA21A0FB0101080914E0B5
:1042D0004CF28031C2F2002151F820004AF6AB21A5
:1042E000CAF6AA21A0FB0101880806E04CF2803141
:1042F000C2F2002151F82000D0404CF6D461C2F245
:10430000102108607047D4D42DE9F041DAA04EF2B4
:10431000FA38C4F201084AF20151CFF6FF7190ED6C
:10432000001F4CF280300231A8F80010C2F20020C9
:10433000D5A14EF6014680ED001F4EF600474EF225
:10434000140591ED001F48F2004140F6000280ED97
:10435000041F2030C1F2D77143F60003C4F20106F6
:10436000C4F20107C4F20105C2F6AF72C1F69C4364
:104370000EC0FFF773FF4FF650600A21CFF6FF70B3
:104380003954092085F88E00387818B930788007BC
:1043900000F06C81387850B901203870C8200121B4
:1043A00000F0CFF900BF00BF38780128FCD1002011
:1043B000307038704AF20156002085F82200A87744
:1043C00095F828000007FBD542F602314EF614504E
:1043D000C0F20101C5F8B41040F223416987002200
:1043E00085F836204FF60211C5F8981040F2514179
:1043F0002987CEF200004EF20001BFF34F8FBFF3CA
:104400006F8F0368CEF2010123F400330360C0F81C
:104410003C22BFF34F8FBFF36F8F0A6822F44052E4
:104420000A60BFF34F8FBFF36F8F2A7802F0F80254
:1044300001322A7000BF00BF2A78D206FCD40A6875
:1044400042F440520A60BFF34F8FBFF36F8F016891
:10445000890312D4BFF34F8FBFF36F8F0021C0F8D1
:104460003C12BFF34F8FBFF36F8F016841F40031EF
:104470000160BFF34F8FBFF36F8F0020A87500BF9F
:1044800095F828008006FBD54CF200070020C4F206
:10449000130738703878387838787868FA2807D071
:1044A000FA20C1F6006000BF78607968FA29FBD174
:1044B000B8687D2808D07D20CEF2001000BF00BF74
:1044C000B860B9687D29FBD143F23240C3F22320A2
:1044D000E86042F2201028820520A874FFF7BEFE93
:1044E0001E200121012400F02CF978686FF39F2031
:1044F000652828BF3C70FFF7B1FE42F200004FF480
:104500002541C4F200000680BFF35F8F0472BFF341
:104510005F8F018085F83F40002085F82A008020C9
:1045200085F82A0095F8620040F0400085F86200A6
:1045300095F96200B0F1FF3FFADC032085F85A00DC
:10454000CA2085F8620095F8620000F0BF0085F887
:10455000620000BF00BF00BF95F962000028FBD4D5
:1045600095F8410040F0400085F8410000BF00BFD1
:1045700095F94100B0F1FF3FFADC022085F84000D8
:10458000CA2085F8410095F8410000F0BF0085F889
:10459000410000BF00BF00BF95F941000028FBD4D7
:1045A00095F8430040F0400085F8430000BF00BF8D
:1045B00095F94300B0F1FF3FFADC002085F8420096
:1045C000C72085F8430095F8430000F0BF0085F848
:1045D000430000BF00BF00BF95F943000028FBD493
:1045E00095F8490040F0400085F8490000BF00BF41
:1045F00095F94900B0F1FF3FFADC012085F8480049
:10460000C62085F8490095F8490000F0BF0085F8FC
:10461000490000BF00BF00BF95F949000028FBD446
:1046200095F84B0040F0400085F84B0000BF00BFFC
:1046300095F94B00B0F1FF3FFADC012085F84A0004
:10464000CA2085F84B0095F84B0000F0BF0085F8B4
:104650004B0000BF00BF00BF95F94B000028FBD402
:104660004FF42540A8F80000BDE8F0814FF47A70BF
:1046700000F012F89EE600BF006CDC0200127A0027
:104680000080000000366E010080000000CA9A3BE6
:104690000046C3235543DE137047D4D4D4D4D4D4B6
:1046A000B0B542F22404C820C4F220040121002540
:1046B000257100F046F82570207808B12FF005C06C
:1046C000207840F00200207020788007FCD4002081
:1046D00004F8020C00BF00BF14F8020C08B12FF060
:1046E00005C84FF0030E002004F11C0100BF00BFFD
:1046F00011F8102002F07F0201F8102000BF00BF67
:1047000011F91020002AFBD401300FF00FC801204E
:1047100000F0BDF84EF64C410120C4F20101002228
:104720000A70BDE8B04000F08BB8014600220020BE
:10473000C0F204620A60704700BE00BF00BF00BF45
:10474000FEE74CF6D46241F20023C2F21022C0F21E
:104750007A03484312689A420FD344F23F21C0F2D1
:104760000F0111444DF68362C4F21B32A1FB021209
:10477000910CA0FB0101C9B11BE04CF60021C3F66E
:104780009A31B1FBF2F148F63812C0F24102904280
:1047900005D24FF47A725043B0FBF1F006E0B0FB63
:1047A000F1F0904205D24FF47A71484328B100F0FD
:1047B00007B84FF0FF3000F003B87047D4D4D4D41A
:1047C00001380028FCD17047F0B581B04CF20015DB
:1047D0004CF62C67C4F200050024C2F210272868AA
:1047E000296A01EA000600BF26FA04F0C00703D0D8
:1047F000396809B12046884701340437152CF3D1B4
:104800002E6100BF00BF00BF286A3042FCD101B05A
:10481000F0BDD4D4D4D4D4D480B54FF0100E4CF223
:10482000003041F2EC21C4F20000C0F2012100BFCF
:1048300031F8022B02B1026004300FF007C880BDCE
:10484000EFF31081012282F310884CF6C462C2F2A9
:10485000102232F8103023B132F81030013B22F828
:10486000103032F810207AB94EF2FA3241F2BC5CC4
:10487000C4F20102C0F2012C13883CF8100043F48A
:10488000254323EA0000108081F31088704710B59B
:10489000EFF31081012282F310884CF6C462C2F259
:1048A000102232F8103083B94EF2FA3E41F2BC5C6D
:1048B000C4F2010EC0F2012CBEF800403CF81030EA
:1048C000234343F42543AEF8003032F8103001336F
:1048D00022F8103081F3108810BDD4D44CF6D0618A
:1048E000C2F210210A681318B3F5804F0AD980B5B7
:1048F00008487844016800F04BFB0C2242504FF00E
:10490000FF3080BD40F280300B60C2F200201044C6
:10491000704700BF22CD000070B543F60045044645
:10492000C4F2000500BF00BF95F8500008B12FF099
:1049300005C84FF08700A8844FF0100028709CB184
:104940000020FFF7A4FF4EF253000126C4F201003D
:1049500006700020FFF774FF85F8206000BF00BFDD
:1049600095F850000007FBD40120A8700020687063
:1049700095F8500008B12FF005C842F20350C0F27C
:104980000500ACB14FF40C71A5F8481000BF00BF92
:1049900095F85010C907FBD16864002085F84000E5
:1049A00047F2A830A8820120A8751120287070BD98
:1049B0006864002085F8400047F2A830A8820120F2
:1049C000A87500BF00BF00BF2878C007FCD195F8CC
:1049D000500008B12FF009C00120287470BDD4D454
:1049E00000F006F8FCF7D6FEFEE700BE7047D4D410
:1049F000F0B581B04EF6005540F20120CEF2000530
:104A0000C0F20E004EF200066861CEF20106BFF35E
:104A10004F8FBFF36F8F29683368C1F3035043F0A2
:104A2000040301285FEA1F92336011F00F0F5FEA61
:104A30000F91BFF34F8FBFF36F8F11420DD101283C
:104A40000BD84EF20800CEF20000016841F480312C
:104A50000160BFF34F8FBFF36F8F4FF4700040F2D0
:104A60000001C5F888000020C0F20021A9600024E0
:104A7000FCF7E5FAFFF748FC4EF2FA304EF6B022AA
:104A8000C4F20100C4F201024AF202510180147022
:104A90004FF4254101800120FCF7D1FA44F2803027
:104AA000C2F2002080F30A883068800724D5A86805
:104AB000B0F1007F20D130694FF40071C0F3C30022
:104AC000726901FA00F3C2F3C30081400020DA08E2
:104AD000CB080146064642F007C800BF00BF00BF32
:104AE000E6E802010FF005C04FF0005243F005C0A8
:104AF000E2E802010FF005C0002000F009F9FFF71D
:104B0000ADFBFFF7CDFD0320FFF7C1FE4FF00E0E0A
:104B100040F63050C4F2400020F8044B0FF005C0BE
:104B20000320FFF78DFE0320FFF7B1FE44F20400DF
:104B30000021C4F22000016041608160C160032057
:104B4000FFF77EFE41F29031D5F8C020C0F201217E
:104B5000442363F30702C5F8C020086918B3496904
:104B600000244FF0200E4FF0010C002600BF00BFC4
:104B700001EBC40251F83430526822F01F02203A8F
:104B80000EEB5217B7EB531F09D942F001026CF339
:104B90000403C5F89840C5F89C30C5F8A02001363C
:104BA000F4B2A042E4D8BFF35F8F0520C5F89400AB
:104BB000686A40F480306862BFF34F8FBFF36F8F35
:104BC0006869C0032ED40020C5F88400BFF34F8F5E
:104BD000D5F8801043F6E073C1F34E30CA08C1F334
:104BE000C9014E1C9107420102EA030746F001E0A9
:104BF000CC1900BF00BF00BFC5F8604204F14044BB
:104C00000FF007C00028A0F10100A2F12002EBD1B3
:104C1000BFF34F8F686940F480306861BFF34F8FF6
:104C2000BFF36F8F4EF21014C4F20104D4F8C8021F
:104C3000800714D42078A0B10120FFF728FE00BF20
:104C400094F9000010F1410FFADC0020207000BF41
:104C500020783F28FCD80120FFF7F2FD01E0D4F8CE
:104C6000C802D4F8C802400715D42079A8B10120A1
:104C7000FFF70DFE00BF00BF94F9040010F1410FD3
:104C8000FADC0020207100BF20793F28FCD80120E9
:104C9000FFF7D6FD01E0D4F8C8020220FCF7CFF9F7
:104CA000012000F035F84CF6EC64C2F210242046E6
:104CB00000F04EF9204600F05FF9BFF34F8FBFF3CD
:104CC0006F8F0020C5F8500241F21C6041F21C6158
:104CD000C0F20120C0F20121BFF34F8F081ABFF3C9
:104CE0006F8F8410012C08DB41F21C65C0F2012596
:104CF00055F8040B8047013CFAD1FFF78DFD0020E9
:104D000001B0BDE8F04000F032B8D4D4D4D4D4D44B
:104D1000F0B581B041F290350446C0F201252E680D
:104D200076B16868071D00BF7879844204D157E9DD
:104D30000101091A00F01CF8013E07F10C07F3D13C
:104D4000AE6896B1E86800F1080500BF00BF00BF7B
:104D50006879844205D155E902022968121A00F0E7
:104D60000BF8013E05F11005F2D101B0F0BD70471E
:104D70000A46002100F009B810B5002322B1CC5C2E
:104D8000013AC4540133F9E710BD03461AB103F8E0
:104D9000011B013AFAE7704710B5C8B1044600207C
:104DA0002060194800F0D2F81849086890B1844290
:104DB0000FD950F8042C8118A1420146F5D154F8BE
:104DC000041C04461144026840F8041C104605E027
:104DD00010BD0ED020600C6054F8041C6218824292
:104DE0000CD1026850F8040C2260084444F8040C0A
:104DF00004E007490C2200F0CBF842500248BDE81D
:104E0000104000F0A4B800BFE4CE1022D8CE10228B
:104E10000800000070B504460D4A54F8040D261829
:104E2000126896420DD10D1A082D98BF0825284604
:104E300000F010F8B04206D0411C1CBF20C0FFF7A4
:104E4000ABFF002070BD206828442060012070BDA9
:104E5000DCCE1022F8B5002814D40446FFF73EFD3E
:104E6000411C0FD000F10B010C4E21F00701071976
:104E70000C1F844237600BD0251A2846FFF72EFD01
:104E8000B84203D04FF0FF342046F8BD28443060CC
:104E900070680028F8D17460F6E700BFDCCE1022FD
:104EA000F8B510F1140F06D327490C2200F070F862
:104EB00042500020F8BD0446214800F047F8E01DAC
:104EC000204C20F0070606F10805274624686CB13F
:104ED00054F8040CA84211D220680028F5D12046CD
:104EE0002946FFF797FF0028EFD013E02846FFF789
:104EF000B1FF0446013019D020C40DE0401B082842
:104F000008D3216861516119396041F8040C44F8F3
:104F1000045C01E020683860094800F018F846F0A9
:104F200004012046FFF724FF2046F8BD06490C2265
:104F300000F02EF84250024800F009F8B9E700BF2F
:104F4000E4CE1022D8CE102208000000704770472F
:104F500010B505490446054AFFF70EFF0448054908
:104F60002044FFF705FF10BDA2030002000000006F
:104F700000000000040000000249401A02490860D5
:104F8000704700BF08000000E8CE1022D4D4D4D46B
:104F90000148006870470000E8CE1022DC130000D2
:104FA000434F50310100100008300000000006108F
:104FB0000500000005000000050000000200EF04ED
:104FC0000F0101000040000000000400014000004B
:104FD000000000000240000000000000034000004C
:104FE000000000000B01FF000C01FF000A017F0020
:104FF000040105000640000001000000054000001B
:10500000000300000440000006000000090180FFCA
:10501000050101000701000000010000010100007E
:1050200003010100020101001F0101001040000006
:1050300000000000114000000000000012400000CD
:105040000000000013400000000000001B017F0072
:105050001C017F001A017F0012017F0011017F00F7
:1050600013010F001640000000080000154000006A
:10507000000800001440000010000000180180FF2C
:10508000140141002101020020010100220106005B
:105090002801000020400000C0280000214000003E
:1050A000E00100002901000022400000202800004B
:1050B00023400000A000000025010000260180FF21
:1050C00027017F00160107001501190017010F00C5
:1050D0000D010A002D010E00240100002F01000027
:1050E0000200000000400000000000000B017F00F3
:1050F0000C017F0004010F000640000000080000C2
:1051000005400000000800000440000010000000FE
:1051100005014100000101000101010010400000F3
:1051200000000400200102002201000020400000D5
:10513000402B000021400000C00000002240000081
:10514000A02A000016010B0015010F002F0103001B
:105150000300000000400000000004000001000007
:1051600001010000030100000201000010400000E6
:1051700000000000130107001801F3FF21010000E7
:105180002001000020400000502C000021400000C1
:10519000A000000022400000002C0000234000007E
:1051A000500000001601030015013F001701070021
:1051B0002D011E0002000000004000000000000061
:1051C000040107000901F3FF104000000000040083
:1051D00013012F001540000000180000180180FF87
:1051E0002201040020400000D02E000021400000D9
:1051F0005002000022400000F02C0000234000007C
:10520000E0010000160107001501090017012F0039
:105210002D010E000200000000400000000004000C
:1052200004012F000540000000180000090180FF64
:105230000301010002010100104000000000000015
:105240001B013F001C013F001A013F0012013F00FB
:1052500011013F001640000000040000154000004E
:10526000000C0000210102002001020022010300C5
:105270002040000000330000214000000002000038
:10528000224000002031000015010F0017010F001F
:105290000D011A002D011E00030000000040000057
:1052A000000000000B013F000C013F000A013F001D
:1052B000064000000004000005400000000C000053
:1052C0000301000002010000104000000000030084
:1052D0001301070015400000000400001801110030
:1052E00021010000200100002201000020400000F8
:1052F0005035000021400000A001000022400000C5
:10530000003500002340000050000000160103009B
:1053100015013F00170107000D01120002000000F7
:1053200000400000000003000401070005400000E9
:1053300000040000090111001040000000000000FE
:1053400013012F0015400000000C0000180180FF21
:105350002201040020400000D0380000214000005D
:105360008002000022400000F036000023400000D0
:10537000E00100001601050015010D0017012F00C6
:105380000D010A002D010E00020000000040000087
:105390000000000004012F0005400000000C000088
:1053A000090180FF0001010001010100030101006A
:1053B0000201010010400000000004002101020071
:1053C000200102002201000020400000303D0000CA
:1053D000214000001002000022400000503B00006D
:1053E00016010D0017010F0003000000004000002F
:1053F00000000400000100000101000003010000A2
:10540000020100001040000000000000130107002E
:1054100015400000000400001801FFFF21010000FA
:105420002001000020400000903F000021400000CB
:10543000C001000022400000403F00002340000067
:10544000500000001601030015013F00170107007E
:105450000D0112002D011E000200000025400C006D
:105460001F555B5226400000000000002440310020
:105470008A60FF45004000000000030004010700AF
:105480000540000000040000090111000501410170
:1054900018010B001401410116010F000D012E002F
:1054A0002D012E008D0112008F01010080400000AF
:1054B0000000000081400000000000008240000069
:1054C0000000000083400000000000008B013F004E
:1054D0008C013F008A013F0086400000000400006C
:1054E000854000000004000084400000100000001F
:1054F0008901FFFF850141008001000006000100D5
:10550000004000000000000009010B0005014100FF
:10551000104000000000010013012F0015400000A2
:10552000000C0000180180FF14014100220104005A
:1055300020400000304300002140000060020000D5
:10554000224000005041000023400000E001000024
:105550001601050015010D0017012F000D010A00AD
:105560002D010E00020000000040000000000100BC
:1055700004012F0005400000000C0000090180FF1D
:1055800003010100020101001040000000000000C2
:105590001B011F001C011F001A011F0012011F0028
:1055A00011011F001640000000020000154000001D
:1055B0000006000021010200200102002201030078
:1055C0002040000070470000214000000002000061
:1055D00022400000904500001601070015010F0051
:1055E00017010F000D011A002D011E00030000001D
:1055F00000400000000000000B011F000C011F0014
:105600000A011F00064000000002000005400000E3
:10561000000600000301000002010000104000002D
:1056200000C0000013010F00154000000002000040
:1056300018010200210100002001000022010000E9
:1056400020400000104A00002140000070030000CC
:10565000224000007049000023400000A00000002C
:105660001601030015011F000D010A0002000000D1
:105670000040000000C0000004010F0005400000D1
:1056800000020000090102001040000000000100BB
:1056900013015F0015400000000C0000180180FF9E
:1056A000204000004051000021400000C0070000E1
:1056B00022400000804D000023400000C003000095
:1056C0001601010017012F002D010E00020000003D
:1056D000004000000000010004015F0005400000E0
:1056E000000C0000090180FF000101000101010020
:1056F00003010100020101001040000000800200CF
:10570000210102002001020020400000C05C0000D6
:1057100021400000F003000022400000005900007A
:1057200016010B0015010F0017010F000300000008
:1057300000400000008002000001000001010000A4
:105740000301000002010000104000000000000002
:1057500013010F00154000000002000018010700AF
:1057600021010000200100002040000050610000E5
:10577000214000008005000022400000B0600000D1
:1057800023400000A00000001601030015011F00C7
:105790002D011E000200000025400C00E7391172A7
:1057A00024403100000000400040000000C0000024
:1057B00004010F0005400000000200000901020082
:1057C000050141011401410116010F000D012E00D8
:1057D0002D012E008B011F008C011F008A011F006C
:1057E000864000000002000085400000000200002A
:1057F000890107002F0101000600010000400000A0
:1058000000000000090107000501410010400000F0
:105810000040000013015F0015400000000C000074
:10582000180180FF1401410020400000906A000030
:1058300021400000D007000022400000D066000098
:1058400023400000C00300001601010017012F00D3
:105850000D010A002D010E000200000000400000B2
:105860000040000004015F0005400000000C000043
:10587000090180FF00010100010101000301010095
:10588000020101001040000000C0010021010200DF
:10589000200102002040000020760000214000008E
:1058A000F0030000224000006072000016010B00AF
:1058B00015010F0017010F002F0103000300000066
:1058C0000040000000C001000001000001010000D4
:1058D0000301000002010000104000000040000031
:1058E00013010F0015400000000200001801020023
:1058F000210100002001000020400000B07A0000DB
:1059000021400000B005000022400000107A000095
:1059100023400000A00000001601030015011F0035
:105920002D011E000200000025400C005873416349
:10593000004000000000000004010F0005400000CE
:1059400000020000090107000501410114014101A5
:1059500016010F000D012E002D012E0080400000C9
:1059600000400000890102002F0101000600010033
:105970000040000000400000090102000501410054
:10598000104000000080000013015F00154000007F
:10599000000C0000180180FF1401410020400000AD
:1059A0002084000021400000D007000022400000B9
:1059B0006080000023400000C003000016010100C9
:1059C00017012F000D010A002D010E00020000003A
:1059D000004000000080000004015F00054000005E
:1059E000000C0000090180FF1040000000000000D2
:1059F00013011F00154000000004000020400000BB
:105A0000308D000021400000100C000022400000FA
:105A1000F08B00002340000040010000160103004D
:105A200017011F002F0103000200000000400000CA
:105A30000000000004011F000540000000040000F9
:105A40001040000000000100130103001640000098
:105A5000010000001540000080000000144000001C
:105A600004000000180100001401010020400000A3
:105A70007099000021400000D0000000224000008A
:105A8000409900002340000030000000160107008C
:105A9000170107000D0112002D011E000200000079
:105AA00000400000000001000B01FF030C01FF0398
:105AB0000A0103000401000006400000010000008C
:105AC0000540000004000000044000000100000048
:105AD0000901000005010100104000000010010054
