:020000040200F8
:1000000080C3002281D6000269D400028BD6000290
:100010008BD600028BD600028BD600028BD6000254
:100020000000000000000000000000008BD600026D
:100030008BD60002000000008BD600028BD6000297
:1000400093BB000269BD0002D1BE0002B9BF00022D
:10005000B9AD00028FB200020FB30002EFB300028D
:1000600001C9000283C90002D7C9000209A9000220
:1000700055CE00025D1F00025F1F0002611F0002DB
:04008000631F0002F8
:100090003D500000AAAA3200FFFFFF0008304200D6
:1000A0000331130003310300003000000430FF006F
:1000B00002301C000630C3000E3045002E30080010
:1000C000343018001F500000004332001836000082
:1000D00012362900093752000C370300203840003F
:1000E000213801003036360031360E003236E2005B
:1000F000333612002136E0000437A00003375A00DF
:1001000015377800173701000B37600005371A00E4
:10011000053902000639100001390A003137120092
:1001200000360800013633002D30600020365200C2
:100130001B3720001C475000133A4300183A0000B8
:10014000193AF800353613003636030034364000CD
:1001500022360100014002000440020005401A005E
:100160000150A30003350700003500000135FF00F2
:10017000023500000A3500000B3520000F3A300030
:10018000103A28001B3A30001E3A2600113A60004F
:100190001F3A1400183A0000193A7C000634000097
:1001A00000340700013470000234040003340000FE
:1001B000043405000534C000805401008154080057
:1001C00082541400835428008454510085546500DF
:1001D0008654710087547D008854870089549100AB
:1001E0008A549A008B54AA008C54B8008D54CD00C8
:1001F0008E54DD008F54EA0090541D008055060097
:100200008355400084551000895510008A55000020
:100210008B55F800005823000158140002580F00B5
:1002200003580F00045812000558260006580C0009
:100230000758080008580500095805000A58080022
:100240000B580D000C5808000D5803000E58000004
:100250000F580000105803001158090012580700E9
:1002600013580300145800001558010016580300D5
:100270001758080018580D00195808001A5805009A
:100280001B5806001C5808001D580E001E58290057
:100290001F5817002058110021581100225815002E
:1002A00023582800245846002558260026580800C0
:1002B0002758260028586400295826002A58240068
:1002C0002B5822002C5824002D5824002E580600AC
:1002D0002F58220030584000315842003258240034
:1002E000335826003458240035582200365822004E
:1002F0003758260038584400395824003A58260008
:100300003B5828003C5842003D58CE000050A70002
:1003100020384600213800001438310015383100EB
:100320000338040008380400093800000A380200C5
:100330000B3858000C4622003748100024380200C1
:100340000150A3003D50000041470000FFFFFF00A7
:1003500028C40E220000000000000000100300224C
:10036000000000000000000000000000000900681C
:100370000004580200040000020000000000000019
:10038000000000000000000000FF0000000000006E
:100390000000080000000000000000000000000055
:1003A0000000100800000000000000000000000035
:0203B000010149
:1003C0002DE9F04385B018461546884601240821DA
:1003D000202220230C9E4FF0000C18278DE8D0001F
:1003E000CDF80CC04FF008090DF012FB08212022B7
:1003F000202328460094CDF80C90CDE901670DF03C
:1004000007FB0821202220231020039040468DE87E
:10041000D0000DF0FDFA05B0BDE8F0832DE9F047FE
:1004200084B01E4690468946DDE90C071021102253
:1004300010234FF0000C40240125CDE900574FF068
:10044000100A0294CDF80CC00DF0E2FA102110222F
:10045000102330460095CDF80CA0CDE901740DF0C5
:10046000D7FA20200390102110221023484600952F
:10047000CDE901740DF0CCFA1021102210233020A8
:1004800003904046CDE9005702940DF0C1FA04B044
:10049000BDE8F0872DE9F04784B01E4690468946B6
:1004A000DDE90C072021082208234FF0000C8024EE
:1004B0000125CDE900574FF0200A0294CDF80CC079
:1004C0000DF0A6FA20210822082330460095CDF829
:1004D0000CA0CDE901740DF09BFA4020039020217F
:1004E0000822082348460095CDE901740DF090FAE2
:1004F000202108220823602003904046CDE90057C0
:1005000002940DF085FA04B0BDE8F0872DE9F043C0
:1005100085B018461546884601244021042204234C
:100520000C9E4FF0000CC0278DE8D000CDF80CC019
:100530004FF040090DF06CFA4021042204232846B4
:100540000094CDF80C90CDE901670DF061FA4021DF
:10055000042204238020039040468DE8D0000DF053
:1005600057FA05B0BDE8F0832DE9F04784B099460D
:1005700016460846402104220423DDE90C874FF08B
:10058000000C4FF480740125CDE900574FF0400A6C
:100590000294CDF80CC00DF03BFA40210422042354
:1005A00030460095CDF80CA0CDE901740DF030FA7D
:1005B0008020039040210422042348460095CDE981
:1005C00001740DF025FA402104220423C020039079
:1005D0004046CDE9005702940DF01AFA04B0BDE888
:1005E000F0872DE9F04385B018461546884601246A
:1005F0004021042204230C9E4FF0000CC0278DE8FC
:10060000D000CDF80CC04FF040090DF001FA4021A8
:100610000422042328460094CDF80C90CDE901670C
:100620000DF0F6F940210422042380200390404677
:100630008DE8D0000DF0ECF905B0BDE8F0832DE9B0
:10064000F04184B01D4610460C460127CDE90073E9
:100650008021082208234FF0000CC0260296CDF816
:100660000CC04FF080080DF0D3F940210822082378
:100670002046CDE90075CDE902680DF0C9F904B056
:10068000BDE8F0812DE9F04385B01846154688464F
:1006900001242021082208230C9E4FF0000C602723
:1006A0008DE8D000CDF80CC04FF020090DF0B0F966
:1006B00020210822082328460094CDF80C90CDE98B
:1006C00001670DF0A5F9202108220823402003909E
:1006D00040468DE8D0000DF09BF905B0BDE8F083F1
:1006E0002DE9F04184B01D4610460C460127CDE9A6
:1006F00000734021102210234FF0000C6026029658
:10070000CDF80CC04FF040080DF082F920211022E6
:1007100010232046CDE90075CDE902680DF078F987
:1007200004B0BDE8F0812DE9F04385B018461546C8
:10073000884601241021102210230C9E4FF0000C3B
:1007400030278DE8D000CDF80CC04FF010090DF027
:100750005FF910211022102328460094CDF80C9048
:10076000CDE901670DF054F910211022102320204B
:10077000039040468DE8D0000DF04AF905B0BDE881
:10078000F0832DE9F04184B01D4610460C46012748
:10079000CDE900732021082208234FF0000C6026C9
:1007A0000296CDF80CC04FF020080DF031F9402131
:1007B000082208232046CDE90075CDE902680DF036
:1007C00027F904B0BDE8F0812DE9F04385B0184663
:1007D0001546884601242021082208230C9E4FF04C
:1007E000000C60278DE8D000CDF80CC04FF0200938
:1007F0000DF00EF920210822082328460094CDF898
:100800000C90CDE901670DF003F92021082208239F
:100810004020039040468DE8D0000DF0F9F805B077
:10082000BDE8F0832DE9F04184B01D4610460C462A
:100830000127CDE900734021042204234FF0000C6E
:10084000C0260296CDF80CC04FF040080DF0E0F83D
:100850008021042204232046CDE90075CDE90268F9
:100860000DF0D6F804B0BDE8F0812DE9F04385B075
:1008700018461546884601244021042204230C9E74
:100880004FF0000CC0278DE8D000CDF80CC04FF021
:1008900040090DF0BDF840210422042328460094AD
:1008A000CDF80C90CDE901670DF0B2F8402104229B
:1008B00004238020039040468DE8D0000DF0A8F876
:1008C00005B0BDE8F08370B58CB04FF2385E0DF125
:1008D000200CC0F2002E63469EE8710071C30846EA
:1008E0004FF2F4466FF07F034BF6C6244FF4A86135
:1008F000CDE9003104930423114662464FF0010E06
:10090000C0F200260025C7F6EE74CDE90245CDE918
:10091000056E00F04DF80CB070BD2DE9F04184B0CB
:100920001D4610460C460127CDE900730121022225
:100930004FF4A8734FF0000C04260296CDF80CC0BB
:100940004FF002080DF080F8012102224FF4A87345
:100950002046CDE90075CDE902680DF075F804B0C8
:10096000BDE8F0812DE9F04184B01D4614460846EB
:100970000127CDE90073012104224FF4A8734FF041
:10098000000C05260296CDF80CC04FF004080DF0BF
:100990005BF8012101224FF4A8732046CDE90075D0
:1009A000CDE902680DF050F804B0BDE8F081D4D470
:1009B0002DE9F04F03AF8DB089460446A7F124001E
:1009C00014219A469046D7F81CB00DF08AF90720FA
:1009D000002500EB8B0047F838DC20F0070047F8D3
:1009E000285CADEB000647F82C5C47F8305CB54658
:1009F0004FEA8B0130460DF074F9484659460DF028
:100A000070F947F8345C82B0A7F13003A7F13400E5
:100A100000905046D7E90B1200F07EF802B0002893
:100A200000F0718047F83C9CA7F1240900BF00BF8B
:100A300082B00023504641464A46009500F0ACF88B
:100A400002B0834657F8343C82B0A7F130000090E2
:100A5000504641464A4600F09FF802B014F90B1088
:100A600056F82020114446F82010504641464A4688
:100A700000F0C2F808B12FF025C857F8340C012156
:100A800001281CDB80EF5100FC69A7F1300120F048
:100A900001E000BF00BF00BFB1EC043F98FC434F32
:100AA00020EF54091FF009C051EC110BD7F828B002
:100AB00053EC102B484302FB03F1414302E0D7F80B
:100AC00028B0FC69012CD7E9080957F83C5C1ADB0F
:100AD000BA694FEAE07A01FB02F800BF00BF00BF2D
:100AE00056F8040BA0EB080082B03A6A5346CDF8E2
:100AF000009000F09FF802B05844013C00F307005A
:100B000005F8010BECD157F838DCA7F10C04A54629
:100B1000BDE8F08FD4D4D4D42DE9F043DDF81CE047
:100B20004FF0010C4FF00007CEF8007070B3012AAF
:100B30002CDB4FF000084FF0000900BF00BF00BFE2
:100B400051F82960002E48BF0644B6F1FF3F5FEA26
:100B5000DF9786425FEAA78CBCF1010F16D1B8F18E
:100B6000010F1F46444605DB57F8045BB54209D028
:100B7000013CF9D143F82860DEF8004004F1010897
:100B8000CEF8008009F101099145D9D16046BDE850
:100B9000F083D4D4D4D4D4D42DE9F041012828DB77
:100BA000DDF818C040F001E0BCF1000F5FEA1F97CC
:100BB000012B5FEAAF960025002047EA060800BF38
:100BC000B8F1000F66461F4608D100BF00BF00BF46
:100BD00056F8044BA54207D0013FF9D151F8254002
:100BE00052F8256004FB006001350FF017C8BDE81E
:100BF000F0810020BDE8F08110B56FF0030303EB36
:100C0000800319441A4400BF034601280EDB106814
:100C100051F804E900F1010CBEEB0C0454EA009019
:100C2000E64542F80409A3F10100EDD0002B5FEA8C
:100C3000DF9010BD70B5C117A2FB0046DDF810C0F3
:100C400002FB0161CCF11E0E0025012252EA0DE5E6
:100C500003FB00111019CCF11F02694150EA2D214C
:100C600070BD40F670204DF69051C0F20120C2F2E6
:100C700002210068084470474CF2B030C2F20020F4
:100C800070472DE9F04FB1B0044640F67C20C0F229
:100C900001204DF69051C2F2022140F67422006804
:100CA000C0F201220844039040F6782049F690569D
:100CB000C0F20120C2F2042643F690554AF690593C
:100CC0000068C2F20525084402901068C2F20529A6
:100CD00001EB000A45F6DC20C0F2012045F6D821E0
:100CE000C0F201214EF290580068C2F2052830444B
:100CF000089045F6E0204FF69017C0F20120C2F2AE
:100D0000052741F290124AF6E0230068C2F206225B
:100D100030440790086841F6F4513044069045F697
:100D2000D420C0F20221C0F20120C2F20E230068DA
:100D300030440490086841F60061C0F20221284462
:100D40002690086841F6FC5128440B9041F6046057
:100D5000C0F20221C0F20220006828440A9008680C
:100D60004DF2C4412844099041F6F850C0F20321E5
:100D7000C0F2022000682844059008684DF2D04176
:100D8000C0F2032148441B9008684DF2C841484412
:100D90000E904DF2CC40C0F20321C0F20320006857
:100DA00048440D90086845F6CC6148440C9045F6DF
:100DB000C460C0F20421C0F20420006840441290D4
:100DC00045F6C860C0F204200068404411900868ED
:100DD0004AF2BC614044109045F6D060C0F2052153
:100DE000C0F20420006840440F9008684AF2B861DD
:100DF000C0F2052138441590086843F2B4513844D4
:100E000014904AF2B460C0F20621C0F205200068D6
:100E100038441390086843F2B851C0F206211044D8
:100E20002B9008684AF6C461104416904AF6CC60CC
:100E300044F29012C0F20620C2F20622C0F206214D
:100E40000068104419904AF6C860C0F20620006895
:100E500010441890086840F60C11104417904EF298
:100E6000442048F29012C0F20620C2F20622C0F2DC
:100E700007210068104423904EF24820C0F206205B
:100E8000006810441A90086840F608114EF290125B
:100E9000C0F20721C2F2062210441E90086843F6F1
:100EA000640110441D9040F60410C0F20721C0F206
:100EB0000720006810441C90086843F6680146F259
:100EC0009012C0F20721C2F2072210442C90086849
:100ED00049F6045110441F9049F60C504BF2901201
:100EE000C0F20720C2F20722C0F2072100681044B6
:100EF000229049F60850C0F2072000681044219063
:100F000008684BF20C71104420904DF2E4604DF6ED
:100F10009012C0F20720C2F20722C0F20821006836
:100F200010442A904DF2E860C0F207200068104497
:100F3000249008684BF2087140F29012C0F2082128
:100F4000C2F2082210442890086840F6603110442C
:100F500027904BF20470C0F20B21C0F20820006809
:100F600010442590086840F65C3141F69012C0F2BA
:100F70000B21C2F2082210442990086841F2545112
:100F80001044309041F28820C0F20B21C0F20B20B7
:100F90004BF260520968C2F20E22006818442E908B
:100FA00041F28420C0F20B20006818442D905018A4
:100FB0002F90204600F011FA4CF64C2B4CF64020B6
:100FC000C2F2002BCDF800B0C2F20020DDE9022110
:100FD0005346FFF7F5F945F6D0204FF4C042C0F272
:100FE00001205946006830440CF07FFE204600F096
:100FF00047FA42F6582642F64C20C2F201260499DE
:10100000CDE90016C2F201200899DDE90632FFF7AA
:1010100005FA41F6F0504FF48042C0F2022031460A
:10102000006828440CF061FE204600F081FA46F684
:10103000642546F65820C2F201250599CDE9001530
:10104000C2F201200B99DDE90932FFF723FA4DF2D4
:10105000C0404FF40052C0F20320294600684844C3
:101060000CF043FE204600F0CBFA48F6702548F617
:101070006420C2F201250095C2F201200E99DDE93B
:101080000C32FFF743FA45F6C0604FF44062C0F2FD
:1010900004202946006840440CF027FE204600F05A
:1010A0000FFB49F27C6549F27060C2F201250F998D
:1010B000CDE90015C2F201201299DDE91032FFF7E7
:1010C00053FA4AF2B0604FF48052C0F2052029462C
:1010D000006838440CF009FE204600F047FB4AF255
:1010E00088654AF27C60C2F201250095C2F20120B7
:1010F0001599DDE91332FFF774FA43F2B05041F26B
:101100009011C0F20620C2F206214FF4406200683E
:10111000084429460CF0E9FD204600F07AFB4BF22A
:1011200094254BF28820C2F20125C2F201201B99BE
:10113000169A2B46FFF783FA4AF6C06044F29011E4
:10114000C0F20620C2F206214FF440520068084463
:1011500029460CF0CAFD204600F0B0FB4EF2A02557
:101160004EF29420C2F201250095C2F20120199995
:10117000DDE91732FFF786FA4EF2402048F290116F
:10118000C0F20620C2F206214FF4C05200680844A3
:1011900029460CF0AAFD204600F0E5FB4FF6AC25F1
:1011A0004FF6A020C2F20125C2F2012026991A9A18
:1011B0002B46FFF795FA40F600104EF29011C0F260
:1011C0000720C2F206214FF4C042006808442946B5
:1011D0000CF08BFD204600F01BFC45F6B82545F6CB
:1011E000AC20C2F202250095C2F202201E99DDE970
:1011F0001C32FFF798FA43F6600046F29011C0F2F5
:101200000720C2F207214FF44052006808442946E3
:101210000CF06BFD204600F050FC48F6C42548F663
:10122000B820C2F20225C2F2022023991F9A2B464F
:10123000FFF7A7FA49F600504BF29011C0F20720D1
:10124000C2F207214FF4C0520068084429460CF04E
:101250004CFD204600F081FC4AF2D0254AF2C42021
:10126000C2F202250095C2F202202299DDE9203265
:10127000FFF7AAFA4DF2E0604DF69011C0F2072098
:10128000C2F207214FF4C0520068084429460CF00E
:101290002CFD204600F0B6FC4BF6DC254BF6D020AA
:1012A000C2F20225C2F202202B99249A2B46FFF7A4
:1012B000B9FA4BF2007040F29011C0F20820C2F26D
:1012C00008214FF440620068084429460CF00DFDE7
:1012D000204600F0ECFC4CF2E8654CF2DC60C2F217
:1012E00002250095C2F20220DDE92721259BFFF7A8
:1012F000BCFA40F6503041F69016C0F20B20C2F214
:1013000008264FF400522C99006830440CF0EDFC94
:1013100040F654304FF48052C0F20B202A990068F6
:1013200030440CF0E2FC40F658304FF44062C0F21A
:101330000B202946006830440CF0D7FC204600F012
:101340000FFD4DF2F4254DF2E820C2F20225C2F263
:10135000022029992A46FFF7B6FA41F280204AF680
:10136000E021C0F20B20C2F20E214FF4A862006807
:10137000084429460CF0B9FC204600F05DFD4DF60E
:1013800040054DF63400C2F20225C2F20220DDE92A
:101390002D212B46FFF7C1FA41F250504BF260511C
:1013A000C0F20B20C2F20E214FF4A862006808447C
:1013B00029460CF09AFC204600F08CFD4DF680503A
:1013C0004CF2B033C2F20220C2F20023DDE92F1248
:1013D00031B0BDE8F04FFFF7C5BAB0B598B04FF6E1
:1013E000D4124DF69055C0F200224FF6E0110024C1
:1013F000C2F202250028C0F200210B940A91116864
:101400000391CDE90C544FF4E0314FF44040069085
:10141000CDE90E54CDE90411CDE9105407D04DF6B5
:1014200090504FF4C041C2F202200CF05AFC05F576
:101430000050CDE9140405F580404FF40051CDE98A
:1014400016044FF24850C0F200200991CDE907116F
:101450004FF25051026803A800904CF22840C2F2AB
:101460000E20C0F200210AABCDE912540725CDE9C8
:10147000015409F0C6F901305FEA1FA018B0B0BDF1
:10148000B0B59CB040F6887249F69055C0F2012282
:1014900040F690710024C2F204250028C0F2012118
:1014A0000D940C9111680491CDE90E544FF4204134
:1014B0004FF4C0400790CDE91054CDE90511CDE9B6
:1014C000125407D049F690504FF48041C2F20420E4
:1014D0000CF007FC05F58051CDE9161440F680218B
:1014E00005F50050C0F20121CDE9180405F5405082
:1014F0001A900A6804A800904CF2284040F6902107
:10150000C2F20E20C0F201210CAB81EF5002CDE9F6
:10151000145408251B948DED081FCDE9015409F0E2
:1015200070F901305FEA1FA01CB0B0BDD4D4D4D490
:1015300070B59EB046F2D0010024C0F20121CDE981
:101540000C1446F2C00143F69055C0F20121C2F2DC
:10155000052505F50056002809680391CDE90E54CC
:101560004FF4E0414FF480400690CDE91054CDE9AE
:101570000411CDE9126407D043F690504FF4804136
:10158000C2F205200CF0ADFB05F52051CDE9181491
:1015900045F6E42116A0C0F201210CAB90ED001F2E
:1015A00005F54050CDE91A0405F560500A68CDE90B
:1015B0001C044FF400600B9003A800904CF22840EC
:1015C00045F6F021C2F20E20C0F201218DED071F79
:1015D000CDE91454CDE916640826CDE9016409F07B
:1015E00010F901305FEA1FA01EB070BD00BF00BF40
:1015F00000200000000800000008000000080000B3
:1016000070B59CB042F2D0210024C0F20221CDE995
:101610000C1442F2C0214AF69055C0F20221C2F2E7
:10162000052505F58056002809680491CDE90E547A
:101630004FF460514FF400500790CDE91054CDE9BC
:101640000511CDE9126407D04AF690504FF4E051ED
:10165000C2F205200CF045FB41F6086114A0C0F26F
:1016600002210CAB90ED001F05F5A050CDE9180448
:1016700005F5C0501A900A6804A800904CF2284062
:1016800041F61061C2F20E20C0F202218DED081F5A
:101690001B94CDE91454CDE916640826CDE9016404
:1016A00009F0AFF801305FEA1FA01CB070BD00BFA9
:1016B000001000000004000000040000000400000E
:1016C000B0B59CB04DF214724EF29055C0F20322A8
:1016D0004DF220710024C2F205250028C0F203213A
:1016E0000D940C9111680491CDE90E544FF4A05162
:1016F0004FF440600790CDE91054CDE90511CDE9D4
:10170000125407D04EF290504FF48051C2F205208F
:101710000CF0E7FA05F58061CDE916144DF2D441DD
:1017200005F50060C0F20321CDE9180405F540601D
:101730001A900A6804A800904CF228404DF2E0414B
:10174000C2F20E20C0F203210CAB80EF5402CDE9AF
:10175000145408251B948DED081FCDE9015409F0A0
:1017600050F801305FEA1FA01CB0B0BDB0B598B012
:1017700046F290324FF69015C0F2042246F2A031A4
:101780000024C2F205250028C0F204210B940A911E
:1017900011680391CDE90C544FF4C0514FF48050BF
:1017A0000690CDE90E54CDE90411CDE9105407D0CF
:1017B0004FF690104FF44061C2F205200CF091FA00
:1017C00005F58060CDE9140405F500604FF48061F3
:1017D000CDE9160445F6D460C0F204200991CDE9A4
:1017E000071145F6E061026803A800904CF228401A
:1017F000C2F20E20C0F204210AABCDE91254072533
:10180000CDE9015408F0FDFF01305FEA1FA018B0D8
:10181000B0BDB0B596B04AF6D0110025C0F2052192
:10182000CDE90A154AF6C81141F29014C0F205211B
:10183000C2F206240028CDE90C45096804914FF452
:101840004051CDE90E454FF440600790CDE90511B8
:1018500004F50061CDE910150AD04FF4006120466F
:101860000CF03FFA04F580504FF400510CF039FAB7
:101870004AF2C0614FF40060C0F20521089004F5FF
:101880008050CDE914054FF4005009900A6804A86F
:1018900000904CF228404AF2D061C2F20E20C0F211
:1018A00005210AABCDE912450624CDE9014508F032
:1018B000A8FF01305FEA1FA016B0B0BD70B598B0A8
:1018C00043F630110026C0F20621CDE90A1643F690
:1018D000241144F29014C0F20621C2F2062404F549
:1018E0008055002809680391CDE90C464FF48041EA
:1018F0004FF440500690CDE90E46CDE90411CDE9F4
:10190000105609D04FF4006120460CF0EAF94FF46C
:10191000805128460CF0E5F904F5C050CDE91406D5
:1019200043F2BC504FF40061C0F20620CDE907112C
:10193000099143F2C051026803A800904CF228407C
:10194000C2F20E20C0F206210AABCDE912560725DD
:10195000CDE91646CDE9015608F053FF01305FEAA4
:101960001FA018B070BDB0B596B04BF2C0110025E5
:10197000C0F20621CDE90A154BF2B41148F29014D9
:10198000C0F20621C2F206240028CDE90C45096800
:1019900004914FF4C041CDE90E454FF4C05007907B
:1019A000CDE9051104F58051CDE910150AD04FF4A9
:1019B000805120460CF095F904F500504FF4804119
:1019C0000CF08FF94AF6D0614FF48050C0F2062136
:1019D000089004F50050CDE914054FF480400990BB
:1019E0000A6804A800904CF228404AF6E061C2F26E
:1019F0000E20C0F206210AABCDE912450624CDE93E
:101A0000014508F0FEFE01305FEA1FA016B0B0BD30
:101A100070B598B04EF290510026C0F20621CDE983
:101A20000A164EF28C514EF29014C0F20621C2F208
:101A3000062404F50055002809680391CDE90C46F9
:101A40004FF400414FF4C0400690CDE90E46CDE979
:101A50000411CDE9105609D04FF4805120460CF006
:101A600040F94FF4005128460CF03BF904F5405082
:101A7000CDE914064EF24C204FF48051C0F20620FE
:101A8000CDE9071109914EF25021026803A8009098
:101A90004CF22840C2F20E20C0F206210AABCDE97A
:101AA00012560725CDE91646CDE9015608F0A9FEE4
:101AB00001305FEA1FA018B070BD70B596B040F657
:101AC000F0210024C0F20721CDE90A1440F6E421F8
:101AD00046F29015C0F20721C2F2072505F500561F
:101AE000002809680491CDE90C544FF4A0414FF44B
:101AF00040500790CDE90E54CDE90511CDE91064B1
:101B000007D046F290104FF42051C2F207200CF09B
:101B1000E8F840F610114FF40050C0F20721089089
:101B20004FF4006009900A6804A800904CF2284025
:101B300040F62011C2F20E20C0F207210AABCDE917
:101B40001254CDE914640626CDE9016408F059FE6B
:101B500001305FEA1FA016B070BD70B598B043F6B3
:101B6000E0310026C0F20721CDE90A1643F6D43150
:101B70004BF29014C0F20721C2F2072404F58055FD
:101B8000002809680391CDE90C464FF420514FF429
:101B9000C0500690CDE90E46CDE90411CDE91056AE
:101BA00009D04FF4006120460CF09BF84FF48051AF
:101BB00028460CF096F804F5C050CDE9140643F61B
:101BC0006C004FF40061C0F20720CDE907110991C4
:101BD00043F67001026803A800904CF22840C2F25C
:101BE0000E20C0F207210AABCDE912560725CDE938
:101BF0001646CDE9015608F004FE01305FEA1FA049
:101C000018B070BDB0B596B049F660710025C0F24D
:101C10000721CDE90A1549F654714DF69014C0F22A
:101C20000721C2F207240028CDE90C450968049178
:101C30004FF42051CDE90E454FF4C0500790CDE947
:101C4000051104F58051CDE910150AD04FF48051EB
:101C500020460CF046F804F500504FF480610CF07B
:101C600040F849F610514FF48050C0F20721089017
:101C700004F50050CDE914054FF4806009900A681E
:101C800004A800904CF2284049F62051C2F20E20E0
:101C9000C0F207210AABCDE912450624CDE9014582
:101CA00008F0AFFD01305FEA1FA016B0B0BDB0B5BF
:101CB00098B04DF670310025C0F20721CDE90A1524
:101CC0004DF66C3140F29014C0F20721C2F20824A4
:101CD0000028CDE90C45096803914FF4C051CDE9C6
:101CE0000E454FF440600690CDE9041104F54061C3
:101CF000CDE910150AD004F5A0504FF480610BF027
:101D0000F0FF4FF4006120460BF0EBFF04F5A0500C
:101D1000CDE9140504F580604FF48061CDE9160526
:101D20004DF2EC60C0F207200991CDE907114DF2A8
:101D3000F061026803A800904CF22840C2F20E2025
:101D4000C0F207210AABCDE912450724CDE90145D0
:101D500008F057FD01305FEA1FA018B0B0BDD4D421
:101D6000B0B59CB030A14CF6E072C0F2082241F64A
:101D7000901491ED001F4CF6F071C2F20824C0F2ED
:101D800008210C911168049141F250110025214461
:101D9000CDE9121504F5A8710028CDE9141543F218
:101DA00050110D9511958DED051F21444FF44060A4
:101DB00010940990CDE90E45CDE916150BD04FF4DE
:101DC000A87120460BF08DFF45F250504FF4A851FA
:101DD00020440BF086FF4BF210714FF4A870C0F254
:101DE00008210A9045F250500CAB2044CDE91A0569
:101DF0004FF4A8500B900A6804A800904CF22840B9
:101E00004BF22071C2F20E20C0F2082119951894ED
:101E10000824CDE9014508F0F4FC01305FEA1FA079
:101E20001CB0B0BD00BF00BF50910600509106002D
:101E30000020000000100000B0B596B040F630520F
:101E40004AF6E025C0F20B2240F640510024C2F2CF
:101E50000E250028C0F20B210B940A911168049101
:101E6000CDE90C544FF428614FF4A8600790CDE9F8
:101E70000E54CDE90511CDE9105405D005F5A86043
:101E80004FF4A8610BF02DFF05F5FC61CDE91414AA
:101E900040F6643105F5A860C0F20B21CDE91204CB
:101EA0004FF42870089009900A6804A800904CF23A
:101EB000284040F67031C2F20E20C0F20B210AAB6E
:101EC0000625CDE9015408F09CFC01305FEA1FA013
:101ED00016B0B0BD70B592B041F200410024C0F21E
:101EE0000B21CDE9081441F2F4314BF26055C0F2F8
:101EF0000B21C2F20E254FF4A86609680391CDE9C3
:101F00000A540F940E95CDE90C540696CDE904665B
:101F100038B14BF260504FF4A861C2F20E200BF0C2
:101F2000E0FE41F28C2041F29021C0F20B20C0F281
:101F30000B2108ABCDE91054026803A800904CF2C5
:101F40002840C2F20E2007960526CDE9016408F06C
:101F500058FC01305FEA1FA012B070BD7047704797
:101F600070477047D4D4D4D410B54BF6A024A82120
:101F7000C2F20E2420460BF0B4FE03202061606103
:101F800041F60F404BF64831C0F20B20A061C2F27F
:101F90000E21E1614FF4006121620021A1626162C2
:101FA000E1624CF2483220664FF0100E41F2585078
:101FB000C2F20E226266C4F868E02167E1666167DA
:101FC000BFF35F8FC0F20B200F3000BF00BF00BF18
:101FD00010F8011904F8011B0FF007C0BFF35F8F61
:101FE00010BDD4D4D4D4D4D42DE9F04381B0144658
:101FF0000D468046C7684FF0000900BF00BF00BF14
:10200000D8F81000FA43B84206D91044D8F808109E
:1020100006E000BF00BF00BFD8F808101044084415
:10202000C91B884250EA31802946A04250EA3486D2
:10203000D8F80400384432460BF057FEF019D8F8AF
:102040000810411AA4EB060450EA1187B144354444
:10205000BFF35F8FC8F80C700CB12FF02FC8484643
:1020600001B0BDE8F0832DE9F04381B000EB400002
:102070004BF6A023C2F20E23144603EBC00389469D
:1020800003F11805D86A022812D0012808D00028C8
:102090003ED1EE682869F143B04234D9084435E0B6
:1020A000EE682969B1420BD9F0430144A8680BE0FE
:1020B00028464946224601B0BDE8F043FFF794BFE9
:1020C000F243A86811440144A14251EA3484871BB9
:1020D00068683044BC4207D2494622460BF005FEF0
:1020E000BFF35F8F26440CE049463A460BF0FDFDF6
:1020F000E61B686809EB070132460BF0F6FDBFF3FB
:102100005F8FEE6025E0AA6808441044A04201D227
:1021100000241EE0D5E901018F1B3044BC4208D2E7
:10212000494622460BF0E1FDBFF35F8F06EB040842
:102130000DE049463A460BF0D8FDA4EB0708686865
:1021400009EB070142460BF0D0FDBFF35F8FC5F8E6
:102150000C80204601B0BDE8F083F0B581B04BF6AD
:10216000A0231446C2F20E230D4606461B78532BBD
:1021700001D0FFF7F9FEEFF311874FF0200181F353
:102180001188304629462246FFF76DFF87F31188F4
:1021900001B0F0BDD4D4D4D42DE9F04F9BB091461A
:1021A0000F46002406A916914021179100210590A1
:1021B0001A90CDE9181100BF17F8011B252907D087
:1021C000002900F06F8116A800F07BF9E5E000BF60
:1021D0004FF0000800BF00BF39782C2908DC232904
:1021E0000ED02B2918D104200FE000BF00BF00BF84
:1021F0002D2909D030290FD1022006E000BF00BFF1
:10220000082002E000BF00BF012048EA00080137B3
:10221000E2E700BF00BF00BFA1F13A0010F10A0FD2
:1022200002D2002012E000BF00200A4600BF00BF1B
:1022300017F8011F00EB8000A1F13A0302EB400008
:1022400013F10B0FA0F130000A46F1D82E290FD15F
:102250003A4612F8011F2A290DD1D9F80010023789
:102260000A1DC9F800200E6801211DE000BF00BF53
:102270000021002618E0A1F13A0313F10A0F02D25F
:10228000002100260FE0002612F8013F06EB86072A
:10229000A3F13A0601EB470116F10B0FA1F130064D
:1022A0001946F1D80121174617F8012B02F0FB035C
:1022B000682BF9D0632A0FDC252A2ED0582A24D087
:1022C000632A6AD1D9F80000011DC9F8001001780D
:1022D00079E700BF00BF00BFA2F17003082B1ED832
:1022E000DFE803F0055B5B615B4E5B5B1300D9F8D5
:1022F00000001022011DC9F8001001680823002009
:102300000826CDE9006016A845E0D9F800100A1D9E
:10231000C9F800200968102239E0252153E7642A12
:102320003BD1D9F800104CF6CD4C0A1DC9F800205D
:10233000D1F800E0CCF6CC4CCEF100017246BEF1F3
:10234000000F48BF0A460A2A03914FF0010107DB3C
:10235000A2FB0C35632A01F101014FEAD502F7D83F
:102360008E4256EA818B002840D0BEF1000F5FEA12
:102370005F9108F0040241EA9201A0EB010A37E004
:10238000D9F800100A1DC9F8002009680A22CDE911
:10239000000816A8334600F0B7F8199CB4F1FF3FC7
:1023A0003FF70AAF89E0D9F80000021DC9F8002004
:1023B000006841F2F1720028C0F20B2250EA128547
:1023C0005FEA018800BF00BF2978002E5FEA18800D
:1023D0000029E2D00028E0D116A8013500F071F8FC
:1023E000199C013EB4F1FF3FEEDC66E04FF0000ABD
:1023F0005FEA88750CD55EB9002CCED4BEF1000F13
:1024000029D45FEA4870CDF810E02DD52B2125E0C6
:102410005FEAC870F0D1BAF1000FEDD0D345EBD22E
:102420000295CDF810E0AAF1010500BF00BF00BF82
:10243000202116A800F045F8199C002C3DD4681EF8
:10244000A84202D2AB450546F2D300F1010ADDF8FD
:1024500010E0029DD0E72D210398049016A800F00B
:1024600030F8199C002C28D4002D05D40A22CDE97F
:1024700000A816A804998DE708F001003043F5D1B3
:10248000BAF1000FF2D0AAF10105554538BFD34586
:10249000ECD2302116A800F014F8199CAA46002CA2
:1024A000F1D50AE044B1189D25B106A905982A4640
:1024B000FFF753FE2C4400E0002420461BB0BDE88B
:1024C000F08F10B50446D0E90120431C934207D891
:1024D00022681154A360E06862680130E060184629
:1024E000904218BF10BD21682069FFF736FEA16831
:1024F000884202D10020A06010BD4FF0FF30E060A4
:1025000010BDD4D4D4D4D4D42DE9F04F81B0154625
:102510000E4691421F468146DDF828B04FF001007B
:1025200007D3314600BF00BFB1FBF5F10130A9422E
:10253000FAD2874257EA808ABBF1000F0B991BD071
:1025400011F0010018D188074FF0200048BF30205B
:102550002021002F50EA0188BBF1000F0CD0DA4592
:102560000AD248464146ABF1010BFFF7AAFFD9F862
:102570000C00B0F1FF3FEFDCD9F80C0000283CD490
:10258000012400BF00BF00BF022F01D3013F03E0C1
:10259000B6FBF4F0A84201D36C43F5E74FF2F848DC
:1025A000C0F2002800BF00BFB6FBF4F7484618F899
:1025B0000710FFF786FFD9F80C00002806D4B4FBFB
:1025C000F5F007FB1466A5420446EDD90B98C00749
:1025D00018BFBBF1000F0AD10FE020214846FFF7DA
:1025E00070FFD9F80C00A346B0F1FF3F05DDABF159
:1025F00001045C4538BFDA45EFD301B0BDE8F08F88
:1026000082B080B582B0CDE9042304AA019201AA68
:10261000FFF7C2FD02B0BDE8804002B07047D4D4DD
:102620002DE9F04782B041F6950841F63649871CFE
:102630004AF6AA244FF6FF75C0F20B280DF1070ADF
:10264000C0F20B2900218DF8071000BF00BF00BFAA
:1026500037F8020CA0420FD0A84214D0397801F00C
:102660001DF890B937F8020C514600F0CCFF70B954
:1026700007E000BF00BF00BF38784FF47A710AF05E
:10268000B0FE0437E4E700260FE0064601E0064608
:10269000C84641F6184141F2A272C0F20B21C0F2C5
:1026A0000B2200204346FFF7ABFF304602B0BDE8E7
:1026B000F087D4D4F0B581B02DED048B0A204FF40F
:1026C0007A710AF08EFE4CF2C8403C21C2F20E2014
:1026D000012209F037F828B141F6AB630446C0F295
:1026E0000B23B6E04CF29855EFF31080C2F20E25A2
:1026F000012181F3108840F614542968C4F2400483
:1027000019B9002121704021217029684FF6D04667
:1027100001312960CFF6FF7680F3108843F6FA770F
:102720000121CFF6FE77A05938400430A051EFF3D5
:10273000108081F31088296811B129680139296056
:10274000296819B9002121708021217080F3108837
:1027500014204FF47A710AF044FE0121EFF3108047
:1027600081F31088296819B9002121704021217056
:1027700029680131296080F310880121A05938406F
:1027800040F00500A051EFF3108081F31088296814
:1027900011B1296801392960296819B9002121700E
:1027A0008021217080F3108814204FF47A710AF090
:1027B00018FE40F25C00C2F20020FFF731FF28B1A2
:1027C00041F68F130446C0F20B2342E032204FF44F
:1027D0007A710AF006FE43F23500122100F05EFF26
:1027E00028B141F210730446C0F20B2322E043F2F9
:1027F00036007B2100F052FF28B141F243630446CA
:10280000C0F20B2316E043F23700082100F046FF28
:1028100028B141F60C530446C0F20B230AE043F200
:102820000810122100F03AFF18B341F66A4304463B
:10283000C0F20B2341F6184141F65952C0F20B2168
:10284000C0F20B220020FFF7DBFE41F2DD53C0F2A5
:102850000B2341F6184141F2CA62C0F20B21C0F2CB
:102860000B220020FFF7CCFE2046BDEC048B01B00C
:10287000F0BD4CF258304DF60001C2F20E20C0F20D
:10288000B8519FED270AB6EE008A0160B1EEC09AFA
:102890009FED240AB0EE481A09EE001A43F60C0028
:1028A000BCEEC10A10EE105A290A00F0F7FEB8B9C2
:1028B000E9B243F60D0000F0F1FE88B939EE080ADE
:1028C00043F60E00BCEEC00A10EE105A290A00F0C2
:1028D000E5FE28B9E9B243F60F0000F0DFFEA0B133
:1028E00041F6184141F6E82241F671530446C0F220
:1028F0000B21C0F20B22C0F20B230020FFF780FE59
:1029000041F6EC43C0F20B23A3E700F00DF828B129
:1029100041F6B7230446C0F20B239AE70024A3E74D
:10292000007C9249ABAAAA3F10B582B00DF1070115
:1029300044F6140000F067FE28B141F6DD6304465A
:10294000C0F20B230FE09DF8070000F03F0144F6B2
:1029500014008DF8071000F0A1FE90B141F67153FC
:102960000446C0F20B2341F6184141F68A52C0F2E8
:102970000B21C0F20B220020FFF742FE204602B0DE
:1029800010BD0024FAE710B543F20800022100F060
:1029900085FE28B141F676330446C0F20B230AE0E7
:1029A00044F20220002100F079FE88B141F6D053B4
:1029B0000446C0F20B2341F6184141F64852C0F2DA
:1029C0000B21C0F20B220020FFF71AFE204610BD9B
:1029D0000024FBE710B544F202200F2100F05EFE58
:1029E000044670B141F6184141F2B57241F6EE135A
:1029F000C0F20B21C0F20B22C0F20B230020FFF724
:102A0000FFFD204610BD70B54CF25C35C2F20E25BC
:102A1000286808B101241BE0002003F01DFB28609A
:102A200078B10021002403F0DEFB4CF26036002870
:102A3000C2F20E26306028680CD003F071FB2C60C7
:102A400006E04CF260300221C2F20E200160002448
:102A5000204670BD4FF48071802206F0BFF94CF221
:102A60006431C2F20E21086090B12868012103F0A0
:102A70001BFC00283060EAD12868012100220024D4
:102A800002F0C0FA00283060E2D100F009F8C1E796
:102A900001203060286803F043FB0024CFE7D4D442
:102AA0002DE9F04F83B040F2000A0020C6F6000A7C
:102AB00080EF50000122022487FF5F2E0DF10408F1
:102AC0004FF0000B00BF00BF41F6710141F64E739D
:102AD000C0F20B21C0F20B2311F80B70A7F13001EB
:102AE000492900F25180DFE811F04A00AC0084006F
:102AF0009300B10070006B006600C5007A00CA0048
:102B0000F700F700F700F700F700F700F70075008F
:102B1000BB00A200F700F700F700F700F700F7008E
:102B2000F700F700F700F700F700D900F700F7000B
:102B3000F700F700F700F700F700F700F700F700DD
:102B4000F700F700F700F700F700F700CF00F700F5
:102B5000E3005C00C000F700A7008900ED00F7006B
:102B6000DE007F006100D40098008E00F700E800CE
:102B70009D00B600F200F700F700F700570041F69D
:102B80005D73C0F20B23A7E0202F40F0A58041F633
:102B90005373C0F20B239FE041F6E473C0F20B23A2
:102BA0009AE041F6AD73C0F20B2395E041F6F37362
:102BB000C0F20B2390E041F68073C0F20B238BE050
:102BC00041F67B73C0F20B2386E041F67673C0F2C8
:102BD0000B2381E041F68F73C0F20B237CE041F6BA
:102BE0008A73C0F20B2377E041F6BC73C0F20B236B
:102BF00072E041F66773C0F20B236DE041F6EE73AD
:102C0000C0F20B2368E041F6CB73C0F20B2363E004
:102C100041F66C73C0F20B235EE041F6C673C0F25E
:102C20000B2359E041F6D573C0F20B2354E041F673
:102C30009973C0F20B234FE041F6E973C0F20B2306
:102C40004AE041F66273C0F20B2345E041F671732E
:102C5000C0F20B2340E041F6DA73C0F20B233BE0F5
:102C600041F69473C0F20B2336E041F6B273C0F222
:102C70000B2331E041F68573C0F20B232CE041F6C3
:102C80005873C0F20B2327E041F6A373C0F20B2365
:102C900022E041F6C173C0F20B231DE041F69E73A2
:102CA000C0F20B2318E041F67863C0F20B2313E067
:102CB00041F6A873C0F20B230EE041F6D073C0F2C8
:102CC0000B2309E041F6B773C0F20B2304E041F691
:102CD000DF73C0F20B2300BF1F791B68019340F222
:102CE00000034FEA8B11C6F600030B440026591D62
:102CF0008DF80870CDF800A001EBC60C4FF0050967
:102D000002FA06F7A4EE107B4546574644F001E070
:102D100029F001E871FE4D0FB5FC046F04EF566118
:102D200027FECF0F20EF506171FE4D0F22EF526151
:102D300029F001E8A9F1040971FE4D0FA7EC046F19
:102D40000FF01BC001360AF1080A082E8CF80200A9
:102D5000ACF80000D0D10BF1010BDDF800A0BBF105
:102D6000230F0AF1400A9863D8637FF4ADAE03B035
:102D7000BDE8F08F4CF26030C2F20E200068704760
:102D80002DE9F04782B04CF26838C2F20E2898F86C
:102D90000070012F03D14CF2603012212AE04CF276
:102DA0005C390746C2F20E29D9F8000098B10D46E9
:102DB0004CF26431C2F20E21096881B19FB1002D3D
:102DC00005DD1446002A12DD1E46AB421ADA4CF22B
:102DD00060300A210EE04CF2603002210AE04CF231
:102DE0006030042106E04CF26030112102E04CF228
:102DF00060300B21C2F20E2001600026304602B086
:102E0000BDE8F08706F045F84CF2603A0028C2F2BF
:102E10000E2ACAF80000F0D1D9F800000121CDE94E
:102E20000041394632462B4607F056F90028CAF8C9
:102E30000000E2D1691E621ED9F8000017B20BB281
:102E4000002100220097002607F00EF90028CAF89A
:102E50000000D3D14CF26C304CF27031C2F20E2033
:102E6000C2F20E21012688F8006005600C60C5E7FB
:102E70002DE9F04F83B04CF25C36C2F20E26356875
:102E8000002D00F0AB804CF26837C2F20E273F787D
:102E9000002F00F0A780DDF83480B8F1000F40F378
:102EA000AD80904250EAC28450EAB28A994251EA17
:102EB000C38051EAB38950EA040100F197804CF2D3
:102EC0006C31C2F20E2109688A4580F28F804CF283
:102ED0007032C2F20E221268914580F287800C9BFC
:102EE0004FF0F80CA1F1010E03F01F070CEA1321BB
:102EF000013A41EA533CF90041EA97014FF4407727
:102F000007EA530703F4FC63744554EABE8B47EAAF
:102F100043130024904250EAB28743EA0C4042181F
:102F20000021284602F05BF84CF260310028C2F222
:102F30000E21086069D12AEAEA70029429EAE9714F
:102F4000000102B208010FFA80F94FEA0B1005B236
:102F50004FEA081093460FFA80FA306811464A4645
:102F60002B46CDE9009A06F08BFC4CF2603100282C
:102F7000C2F20E21086048D1380129460FFA80F8C4
:102F800030684A462B460024CDE9008A029406F0B8
:102F900077FC4CF26031C2F20E210860A8BB3068A9
:102FA000294642465B46CDE9008A029406F068FC59
:102FB0004CF26031C2F20E21086030BB30680D4621
:102FC00000210291594642465B46CDE9009A06F03F
:102FD00057FC00285FEA1F94286016E04CF260302E
:102FE00002210EE04CF2603003210AE04CF2603026
:102FF0000021C2F20E200124016006E04CF2603094
:103000000A21C2F20E2001600024204603B0BDE870
:10301000F08FF0B581B04CF25C36C2F20E2630680B
:1030200048B34CF26431C2F20E21096851B34CF23C
:103030006835C2F20E252A78DAB30022002405F0A2
:103040007EFF4CF26037C2F20E273860C0BB30689A
:1030500003F059F94CF26C320028C2F20E225FEAFA
:103060001F912C70386014604CF27032C2F20E2244
:1030700014600C462FE04CF268300024C2F20E209F
:10308000022105E04CF268300024C2F20E20042137
:1030900004704CF26C30C2F20E2004604CF27030BE
:1030A000C2F20E2004604CF26030C2F20E200160C9
:1030B00011E04CF260300321C2F20E2000240160C6
:1030C0004CF26C304CF27031C2F20E20C2F20E2182
:1030D0002C7004600C60204601B0F0BD2DE9F04F6B
:1030E00081B04CF25C35C2F20E25D5F800C0BCF1BF
:1030F000000F6AD04CF26837C2F20E273F78002FDB
:1031000067D0904250EAC28750EAB289994251EAA8
:10311000C38651EAB38856EA070062D44CF26C3099
:10312000C2F20E20D0F800A0D1455ADA4CF270302D
:10313000C2F20E20D0F800B0D84552DA0A98F82131
:1031400000F01F0201EA1021D3004FF4407443EA5B
:10315000920200F4FC6341EA503104EA500000247A
:1031600040EA431040EA014000210244604601F079
:1031700036FF4CF26031C2F20E210860C0BBABF1E9
:1031800001008B46AAF1010129EAE973864256EA59
:10319000B0808F4257EAB18128EAE8721E01C91A4D
:1031A000871A1023120103EB0111286803EB07179C
:1031B0000BB231B212B23FB2009706F02FFB0028DB
:1031C0005FEA1F94CBF8000012E04CF2603002215D
:1031D00002E04CF260300321C2F20E2001600024B4
:1031E00006E04CF260300021C2F20E2001240160A2
:1031F000204601B0BDE8F08F2DE9F04F89B04CF2C8
:103200005C39C2F20E29D9F80050002D57D0804603
:103210004CF26830C2F20E20007800285AD01446D2
:10322000002A62D0DDF848A0BAF1000F68DD0E4632
:1032300003F01F01F820CA0000EA13204FF4407782
:1032400042EA910103F4FC6240EA533007EA530377
:10325000002743EA421242EA004042180021284671
:1032600001F0BDFE4CF2603B0146C2F20E2BCBF8E2
:10327000000041F6F720C0F20B2000F0D8F8DBF890
:103280000000002849D1D9F800000221032201F0F2
:10329000B9FE0146CBF8000041F27850C0F20B2095
:1032A00000F0C5F8DBF80050DDB3D9F800000121CB
:1032B0000022002701F0A6FECBF800502DE04CF2D2
:1032C00060300221C2F20E20016041F2D660C0F2ED
:1032D0000B201FE04CF260300321C2F20E2001608F
:1032E00041F2F870C0F20B2014E04CF26030112172
:1032F000C2F20E20016041F62200C0F20B2009E06C
:103300004CF260300A21C2F20E20016041F6490001
:10331000C0F20B2000F08BF80027384609B0BDE85A
:10332000F08F0AEB8A0000270001CAEBCA0100B245
:103330000890080100B20790300100B206900AEB35
:103340004A00460000BF00BF207820284FD0002848
:1033500050D041F671020021C0F20B2200BF00BF25
:1033600012F8013B834203D001312329F8D1002117
:1033700040F20002D9F80000C6F60002052302EB75
:10338000811108220725CDE9005700F002FF014610
:10339000CBF8000041F63110C0F20B2000F047F8E6
:1033A000DBF800A0D9F80000BAF1000F37D14FEADE
:1033B0000811089A09B20192079ACDE90221052164
:1033C000072200230097069D04953025059500F0FF
:1033D00011FF0146CBF8000041F2C770C0F20B208C
:1033E00000F025F8DBF80050002D7FF45EAFB0440C
:1033F0000134A9E7D9F800000121002201F002FE02
:103400000146CBF8000041F27850C0F20B2000F0EA
:103410000EF8DBF8000000285FEA1F977DE7012126
:103420000022002701F0EEFDCBF800A075E783B085
:1034300080B581B0844603A80EC003A800906A46F8
:1034400000206146FEF7A8FE01B0BDE8804003B051
:103450007047D4D4D4D4D4D470B5A2B04CF2704058
:10346000C2F20E200078A0B14CF27040C2F20E20E1
:1034700009F04BF868B141F6184141F22D7241F65E
:1034800029530446C0F20B21C0F20B22C0F20B23D9
:1034900052E042F220016C46C0F20B218822204605
:1034A0000AF023FC4CF27E354CF28036C2F20E2537
:1034B000C2F20E2628883188ADF804004CF2704024
:1034C000ADF80610C2F20E20214608F042FE28B1E7
:1034D00041F687430446C0F20B2325E0288840F2DA
:1034E0002C31C2F2002103233288888003EB400094
:1034F0004FF6FC73CA801840886050434CF2783213
:10350000C2F20E2240F60013C6F600030B601060F4
:103510004CF27040C2F20E2009F067F890B141F60B
:103520001B330446C0F20B2341F6184141F22D72C1
:10353000C0F20B21C0F20B220020FFF761F82046F9
:1035400022B070BD4CF274300021C2F20E20017026
:10355000017809B92FF005C00024F0E700780328AE
:1035600018BF70474CF274300121C2F20E20017076
:10357000704700F0CDB8022818BF704780B54CF2F4
:10358000B04042F2C861C2F20E20C0F20B2107F037
:103590006EFF0120BDE880400AF00EB810B54CF275
:1035A000C84042F25021C2F20E20C0F20B2108F0B6
:1035B0003FF8044670B141F6184141F6026241F20B
:1035C0005373C0F20B21C0F20B22C0F20B23002078
:1035D000FFF716F8204610BDB0B54CF27C35C2F2AC
:1035E0000E252978884208BFB0BD044600BF00BF41
:1035F0002878012803D00A20012109F0F2FE28785A
:103600008442F5D1B0BDF0B581B04CF27C3640BA01
:10361000ADF80200C2F20E264CF2C8400D46C2F2CE
:103620000E200DF10201022201230027377008F05D
:1036300083F868B141F6184141F2A05241F20663A5
:103640000446C0F20B21C0F20B22C0F20B231AE099
:103650000320FFF7C1FF4CF2C8400122C2F20E2046
:1036600000232946377008F061F890B141F61841FF
:1036700041F2A05241F613630446C0F20B21C0F29E
:103680000B22C0F20B230020FEF7BAFF204601B048
:10369000F0BD0220FFF7A0FF0024F7E710B582B0CD
:1036A000020A8DF806004CF27C308DF80520C2F23B
:1036B0000E208DF807100021032201704CF2C84043
:1036C000C2F20E200DF10501002308F035F8044682
:1036D00078B141F6184141F67D6241F20663C0F2CD
:1036E0000B21C0F20B22C0F20B230020FEF788FF53
:1036F00002E00320FFF770FF204602B010BD28B1A2
:103700004CF27C310079C2F20E2108707047D4D49B
:10371000AAB000F032FBFFF741FF41F62121C0F2D1
:103720000B2100F03EFB0A204FF47A7109F059FE9C
:10373000FEF7C0FF41F63C21C0F20B2100F031FB47
:1037400041F63E704CF27E35C0F20B204CF28034D4
:10375000C2F20E25C2F20E24018940892980208000
:103760000A204FF47A7109F03CFEFFF775FE41F62E
:10377000B311C0F20B2100F014FB0A204FF47A7150
:1037800009F02FFEFFF73FF940B9FFF7F3FA41F6D2
:10379000C8116420C0F20B2100F003FB0A204FF493
:1037A0007A7109F01EFE48F600104FF49611C6F625
:1037B00025000AF096FA44F600104FF49611C6F66A
:1037C00038000AF08EFA40F600104FF49611C6F653
:1037D0004B000AF086FA2E880320002E4BD0278853
:1037E000002F48D04CF2A03442F27C15C2F20E24D5
:1037F000C0F20B258422204629460AF076FA286D6D
:10380000B5F84820C0F30B4C6FF31F30B5F84A30C1
:10381000504369890CFB03F2EB89B0FBF7F0A4F885
:1038200048000133B2FBF6F00131A4F84A00206DE4
:1038300047EA06457340626800F0F02025F0F02565
:1038400079402844206541EA030022F080610004A9
:1038500018BF01F180614CF2843C616042F20021AA
:10386000C2F20E2CC0F20B21624691E8E900E9C2D7
:103870000020CCF8144041F63A31C0F20B2100F0A0
:1038800090FA0A204FF47A7109F0ABFDFFF7A2F825
:10389000002800F0298241F2A7630446C0F20B23FE
:1038A00041F6184141F2FF62C0F20B21C0F20B2237
:1038B0000020FEF7A5FE41F6AA512046C0F20B21DA
:1038C00000F06FFA0A204FF47A7109F08AFD40F295
:1038D0005000C2F20020FEF7A3FE41F6C741C0F23D
:1038E0000B2100F05EFA41F654310020C0F20B21AA
:1038F000FEF786FE0A204FF47A7109F072FD40F25D
:10390000143042F20001C2F20020C0F20B2106F096
:103910008FFF41F65921C0F20B2100F042FA0A2034
:103920004FF47A7109F05DFD4CF274344CF29C3521
:1039300012A8C2F20E24C2F20E25802742F2091903
:10394000B6EE008A9FEDE19A9FEDE1AA9FEDE1BA04
:103950009FEDE1CA01221030049000BF00BF00BFFC
:1039600040F600104FF49611C6F6000002FB010667
:103970000392069600BF00BF0020207000BF00BF6A
:10398000207808B92FF005C02968002900F081814E
:103990004FF49612304644F2051B0AF0A6F9FDF7E3
:1039A00060F9D5F800C000F102084FF0000A00BF2E
:1039B0004FF416504FF600010AFB00F0C0F21F0151
:1039C00047F001E0002508400CEB0003404600BF33
:1039D000C5F3C91105F5167503EB410191F8A8610E
:1039E00091F8A911F20841EA062401F01F01C4F37D
:1039F00045141202A2EBD602C4EB042402FB09F226
:103A0000C1EB012104FB0BF401FB09F187EA9242AF
:103A100000F8022C87EA145200F8012C87EA914141
:103A200000F8031B0FF02DC00AF1010A44F2051B38
:103A3000BAF1800F08F5C078BAD10020FDF721F95E
:103A4000FDF71AF912AC04222146B0EE480A00F044
:103A500003FA01462046B0EE490A00F0A1FA012817
:103A6000069EC0F20E8104464FF480614FF4167238
:103A70004FF480633046FFF783F940B9FFF77AF9D6
:103A800041F6CF016420C0F20B2100F08AF90DF15C
:103A9000480B2646059400BF9BED023A9BED000AB9
:103AA00023EE0A3A9BED034A20EE0A0A9BED041A24
:103AB00024EE0A4A9BF8140023EE0B3A0AAD20EEDE
:103AC0000B0AB0EE482AA1EE0C2A9BED011A21EE5A
:103AD0000A1A24EE0B4ABDEEC33ABDEEC00A13EE3D
:103AE000101A21EE0B1ABDEEC44AD43110EE104A62
:103AF000079141F6F87114EE102AC0F20B21BDEEC9
:103B0000C11A099204F1D402089241F2EB7251F801
:103B1000203020212846C0F20B2211EE10AABCEE64
:103B2000C20A8DED000A0AF0F9F94FF002082846A2
:103B3000BAF1110FC8BF6FF011080AF0E7F8054697
:103B40004FF478400221CDE9000108985146079AC8
:103B5000099BFFF78DF940B9FFF70CF941F6F561C4
:103B60006420C0F20B2100F01CF905EB450008EBC6
:103B70000A03820004F1D3002244591ED6320F33C7
:103B800000250095FFF7AAFA40B9FFF7F3F841F6D0
:103B9000EC016420C0F20B2100F003F9013E0BF1AF
:103BA000180B7FF479AF4FF0020AFFF732FA40B9F1
:103BB000FFF7E0F841F238716420C0F20B2100F009
:103BC000F0F805990120012951EAC088049C0DF103
:103BD000280B069E00BF00BF94ED000AB0EE481A05
:103BE000A0EE0C1A207941F6F87141F2EB72C0F2A6
:103BF0000B21C0F20B2214ED04DA14ED03EA51F8A4
:103C0000203020215846BCEEC10A8DED000A0AF092
:103C100085F94FF480614FF416724FF4806330469B
:103C2000FFF7AEF858B32EEE0A0A02212DEE0A1A5B
:103C30004FF478435A4620EE0B0A21EE0B1ABDEEE4
:103C4000C00A10EE100ABDEEC10A1128C8BF6FF0FD
:103C50001101014410EE100ACDF800A0D430FFF796
:103C6000CBFA0546FFF786F8FFF7D3F935B128B14F
:103C7000B8F1010804F11804AED102E00DB1FFF76C
:103C800079F84CF274344CF29C35C2F20E24C2F234
:103C90000E250020207000BF207808B92FF005C045
:103CA0004CF270400022C2F20E20314608F0B4FC03
:103CB00040F2EE3188423FF45FAE88B141F63A619E
:103CC000C0F20B2100F06DF856E600BF6666E63ED6
:103CD000000016440000003C0000C84200BF00BFC6
:103CE000039A82F001023BE64CF29C40C2F20E20A5
:103CF000006860B14CF29C40C2F20E2006F07BFFDF
:103D000028B141F657130446C0F20B23C8E543F22D
:103D100008004221FFF7C2FC28B141F2AF5304462C
:103D2000C0F20B23BCE54CF29C404CF28431C2F251
:103D30000E20C2F20E2106F0B4FE28B141F6167331
:103D40000446C0F20B23ABE54CF29C400021C2F2CA
:103D50000E2006F0B8FF28B141F27A730446C0F293
:103D60000B239DE5FEF70FFE28B141F6A54304465F
:103D7000C0F20B2394E500249DE583B080B581B0AB
:103D800003A80EC041F6D03103A80090C0F20B2169
:103D90006A460020FEF700FA01B0BDE8804003B09B
:103DA0007047002846D010B504460020FEF728FCD6
:103DB0004CF29C40C2F20E200068A8B14CF29C402C
:103DC000C2F20E2006F017FF70B141F6184141F221
:103DD000606241F6B603C0F20B21C0F20B22C0F2C2
:103DE0000B230020FEF70CFC4CF2C840C2F20E2060
:103DF000C068A8B14CF2C840C2F20E2007F0A7FC80
:103E000070B141F6184141F2606241F6A233C0F24E
:103E10000B21C0F20B22C0F20B230020FEF7F0FBB7
:103E200041F671210020C0F20B212246FEF7E8FB8B
:103E300000BE10BD70470168012909D1017A8906C9
:103E400058BF70474CF29C31C068C2F20E21086026
:103E500070477047D4D4D4D400284FF0000C00F041
:103E60009980002900F09680012AC0F293802DE904
:103E7000F04F81B02DED088B82B042F29B4BA2F146
:103E800001094FF0000884EF53269FED431A4FF0CD
:103E90003A0AC3F60A4B80EF504000274FF0000C5F
:103EA00001F12803019300BF07EB8703034493F953
:103EB00004603A3606EE106AB8EEC66A26EE016A6B
:103EC000B4EE406AF1EE10FA5AD493ED008F29EE69
:103ED0004A8FBBFF488639EE6B8E08FF528D39EE54
:103EE000031F33FE09AF39EECF1F35FE0B8FB4EE43
:103EF000489AF1EE10FA43D9F4EE689AF1EE10FA0E
:103F00003ED9944508DA0CEB4C030CF1010401EBAB
:103F1000C3066346A44626E0022A18D349F001E00E
:103F200000230125019E00BF03EB430496ED007AB8
:103F3000183601EBC404D4ED040AB4EE607AF1EE55
:103F400010FA55EA438301350FF013C000E0002357
:103F500003EB430601EBC60696ED047AB4EE476A1E
:103F6000F1EE10FA0CDD86ED009F86ED046A03EB9E
:103F7000430301EBC303C3F8148000BF00BF00BFBD
:103F80000137B7F5A87F8FD102B0BDEC088B01B027
:103F9000BDE8F04F604670479B240A3CD4D4D4D48B
:103FA0002DE9F04F89B000284FF0000800F0E680BE
:103FB0000129C0F2E380B7EE001AB4EE410AF1EE37
:103FC00010FAB5EE400A31FE001A9FED6E0AF1EECE
:103FD00010FA48BFB0EE401A0229009145D300996B
:103FE00000F1280B8A1E01394FF0000CCDE90112B7
:103FF000A1EB0C0EE2460CF1010C5B466646554601
:1040000005EB450793ED002A183300EBC70797ED42
:10401000043AB4EE432AF1EE10FA56EAC5850136A9
:104020000FF013C055451CD00AEB4A0303AA05EB59
:104030004507644600EBC30E734600EBC70793E8E1
:10404000621382E862133946A446B84691E8FC0040
:1040500003A98EE8FC0091E8FC0088E8FC00DDE99B
:10406000011292450BF1180BC2D100F10C0C4FF06C
:1040700000094FF00008DDF800B000BF00BF00BF2E
:10408000B8F1010F09EB490E67DB00EBCE04664681
:104090004746257D00BF00BF317A8D4259D194ED4E
:1040A000002A16ED033AB4EE432A94ED014AF1EEEC
:1040B00010FA16ED025A94ED027AB4EE454A16ED66
:1040C000016A72FE032AD4ED030AF1EE10FAB4EE8F
:1040D000476AD6ED001A74FE053AF1EE10FAF4EED6
:1040E000601A77FE064AF1EE10FA74EEE22AF0EE5C
:1040F000404AF5EE402A70FEA15AF1EE10FA23D99B
:1041000075EEE33AF0EE404AF5EE403AF1EE10FA81
:104110001AD937EE422A36EE433A31EEC55A30EE1E
:10412000C44A23EE053A02EE043A22EEA32AF0EE48
:10413000404A33EE423A82EE032AB5EE403AF1EEBF
:1041400010FA88BFF0EE424AF4EE414AF1EE10FA5E
:104150000FDC013F06F118069ED108EB480108F17B
:10416000010800EBCE0700EBC10A97E87E008AE861
:104170007E0009F10109D9457FF482AF404609B0BC
:10418000BDE8F08F0000000080B5FFF7F2F90020D5
:1041900080BD10B5DDF80CC05FEACC6E04D590F898
:1041A00082E05FEA0E6E17D55FEA8C6E04D590F858
:1041B00082E05FEA8E6E0FD52CF0300EAEF10D0E60
:1041C000BEF1020F0CD8D0F880E05FEACE3407D4FD
:1041D0000EF0FE04092C03D8092180F8C61106E070
:1041E000406A029C00F5B47080E81E100021084669
:1041F00010BDD4D42DE9F04F8BB0446A924604F53B
:10420000B67299460D46834607CADDF86480149B52
:10421000B0F5006F05EB0900A8BF28F00808884238
:104220000A950AEB0300C8BFA1EB0905DBF8307063
:104230009042CDF820A0C8BFA2EB030A002F5FEA8E
:104240000F9018F4807F5FEA1080E17DD4F87861E8
:104250000128099040D194F80E013970B87094F893
:10426000D5007870D4F8FC007860D4F80001B8600C
:10427000D4F82C01F860D4F838013861D4F834014E
:10428000786104F1E800D4F8EC10B961D4F8F010CA
:10429000F961D4E93D12C7E9081290FD000F87EDDE
:1042A000280FD4F8A800D4F82411D4E94F23796357
:1042B000C7E90B23D4F85811B963D4F85C11F9633A
:1042C000786594ED261F87ED111FD4E92C01C7E90D
:1042D00017010020069000E006910321584600F0E7
:1042E00059FE00210022584605F018FDF0060796F9
:1042F0001FD4D4F8780120F030000F282BD8DFE845
:1043000010F010002E003A002E002E0026013A0078
:104310002E002E00100010001000100010001000E1
:104320001000D4E95A014E46149A484401FB020990
:104330002EE008F00F015846D4F8686105F0FDFB47
:10434000D4E95B23D4E95D01CDE90001584631464B
:1043500005F0D4FA2DE0A0F14101022909D2D4E9F7
:104360005A014E46149A00EB4900514300EB4109B3
:104370000EE0402809D1D4E95A014E46149A00EBC8
:104380008900514300EB810902E04E464FF00009DD
:1043900008F00F01584605F0D0FBD4F86C21D4F892
:1043A0007801CDE900A0584649462B4605F0A6FA0B
:1043B000B1464FEA08604FF07F4101EAE0705FEAE2
:1043C00088614FF0A001159B58BF4FF07F4031EA44
:1043D000080118BF4FF07F415FEAC86205D45FEA69
:1043E000486207D46FF07F4207E05FEA4862A26844
:1043F00001D402E0A2681043E268114394F80E2150
:10440000169E112BCE46C4E9560142F0050084F8F1
:104410000E0106D30A9998B20905B1FBF0F14B08D9
:1044200002E04FF4803100230898112E179D4FF0C1
:10443000000C05DB0205B146B2FBF6F6720803E09C
:10444000B1464FF480360022DDF828A018F4007F32
:1044500018BFC3EB0A4351EA01B118F4806F18BFCB
:10446000C2EB004256EA06B65FEA487048BFA3F5C1
:1044700000435FEA087048BFA2F50042079810F0B9
:10448000100F149818BF03EB0E4318BF02EB004245
:104490000496189ECDE90021584629463246CDE9BA
:1044A00002CC05F01CFC1598CDE9000958462146C0
:1044B0002A46334600F080FB099800283FD0387820
:1044C0007978BA78E07584F8D5107868C4F8FC007B
:1044D000B868C4F80001F868C4F82C013869C4F859
:1044E00038017869C4F83401B869C4F8EC00F86997
:1044F000C4F8F000D7E90801C4E93D0104F1E8007F
:1045000084F80E2107F12C0297FD280F80ED000F93
:104510007B6D07CAC4F82421C4E94F01B86BC4F805
:104520005801F86BC4F85C01C4F8A83097ED111F6E
:1045300084ED261FD7E91701C4E92C0103E0584692
:10454000069900F027FD00200BB0BDE8F08F9BF826
:104550008200800603D409208BF8C601F4E71020FE
:10456000C0F20400C4F82C01012084F8E900D8E668
:104570002DE9F04F83B00C9E0446002E4FF0000052
:1045800000F042828B460D990129C0F23D829519B7
:1045900022F00F00ADF8040023F00F00ADF8060084
:1045A000681E5E1820F00F00ADF80800701E20F0A5
:1045B0000F00ADF80A0001A920469946174605F0FC
:1045C000F6FDC0B1A5F11000A6F110010FFA80FAB6
:1045D00020460FFA81F8594604F08AFD9BF8D50071
:1045E00081074FEAC07008D4002840F0F98001AA82
:1045F00000230020E0E1002006E2002840F0F080E7
:104600004AEA070048EA090100074FEA017100F091
:10461000FE81BDF9040000254FF48033CFF6FF750D
:10462000C01BD4E96E720029A2F1010103EB003333
:1046300007F10800C4F8B8014FF00406C7E90063A9
:10464000C4F8BC1100F05082012A05DCD4F8C01176
:1046500020468847D4E96E0100F1080201394FF085
:104660000A034FF48037C0E90037C4E96E2105DC46
:10467000D4F8C01120468847D4E96E2102F1080021
:1046800001394FF010034FF00007C2E90037C4E9C9
:104690006E0105DCD4F8C01120468847D4E96E01CC
:1046A000BDF904204FF480330527AAEB020203EB87
:1046B000023300F10802C0E90073481EC4E96E200D
:1046C00005DCD4F8C01120468847D4E96E2002F1F9
:1046D00008010B23C2E90035421EC4E96E1205DC55
:1046E000D4F8C01120468847D4E96E1201F10800C1
:1046F00011230027C1E90037511EC4E96E0105DC12
:10470000D4F8C01120468847D4E96E01BDF90620CF
:104710004FF480330627A2EB090203EB023300F1CA
:104720000802C0E90073481EC4E96E2005DCD4F815
:10473000C01120468847D4E96E2002F108010C23FD
:104740000027C2E90037421EC4E96E1205DCD4F826
:10475000C01120468847D4E96E1201F108004FF4D9
:104760008036013A4FF01203C1E90036C4E96E0207
:1047700005DCD4F8C01120468847D4E96E02BDF9A3
:104780000610013A4FF00707A8EB010106EB0133D1
:1047900000F10801C0E90073C4E96E1205DCD4F829
:1047A000C01120468847D4E96E1201F108000D239C
:1047B0000027C1E90037511EC4E96E0105DCD4F8B9
:1047C000C01120468847D4E96E0100F10802132386
:1047D000C0E90035481EC4E96E2040F3E680E8E0F9
:1047E000BDF904000426C11BDBF810014143D4E9E4
:1047F0006E3700EB111203F10801C3E900627B1E62
:10480000C4E96E1307DCD4F8C01120468847DBF8F2
:104810001001D4E96E1301F108020A27C1E9007002
:10482000591EC4E96E2105DCD4F8C0112046884722
:10483000D4E96E2102F1080010230027C2E90037F5
:104840004B1EC4E96E0305DCD4F8C011204688472E
:10485000D4E96E03BDF90410DBF810210526AAEB9C
:104860000101514302EB111700F10801C0E9006793
:10487000581EC4E96E1007DCD4F8C01120468847E2
:10488000DBF81021D4E96E10534201F108020B2726
:10489000C1E90073411EC4E96E2105DCD4F8C011E2
:1048A00020468847D4E96E2102F1080001394FF013
:1048B00011034FF00007C2E90037C4E96E0105DCBF
:1048C000D4F8C01120468847D4E96E01BDF906200E
:1048D000DBF810310627A2EB09025A4303EB121250
:1048E00000F10803C0E90072481EC4E96E3005DC1F
:1048F000D4F8C01120468847D4E96E3003F108028D
:104900000C210027C3E90017431EC4E96E2305DC10
:10491000D4F8C01120468847D4E96E23DBF8101183
:1049200002F108001227C2E900715A1EC4E96E02A2
:1049300007DCD4F8C01120468847DBF81011D4E911
:104940006E02BDF90630013A4FF00707A8EB0303EA
:1049500001FB03F301EB131300F10801C0E900733D
:10496000C4E96E1205DCD4F8C01120468847D4E9AA
:104970006E1201F108000D230027C1E90037511E16
:10498000C4E96E0105DCD4F8C01120468847D4E99B
:104990006E01DBF810210139C2F100024FF0130360
:1049A000E0E80232C4E96E0103DCD4F8C01120460D
:1049B000884701AA04230F2000902046594601F0A1
:1049C000C3FF01AF06460023204659463A4600255C
:1049D00003F09AFF0023204659463A4605F0CCF9E9
:1049E000D4E96E0100F10802C0E90056481EC4E98E
:1049F0006E2003DCD4F8C0112046884701A90022AC
:104A0000204604F0D8FD012003B0BDE8F08F002956
:104A10003FF4EDADBDF906004FF48031D4E96E23CB
:104A20000427A0EB090001EB003102F10800C2E904
:104A300000715A1EC4E96E0205DCD4F8C01120468C
:104A40008847D4E96E0200F10801013A4FF00A03E9
:104A50004FF00007C0E90037C4E96E1205DCD4F856
:104A6000C01120468847D4E96E1201F108004FF4C6
:104A70008036013A4FF01003C1E90036C4E96E02F6
:104A800005DCD4F8C01120468847D4E96E02BDF990
:104A90000610013A4FF00507A8EB010106EB0133C0
:104AA00000F10801C0E90073C4E96E1205DCD4F816
:104AB000C01120468847D4E96E1201F108000B238B
:104AC0000027C1E90037511EC4E96E0105DCD4F8A6
:104AD000C01120468847D4E96E01002700F1080282
:104AE0001123CFF6FF7757E0012A05DCD4F8C01177
:104AF00020468847D4E96E0100F1080201394FF0E1
:104B00000A034FF48037C0E90037C4E96E2105DCA1
:104B1000D4F8C01120468847D4E96E2102F108007C
:104B200001394FF010034FF00007C2E90037C4E924
:104B30006E0105DCD4F8C01120468847D4E96E0127
:104B4000BDF904204FF4803301394FF00507AAEB7B
:104B5000020203EB023300F10802C0E90073C4E96A
:104B60006E2105DCD4F8C01120468847D4E96E21B7
:104B700002F1080001394FF00B03C2E90035C4E926
:104B80006E0105DCD4F8C01120468847D4E96E01D7
:104B900000F1080211230027C0E90037481EC4F8BD
:104BA000B821C4F8BC0103DCD4F8C0112046884702
:104BB00001AA02230320FFE680B5DDE902ECCDE97E
:104BC00002ECBDE88040FFF7D3BC80B582B09446CC
:104BD0000A46DDF810E0816ACDE9003E6346FFF742
:104BE000C7FC002002B080BDB0B582B0B0F86EC086
:104BF000B0F870E0069D8C440EEB02040FFA8CF2C4
:104C0000C16A0FFA84FCCDE900356346FFF7B0FCBA
:104C1000002002B0B0BD2DE9F04F89B0B0F96C7042
:104C2000012F6ADB0446994690460D46102FDDF8A9
:104C300048A0C16A2BD1A8EB0703E81B1EB20AEB00
:104C4000470C02B2204633460FFA8CFBCDE9007BBD
:104C5000FFF78EFCE16A20462A463346CDE90097ED
:104C6000FFF786FC09EB0500E16A02B220463346F5
:104C7000CDE9007BFFF77CFC0AEB0800E16A03B298
:104C800020462A46CDE90097FFF772FC35E091F8FF
:104C9000D700012807D1B1F9D800B84203DD91F857
:104CA000D500C007C7D0B8B209EB05064008A8EB8D
:104CB00000032A1A083B0838ADF81630ADF81A3050
:104CC0000AEB0803083AADF8142006441844ADF87E
:104CD0001E00ADF82020ADF8220000200422CDE90E
:104CE00000270023029205AACDE903002046ADF873
:104CF0001860ADF81C6003F0C7FE002009B0BDE8E5
:104D0000F08F2DE9F04182B01D4616460F4604464D
:104D1000DDF82080CDF80080FFF77DFF204604F00D
:104D200085F9A7F11000A6F1100305F1200708F19D
:104D30002002A16A16B202B21BB238B2CDE9000657
:104D40002046FFF715FC204604F0BCF9002002B015
:104D5000BDE8F0812DE9F04182B004461546B0F877
:104D60006E000E46B4F870201F463044E16A5319B5
:104D700002B21BB22046DDF82080CDE90078FFF7B3
:104D8000F7FB204604F052F9A16A204632462B4632
:104D9000CDE90078FFF7ECFB204604F093F9002002
:104DA00002B0BDE8F081D4D4F0B581B004464FF430
:104DB000BE7003F039FD0546002800F0818048A34D
:104DC00043A287FF5F006FF07F40C5E9020093EDCB
:104DD000003F47A34FF07F4185ED100F05F1D4064A
:104DE000002792ED001F6C60C5F84C11C5E9541105
:104DF0001021606DD4F8802085ED4A3F120140F209
:104E0000080293ED003F3EA3C2F2400285ED443F0D
:104E100093ED003F3EA385ED160F85ED313F93EDF9
:104E2000003F86ED002F86ED380F80EF500085EDB6
:104E30004F1F58BF4FF480021043A98240F4002056
:104E4000042140F4B050C5E948204020C5F8D800FE
:104E500005F11C0085F8E910C5E93F77C5E9417700
:104E600001F06DFD05F1340001F069FD05F14C0024
:104E700001F065FD05F1640001F061FD05F17C00C4
:104E800001F05DFD05F1940001F059FD05F1AC0064
:104E900001F055FD22A00C2185F8E810294690ED7F
:104EA000001F4FF0FF30C5E93770C5F838012046C4
:104EB00086ED100F04F05EFEE0692860E56100E019
:104EC000012784F8C671284601B0F0BD00BF00BFBD
:104ED00001000000000000000000000000000000D1
:104EE00000000000000008000000010000C00300F6
:104EF00000000100AA0000000000010000160000F0
:104F0000AA000000040000000000000010000000E3
:104F1000010000000200000001000000010000008C
:104F20000100000003000000030000000300000077
:104F3000B0B50446006A814225D00D4604F11C013B
:104F400019B308460968A942FAD129680160606A64
:104F5000A84201D1206A6062E06AA84201D1206AB9
:104F6000E062A06AA84201D1206AA062D5F80801D7
:104F700020B107F0ABFF0020C5F80801284603F078
:104F800055FC002002E0072000E0032084F8C60161
:104F9000B0BDD4D40246406A032990F80E31C175E1
:104FA00043F0010380F80E3114D8DFE801F002026B
:104FB000070D90F8D51001F0F30109E090F8D51035
:104FC00001F0F301043103E090F8D51041F00C0139
:104FD00080F8D5100020002182F8C61170470346E2
:104FE000406A00EB810C22F07F4290F80E11CCF861
:104FF000082041F0010180F80E110020002183F803
:10500000C6117047B0B5D0F824E003299EF80EC150
:105010004CF001038EF80E310ED8032A0CD84FF253
:105020002853C0F2002353F82110DFE802F0020CED
:10503000070A41F4805106E010211BE041F4806131
:1050400001E041F4A051DEF82C21436DDEF820C1CF
:10505000DEF83C511A43DEF8403142EA0C02DEF839
:1050600044412A43CEF81C111A4322431143CEF87F
:105070002411002180F8C6110846B0BDD0F84C11AB
:10508000027C437C090A6FF07F4C01FB02C201FBEA
:1050900003C190F80E3102F07F4201F07F41C0E978
:1050A000542103F0FD0180F80E1170472DE9F04FF7
:1050B00085B00492044691F8D500DDF844E0DDE9BE
:1050C0000E89109EC007A3EB090AA8EB090B34D187
:1050D0000FFA8BF10FFA8AF252EA010040F2000057
:1050E000CFF6C07000F08B801FFA89F790FBF9FCB7
:1050F00002FB02F009EBD73711FB01003FB211446C
:1051000010228CFB00054FEAEC0AA2EB430350EAA5
:10511000DF25A2EB48020AFB03F301EB57010AFB70
:1051200002F7DD17A0EB0132F81703EB157107EB5F
:1051300010700F114FEA2018B0E0CDE90236129836
:1051400018B194F8830040076CD44FF07840B1F95F
:105150001420CDF80480D1F8108190FBF9F0D3171A
:105160007546C71750EA0F27394608F08DFC1AFB21
:105170000AF21FFA89F31BFB0B22AE4609EBD3336D
:10518000120A0FFA83FCA0FB02750FFA8AF701FBE3
:10519000025507FA8BF701FB02F307EB6C07EE17DA
:1051A000FD17360FE0FB0263A7FB082756EA2F1313
:1051B00005FB087552EA0F15B21A4FEAE176AB41CA
:1051C000DF1712EB1762019F43F1000310EB165A31
:1051D00041F100015AEA1F310299102052EA1F23BF
:1051E000A0EB4101A0EB470001FB0AF100FB0AF034
:1051F000CF17C51701EB177100EB15704AE000F5EA
:10520000601090FBF9FA1020A0EB49000AFB00F0B7
:10521000C11700EB117000214FEA2018A1EBC92241
:1052200047463BE04FF07840B1F914201AFB0AF3EF
:105230001FFA89F590FBF9F01BFB0B3309EBD53511
:1052400080010FFA8AFC1F0A2DB290FBF2F2D1F80E
:10525000101182FB07034FEA221A180F0023C2FB2A
:1052600007030CFA8BF707EB5507029A79431027CF
:10527000A7EB420250EA2F130AFB02F5A7EB480204
:105280000AFB02F3A0EB8102EF17D81705EB1771A9
:1052900003EB10700F114FEA2018039EDDF81090F9
:1052A000BEF1000F09F10401324458D0D4E96E3543
:1052B000524203F10800C3E900126A1EC4E96E02FB
:1052C00005DCD4F8C01120468847D4E96E0200F10D
:1052D0000801013A09F10503C7F10007C0E90037E9
:1052E000C4E96E1205DCD4F8C01120468847D4E921
:1052F0006E1209F11003C8F1000701F10800C1E9BD
:105300000037511EC4E96E0105DCD4F8C0112046F7
:105310008847D4E96E01002209F10B03A2EB4A058C
:1053200000F10802C0E90035481EC4E96E2005DC22
:10533000D4F8C01120468847D4E96E20013809F11D
:10534000110102F10803C2E90015C4E96E3056DC10
:10535000D4F8C011204605B0BDE8F04F0847D4E9A5
:105360006E3503F10800C3E900126A1EC4E96E023B
:1053700005DCD4F8C01120468847D4E96E0200F15C
:105380000801013A09F10503C0E90037C4E96E12CA
:1053900005DCD4F8C01120468847D4E96E1209F123
:1053A000100301F10800C1E90038511EC4E96E0183
:1053B00005DCD4F8C01120468847D4E96E0109F114
:1053C0000B034FEA4A0500F10802C0E90035481E08
:1053D000C4E96E2005DCD4F8C01120468847D4E922
:1053E0006E20022809F1110102F10803C4F8B83156
:1053F000C2E90015A0F10100C4F8BC01A8DB05B0AA
:10540000BDE8F08FF0B581B00646856914200F46DF
:1054100003F00AFA044600284FF000002AD0C4E93D
:10542000027007EB870196F868008900C00703D176
:10543000304603F026FA02E0084603F0F5F901468B
:105440006060A0B10027276196F86800C00717D1F7
:10545000D6F88400C2060FD4800711D5A0680421B5
:1054600000EB80008200284607F034FD07E020466C
:1054700003F0DCF9002404E0284607F033FD206146
:105480002760204601B0F0BD41B3F0B581B00C46B5
:105490000546866900BF00BF95F868002746D4E935
:1054A0000041C00704D1284603F00EFA03E000BF14
:1054B000084603F0BBF93A693AB195F884008007D1
:1054C00003D50421304607F008FD384603F0AEF955
:1054D0000CB12FF01FC801B0BDE8F040704710B507
:1054E00004468068006830B92068216AFFF78AFFA7
:1054F00048B1A16808600021C160D0E901122161B2
:10550000E261A06010BD2068152180F8C71110BDB0
:10551000F0B581B0C76F0C460546002F4FF0000074
:1055200048610D6038D038686060202003F07CF955
:10553000606178B30646B868800003F075F93060A2
:1055400040B3D7E901237360D5F8881072615143E5
:10555000B16043F00BC80020002200BF00BF00BFB5
:105560003368985004320FF005C8306801EB8101B0
:10557000F060A8698A00042107F0ACFC316808607B
:105580003068006830B1306170687169C6E9061032
:10559000606806E0002636E028461146FFF732FF35
:1055A00060604FF00006E06068B3A060D0E90101E0
:1055B00020611020A0864020C4E90661C4E90A6683
:1055C00003F032F92063F0B1616911B109680D6827
:1055D0000BE095F8841011F0120F616804D00D698A
:1055E000002D08BF4D6800E04D68B4F93410012962
:1055F00002DB890008F075FB002021462A46E08680
:1056000000F011F80126304601B0F0BD10B50C468F
:10561000B1F93410012903DB206B890008F061FB2C
:105620000020E08610BDF0B581B0B1F93670B1F957
:1056300034000C461546411EB942266B14DC80B27C
:1056400001221030A08601B28800314603F0F0F844
:10565000B4F93410064620638F4205DAC91B06EB05
:105660008700890008F03DFB06EB870046F82750CD
:10567000791CE18601B0F0BD70B54169044600684F
:10568000D1B14A688AB18569002600BF00BF00BF5A
:10569000086850F8262022B10421284607F01DFC96
:1056A0006169486801368642F2D3086803F0BEF8A3
:1056B000606903F0BBF802E06168FFF7E5FE206B6C
:1056C00018B1BDE8704003F0B1B870BD2DE9F047E6
:1056D00082B0456904465DB1E069A969002837D008
:1056E000012940F0D08020680121D0F8188067E0BF
:1056F000206948F23201C8F2800101600021256969
:10570000A06845F8041FC56040F2FF30686005F1ED
:1057100008002061E069A1610138E0612046FFF7DF
:10572000DEFE206890F8C70100286DD0A1692069CD
:105730000329A0F10C02226100F2A080DFE801F051
:10574000028D788340F2FF3140F80C1C083894E059
:1057500020680229D0F8188032D3A768D5F81090B5
:10576000B8687E68FB6800EB8001206906EB810267
:1057700009EB810A1BB1C3F800A00023FB60904233
:105780000ED28900021D3144914251EA82816FF0AC
:105790000302411A22EA01018022043108F09CFA36
:1057A000B8684946324600EB800083001020009024
:1057B000404607F09BFBA869C5F810A00138AFE090
:1057C000EA69022A17D3EE68A768511EE96156F804
:1057D000040F50B9A868042100EB80008200404605
:1057E00007F078FB0028306050D0F96881B108607C
:1057F0000020F8604EE0002900F09380012A04BFE9
:10580000152180F8C7118CE0A068406828603AE054
:10581000216948F23202C8F280020A60A168226956
:1058200042F8040FCA60101D20610020A06131E021
:105830000021C8F28001090C20F80A1C40F2FF3157
:1058400040F8041B19E0802100F8091C226940F28D
:10585000FF31416002F114000FE048F2000250F8FD
:105860000C1CC0F2800262F31F2141F4004140F899
:105870000C1C40F2FF3140F8041C20610020A061A4
:10588000E0690138E06102B0BDE8F08720680121DD
:1058900080F8C711A16903292BD82069DFE801F03E
:1058A000021A071140F2FF3140F8041B20E00021EA
:1058B000C8F28001090C418040F2FF31C160103014
:1058C00016E08021C170226940F2FF31016102F1CE
:1058D00014000DE048F200020168C0F2800262F399
:1058E0001F2141F40041016040F2FF3181600C3022
:1058F0002061A068E1690023A361D0E9012001399A
:10590000E161296900EB800083001020009040468F
:1059100007F0ECFA306820B1EE6030682861686901
:10592000A861204602B0BDE8F047FFF7D8BDD4D447
:10593000B0B58469032C1FD840F2000C0169C8F28D
:10594000800C0CF500434FF0080EFF22DFE804F056
:10595000190E02084FF00C0E4FF6FF72634605E079
:105960004FF0100E4FF000436FF07F420D682A4059
:105970001A430A607144016100218161C1690139E2
:10598000C161B0BD10B50446006890F86810890682
:1059900004D400F5BC703B2108F0A3F9616960688C
:1059A000C4E9020039B1D1E90023CA6012680A6172
:1059B0004A69C1E90623D0E901010022C4E90621B0
:1059C0002061E26210BDD4D4F0B581B0054608680C
:1059D00016460C4600F094F8A16903292BD82069DB
:1059E000DFE801F0021A071140F2FF3140F8041B12
:1059F00020E00021C8F28001090C418040F2FF3113
:105A0000C160103016E08021C170226940F2FF3180
:105A1000016102F114000DE048F200020168C0F2D9
:105A2000800262F31F2141F40041016040F2FF3126
:105A300081600C3020610020A061E86FE1690028DE
:105A4000A1F10100E06115D1A168086880B1A26AE6
:105A50000132A2623C2A0DD10F460146006808B10E
:105A60002FF007C02068FFF70FFD0020386000E02E
:105A70000020A062606990B14EB3206800F012FC73
:105A8000A168E369D1E90121C91A636901EB8107C2
:105A90001969BB000027009707F028FA11E0D5F834
:105AA0008400810705D4C00607D4204600F068F9B9
:105AB00006E0204600F0FCF802E0204600F02CF959
:105AC0002EB12046FFF75EFF0020606215E0002047
:105AD000E0612046FFF7FAFD6169A068E06009B166
:105AE00008690AE095F8841011F0120F04D00069DB
