:020000040200F8
:1000000080C30022D9CC0002C1CA0002E3CC0002A6
:10001000E3CC0002E3CC0002E3CC0002E3CC00021C
:10002000000000000000000000000000E3CC00021F
:10003000E3CC000200000000E3CC0002E3CC0002AD
:10004000E3B10002B9B3000221B5000209B6000213
:1000500009A40002DFA800025FA900023FAA000273
:1000600051BF0002D3BF000227C00002599F000207
:10007000A5C400025D1F00025F1F0002611F000295
:04008000631F0002F8
:100090003D500000AAAA3200FFFFFF0008304200D6
:1000A0000331130003310300003000000430FF006F
:1000B00002301C000630C3000E3045002E30080010
:1000C000343018001F500000004332001836000082
:1000D00012362900093752000C370300203840003F
:1000E000213801003036360031360E003236E2005B
:1000F000333612002136E0000437A00003375A00DF
:1001000015377800173701000B37600005371A00E4
:10011000053902000639100001390A003137120092
:1001200000360800013633002D30600020365200C2
:100130001B3720001C475000133A4300183A0000B8
:10014000193AF800353613003636030034364000CD
:1001500022360100014002000440020005401A005E
:100160000150A30003350700003500000135FF00F2
:10017000023500000A3500000B3520000F3A300030
:10018000103A28001B3A30001E3A2600113A60004F
:100190001F3A1400183A0000193A7C000634000097
:1001A00000340700013470000234040003340000FE
:1001B000043405000534C000805401008154080057
:1001C00082541400835428008454510085546500DF
:1001D0008654710087547D008854870089549100AB
:1001E0008A549A008B54AA008C54B8008D54CD00C8
:1001F0008E54DD008F54EA0090541D008055060097
:100200008355400084551000895510008A55000020
:100210008B55F800005823000158140002580F00B5
:1002200003580F00045812000558260006580C0009
:100230000758080008580500095805000A58080022
:100240000B580D000C5808000D5803000E58000004
:100250000F580000105803001158090012580700E9
:1002600013580300145800001558010016580300D5
:100270001758080018580D00195808001A5805009A
:100280001B5806001C5808001D580E001E58290057
:100290001F5817002058110021581100225815002E
:1002A00023582800245846002558260026580800C0
:1002B0002758260028586400295826002A58240068
:1002C0002B5822002C5824002D5824002E580600AC
:1002D0002F58220030584000315842003258240034
:1002E000335826003458240035582200365822004E
:1002F0003758260038584400395824003A58260008
:100300003B5828003C5842003D58CE000050A70002
:1003100020384600213800001438310015383100EB
:100320000338040008380400093800000A380200C5
:100330000B3858000C4622003748100024380200C1
:100340000150A3003D50000041470000FFFFFF00A7
:1003500028C40E220000000000000000100300224C
:100360000000000000000000000000000000006825
:100370000004580200040000020000000000000019
:10038000000000000000000000FF0000000000006E
:100390000000080000000000000000000000000055
:1003A0000000100800000000000000000000000035
:0203B000010149
:1003C0002DE9F04385B018461546884601240821DA
:1003D000202220230C9E4FF0000C18278DE8D0001F
:1003E000CDF80CC04FF008090CF03EFE0821202289
:1003F000202328460094CDF80C90CDE901670CF03D
:1004000033FE0821202220231020039040468DE84F
:10041000D0000CF029FE05B0BDE8F0832DE9F047CF
:1004200084B01E4690468946DDE90C071021102253
:1004300010234FF0000C40240125CDE900574FF068
:10044000100A0294CDF80CC00CF00EFE1021102200
:10045000102330460095CDF80CA0CDE901740CF0C6
:1004600003FE2020039010211022102348460095FF
:10047000CDE901740CF0F8FD10211022102330207A
:1004800003904046CDE9005702940CF0EDFD04B016
:10049000BDE8F0872DE9F04784B01E4690468946B6
:1004A000DDE90C072021082208234FF0000C8024EE
:1004B0000125CDE900574FF0200A0294CDF80CC079
:1004C0000CF0D2FD20210822082330460095CDF8FB
:1004D0000CA0CDE901740CF0C7FD40200390202151
:1004E0000822082348460095CDE901740CF0BCFDB4
:1004F000202108220823602003904046CDE90057C0
:1005000002940CF0B1FD04B0BDE8F0872DE9F04392
:1005100085B018461546884601244021042204234C
:100520000C9E4FF0000CC0278DE8D000CDF80CC019
:100530004FF040090CF098FD402104220423284686
:100540000094CDF80C90CDE901670CF08DFD4021B1
:10055000042204238020039040468DE8D0000CF054
:1005600083FD05B0BDE8F0832DE9F04784B09946DE
:1005700016460846402104220423DDE90C874FF08B
:10058000000C4FF480740125CDE900574FF0400A6C
:100590000294CDF80CC00CF067FD40210422042326
:1005A00030460095CDF80CA0CDE901740CF05CFD4F
:1005B0008020039040210422042348460095CDE981
:1005C00001740CF051FD402104220423C02003904B
:1005D0004046CDE9005702940CF046FD04B0BDE85A
:1005E000F0872DE9F04385B018461546884601246A
:1005F0004021042204230C9E4FF0000CC0278DE8FC
:10060000D000CDF80CC04FF040090CF02DFD40217A
:100610000422042328460094CDF80C90CDE901670C
:100620000CF022FD40210422042380200390404648
:100630008DE8D0000CF018FD05B0BDE8F0832DE981
:10064000F04184B01D4610460C460127CDE90073E9
:100650008021082208234FF0000CC0260296CDF816
:100660000CC04FF080080CF0FFFC4021082208234A
:100670002046CDE90075CDE902680CF0F5FC04B028
:10068000BDE8F0812DE9F04385B01846154688464F
:1006900001242021082208230C9E4FF0000C602723
:1006A0008DE8D000CDF80CC04FF020090CF0DCFC38
:1006B00020210822082328460094CDF80C90CDE98B
:1006C00001670CF0D1FC2021082208234020039070
:1006D00040468DE8D0000CF0C7FC05B0BDE8F083C3
:1006E0002DE9F04184B01D4610460C460127CDE9A6
:1006F00000734021102210234FF0000C6026029658
:10070000CDF80CC04FF040080CF0AEFC20211022B8
:1007100010232046CDE90075CDE902680CF0A4FC59
:1007200004B0BDE8F0812DE9F04385B018461546C8
:10073000884601241021102210230C9E4FF0000C3B
:1007400030278DE8D000CDF80CC04FF010090CF028
:100750008BFC10211022102328460094CDF80C9019
:10076000CDE901670CF080FC10211022102320201D
:10077000039040468DE8D0000CF076FC05B0BDE853
:10078000F0832DE9F04184B01D4610460C46012748
:10079000CDE900732021082208234FF0000C6026C9
:1007A0000296CDF80CC04FF020080CF05DFC402103
:1007B000082208232046CDE90075CDE902680CF037
:1007C00053FC04B0BDE8F0812DE9F04385B0184634
:1007D0001546884601242021082208230C9E4FF04C
:1007E000000C60278DE8D000CDF80CC04FF0200938
:1007F0000CF03AFC20210822082328460094CDF86A
:100800000C90CDE901670CF02FFC20210822082371
:100810004020039040468DE8D0000CF025FC05B048
:10082000BDE8F0832DE9F04184B01D4610460C462A
:100830000127CDE900734021042204234FF0000C6E
:10084000C0260296CDF80CC04FF040080CF00CFC0E
:100850008021042204232046CDE90075CDE90268F9
:100860000CF002FC04B0BDE8F0812DE9F04385B046
:1008700018461546884601244021042204230C9E74
:100880004FF0000CC0278DE8D000CDF80CC04FF021
:1008900040090CF0E9FB402104220423284600947F
:1008A000CDF80C90CDE901670CF0DEFB402104226D
:1008B00004238020039040468DE8D0000CF0D4FB48
:1008C00005B0BDE8F08370B58CB04EF6983E0DF1E2
:1008D000200CC0F2002E63469EE8710071C30846EA
:1008E0004EF654366FF07F034BF6C6244FF4A861E2
:1008F000CDE9003104930423114662464FF0010E06
:10090000C0F200260025C7F6EE74CDE90245CDE918
:10091000056E00F04DF80CB070BD2DE9F04184B0CB
:100920001D4610460C460127CDE900730121022225
:100930004FF4A8734FF0000C04260296CDF80CC0BB
:100940004FF002080CF0ACFB012102224FF4A87317
:100950002046CDE90075CDE902680CF0A1FB04B09A
:10096000BDE8F0812DE9F04184B01D4614460846EB
:100970000127CDE90073012104224FF4A8734FF041
:10098000000C05260296CDF80CC04FF004080CF0C0
:1009900087FB012101224FF4A8732046CDE90075A1
:1009A000CDE902680CF07CFB04B0BDE8F081D4D442
:1009B0002DE9F04F03AF8DB089460446A7F124001E
:1009C00014219A469046D7F81CB00CF0B6FC0720CC
:1009D000002500EB8B0047F838DC20F0070047F8D3
:1009E000285CADEB000647F82C5C47F8305CB54658
:1009F0004FEA8B0130460CF0A0FC484659460CF0FB
:100A00009CFC47F8345C82B0A7F13003A7F13400B6
:100A100000905046D7E90B1200F07EF802B0002893
:100A200000F0718047F83C9CA7F1240900BF00BF8B
:100A300082B00023504641464A46009500F0ACF88B
:100A400002B0834657F8343C82B0A7F130000090E2
:100A5000504641464A4600F09FF802B014F90B1088
:100A600056F82020114446F82010504641464A4688
:100A700000F0C2F808B12FF025C857F8340C012156
:100A800001281CDB80EF5100FC69A7F1300120F048
:100A900001E000BF00BF00BFB1EC043F98FC434F32
:100AA00020EF54091FF009C051EC110BD7F828B002
:100AB00053EC102B484302FB03F1414302E0D7F80B
:100AC00028B0FC69012CD7E9080957F83C5C1ADB0F
:100AD000BA694FEAE07A01FB02F800BF00BF00BF2D
:100AE00056F8040BA0EB080082B03A6A5346CDF8E2
:100AF000009000F09FF802B05844013C00F307005A
:100B000005F8010BECD157F838DCA7F10C04A54629
:100B1000BDE8F08FD4D4D4D42DE9F043DDF81CE047
:100B20004FF0010C4FF00007CEF8007070B3012AAF
:100B30002CDB4FF000084FF0000900BF00BF00BFE2
:100B400051F82960002E48BF0644B6F1FF3F5FEA26
:100B5000DF9786425FEAA78CBCF1010F16D1B8F18E
:100B6000010F1F46444605DB57F8045BB54209D028
:100B7000013CF9D143F82860DEF8004004F1010897
:100B8000CEF8008009F101099145D9D16046BDE850
:100B9000F083D4D4D4D4D4D42DE9F041012828DB77
:100BA000DDF818C040F001E0BCF1000F5FEA1F97CC
:100BB000012B5FEAAF960025002047EA060800BF38
:100BC000B8F1000F66461F4608D100BF00BF00BF46
:100BD00056F8044BA54207D0013FF9D151F8254002
:100BE00052F8256004FB006001350FF017C8BDE81E
:100BF000F0810020BDE8F08110B56FF0030303EB36
:100C0000800319441A4400BF034601280EDB106814
:100C100051F804E900F1010CBEEB0C0454EA009019
:100C2000E64542F80409A3F10100EDD0002B5FEA8C
:100C3000DF9010BD70B5C117A2FB0046DDF810C0F3
:100C400002FB0161CCF11E0E0025012252EA0DE5E6
:100C500003FB00111019CCF11F02694150EA2D214C
:100C600070BD40F2D0004DF69051C0F20120C2F2AA
:100C700002210068084470474CF2B030C2F20020F4
:100C800070472DE9F04FB1B0044640F2DC00C0F2ED
:100C900001204DF69051C2F2022140F2D4020068C8
:100CA000C0F201220844039040F2D80049F6905661
:100CB000C0F20120C2F2042643F690554AF690593C
:100CC0000068C2F20525084402901068C2F20529A6
:100CD00001EB000A45F23C10C0F2012045F2381148
:100CE000C0F201214EF290580068C2F2052830444B
:100CF000089045F240104FF69017C0F20120C2F262
:100D0000052741F290124AF6E0230068C2F206225B
:100D100030440790086841F254413044069045F24F
:100D20003410C0F20221C0F20120C2F20E2300688A
:100D300030440490086841F26041C0F20221284426
:100D40002690086841F25C4128440B9041F26440CF
:100D5000C0F20221C0F20220006828440A9008680C
:100D60004CF624312844099041F25840C0F2032146
:100D7000C0F2022000682844059008684CF6303123
:100D8000C0F2032148441B9008684CF628314844BF
:100D90000E904CF62C30C0F20321C0F20320006804
:100DA00048440D90086845F22C5148440C9045F297
:100DB0002450C0F20421C0F2042000684044129084
:100DC00045F22850C0F204200068404411900868A1
:100DD00049F61C514044109045F23050C0F20521B4
:100DE000C0F20420006840440F90086849F618518A
:100DF000C0F2052138441590086842F61441384481
:100E0000149049F61450C0F20621C0F20520006883
:100E100038441390086842F61841C0F20621104485
:100E20002B9008684AF22451104416904AF22C5034
:100E300044F29012C0F20620C2F20622C0F206214D
:100E40000068104419904AF22850C0F20620006849
:100E50001044189008684FF66C71104417904DF6C6
:100E6000A40048F29012C0F20620C2F20622C0F29C
:100E700006210068104423904DF6A800C0F2062019
:100E8000006810441A9008684FF668714EF290128C
:100E9000C0F20621C2F2062210441E90086842F6F3
:100EA000C46110441D904FF66470C0F20721C0F277
:100EB0000620006810441C90086842F6C86146F29B
:100EC0009012C0F20721C2F2072210442C90086849
:100ED00049F2643110441F9049F26C304BF2901289
:100EE000C0F20720C2F20722C0F2072100681044B6
:100EF000229049F26830C0F2072000681044219027
:100F000008684AF66C51104420904CF644504DF657
:100F10009012C0F20720C2F20722C0F20821006836
:100F200010442A904CF64850C0F207200068104444
:100F3000249008684AF6685140F29012C0F20821E5
:100F4000C2F2082210442890086840F2C0111044F0
:100F500027904AF66450C0F20B21C0F208200068C6
:100F600010442590086840F2BC1141F69012C0F27E
:100F70000B21C2F2082210442990086840F6B431CF
:100F80001044309040F6E800C0F20B21C0F20B2074
:100F90004BF260520968C2F20E22006818442E908B
:100FA00040F6E400C0F20B20006818442D90501861
:100FB0002F90204600F011FA4CF64C2B4CF64020B6
:100FC000C2F2002BCDF800B0C2F20020DDE9022110
:100FD0005346FFF7F5F945F230104FF4C042C0F226
:100FE00001205946006830440CF0ABF9204600F06F
:100FF00047FA42F6582642F64C20C2F201260499DE
:10100000CDE90016C2F201200899DDE90632FFF7AA
:1010100005FA41F250404FF48042C0F202203146BE
:10102000006828440CF08DF9204600F081FA46F65D
:10103000642546F65820C2F201250599CDE9001530
:10104000C2F201200B99DDE90932FFF723FA4CF6D1
:1010500020304FF40052C0F2032029460068484473
:101060000CF06FF9204600F0CBFA48F6702548F6F0
:101070006420C2F201250095C2F201200E99DDE93B
:101080000C32FFF743FA45F220504FF44062C0F2B1
:1010900004202946006840440CF053F9204600F033
:1010A0000FFB49F27C6549F27060C2F201250F998D
:1010B000CDE90015C2F201201299DDE91032FFF7E7
:1010C00053FA49F610504FF48052C0F205202946D9
:1010D000006838440CF035F9204600F047FB4AF22E
:1010E00088654AF27C60C2F201250095C2F20120B7
:1010F0001599DDE91332FFF774FA42F6104041F218
:101100009011C0F20620C2F206214FF4406200683E
:10111000084429460CF015F9204600F07AFB4BF202
:1011200094254BF28820C2F20125C2F201201B99BE
:10113000169A2B46FFF783FA4AF2205044F2901198
:10114000C0F20620C2F206214FF440520068084463
:1011500029460CF0F6F8204600F0B0FB4EF2A02530
:101160004EF29420C2F201250095C2F20120199995
:10117000DDE91732FFF786FA4DF6A00048F290112C
:10118000C0F20620C2F206214FF4C05200680844A3
:1011900029460CF0D6F8204600F0E5FB4FF6AC25CA
:1011A0004FF6A020C2F20125C2F2012026991A9A18
:1011B0002B46FFF795FA4FF660704EF29011C0F291
:1011C0000620C2F206214FF4C042006808442946B6
:1011D0000CF0B7F8204600F01BFC45F6B82545F6A4
:1011E000AC20C2F202250095C2F202201E99DDE970
:1011F0001C32FFF798FA42F6C06046F29011C0F236
:101200000720C2F207214FF44052006808442946E3
:101210000CF097F8204600F050FC48F6C42548F63C
:10122000B820C2F20225C2F2022023991F9A2B464F
:10123000FFF7A7FA49F260304BF29011C0F2072095
:10124000C2F207214FF4C0520068084429460CF04E
:1012500078F8204600F081FC4AF2D0254AF2C420FA
:10126000C2F202250095C2F202202299DDE9203265
:10127000FFF7AAFA4CF640504DF69011C0F2072045
:10128000C2F207214FF4C0520068084429460CF00E
:1012900058F8204600F0B6FC4BF6DC254BF6D02083
:1012A000C2F20225C2F202202B99249A2B46FFF7A4
:1012B000B9FA4AF6605040F29011C0F20820C2F22A
:1012C00008214FF440620068084429460CF039F8C0
:1012D000204600F0ECFC4CF2E8654CF2DC60C2F217
:1012E00002250095C2F20220DDE92721259BFFF7A8
:1012F000BCFA40F2B01041F69016C0F20B20C2F2D8
:1013000008264FF400522C99006830440CF019F86C
:1013100040F2B4104FF48052C0F20B202A990068BA
:1013200030440CF00EF840F2B8104FF44062C0F2B6
:101330000B202946006830440CF003F8204600F0EA
:101340000FFD4DF2F4254DF2E820C2F20225C2F263
:10135000022029992A46FFF7B6FA40F6E0004AF63D
:10136000E021C0F20B20C2F20E214FF4A862006807
:10137000084429460BF0E5FF204600F05DFD4DF6E0
:1013800040054DF63400C2F20225C2F20220DDE92A
:101390002D212B46FFF7C1FA40F6B0304BF26051D9
:1013A000C0F20B20C2F20E214FF4A862006808447C
:1013B00029460BF0C6FF204600F08CFD4DF680500C
:1013C0004CF2B033C2F20220C2F20023DDE92F1248
:1013D00031B0BDE8F04FFFF7C5BAB0B598B04FF2E5
:1013E00034024DF69055C0F200224FF24001002425
:1013F000C2F202250028C0F200210B940A91116864
:101400000391CDE90C544FF4E0314FF44040069085
:10141000CDE90E54CDE90411CDE9105407D04DF6B5
:1014200090504FF4C041C2F202200BF086FF05F548
:101430000050CDE9140405F580404FF40051CDE98A
:1014400016044EF6A830C0F200200991CDE907112C
:101450004EF6B031026803A800904CF22840C2F268
:101460000E20C0F200210AABCDE912540725CDE9C8
:10147000015408F0EEFC01305FEA1FA018B0B0BDC7
:10148000B0B59CB040F2E85249F69055C0F2012246
:1014900040F2F0510024C2F204250028C0F20121DC
:1014A0000D940C9111680491CDE90E544FF4204134
:1014B0004FF4C0400790CDE91054CDE90511CDE9B6
:1014C000125407D049F690504FF48041C2F20420E4
:1014D0000BF033FF05F58051CDE9161440F2E00121
:1014E00005F50050C0F20121CDE9180405F5405082
:1014F0001A900A6804A800904CF2284040F2F001CB
:10150000C2F20E20C0F201210CAB81EF5002CDE9F6
:10151000145408251B948DED081FCDE9015408F0E3
:1015200098FC01305FEA1FA01CB0B0BDD4D4D4D465
:1015300070B59EB045F230710024C0F20121CDE9B2
:101540000C1445F2207143F69055C0F20121C2F20D
:10155000052505F50056002809680391CDE90E54CC
:101560004FF4E0414FF480400690CDE91054CDE9AE
:101570000411CDE9126407D043F690504FF4804136
:10158000C2F205200BF0D9FE05F52051CDE9181463
:1015900045F2441116A0C0F201210CAB90ED001FE2
:1015A00005F54050CDE91A0405F560500A68CDE90B
:1015B0001C044FF400600B9003A800904CF22840EC
:1015C00045F25011C2F20E20C0F201218DED071F2D
:1015D000CDE91454CDE916640826CDE9016408F07C
:1015E00038FC01305FEA1FA01EB070BD00BF00BF15
:1015F00000200000000800000008000000080000B3
:1016000070B59CB041F630110024C0F20221CDE942
:101610000C1441F620114AF69055C0F20221C2F294
:10162000052505F58056002809680491CDE90E547A
:101630004FF460514FF400500790CDE91054CDE9BC
:101640000511CDE9126407D04AF690504FF4E051ED
:10165000C2F205200BF071FE41F2684114A0C0F205
:1016600002210CAB90ED001F05F5A050CDE9180448
:1016700005F5C0501A900A6804A800904CF2284062
:1016800041F27041C2F20E20C0F202218DED081F1E
:101690001B94CDE91454CDE916640826CDE9016404
:1016A00008F0D7FB01305FEA1FA01CB070BD00BF7F
:1016B000001000000004000000040000000400000E
:1016C000B0B59CB04CF674524EF29055C0F2032265
:1016D0004CF680510024C2F205250028C0F20321F7
:1016E0000D940C9111680491CDE90E544FF4A05162
:1016F0004FF440600790CDE91054CDE90511CDE9D4
:10170000125407D04EF290504FF48051C2F205208F
:101710000BF013FE05F58061CDE916144CF634315B
:1017200005F50060C0F20321CDE9180405F540601D
:101730001A900A6804A800904CF228404CF64031F8
:10174000C2F20E20C0F203210CAB80EF5402CDE9AF
:10175000145408251B948DED081FCDE9015408F0A1
:1017600078FB01305FEA1FA01CB0B0BDB0B598B0E7
:1017700045F6F0124FF69015C0F2042245F600210E
:101780000024C2F205250028C0F204210B940A911E
:1017900011680391CDE90C544FF4C0514FF48050BF
:1017A0000690CDE90E54CDE90411CDE9105407D0CF
:1017B0004FF690104FF44061C2F205200BF0BDFDD2
:1017C00005F58060CDE9140405F500604FF48061F3
:1017D000CDE9160445F23450C0F204200991CDE958
:1017E000071145F24051026803A800904CF22840CE
:1017F000C2F20E20C0F204210AABCDE91254072533
:10180000CDE9015408F025FB01305FEA1FA018B0B4
:10181000B0BDB0B596B04AF230010025C0F2052146
:10182000CDE90A154AF2280141F29014C0F20521CF
:10183000C2F206240028CDE90C45096804914FF452
:101840004051CDE90E454FF440600790CDE90511B8
:1018500004F50061CDE910150AD04FF4006120466F
:101860000BF06BFD04F580504FF400510BF065FD5B
:1018700049F620514FF40060C0F20521089004F5AC
:101880008050CDE914054FF4005009900A6804A86F
:1018900000904CF2284049F63051C2F20E20C0F2BE
:1018A00005210AABCDE912450624CDE9014508F032
:1018B000D0FA01305FEA1FA016B0B0BD70B598B085
:1018C00042F690710026C0F20621CDE90A1642F6D2
:1018D000847144F29014C0F20621C2F2062404F589
:1018E0008055002809680391CDE90C464FF48041EA
:1018F0004FF440500690CDE90E46CDE90411CDE9F4
:10190000105609D04FF4006120460BF016FD4FF43D
:10191000805128460BF011FD04F5C050CDE91406A6
:1019200042F61C404FF40061C0F20620CDE90711D9
:10193000099142F62041026803A800904CF2284029
:10194000C2F20E20C0F206210AABCDE912560725DD
:10195000CDE91646CDE9015608F07BFA01305FEA81
:101960001FA018B070BDB0B596B04AF62001002592
:10197000C0F20621CDE90A154AF6140148F2901486
:10198000C0F20621C2F206240028CDE90C45096800
:1019900004914FF4C041CDE90E454FF4C05007907B
:1019A000CDE9051104F58051CDE910150AD04FF4A9
:1019B000805120460BF0C1FC04F500504FF48041EB
:1019C0000BF0BBFC4AF230514FF48050C0F20621BC
:1019D000089004F50050CDE914054FF480400990BB
:1019E0000A6804A800904CF228404AF24051C2F222
:1019F0000E20C0F206210AABCDE912450624CDE93E
:101A0000014508F026FA01305FEA1FA016B0B0BD0C
:101A100070B598B04DF6F0310026C0F20621CDE940
:101A20000A164DF6EC314EF29014C0F20621C2F2C5
:101A3000062404F50055002809680391CDE90C46F9
:101A40004FF400414FF4C0400690CDE90E46CDE979
:101A50000411CDE9105609D04FF4805120460BF007
:101A60006CFC4FF4005128460BF067FC04F5405025
:101A7000CDE914064DF6AC004FF48051C0F20620BB
:101A8000CDE9071109914DF6B001026803A8009055
:101A90004CF22840C2F20E20C0F206210AABCDE97A
:101AA00012560725CDE91646CDE9015608F0D1F9C1
:101AB00001305FEA1FA018B070BD70B596B040F25B
:101AC00050110024C0F20721CDE90A1440F244115C
:101AD00046F29015C0F20721C2F2072505F500561F
:101AE000002809680491CDE90C544FF4A0414FF44B
:101AF00040500790CDE90E54CDE90511CDE91064B1
:101B000007D046F290104FF42051C2F207200BF09C
:101B100014FC4FF670714FF40050C0F2062108908B
:101B20004FF4006009900A6804A800904CF2284025
:101B30004FF68071C2F20E20C0F206210AABCDE949
:101B40001254CDE914640626CDE9016408F081F948
:101B500001305FEA1FA016B070BD70B598B043F2B7
:101B600040210026C0F20721CDE90A1643F23421B4
:101B70004BF29014C0F20721C2F2072404F58055FD
:101B8000002809680391CDE90C464FF420514FF429
:101B9000C0500690CDE90E46CDE90411CDE91056AE
:101BA00009D04FF4006120460BF0C7FB4FF4805181
:101BB00028460BF0C2FB04F5C050CDE9140642F6EE
:101BC000CC604FF40061C0F20720CDE90711099104
:101BD00042F6D061026803A800904CF22840C2F29D
:101BE0000E20C0F207210AABCDE912560725CDE938
:101BF0001646CDE9015608F02CF901305FEA1FA026
:101C000018B070BDB0B596B049F2C0510025C0F211
:101C10000721CDE90A1549F2B4514DF69014C0F2EE
:101C20000721C2F207240028CDE90C450968049178
:101C30004FF42051CDE90E454FF4C0500790CDE947
:101C4000051104F58051CDE910150AD04FF48051EB
:101C500020460BF072FB04F500504FF480610BF04E
:101C60006CFB49F270314FF48050C0F207210890AC
:101C700004F50050CDE914054FF4806009900A681E
:101C800004A800904CF2284049F28031C2F20E20A4
:101C9000C0F207210AABCDE912450624CDE9014582
:101CA00008F0D7F801305FEA1FA016B0B0BDB0B59C
:101CB00098B04DF2D0110025C0F20721CDE90A15E8
:101CC0004DF2CC1140F29014C0F20721C2F2082468
:101CD0000028CDE90C45096803914FF4C051CDE9C6
:101CE0000E454FF440600690CDE9041104F54061C3
:101CF000CDE910150AD004F5A0504FF480610BF027
:101D00001CFB4FF4006120460BF017FB04F5A050BC
:101D1000CDE9140504F580604FF48061CDE9160526
:101D20004CF64C50C0F207200991CDE907114CF652
:101D30005051026803A800904CF22840C2F20E20D5
:101D4000C0F207210AABCDE912450724CDE90145D0
:101D500008F07FF801305FEA1FA018B0B0BDD4D4FE
:101D6000B0B59CB030A14CF24062C0F2082241F6FE
:101D7000901491ED001F4CF25061C2F20824C0F2A1
:101D800008210C911168049141F250110025214461
:101D9000CDE9121504F5A8710028CDE9141543F218
:101DA00050110D9511958DED051F21444FF44060A4
:101DB00010940990CDE90E45CDE916150BD04FF4DE
:101DC000A87120460BF0B9FA45F250504FF4A851D3
:101DD00020440BF0B2FA4AF670514FF4A870C0F2EA
:101DE00008210A9045F250500CAB2044CDE91A0569
:101DF0004FF4A8500B900A6804A800904CF22840B9
:101E00004AF68051C2F20E20C0F2082119951894AA
:101E10000824CDE9014508F01CF801305FEA1FA055
:101E20001CB0B0BD00BF00BF50910600509106002D
:101E30000020000000100000B0B596B040F29032D3
:101E40004AF6E025C0F20B2240F2A0310024C2F293
:101E50000E250028C0F20B210B940A911168049101
:101E6000CDE90C544FF428614FF4A8600790CDE9F8
:101E70000E54CDE90511CDE9105405D005F5A86043
:101E80004FF4A8610BF059FA05F5FC61CDE9141483
:101E900040F2C41105F5A860C0F20B21CDE912048F
:101EA0004FF42870089009900A6804A800904CF23A
:101EB000284040F2D011C2F20E20C0F20B210AAB32
:101EC0000625CDE9015407F0C4FF01305FEA1FA0E9
:101ED00016B0B0BD70B592B040F660210024C0F2DB
:101EE0000B21CDE9081440F654214BF26055C0F2A5
:101EF0000B21C2F20E254FF4A86609680391CDE9C3
:101F00000A540F940E95CDE90C540696CDE904665B
:101F100038B14BF260504FF4A861C2F20E200BF0C2
:101F20000CFA40F6EC0040F6F001C0F20B20C0F2D3
:101F30000B2108ABCDE91054026803A800904CF2C5
:101F40002840C2F20E2007960526CDE9016407F06D
:101F500080FF01305FEA1FA012B070BD704770476C
:101F600070477047D4D4D4D410B54BF6A024A82120
:101F7000C2F20E2420460BF0E0F9032020616061DC
:101F800041F20A104BF64831C0F20B20A061C2F2B8
:101F90000E21E1614FF4006121620021A1626162C2
:101FA000E1624CF2483220664FF0100E40F6B83035
:101FB000C2F20E226266C4F868E02167E1666167DA
:101FC000BFF35F8FC0F20B200F3000BF00BF00BF18
:101FD00010F8011904F8011B0FF007C0BFF35F8F61
:101FE00010BDD4D4D4D4D4D42DE9F04381B0144658
:101FF0000D468046C7684FF0000900BF00BF00BF14
:10200000D8F81000FA43B84206D91044D8F808109E
:1020100006E000BF00BF00BFD8F808101044084415
:10202000C91B884250EA31802946A04250EA3486D2
:10203000D8F80400384432460BF083F9F019D8F888
:102040000810411AA4EB060450EA1187B144354444
:10205000BFF35F8FC8F80C700CB12FF02FC8484643
:1020600001B0BDE8F0832DE9F04381B000EB400002
:102070004BF6A023C2F20E23144603EBC00389469D
:1020800003F11805D86A022812D0012808D00028C8
:102090003ED1EE682869F143B04234D9084435E0B6
:1020A000EE682969B1420BD9F0430144A8680BE0FE
:1020B00028464946224601B0BDE8F043FFF794BFE9
:1020C000F243A86811440144A14251EA3484871BB9
:1020D00068683044BC4207D2494622460BF031F9C9
:1020E000BFF35F8F26440CE049463A460BF029F9CE
:1020F000E61B686809EB070132460BF022F9BFF3D3
:102100005F8FEE6025E0AA6808441044A04201D227
:1021100000241EE0D5E901018F1B3044BC4208D2E7
:10212000494622460BF00DF9BFF35F8F06EB04081A
:102130000DE049463A460BF004F9A4EB070868683D
:1021400009EB070142460BF0FCF8BFF35F8FC5F8BF
:102150000C80204601B0BDE8F083F0B581B04BF6AD
:10216000A0231446C2F20E230D4606461B78532BBD
:1021700001D0FFF7F9FEEFF311874FF0200181F353
:102180001188304629462246FFF76DFF87F31188F4
:1021900001B0F0BDD4D4D4D42DE9F04F9BB091461A
:1021A0000F46002406A916914021179100210590A1
:1021B0001A90CDE9181100BF17F8011B252907D087
:1021C000002900F06F8116A800F07BF9E5E000BF60
:1021D0004FF0000800BF00BF39782C2908DC232904
:1021E0000ED02B2918D104200FE000BF00BF00BF84
:1021F0002D2909D030290FD1022006E000BF00BFF1
:10220000082002E000BF00BF012048EA00080137B3
:10221000E2E700BF00BF00BFA1F13A0010F10A0FD2
:1022200002D2002012E000BF00200A4600BF00BF1B
:1022300017F8011F00EB8000A1F13A0302EB400008
:1022400013F10B0FA0F130000A46F1D82E290FD15F
:102250003A4612F8011F2A290DD1D9F80010023789
:102260000A1DC9F800200E6801211DE000BF00BF53
:102270000021002618E0A1F13A0313F10A0F02D25F
:10228000002100260FE0002612F8013F06EB86072A
:10229000A3F13A0601EB470116F10B0FA1F130064D
:1022A0001946F1D80121174617F8012B02F0FB035C
:1022B000682BF9D0632A0FDC252A2ED0582A24D087
:1022C000632A6AD1D9F80000011DC9F8001001780D
:1022D00079E700BF00BF00BFA2F17003082B1ED832
:1022E000DFE803F0055B5B615B4E5B5B1300D9F8D5
:1022F00000001022011DC9F8001001680823002009
:102300000826CDE9006016A845E0D9F800100A1D9E
:10231000C9F800200968102239E0252153E7642A12
:102320003BD1D9F800104CF6CD4C0A1DC9F800205D
:10233000D1F800E0CCF6CC4CCEF100017246BEF1F3
:10234000000F48BF0A460A2A03914FF0010107DB3C
:10235000A2FB0C35632A01F101014FEAD502F7D83F
:102360008E4256EA818B002840D0BEF1000F5FEA12
:102370005F9108F0040241EA9201A0EB010A37E004
:10238000D9F800100A1DC9F8002009680A22CDE911
:10239000000816A8334600F0B7F8199CB4F1FF3FC7
:1023A0003FF70AAF89E0D9F80000021DC9F8002004
:1023B000006840F6E0520028C0F20B2250EA128575
:1023C0005FEA018800BF00BF2978002E5FEA18800D
:1023D0000029E2D00028E0D116A8013500F071F8FC
:1023E000199C013EB4F1FF3FEEDC66E04FF0000ABD
:1023F0005FEA88750CD55EB9002CCED4BEF1000F13
:1024000029D45FEA4870CDF810E02DD52B2125E0C6
:102410005FEAC870F0D1BAF1000FEDD0D345EBD22E
:102420000295CDF810E0AAF1010500BF00BF00BF82
:10243000202116A800F045F8199C002C3DD4681EF8
:10244000A84202D2AB450546F2D300F1010ADDF8FD
:1024500010E0029DD0E72D210398049016A800F00B
:1024600030F8199C002C28D4002D05D40A22CDE97F
:1024700000A816A804998DE708F001003043F5D1B3
:10248000BAF1000FF2D0AAF10105554538BFD34586
:10249000ECD2302116A800F014F8199CAA46002CA2
:1024A000F1D50AE044B1189D25B106A905982A4640
:1024B000FFF753FE2C4400E0002420461BB0BDE88B
:1024C000F08F10B50446D0E90120431C934207D891
:1024D00022681154A360E06862680130E060184629
:1024E000904218BF10BD21682069FFF736FEA16831
:1024F000884202D10020A06010BD4FF0FF30E060A4
:1025000010BDD4D4D4D4D4D42DE9F04F81B0154625
:102510000E4691421F468146DDF828B04FF001007B
:1025200007D3314600BF00BFB1FBF5F10130A9422E
:10253000FAD2874257EA808ABBF1000F0B991BD071
:1025400011F0010018D188074FF0200048BF30205B
:102550002021002F50EA0188BBF1000F0CD0DA4592
:102560000AD248464146ABF1010BFFF7AAFFD9F862
:102570000C00B0F1FF3FEFDCD9F80C0000283CD490
:10258000012400BF00BF00BF022F01D3013F03E0C1
:10259000B6FBF4F0A84201D36C43F5E74EF6583889
:1025A000C0F2002800BF00BFB6FBF4F7484618F899
:1025B0000710FFF786FFD9F80C00002806D4B4FBFB
:1025C000F5F007FB1466A5420446EDD90B98C00749
:1025D00018BFBBF1000F0AD10FE020214846FFF7DA
:1025E00070FFD9F80C00A346B0F1FF3F05DDABF159
:1025F00001045C4538BFDA45EFD301B0BDE8F08F88
:1026000082B080B582B0CDE9042304AA019201AA68
:10261000FFF7C2FD02B0BDE8804002B07047D4D4DD
:102620002DE9F04782B040F6E75841F23119871C96
:102630004AF6AA244FF6FF75C0F20B280DF1070ADF
:10264000C0F20B2900218DF8071000BF00BF00BFAA
:1026500037F8020CA0420FD0A84214D0397800F00D
:1026600081FD90B937F8020C514600F030FD70B989
:1026700007E000BF00BF00BF38784FF47A710AF05E
:10268000DCF90437E4E700260FE0064601E00646E1
:10269000C84641F2131140F6B552C0F20B21C0F208
:1026A0000B2200204346FFF7ABFF304602B0BDE8E7
:1026B000F087D4D4F0B581B02DED048B0A204FF40F
:1026C0007A710AF0BAF94CF2C8403C21C2F20E20ED
:1026D000012208F05FFB28B141F2A6330446C0F2A4
:1026E0000B23B6E04CF29855EFF31080C2F20E25A2
:1026F000012181F3108840F614542968C4F2400483
:1027000019B9002121704021217029684FF6D04667
:1027100001312960CFF6FF7680F3108843F6FA770F
:102720000121CFF6FE77A05938400430A051EFF3D5
:10273000108081F31088296811B129680139296056
:10274000296819B9002121708021217080F3108837
:1027500014204FF47A710AF070F90121EFF3108020
:1027600081F31088296819B9002121704021217056
:1027700029680131296080F310880121A05938406F
:1027800040F00500A051EFF3108081F31088296814
:1027900011B1296801392960296819B9002121700E
:1027A0008021217080F3108814204FF47A710AF090
:1027B00044F940F25C00C2F20020FFF731FF28B17B
:1027C00040F6BB630446C0F20B2342E032204FF4D4
:1027D0007A710AF032F943F23500122100F0C2FC9E
:1027E00028B140F623530446C0F20B2322E043F203
:1027F00036007B2100F0B6FC28B140F67F4304464A
:10280000C0F20B2316E043F23700082100F0AAFCC7
:1028100028B141F207230446C0F20B230AE043F239
:102820000810122100F09EFC18B341F26513044613
:10283000C0F20B2341F2131141F25422C0F20B21DA
:10284000C0F20B220020FFF7DBFE40F61543C0F27A
:102850000B2341F2131140F60652C0F20B21C0F2D5
:102860000B220020FFF7CCFE2046BDEC048B01B00C
:10287000F0BD4CF258304DF60001C2F20E20C0F20D
:10288000B8519FED270AB6EE008A0160B1EEC09AFA
:102890009FED240AB0EE481A09EE001A43F60C0028
:1028A000BCEEC10A10EE105A290A00F05BFCB8B960
:1028B000E9B243F60D0000F055FC88B939EE080A7C
:1028C00043F60E00BCEEC00A10EE105A290A00F0C2
:1028D00049FC28B9E9B243F60F0000F043FCA0B16F
:1028E00041F2131141F2140241F26C230446C0F28A
:1028F0000B21C0F20B22C0F20B230020FFF780FE59
:1029000041F2E713C0F20B23A3E700F00DF828B162
:1029100040F6E3730446C0F20B239AE70024A3E7D2
:10292000007C9249ABAAAA3F10B582B00DF1070115
:1029300044F6140000F0CBFB28B141F2D833044632
:10294000C0F20B230FE09DF8070000F03F0144F6B2
:1029500014008DF8071000F005FC90B141F26C23D3
:102960000446C0F20B2341F2131141F28522C0F25A
:102970000B21C0F20B220020FFF742FE204602B0DE
:1029800010BD0024FAE710B543F20800022100F060
:10299000E9FB28B141F27E030446C0F20B230AE0B2
:1029A00044F20220002100F0DDFB88B141F2CB238C
:1029B0000446C0F20B2341F2131141F24322C0F24C
:1029C0000B21C0F20B220020FFF71AFE204610BD9B
:1029D0000024FBE710B544F202200F2100F0C2FBF7
:1029E000044670B141F2131140F6C85240F61A7312
:1029F000C0F20B21C0F20B22C0F20B230020FFF724
:102A0000FFFD204610BD70B54CF25C35C2F20E25BC
:102A1000286808B101241BE0002002F0BDFF2860F7
:102A200078B10021002403F07EF84CF260360028D3
:102A3000C2F20E26306028680CD003F011F82C602A
:102A400006E04CF260300221C2F20E200160002448
:102A5000204670BD4FF48071802205F057FE4CF285
:102A60006431C2F20E21086080B12868012103F0B0
:102A7000BBF800283060EAD128680121002201F06B
:102A80005FFF00285FEA1F943060E1E701203060BB
:102A9000286802F0E5FF0024D1E74CF26030C2F272
:102AA0000E20006870472DE9F04782B04CF268387C
:102AB000C2F20E2898F80070012F03D14CF260305A
:102AC00012212AE04CF25C390746C2F20E29D9F8ED
:102AD000000098B10D464CF26431C2F20E21096833
:102AE00081B19FB1002D05DD1446002A12DD1E467E
:102AF000AB421ADA4CF260300A210EE04CF2603040
:102B000002210AE04CF26030042106E04CF2603011
:102B1000112102E04CF260300B21C2F20E20016064
:102B20000026304602B0BDE8F08705F04AFE4CF2C0
:102B3000603A0028C2F20E2ACAF80000F0D1D9F893
:102B400000000121CDE90041394632462B4606F00E
:102B5000EBFD0028CAF80000E2D1691E621ED9F818
:102B6000000017B20BB2002100220097002606F0E9
:102B7000A6FD0028CAF80000D3D14CF26C304CF20C
:102B80007031C2F20E20C2F20E21012688F80060D8
:102B900005600C60C5E72DE9F04F83B04CF25C3660
:102BA000C2F20E263568002D00F0AB804CF268377B
:102BB000C2F20E273F78002F00F0A780DDF83480A6
:102BC000B8F1000F40F3AD80904250EAC28450EA61
:102BD000B28A994251EAC38051EAB38950EA0401AA
:102BE00000F197804CF26C31C2F20E2109688A45DF
:102BF00080F28F804CF27032C2F20E221268914540
:102C000080F287800C9B4FF0F80CA1F1010E03F0CD
:102C10001F070CEA1321013A41EA533CF90041EA4B
:102C200097014FF4407707EA530703F4FC637445B8
:102C300054EABE8B47EA43130024904250EAB2871D
:102C400043EA0C4042180021284601F066FE4CF28F
:102C500060310028C2F20E21086069D12AEAEA70C8
:102C6000029429EAE971000102B208010FFA80F921
:102C70004FEA0B1005B24FEA081093460FFA80FA9C
:102C8000306811464A462B46CDE9009A06F090FA84
:102C90004CF260310028C2F20E21086048D13801A0
:102CA00029460FFA80F830684A462B460024CDE9C1
:102CB000008A029406F07CFA4CF26031C2F20E21D6
:102CC0000860A8BB3068294642465B46CDE9008AC9
:102CD000029406F06DFA4CF26031C2F20E210860E7
:102CE00030BB30680D4600210291594642465B4692
:102CF000CDE9009A06F05CFA00285FEA1F9428608C
:102D000016E04CF2603002210EE04CF260300321FC
:102D10000AE04CF260300021C2F20E200124016072
:102D200006E04CF260300A21C2F20E20016000245D
:102D3000204603B0BDE8F08FF0B581B04CF25C36B0
:102D4000C2F20E26306848B34CF26431C2F20E2152
:102D5000096851B34CF26835C2F20E252A78DAB30D
:102D60000022002405F083FD4CF26037C2F20E27EA
:102D70003860C0BB306802F066FF4CF26C3200284D
:102D8000C2F20E225FEA1F912C70386014604CF280
:102D90007032C2F20E2214600C462FE04CF2683002
:102DA0000024C2F20E20022105E04CF2683000241B
:102DB000C2F20E20042104704CF26C30C2F20E20DC
:102DC00004604CF27030C2F20E2004604CF26030AD
:102DD000C2F20E20016011E04CF260300321C2F219
:102DE0000E20002401604CF26C304CF27031C2F2C3
:102DF0000E20C2F20E212C7004600C60204601B03F
:102E0000F0BD2DE9F04F81B04CF25C35C2F20E25D9
:102E1000D5F800C0BCF1000F6AD04CF26837C2F29E
:102E20000E273F78002F67D0904250EAC28750EAC1
:102E3000B289994251EAC38651EAB38856EA07003B
:102E400062D44CF26C30C2F20E20D0F800A0D14512
:102E50005ADA4CF27030C2F20E20D0F800B0D845E9
:102E600052DA0A98F82100F01F0201EA1021D3007B
:102E70004FF4407443EA920200F4FC6341EA50319B
:102E800004EA5000002440EA431040EA01400021D7
:102E90000244604601F041FD4CF26031C2F20E2165
:102EA0000860C0BBABF101008B46AAF1010129EA21
:102EB000E973864256EAB0808F4257EAB18128EA28
:102EC000E8721E01C91A871A1023120103EB0111BF
:102ED000286803EB07170BB231B212B23FB200976A
:102EE00006F034F900285FEA1F94CBF8000012E0E6
:102EF0004CF26030022102E04CF260300321C2F259
:102F00000E200160002406E04CF260300021C2F285
:102F10000E2001240160204601B0BDE8F08FD4D41A
:102F200070B5A2B04CF27040C2F20E200078A0B191
:102F30004CF27040C2F20E2008F00FFE68B141F270
:102F4000131140F6405241F224230446C0F20B21F3
:102F5000C0F20B22C0F20B2352E041F6E0216C4696
:102F6000C0F20B21882220460AF0EBF94CF27E35A4
:102F70004CF28036C2F20E25C2F20E262888318825
:102F8000ADF804004CF27040ADF80610C2F20E200D
:102F9000214608F006FC28B141F282130446C0F233
:102FA0000B2325E0288840F22C31C2F200210323B4
:102FB0003288888003EB40004FF6FC73CA801840CB
:102FC000886050434CF27832C2F20E2240F2000385
:102FD000C6F600030B6010604CF27040C2F20E2087
:102FE00008F02BFE90B141F223030446C0F20B23FC
:102FF00041F2131140F64052C0F20B21C0F20B22F5
:103000000020FFF7FDFA204622B070BD4CF274306C
:103010000021C2F20E200170017809B92FF005C01D
:103020000024F0E70078032818BF70474CF2743092
:103030000121C2F20E200170704700F0CDB80228C5
:1030400018BF704780B54CF2B04042F28811C2F20E
:103050000E20C0F20B2107F032FD0120BDE88040B8
:1030600009F0D6BD10B54CF2C84041F61051C2F27D
:103070000E20C0F20B2107F003FE044670B141F2AE
:10308000131141F2FD2240F66653C0F20B21C0F24B
:103090000B22C0F20B230020FFF7B2FA204610BD2E
:1030A000B0B54CF27C35C2F20E252978884208BFB3
:1030B000B0BD044600BF00BF2878012803D00A2015
:1030C000012109F0BAFC28788442F5D1B0BDF0B5F1
:1030D00081B04CF27C3640BAADF80200C2F20E2646
:1030E0004CF2C8400D46C2F20E200DF10201022240
:1030F00001230027377007F047FE68B141F2131132
:1031000040F6D83240F63E430446C0F20B21C0F2EE
:103110000B22C0F20B231AE00320FFF7C1FF4CF291
:10312000C8400122C2F20E2000232946377007F062
:1031300025FE90B141F2131140F6D83241F20E3320
:103140000446C0F20B21C0F20B22C0F20B23002078
:10315000FFF756FA204601B0F0BD0220FFF7A0FFAE
:103160000024F7E710B582B0020A8DF806004CF291
:103170007C308DF80520C2F20E208DF8071000215A
:10318000032201704CF2C840C2F20E200DF105017D
:10319000002307F0F9FD044678B141F2131141F222
:1031A000733240F63E43C0F20B21C0F20B22C0F254
:1031B0000B230020FFF724FA02E00320FFF770FF43
:1031C000204602B010BD28B14CF27C310079C2F229
:1031D0000E2108707047D4D4ADF5CA6D0020CDF82B
:1031E00044060DF2446009F01CFC9DF8473641F29C
:1031F000F03140F67B429DF845769DF84666C0F278
:103200000B21C0F20B220020CDE90067FFF7F8F98F
:1032100041F234610020C0F20B21FFF7F1F9FFF712
:1032200021FF40F64D71C0F20B2100F078FC0A201E
:103230004FF47A7109F001FCFFF73CFA40F668712F
:10324000C0F20B2100F06BFC41F60A204CF27E35F7
:10325000C0F20B204CF28034C2F20E25C2F20E24D2
:1032600001894089298020800A204FF47A7109F071
:10327000E4FBFFF755FE40F6DF61C0F20B2100F0E2
:103280004EFC0A204FF47A7109F0D7FBFFF7BBFB25
:1032900040B9FFF702FC40F6F4616420C0F20B2154
:1032A00000F03DFC0A204FF47A7109F0C6FB48F2A9
:1032B00000004FF49611C6F625000AF03EF844F2DD
:1032C00000004FF49611C6F638000AF036F840F2C6
:1032D00000004FF49611C6F64B000AF02EF82E8827
:1032E0000320002E4BD02788002F48D04CF2A0346A
:1032F00041F63C45C2F20E24C0F20B258422204642
:1033000029460AF01EF8286DB5F84820C0F30B4C8A
:103310006FF31F30B5F84A30504369890CFB03F254
:10332000EB89B0FBF7F0A4F848000133B2FBF6F0EC
:103330000131A4F84A00206D47EA064573406268EF
:1033400000F0F02025F0F02579402844206541EA7E
:10335000030022F08061000418BF01F180614CF28B
:10336000843C616041F6C041C2F20E2CC0F20B21D8
:10337000624691E8E900E9C20020CCF8144041F22D
:103380004201C0F20B2100F0CAFB0A204FF47A710F
:1033900009F053FBFFF71EFB002800F0718340F695
:1033A000E3430446C0F20B2341F2131140F61252DC
:1033B000C0F20B21C0F20B220020FFF721F941F2ED
:1033C000A5212046C0F20B2100F0A9FB0A204FF4F2
:1033D0007A7109F032FB40F25000C2F20020FFF790
:1033E0001FF941F2C211C0F20B2100F098FB41F22B
:1033F0005C010020C0F20B214FF00008FFF700F93C
:103400000A204FF47A7109F018FB40F2143041F6AB
:10341000C021C2F20020C0F20B2106F031FD40F6BF
:103420008571C0F20B2100F07AFB0A204FF47A710B
:1034300009F003FB4CF274344CF29C35C2F20E24BA
:10344000C2F20E2542F2091B44F2051A9FEDD38AFF
:103450009FEDD39A9FEDD3AA9FEDD3BA9FEDD3CA28
:10346000B6EE00DA02264FF47847012200BF00BF13
:1034700040F200004FF49611C6F6000002FB01096D
:10348000029200BF00BF00BF84F8008000BF00BFF1
:10349000207808B92FF005C02968002900F0CB82F8
:1034A0004FF49612484609F04CFFFDF7DAFB296805
:1034B0000491821C00214FF0800C00BF00BF00BFB0
:1034C0004FF41650059148434FF60001C0F21F011A
:1034D0004CF001E00840049908440790002510468C
:1034E000069200BF00BF00BFC5F3C911079A05F5DA
:1034F000167502EB410191F8A84191F8A91141EA32
:10350000042208925246DA46E3464FEAD40C4FEAC8
:103510000C23DC46D3469246089A01F01F01C2F301
:103520004512A3EBD403C1EB012103FB0BF3C2EB68
:10353000022201FB0BF102FB0AF28CEA934300F832
:10354000023C8CEA91418CEA125200F8012C00F8FE
:10355000031B0FF037C80599069A013102F5C072B6
:103560008029ADD10020FDF78CFBFDF785FB11AC68
:1035700040222146B0EE480A00F02AFB01462046D0
:10358000B0EE490A00F0C8FB01280390C0F24B825C
:103590004FF480614FF416724FF480634846FFF792
:1035A00082FA40B9FFF779FA40F621616420C0F24F
:1035B0000B2100F0B4FA11AC039D00BF00BF00BFA7
:1035C00094ED023A94ED000A23EE0A3A94ED034A90
:1035D00020EE0A0A94ED041A24EE0A4A207D23EE16
:1035E0000B3A0DF1240A20EE0B0A0895B0EE4D2A95
:1035F000A1EE0C2A94ED011A21EE0A1A24EE0B4AD0
:10360000BDEEC33ABDEEC00A13EE101A21EE0B1A3E
:10361000BDEEC44AD43110EE102A049141F6B8210F
:1036200014EE103AC0F20B21BDEEC11ACDE90632FC
:10363000D432059240F6DA5251F82030202150461B
:10364000C0F20B2211EE10BABCEEC20A8DED000AD8
:1036500009F094FF02255046BBF1110FDA46C8BFAE
:103660006FF0110509F07EFE83460120CDE9007060
:1036700005985146049A069BFFF78DFA40B9FFF76B
:103680000CFA41F213616420C0F20B2100F047FAFA
:103690000BEB4B0005EB0A038200079D2A4405F162
:1036A000D300591ED6320F33CDF80080FFF7A9FBA7
:1036B000089D40B9FFF7F1F940F63E616420C0F281
:1036C0000B2100F02CFA013D04F118047FF478AFCF
:1036D000FFF732FB40B9FFF7E0F940F64B516420A9
:1036E000C0F20B2100F01BFA002142F2091B44F248
:1036F000051A00BF00BF00BF01EB4100059111A9F1
:1037000041F6B82201EBC000B0EE4D2AC0F20B2208
:1037100090ED010A90ED041A20EE0A0A017DA1EE57
:103720000C2A90ED00EA09A820EE0B0A52F821308D
:1037300040F6DA522021C0F20B22BDEEC00A10EE94
:10374000104ABCEEC20A8DED000A09F017FF9DF881
:1037500024100220112CC8BF6FF01100002900F0C6
:103760005C812EEE0A0A2044089009AA20EE0B0A7A
:10377000BDEEC00A10EE100AD430079000BF00BFA3
:10378000A1F1300041F61A234928C0F20B2306921A
:1037900000F25D800FF21801D1E810F0CDCCCC3EE4
:1037A0006666E63E000016440000003C0000C84289
:1037B0005400A7009D00AC00B100C500A2008E001F
:1037C000B600CF00D400F200F200F200F200F200E6
:1037D000F200F200BB00D9009300F200F200F20008
:1037E000F200F200F200F200F200F200F200F20049
:1037F0009800F200F200F200F200F200F200F20093
:10380000F200F200F200F200F200F200F200F20028
:10381000F2007500F2007A007F00E800F200F2008A
:10382000F2008400F2006B00CA00F2008900DE00A2
:10383000C000F200ED00E30066006100F200F2005B
:10384000F200700041F62923C0F20B2398E02029F2
:1038500040F0968041F61F23C0F20B2390E041F622
:10386000AB23C0F20B238BE041F6A623C0F20B235F
:1038700086E041F28333C0F20B2381E041F6B023AE
:10388000C0F20B237CE041F66F23C0F20B2377E0FC
:1038900041F67423C0F20B2372E041F67923C0F2A3
:1038A0000B236DE041F68323C0F20B2368E041F661
:1038B0008D23C0F20B2363E041F64C23C0F20B23AF
:1038C0005EE041F66523C0F20B2359E041F66A231E
:1038D000C0F20B2354E041F63323C0F20B234FE038
:1038E00041F64723C0F20B234AE041F62E23C0F2F3
:1038F0000B2345E041F63823C0F20B2340E041F6AC
:103900003D23C0F20B233BE041F65123C0F20B23D1
:1039100036E041F65B23C0F20B2331E041F69723FA
:10392000C0F20B232CE041F64223C0F20B2327E028
:1039300041F68823C0F20B2322E041F65623C0F261
:103940000B231DE041F62423C0F20B2318E041F6BF
:103950006023C0F20B2313E041F69223C0F20B2345
:103960000EE041F6A123C0F20B2309E041F67E23CD
:10397000C0F20B2304E041F69C23C0F20B2300BFEE
:1039800018794FF0000C8DF84C061868CDF84806F1
:103990000DF5C960002410F80C50079800EB4C029C
:1039A00025FA04F0C00723D008984FF0010B00EB74
:1039B0004401002000BF00BF0844C3084A2B10D8B0
:1039C00046F001E009EBC02A002000BF00BF00BFA5
:1039D0001044B8EB902F08BF2AF8107001200FF0A8
:1039E00009C85FEACB704FF001004FF0000BE3D144
:1039F0000134072CD4D10CF1010CBCF1050FC7D157
:103A0000069A079842F2091B44F2051A12F8011FA0
:103A10000C30079009B12FF04DC905990398013179
:103A200081427FF469AE4CF274344CF29C35C2F2A0
:103A30000E24C2F20E2584F8008000BF00BF00BF34
:103A4000207808B92FF005C04CF270400022C2F275
:103A50000E20494608F008F940F2EE3188423FF462
:103A600013AD48B141F23531C0F20B2100F057F8E7
:103A70000AE500BF00BF00BF029A82F00102F7E42E
:103A80004CF29C40C2F20E20006868B14CF29C409F
:103A9000C2F20E2006F0D7FB30B140F68363044635
:103AA000C0F20B23FFF780BC43F208004221FFF76E
:103AB00059FB30B140F6E7330446C0F20B23FFF761
:103AC00073BC4CF29C404CF28431C2F20E20C2F224
:103AD0000E2106F00EFB30B141F6E3130446C0F2AE
:103AE0000B23FFF761BC4CF29C400021C2F20E2078
:103AF00006F011FC30B140F68D530446C0F20B23A2
:103B0000FFF752BCFEF73FFF30B141F2A01304466D
:103B1000C0F20B23FFF748BC0024FFF750BC00287D
:103B200046D010B504460020FEF76AFD4CF29C40DA
:103B3000C2F20E200068A8B14CF29C40C2F20E20E6
:103B400006F081FB70B141F2131140F69C4240F641
:103B50000863C0F20B21C0F20B22C0F20B2300203D
:103B6000FEF74EFD4CF2C840C2F20E20C068A8B16C
:103B70004CF2C840C2F20E2007F011F970B141F2C8
:103B8000131140F69C4241F2AA03C0F20B21C0F28D
:103B90000B22C0F20B230020FEF732FD40F69D7190
:103BA0000020C0F20B212246FEF72AFD00BE10BD08
:103BB00070470168012909D1017A890658BF704709
:103BC0004CF29C31C068C2F20E2108607047704709
:103BD00000284FF0000C00F09980002900F096803A
:103BE000012AC0F293802DE9F04F81B02DED088BB2
:103BF00082B042F29B4BA2F101094FF0000884EF22
:103C000053269FED431A4FF03A0AC3F60A4B80EF52
:103C1000504000274FF0000C01F12803019300BF32
:103C200007EB8703034493F904603A3606EE106A03
:103C3000B8EEC66A26EE016AB4EE406AF1EE10FAFA
:103C40005AD493ED008F29EE4A8FBBFF488639EE98
:103C50006B8E08FF528D39EE031F33FE09AF39EE2C
:103C6000CF1F35FE0B8FB4EE489AF1EE10FA43D910
:103C7000F4EE689AF1EE10FA3ED9944508DA0CEBAE
:103C80004C030CF1010401EBC3066346A44626E095
:103C9000022A18D349F001E000230125019E00BF4C
:103CA00003EB430496ED007A183601EBC404D4ED1F
:103CB000040AB4EE607AF1EE10FA55EA4383013556
:103CC0000FF013C000E0002303EB430601EBC60630
:103CD00096ED047AB4EE476AF1EE10FA0CDD86ED4B
:103CE000009F86ED046A03EB430301EBC303C3F8B3
:103CF000148000BF00BF00BF0137B7F5A87F8FD188
:103D000002B0BDEC088B01B0BDE8F04F60467047D3
:103D10009B240A3CD4D4D4D42DE9F04F89B0002898
:103D20004FF0000800F0E6800129C0F2E380B7EE12
:103D3000001AB4EE410AF1EE10FAB5EE400A31FE77
:103D4000001A9FED6E0AF1EE10FA48BFB0EE401A6D
:103D50000229009145D3009900F1280B8A1E0139F0
:103D60004FF0000CCDE90112A1EB0C0EE2460CF174
:103D7000010C5B466646554605EB450793ED002A68
:103D8000183300EBC70797ED043AB4EE432AF1EE7F
:103D900010FA56EAC58501360FF013C055451CD000
:103DA0000AEB4A0303AA05EB4507644600EBC30E82
:103DB000734600EBC70793E8621382E86213394643
:103DC000A446B84691E8FC0003A98EE8FC0091E8FF
:103DD000FC0088E8FC00DDE9011292450BF1180BAC
:103DE000C2D100F10C0C4FF000094FF00008DDF8D3
:103DF00000B000BF00BF00BFB8F1010F09EB490ED2
:103E000067DB00EBCE0466464746257D00BF00BF5A
:103E1000317A8D4259D194ED002A16ED033AB4EE71
:103E2000432A94ED014AF1EE10FA16ED025A94ED90
:103E3000027AB4EE454A16ED016A72FE032AD4ED09
:103E4000030AF1EE10FAB4EE476AD6ED001A74FEDA
:103E5000053AF1EE10FAF4EE601A77FE064AF1EE3A
:103E600010FA74EEE22AF0EE404AF5EE402A70FEB7
:103E7000A15AF1EE10FA23D975EEE33AF0EE404A7A
:103E8000F5EE403AF1EE10FA1AD937EE422A36EE44
:103E9000433A31EEC55A30EEC44A23EE053A02EEFB
:103EA000043A22EEA32AF0EE404A33EE423A82EE82
:103EB000032AB5EE403AF1EE10FA88BFF0EE424A1E
:103EC000F4EE414AF1EE10FA0FDC013F06F118065C
:103ED0009ED108EB480108F1010800EBCE0700EB8A
:103EE000C10A97E87E008AE87E0009F10109D945F8
:103EF0007FF482AF404609B0BDE8F08F00000000BB
:103F000080B5FFF79AF8002080BD2DE9F04F83B00F
:103F10000C9E0446002E4FF0000000F042828B46BB
:103F20000D990129C0F23D82951922F00F00ADF8DC
:103F3000040023F00F00ADF80600681E5E1820F0A4
:103F40000F00ADF80800701E20F00F00ADF80A0059
:103F500001A920469946174605F051FCC0B1A5F1CC
:103F60001000A6F110010FFA80FA20460FFA81F82E
:103F7000594604F055FD9BF8D50081074FEAC07003
:103F800008D4002840F0F98001AA00230020E0E1D5
:103F9000002006E2002840F0F0804AEA070048EAE4
:103FA000090100074FEA017100F0FE81BDF904002C
:103FB00000254FF48033CFF6FF75C01BD4E96E7235
:103FC0000029A2F1010103EB003307F10800C4F856
:103FD000B8014FF00406C7E90063C4F8BC1100F053
:103FE0005082012A05DCD4F8C01120468847D4E964
:103FF0006E0100F1080201394FF00A034FF48037D7
:10400000C0E90037C4E96E2105DCD4F8C0112046B0
:104010008847D4E96E2102F1080001394FF01003FE
:104020004FF00007C2E90037C4E96E0105DCD4F89F
:10403000C01120468847D4E96E01BDF904204FF431
:1040400080330527AAEB020203EB023300F10802DA
:10405000C0E90073481EC4E96E2005DCD4F8C01125
:1040600020468847D4E96E2002F108010B23C2E9FB
:104070000035421EC4E96E1205DCD4F8C01120469A
:104080008847D4E96E1201F1080011230027C1E925
:104090000037511EC4E96E0105DCD4F8C01120467A
:1040A0008847D4E96E01BDF906204FF48033062716
:1040B000A2EB090203EB023300F10802C0E900732E
:1040C000481EC4E96E2005DCD4F8C011204688479C
:1040D000D4E96E2002F108010C230027C2E9003761
:1040E000421EC4E96E1205DCD4F8C0112046884790
:1040F000D4E96E1201F108004FF48036013A4FF016
:104100001203C1E90036C4E96E0205DCD4F8C0111F
:1041100020468847D4E96E02BDF90610013A4FF0F7
:104120000707A8EB010106EB013300F10801C0E924
:104130000073C4E96E1205DCD4F8C011204688472C
:10414000D4E96E1201F108000D230027C1E9003700
:10415000511EC4E96E0105DCD4F8C0112046884721
:10416000D4E96E0100F108021323C0E90035481EAE
:10417000C4E96E2040F3E680E8E0BDF904000426BF
:10418000C11BDBF810014143D4E96E3700EB11127B
:1041900003F10801C3E900627B1EC4E96E1307DC6A
:1041A000D4F8C01120468847DBF81001D4E96E131B
:1041B00001F108020A27C1E90070591EC4E96E2105
:1041C00005DCD4F8C01120468847D4E96E2102F1FD
:1041D000080010230027C2E900374B1EC4E96E0314
:1041E00005DCD4F8C01120468847D4E96E03BDF938
:1041F0000410DBF810210526AAEB0101514302EB64
:10420000111700F10801C0E90067581EC4E96E10DB
:1042100007DCD4F8C01120468847DBF81021D4E928
:104220006E10534201F108020B27C1E90073411ED1
:10423000C4E96E2105DCD4F8C01120468847D4E9D2
:104240006E2102F1080001394FF011034FF0000711
:10425000C2E90037C4E96E0105DCD4F8C01120467C
:104260008847D4E96E01BDF90620DBF81031062736
:10427000A2EB09025A4303EB121200F10803C0E952
:104280000072481EC4E96E3005DCD4F8C011204627
:104290008847D4E96E3003F108020C210027C3E9F6
:1042A0000017431EC4E96E2305DCD4F8C011204674
:1042B0008847D4E96E23DBF8101102F108001227B9
:1042C000C2E900715A1EC4E96E0207DCD4F8C011BD
:1042D00020468847DBF81011D4E96E02BDF906309C
:1042E000013A4FF00707A8EB030301FB03F301EBCF
:1042F000131300F10801C0E90073C4E96E1205DC74
:10430000D4F8C01120468847D4E96E1201F10800A4
:104310000D230027C1E90037511EC4E96E0105DCF9
:10432000D4F8C01120468847D4E96E01DBF810218B
:104330000139C2F100024FF01303E0E80232C4E990
:104340006E0103DCD4F8C0112046884701AA04237B
:104350000F2000902046594601F096FF01AF064617
:104360000023204659463A46002503F065FF002306
:10437000204659463A4605F02AF8D4E96E0100F184
:104380000802C0E90056481EC4E96E2003DCD4F8D8
:10439000C0112046884701A90022204604F0A3FD51
:1043A000012003B0BDE8F08F00293FF4EDADBDF969
:1043B00006004FF48031D4E96E230427A0EB0900F6
:1043C00001EB003102F10800C2E900715A1EC4E994
:1043D0006E0205DCD4F8C01120468847D4E96E028D
:1043E00000F10801013A4FF00A034FF00007C0E95D
:1043F0000037C4E96E1205DCD4F8C01120468847A6
:10440000D4E96E1201F108004FF48036013A4FF002
:104410001003C1E90036C4E96E0205DCD4F8C0110E
:1044200020468847D4E96E02BDF90610013A4FF0E4
:104430000507A8EB010106EB013300F10801C0E913
:104440000073C4E96E1205DCD4F8C0112046884719
:10445000D4E96E1201F108000B230027C1E90037EF
:10446000511EC4E96E0105DCD4F8C011204688470E
:10447000D4E96E01002700F108021123CFF6FF777F
:1044800057E0012A05DCD4F8C01120468847D4E95A
:104490006E0100F1080201394FF00A034FF4803732
:1044A000C0E90037C4E96E2105DCD4F8C01120460C
:1044B0008847D4E96E2102F1080001394FF010035A
:1044C0004FF00007C2E90037C4E96E0105DCD4F8FB
:1044D000C01120468847D4E96E01BDF904204FF48D
:1044E000803301394FF00507AAEB020203EB0233D8
:1044F00000F10802C0E90073C4E96E2105DCD4F8BC
:10450000C01120468847D4E96E2102F10800013924
:104510004FF00B03C2E90035C4E96E0105DCD4F8A5
:10452000C01120468847D4E96E0100F1080211232A
:104530000027C0E90037481EC4F8B821C4F8BC0100
:1045400003DCD4F8C0112046884701AA02230320C7
:10455000FFE680B582B094460A46DDF810E0816A35
:10456000CDE9003E6346FFF7D0FC002002B080BDDD
:10457000B0B582B0B0F86EC0B0F870E0069D8C4463
:104580000EEB02040FFA8CF2C16A0FFA84FCCDE93B
:1045900000356346FFF7B9FC002002B0B0BD2DE93D
:1045A000F04F89B0B0F96C70012F6ADB0446994670
:1045B00090460D46102FDDF848A0C16A2BD1A8EB1C
:1045C0000703E81B1EB20AEB470C02B22046334633
:1045D0000FFA8CFBCDE9007BFFF797FCE16A2046E0
:1045E0002A463346CDE90097FFF78FFC09EB05001B
:1045F000E16A02B220463346CDE9007BFFF785FC35
:104600000AEB0800E16A03B220462A46CDE900978A
:10461000FFF77BFC35E091F8D700012807D1B1F90D
:10462000D800B84203DD91F8D500C007C7D0B8B2B2
:1046300009EB05064008A8EB00032A1A083B0838D6
:10464000ADF81630ADF81A300AEB0803083AADF8A9
:10465000142006441844ADF81E00ADF82020ADF833
:10466000220000200422CDE900270023029205AA9F
:10467000CDE903002046ADF81860ADF81C6003F0EA
:104680009BFE002009B0BDE8F08F2DE9F04182B01B
:104690001D4616460F460446DDF82080CDF8008002
:1046A000FFF77DFF204604F059F9A7F11000A6F1AD
:1046B000100305F1200708F12002A16A16B202B228
:1046C0001BB238B2CDE900062046FFF71EFC20469B
:1046D00004F090F9002002B0BDE8F0812DE9F0412E
:1046E00082B004461546B0F86E000E46B4F870204D
:1046F0001F463044E16A531902B21BB22046DDF86E
:104700002080CDE90078FFF700FC204604F026F970
:10471000A16A204632462B46CDE90078FFF7F5FB2B
:10472000204604F067F9002002B0BDE8F081D4D43F
:10473000F0B581B004464FF4BE7003F00AFD0546A3
:10474000002800F0818048A343A287FF5F006FF03C
:104750007F40C5E9020093ED003F47A34FF07F4142
:1047600085ED100F05F1D406002792ED001F6C6057
:10477000C5F84C11C5E954111021606DD4F88020A2
:1047800085ED4A3F120140F2080293ED003F3EA33F
:10479000C2F2400285ED443F93ED003F3EA385ED1C
:1047A000160F85ED313F93ED003F86ED002F86ED2E
:1047B000380F80EF500085ED4F1F58BF4FF4800237
:1047C0001043A98240F40020042140F4B050C5E910
:1047D00048204020C5F8D80005F11C0085F8E910F4
:1047E000C5E93F77C5E9417701F049FD05F134009E
:1047F00001F045FD05F14C0001F041FD05F16400BB
:1048000001F03DFD05F17C0001F039FD05F194005A
:1048100001F035FD05F1AC0001F031FD22A00C21C5
:1048200085F8E810294690ED001F4FF0FF30C5E9EC
:104830003770C5F83801204686ED100F04F0F6FCFD
:10484000E0692860E56100E0012784F8C671284628
:1048500001B0F0BD00BF00BF01000000000000007B
:104860000000000000000000000000000000080040
:104870000000010000C0030000000100AA000000C9
:104880000000010000160000AA0000000400000063
:104890000000000010000000010000000200000005
:1048A0000100000001000000010000000300000002
:1048B0000300000003000000B0B50446006A814216
:1048C00025D00D4604F11C0119B308460968A94218
:1048D000FAD129680160606AA84201D1206A606249
:1048E000E06AA84201D1206AE062A06AA84201D130
:1048F000206AA062D5F8080120B107F00FFE002061
:10490000C5F80801284603F026FC002002E0072035
:1049100000E0032084F8C601B0BD0346406A00EB06
:10492000810C22F07F4290F80E11CCF8082041F063
:10493000010180F80E110020002183F8C611704794
:10494000B0B5D0F824E003299EF80EC14CF0010365
:104950008EF80E310ED8032A0CD84EF68833C0F2EA
:10496000002353F82110DFE802F0020C070A41F49B
:10497000805106E010211BE041F4806101E041F428
:10498000A051DEF82C21436DDEF820C1DEF83C5149
:104990001A43DEF8403142EA0C02DEF844412A4371
:1049A000CEF81C111A4322431143CEF824110021E2
:1049B00080F8C6110846B0BDD0F84C11027C437C8B
:1049C000090A6FF07F4C01FB02C201FB03C190F8A2
:1049D0000E3102F07F4201F07F41C0E9542103F023
:1049E000FD0180F80E1170472DE9F04F85B004925B
:1049F000044691F8D500DDF844E0DDE90E89109E0B
:104A0000C007A3EB090AA8EB090B34D10FFA8BF10D
:104A10000FFA8AF252EA010040F20000CFF6C070AD
:104A200000F08B801FFA89F790FBF9FC02FB02F083
:104A300009EBD73711FB01003FB2114410228CFB68
:104A400000054FEAEC0AA2EB430350EADF25A2EB94
:104A500048020AFB03F301EB57010AFB02F7DD17DB
:104A6000A0EB0132F81703EB157107EB10700F1173
:104A70004FEA2018B0E0CDE90236129818B194F848
:104A8000830040076CD44FF07840B1F91420CDF882
:104A90000480D1F8108190FBF9F0D3177546C71741
:104AA00050EA0F27394608F01BFB1AFB0AF21FFADF
:104AB00089F31BFB0B22AE4609EBD333120A0FFA24
:104AC00083FCA0FB02750FFA8AF701FB025507FA77
:104AD0008BF701FB02F307EB6C07EE17FD17360FA0
:104AE000E0FB0263A7FB082756EA2F1305FB0875B6
:104AF00052EA0F15B21A4FEAE176AB41DF1712EB1B
:104B00001762019F43F1000310EB165A41F10001B7
:104B10005AEA1F310299102052EA1F23A0EB4101EB
:104B2000A0EB470001FB0AF100FB0AF0CF17C51705
:104B300001EB177100EB15704AE000F5601090FB77
:104B4000F9FA1020A0EB49000AFB00F0C11700EBB6
:104B5000117000214FEA2018A1EBC92247463BE023
:104B60004FF07840B1F914201AFB0AF31FFA89F5C7
:104B700090FBF9F01BFB0B3309EBD53580010FFAE5
:104B80008AFC1F0A2DB290FBF2F2D1F8101182FBC1
:104B900007034FEA221A180F0023C2FB07030CFA7F
:104BA0008BF707EB5507029A79431027A7EB4202D0
:104BB00050EA2F130AFB02F5A7EB48020AFB02F3A7
:104BC000A0EB8102EF17D81705EB177103EB1070FC
:104BD0000F114FEA2018039EDDF81090BEF1000F70
:104BE00009F10401324458D0D4E96E35524203F140
:104BF0000800C3E900126A1EC4E96E0205DCD4F89D
:104C0000C01120468847D4E96E0200F10801013A3C
:104C100009F10503C7F10007C0E90037C4E96E12C6
:104C200005DCD4F8C01120468847D4E96E1209F19A
:104C30001003C8F1000701F10800C1E90037511E57
:104C4000C4E96E0105DCD4F8C01120468847D4E9D8
:104C50006E01002209F10B03A2EB4A0500F10802E4
:104C6000C0E90035481EC4E96E2005DCD4F8C01147
:104C700020468847D4E96E20013809F1110102F17C
:104C80000803C2E90015C4E96E3056DCD4F8C0113F
:104C9000204605B0BDE8F04F0847D4E96E3503F172
:104CA0000800C3E900126A1EC4E96E0205DCD4F8EC
:104CB000C01120468847D4E96E0200F10801013A8C
:104CC00009F10503C0E90037C4E96E1205DCD4F828
:104CD000C01120468847D4E96E1209F1100301F192
:104CE0000800C1E90038511EC4E96E0105DCD4F8A2
:104CF000C01120468847D4E96E0109F10B034FEA41
:104D00004A0500F10802C0E90035481EC4E96E20DA
:104D100005DCD4F8C01120468847D4E96E2002286B
:104D200009F1110102F10803C4F8B831C2E9001514
:104D3000A0F10100C4F8BC01A8DB05B0BDE8F08F0C
:104D4000F0B581B00646856914200F4603F001FADC
:104D5000044600284FF000002AD0C4E9027007EB97
:104D6000870196F868008900C00703D1304603F038
:104D700020FA02E0084603F0ECF901466060A0B1B9
:104D80000027276196F86800C00717D1D6F884007D
:104D9000C2060FD4800711D5A068042100EB800063
:104DA0008200284607F0BEFB07E0204603F0D3F957
:104DB000002404E0284607F0BDFB20612760204660
:104DC00001B0F0BDD4D4D4D441B3F0B581B00C4619
:104DD0000546866900BF00BF95F868002746D4E9FC
:104DE0000041C00704D1284603F006FA03E000BFE3
:104DF000084603F0B0F93A693AB195F884008007A3
:104E000003D50421304607F090FB384603F0A3F9A0
:104E10000CB12FF01FC801B0BDE8F040704710B5CD
:104E200004468068006830B92068216AFFF788FF6F
:104E300048B1A16808600021C160D0E90112216178
:104E4000E261A06010BD2068152180F8C71110BD77
:104E5000F0B581B0C76F0C460546002F4FF000003B
:104E600048610D6038D038686060202003F071F927
:104E7000606178B30646B868800003F06AF9306074
:104E800040B3D7E901237360D5F8881072615143AC
:104E9000B16043F00BC80020002200BF00BF00BF7C
:104EA0003368985004320FF005C8306801EB810177
:104EB000F060A8698A00042107F034FB31680860BB
:104EC0003068006830B1306170687169C6E90610F9
:104ED000606806E0002636E028461146FFF730FFFE
:104EE00060604FF00006E06068B3A060D0E90101A7
:104EF00020611020A0864020C4E90661C4E90A664A
:104F000003F027F92063F0B1616911B109680D68F8
:104F10000BE095F8841011F0120F616804D00D6950
:104F2000002D08BF4D6800E04D68B4F93410012928
:104F300002DB890008F001FA002021462A46E086BB
:104F400000F011F80126304601B0F0BD10B50C4656
:104F5000B1F93410012903DB206B890008F0EDF969
:104F60000020E08610BDF0B581B0B1F93670B1F91E
:104F700034000C461546411EB942266B14DC80B243
:104F800001221030A08601B28800314603F0E8F813
:104F9000B4F93410064620638F4205DAC91B06EBCC
:104FA0008700890008F0C9F906EB870046F827500A
:104FB000791CE18601B0F0BD70B541690446006816
:104FC000D1B14A688AB18569002600BF00BF00BF21
:104FD000086850F8262022B10421284607F0A5FAD7
:104FE0006169486801368642F2D3086803F0B3F875
:104FF000606903F0B0F802E06168FFF7E5FE206B3E
:1050000018B1BDE8704003F0A6B870BD2DE9F047B7
:1050100082B0456904465DB1E069A969002837D0CE
:10502000012940F0D08020680121D0F8188067E085
:10503000206948F23201C8F280010160002125692F
:10504000A06845F8041FC56040F2FF30686005F1B4
:1050500008002061E069A1610138E0612046FFF7A6
:10506000DEFE206890F8C70100286DD0A169206994
:105070000329A0F10C02226100F2A080DFE801F018
:10508000028D788340F2FF3140F80C1C083894E020
:1050900020680229D0F8188032D3A768D5F810907C
:1050A000B8687E68FB6800EB8001206906EB81022E
:1050B00009EB810A1BB1C3F800A00023FB609042FA
:1050C0000ED28900021D3144914251EA82816FF073
:1050D0000302411A22EA01018022043108F028F972
:1050E000B8684946324600EB8000830010200090EB
:1050F000404607F023FAA869C5F810A00138AFE0D0
:10510000EA69022A17D3EE68A768511EE96156F8CA
:10511000040F50B9A868042100EB800082004046CB
:1051200007F000FA0028306050D0F96881B10860BB
:105130000020F8604EE0002900F09380012A04BFAF
:10514000152180F8C7118CE0A068406828603AE01B
:10515000216948F23202C8F280020A60A16822691D
:1051600042F8040FCA60101D20610020A06131E0E8
:105170000021C8F28001090C20F80A1C40F2FF311E
:1051800040F8041B19E0802100F8091C226940F254
:10519000FF31416002F114000FE048F2000250F8C4
:1051A0000C1CC0F2800262F31F2141F4004140F860
:1051B0000C1C40F2FF3140F8041C20610020A0616B
:1051C000E0690138E06102B0BDE8F08720680121A4
:1051D00080F8C711A16903292BD82069DFE801F005
:1051E000021A071140F2FF3140F8041B20E00021B1
:1051F000C8F28001090C418040F2FF31C1601030DB
:1052000016E08021C170226940F2FF31016102F194
:1052100014000DE048F200020168C0F2800262F35F
:105220001F2141F40041016040F2FF3181600C30E8
:105230002061A068E1690023A361D0E90120013960
:10524000E161296900EB8000830010200090404656
:1052500007F074F9306820B1EE6030682861686941
:10526000A861204602B0BDE8F047FFF7D8BDD4D40E
:10527000B0B58469032C1FD840F2000C0169C8F254
:10528000800C0CF500434FF0080EFF22DFE804F01D
:10529000190E02084FF00C0E4FF6FF72634605E040
:1052A0004FF0100E4FF000436FF07F420D682A4020
:1052B0001A430A607144016100218161C1690139A9
:1052C000C161B0BD10B50446006890F86810890649
:1052D00004D400F5BC703B2108F02FF861696068C8
:1052E000C4E9020039B1D1E90023CA6012680A6139
:1052F0004A69C1E90623D0E901010022C4E9062177
:105300002061E26210BDD4D4F0B581B005460868D2
:1053100016460C4600F094F8A16903292BD82069A1
:10532000DFE801F0021A071140F2FF3140F8041BD8
:1053300020E00021C8F28001090C418040F2FF31D9
:10534000C160103016E08021C170226940F2FF3147
:10535000016102F114000DE048F200020168C0F2A0
:10536000800262F31F2141F40041016040F2FF31ED
:1053700081600C3020610020A061E86FE1690028A5
:10538000A1F10100E06115D1A168086880B1A26AAD
:105390000132A2623C2A0DD10F460146006808B1D5
:1053A0002FF007C02068FFF70FFD0020386000E0F5
:1053B0000020A062606990B14EB3206800F012FC3A
:1053C000A168E369D1E90121C91A636901EB810789
:1053D0001969BB000027009707F0B0F811E0D5F875
:1053E0008400810705D4C00607D4204600F068F980
:1053F00006E0204600F0FCF802E0204600F02CF920
:105400002EB12046FFF75EFF0020606215E000200D
:10541000E0612046FFF7FAFD6169A068E06009B12C
:1054200008690AE095F8841011F0120F04D00069A1
:10543000002808BF206900E0206901B0F0BDD4D485
:105440002DE9F04F81B08046C56890F86810D0E92A
:105450006D60821B89064FEAE20729684CD4B0428E
:10546000AC69CDF8008000F0B78042F2B61B01F1C4
:105470008C0901F5BC7A2869C0F20B2B4FF00108AA
:10548000296891F8C711002940F0A680D6E90021CB
:105490001BF8023053B11AF802301BB159F8223010
:1054A0008B4211D00AF8028049F8221000EB8403E5
:1054B0000255E24359609207E96A01F10101E9628C
:1054C0000AD0611C01F00304013F06F10806D7D1A0
:1054D00082E000BF00BF00BFE969286901391430CC
:1054E00001294FF000042861E961EDD82846AC613C
:1054F000FFF78CFD2869E7E791F8C711AA69EB6A05
:10550000002903EB0701E96269D122B3B04266D0FA
:105510002869011D00BF00BF1346013FF6E80224C1
:10552000C25441F8234006D003F003025C1C032A56
:1055300004F00302F0D1D843800750D10020A861C5
:10554000E86929690138143101282961E86102D824
:105550002846FFF75BFDBC0826D000BF00BF00BF98
:10556000286890F8C701F8B9286931680170B168F6
:10557000417031698170B169C17071684160F168D1
:1055800081607169C160F1690161E8692969013867
:10559000143101282961E86102D82846FFF736FD59
:1055A000013C06F12006DBD117F0030017D000BF45
:1055B000296891F8C71191B9A9692A69F6E80274B6
:1055C000013802EB8103575401F101015C6001F0E5
:1055D0000301A961ECD102E0AC61DDF80080D8F8EC
:1055E000B4014021C8E96E0101B0BDE8F08FD4D408
:1055F0002DE9F04182B08046006890F86810C90734
:1056000027D1D8E902768569BE4214D0002400BFB4
:10561000306818B1F16809B100690860D6E9012065
:105620003169009400EB80008300284606F086FF75
:105630003668BE42ECD1D6E90120D8F81C10401AD9
:10564000316900EB8000830000200090284606F0BE
:1056500075FF02B0BDE8F081F0B581B00446006886
:1056600090F86810C90727D1D4E902768569BE424F
:1056700014D000BF00BF00BF306818B1F16809B195
:1056800000690860B0683269042100EB8000830083
:10569000284606F05BFF3668BE42EDD1B068E1698E
:1056A000401A3269042100EB80008300284601B0D3
:1056B000BDE8F04006F04ABF01B0F0BDD4D4D4D468
:1056C000F0B581B00446006890F86810C90721D190
:1056D000D4E902768569BE420ED000BF00BF00BF8C
:1056E000D6E90120042100EB80008300284606F063
:1056F0002DFF3668BE42F3D1D6E90120E169401A98
:10570000042100EB80008300284601B0BDE8F04092
:1057100006F01CBF01B0F0BD2DE9F0410C468569D3
:105720004FF0000800BF00BF276817F0803F07D088
:10573000B7F1803F38D10434F6E700BF00BF00BFA7
:1057400007F07F0662682846314600F006FF202EEB
:1057500002D1284600F008FFC7F30626A2682846B3
:10576000314600F0FAFE202E02D1284600F0FCFE61
:10577000C7F30646E2682846314600F0EEFE202ECA
:1057800002D1284600F0F0FE3E0E2269284631463E
:1057900000F0E3FE202E02D1284600F0E5FE14348E
:1057A000C2E700BF00BF00BF380414D4380221D4C0
:1057B000B7F1FF3FFEB241DDFF2EBCD1C7F3062893
:1057C000B8F1040F02D0B8F1020F5BD128460434BF
:1057D00000F0CAFEA8E7FEB2322E53D06268284617
:1057E000314600F0BAFE202E02D1284600F0BCFE61
:1057F000083499E7FEB2C7F30627FF2E08D1022F1F
:1058000041D12846043400F0AFFE4FF002088BE788
:1058100062682846314600F0A0FE202E02D12846BC
:1058200000F0A2FEA2682846394600F096FE202F1E
:1058300002D1284600F098FE0C3475E762682846CD
:10584000314600F08AFE202E02D1284600F08CFE60
:10585000C7F30626A2682846314600F07EFE202EB9
:1058600002D1284600F080FEC7F30646E2682846CB
:10587000314600F072FE202E02D1284600F074FE60
:10588000103451E747463846BDE8F081B0B50446CC
:10589000FFF7D6FDE0688269032A2BD80169DFE8AB
:1058A00002F0021A071140F2FF4241F8042B20E0F7
:1058B0000022C8F28002120C4A8040F2FF42CA6005
:1058C000103116E08022CA70036940F2FF420A617B
:1058D00003F114010DE048F200030A68C0F28003EE
:1058E00063F31F2242F400420A6040F2FF428A60E2
:1058F0000C310161C16900250139C0E90651012956
:1059000001D8FFF783FB002084F8C651B0BDD4D482
:10591000B0B50446FFF794FDE0688269032A2BD8EE
:105920000169DFE802F0021A071140F2FF2241F894
:10593000042B20E00022C8F28002120C4A8040F2C0
:10594000FF22CA60103116E08022CA70036940F25B
:10595000FF220A6103F114010DE048F200030A6816
:10596000C0F2800363F31F2242F400420A6040F257
:10597000FF228A600C310161C16900250139C0E94B
:105980000651012901D8FFF741FB002084F8C651D8
:10599000B0BDD4D4D4D4D4D470B505464FF4EA7095
:1059A00002F0D7FB0446002850D029A0A5660026A7
:1059B000A4F8C66190ED001F2046C4E9066684ED98
:1059C000121FFEF7B5FEC4E908006906A062E06296
:1059D0004FF0000002D4702002F0BBFB206304F102
:1059E0003400142184F8C66184F8C46107F0A5FC72
:1059F00001206066201D142107F09FFC3320C4F8AD
:105A0000880015F0040F4FF0040050EA1090A4F83D
:105A10007860C4E91B662907666740F2271148BF12
:105A200000F00100C4E9170604F18C0084F8C86195
:105A3000C4E91F6607F081FC4CF208510820C2F24D
:105A40000E2184F8C501086820600C60204670BDF6
:105A50000200000000000000000000000000200024
:105A6000B0B50446806920B1204600F02DF8054607
:105A700000E000254CF20851C2F20E2100BF00BF29
:105A8000F9B108460968A142FAD1E16922680260C9
:105A90004FF00000206231B12046FEF70DFFE169B2
:105AA00009B12FF007C8E06F08B102F054FB206B7A
:105AB00008B102F050FB00202063204602F04BFBAF
:105AC00000E002252846B0BDB0B50446806930B379
:105AD000E06F30B101680022086802602046FFF7DD
:105AE00073F9D4E904150020C4E9040011B120467B
