:020000040200F8
:10000000A0C3002269EC000251EA000273EC000276
:1000100073EC000273EC000273EC000273EC00025C
:1000200000000000000000000000000073EC00026F
:1000300073EC00020000000073EC000273EC00029D
:1000400073D1000249D30002B1D4000299D5000255
:1000500029BC00026FC80002EFC80002CFC900022D
:10006000E1DE000263DF0002B7DF000279B70002C1
:1000700035E400029FC20002B9C1000225C300029C
:1000800077C300029FC20002B9C1000225C300026B
:0400900077C3000230
:1000A0003D500000AAAA3200FFFFFF0008304200C6
:1000B0000331130003310300003000000430FF005F
:1000C00002301C000630C3000E3045002E30080000
:1000D000343018001F500000004332001836000072
:1000E00012362900093752000C370300203840002F
:1000F000213801003036360031360E003236E2004B
:10010000333612002136E0000437A00003375A00CE
:1001100015377800173701000B37600005371A00D4
:10012000053902000639100001390A003137120082
:1001300000360800013633002D30600020365200B2
:100140001B3720001C475000133A4300183A0000A8
:10015000193AF800353613003636030034364000BD
:1001600022360100014002000440020005401A004E
:100170000150A30003350700003500000135FF00E2
:10018000023500000A3500000B3520000F3A300020
:10019000103A28001B3A30001E3A2600113A60003F
:1001A0001F3A1400183A0000193A7C000634000087
:1001B00000340700013470000234040003340000EE
:1001C000043405000534C000805401008154080047
:1001D00082541400835428008454510085546500CF
:1001E0008654710087547D0088548700895491009B
:1001F0008A549A008B54AA008C54B8008D54CD00B8
:100200008E54DD008F54EA0090541D008055060086
:100210008355400084551000895510008A55000010
:100220008B55F800005823000158140002580F00A5
:1002300003580F00045812000558260006580C00F9
:100240000758080008580500095805000A58080012
:100250000B580D000C5808000D5803000E580000F4
:100260000F580000105803001158090012580700D9
:1002700013580300145800001558010016580300C5
:100280001758080018580D00195808001A5805008A
:100290001B5806001C5808001D580E001E58290047
:1002A0001F5817002058110021581100225815001E
:1002B00023582800245846002558260026580800B0
:1002C0002758260028586400295826002A58240058
:1002D0002B5822002C5824002D5824002E5806009C
:1002E0002F58220030584000315842003258240024
:1002F000335826003458240035582200365822003E
:100300003758260038584400395824003A582600F7
:100310003B5828003C5842003D58CE000050A700F2
:1003200020384600213800001438310015383100DB
:100330000338040008380400093800000A380200B5
:100340000B3858000C4622003748100024380200B1
:100350000150A3003D50000041470000FFFFFF0097
:10036000FF00000058CC0E2200000000000000003A
:100370002403002200000000000000000000000034
:100380000009006800045802000400000200000098
:1003900000000000000000000000000000FF00005E
:1003A00010400000000000000000000000000000FD
:1003B0000000080000000000000000000000000035
:1003C0000000100800000000000000000000000015
:0203D000010129
:1003E0002DE9F04385B018461546884601240821BA
:1003F000202220230C9E4FF0000C18278DE8D000FF
:10040000CDF80CC04FF008090EF0F6FD08212022AF
:10041000202328460094CDF80C90CDE901670EF01A
:10042000EBFD0821202220231020039040468DE878
:10043000D0000EF0E1FD05B0BDE8F0832DE9F047F6
:1004400084B01E4690468946DDE90C071021102233
:1004500010234FF0000C40240125CDE900574FF048
:10046000100A0294CDF80CC00EF0C6FD1021102227
:10047000102330460095CDF80CA0CDE901740EF0A4
:10048000BBFD202003901021102210234846009528
:10049000CDE901740EF0B0FD1021102210233020A0
:1004A00003904046CDE9005702940EF0A5FD04B03C
:1004B000BDE8F0872DE9F04784B01E469046894696
:1004C000DDE90C072021082208234FF0000C8024CE
:1004D0000125CDE900574FF0200A0294CDF80CC059
:1004E0000EF08AFD20210822082330460095CDF821
:1004F0000CA0CDE901740EF07FFD40200390202177
:100500000822082348460095CDE901740EF074FDD9
:10051000202108220823602003904046CDE900579F
:1005200002940EF069FD04B0BDE8F0872DE9F043B8
:1005300085B018461546884601244021042204232C
:100540000C9E4FF0000CC0278DE8D000CDF80CC0F9
:100550004FF040090EF050FD4021042204232846AC
:100560000094CDF80C90CDE901670EF045FD4021D7
:10057000042204238020039040468DE8D0000EF032
:100580003BFD05B0BDE8F0832DE9F04784B0994606
:1005900016460846402104220423DDE90C874FF06B
:1005A000000C4FF480740125CDE900574FF0400A4C
:1005B0000294CDF80CC00EF01FFD4021042204234C
:1005C00030460095CDF80CA0CDE901740EF014FD75
:1005D0008020039040210422042348460095CDE961
:1005E00001740EF009FD402104220423C020039071
:1005F0004046CDE9005702940EF0FEFC04B0BDE881
:10060000F0872DE9F04385B0184615468846012449
:100610004021042204230C9E4FF0000CC0278DE8DB
:10062000D000CDF80CC04FF040090EF0E5FC4021A1
:100630000422042328460094CDF80C90CDE90167EC
:100640000EF0DAFC4021042204238020039040466F
:100650008DE8D0000EF0D0FC05B0BDE8F0832DE9A8
:10066000F04184B01D4610460C460127CDE90073C9
:100670008021082208234FF0000CC0260296CDF8F6
:100680000CC04FF080080EF0B7FC40210822082370
:100690002046CDE90075CDE902680EF0ADFC04B04E
:1006A000BDE8F0812DE9F04385B01846154688462F
:1006B00001242021082208230C9E4FF0000C602703
:1006C0008DE8D000CDF80CC04FF020090EF094FC5E
:1006D00020210822082328460094CDF80C90CDE96B
:1006E00001670EF089FC2021082208234020039096
:1006F00040468DE8D0000EF07FFC05B0BDE8F083E9
:100700002DE9F04184B01D4610460C460127CDE985
:1007100000734021102210234FF0000C6026029637
:10072000CDF80CC04FF040080EF066FC20211022DE
:1007300010232046CDE90075CDE902680EF05CFC7F
:1007400004B0BDE8F0812DE9F04385B018461546A8
:10075000884601241021102210230C9E4FF0000C1B
:1007600030278DE8D000CDF80CC04FF010090EF006
:1007700043FC10211022102328460094CDF80C9041
:10078000CDE901670EF038FC102110221023202043
:10079000039040468DE8D0000EF02EFC05B0BDE879
:1007A000F0832DE9F04184B01D4610460C46012728
:1007B000CDE900732021082208234FF0000C6026A9
:1007C0000296CDF80CC04FF020080EF015FC402129
:1007D000082208232046CDE90075CDE902680EF015
:1007E0000BFC04B0BDE8F0812DE9F04385B018465C
:1007F0001546884601242021082208230C9E4FF02C
:10080000000C60278DE8D000CDF80CC04FF0200917
:100810000EF0F2FB20210822082328460094CDF890
:100820000C90CDE901670EF0E7FB20210822082398
:100830004020039040468DE8D0000EF0DDFB05B06F
:10084000BDE8F0832DE9F04184B01D4610460C460A
:100850000127CDE900734021042204234FF0000C4E
:10086000C0260296CDF80CC04FF040080EF0C4FB35
:100870008021042204232046CDE90075CDE90268D9
:100880000EF0BAFB04B0BDE8F0812DE9F04385B06D
:1008900018461546884601244021042204230C9E54
:1008A0004FF0000CC0278DE8D000CDF80CC04FF001
:1008B00040090EF0A1FB40210422042328460094A5
:1008C000CDF80C90CDE901670EF096FB4021042293
:1008D00004238020039040468DE8D0000EF08CFB6E
:1008E00005B0BDE8F08370B58CB040F6683E0DF100
:1008F000200CC0F2012E63469EE8710071C30846C9
:1009000040F624366FF07F034BF6C6244FF4A861FF
:10091000CDE9003104930423114662464FF0010EE5
:10092000C0F201260025C7F6EE74CDE90245CDE9F7
:10093000056E00F04DF80CB070BD2DE9F04184B0AB
:100940001D4610460C460127CDE900730121022205
:100950004FF4A8734FF0000C04260296CDF80CC09B
:100960004FF002080EF064FB012102224FF4A8733D
:100970002046CDE90075CDE902680EF059FB04B0C0
:10098000BDE8F0812DE9F04184B01D4614460846CB
:100990000127CDE90073012104224FF4A8734FF021
:1009A000000C05260296CDF80CC04FF004080EF09E
:1009B0003FFB012101224FF4A8732046CDE90075C9
:1009C000CDE902680EF034FB04B0BDE8F081D4D468
:1009D0002DE9F04F03AF8DB089460446A7F12400FE
:1009E00014219A469046D7F81CB00EF06EFC0720F2
:1009F000002500EB8B0047F838DC20F0070047F8B3
:100A0000285CADEB000647F82C5C47F8305CB54637
:100A10004FEA8B0130460EF058FC484659460EF01E
:100A200054FC47F8345C82B0A7F13003A7F13400DE
:100A300000905046D7E90B1200F07EF802B0002873
:100A400000F0718047F83C9CA7F1240900BF00BF6B
:100A500082B00023504641464A46009500F0ACF86B
:100A600002B0834657F8343C82B0A7F130000090C2
:100A7000504641464A4600F09FF802B014F90B1068
:100A800056F82020114446F82010504641464A4668
:100A900000F0C2F808B12FF025C857F8340C012136
:100AA00001281CDB80EF5100FC69A7F1300120F028
:100AB00001E000BF00BF00BFB1EC043F98FC434F12
:100AC00020EF54091FF009C051EC110BD7F828B0E2
:100AD00053EC102B484302FB03F1414302E0D7F8EB
:100AE00028B0FC69012CD7E9080957F83C5C1ADBEF
:100AF000BA694FEAE07A01FB02F800BF00BF00BF0D
:100B000056F8040BA0EB080082B03A6A5346CDF8C1
:100B1000009000F09FF802B05844013C00F3070039
:100B200005F8010BECD157F838DCA7F10C04A54609
:100B3000BDE8F08FD4D4D4D42DE9F043DDF81CE027
:100B40004FF0010C4FF00007CEF8007070B3012A8F
:100B50002CDB4FF000084FF0000900BF00BF00BFC2
:100B600051F82960002E48BF0644B6F1FF3F5FEA06
:100B7000DF9786425FEAA78CBCF1010F16D1B8F16E
:100B8000010F1F46444605DB57F8045BB54209D008
:100B9000013CF9D143F82860DEF8004004F1010877
:100BA000CEF8008009F101099145D9D16046BDE830
:100BB000F083D4D4D4D4D4D42DE9F041012828DB57
:100BC000DDF818C040F001E0BCF1000F5FEA1F97AC
:100BD000012B5FEAAF960025002047EA060800BF18
:100BE000B8F1000F66461F4608D100BF00BF00BF26
:100BF00056F8044BA54207D0013FF9D151F82540E2
:100C000052F8256004FB006001350FF017C8BDE8FD
:100C1000F0810020BDE8F08110B56FF0030303EB15
:100C2000800319441A4400BF034601280EDB1068F4
:100C300051F804E900F1010CBEEB0C0454EA0090F9
:100C4000E64542F80409A3F10100EDD0002B5FEA6C
:100C5000DF9010BD70B5C117A2FB0046DDF810C0D3
:100C600002FB0161CCF11E0E0025012252EA0DE5C6
:100C700003FB00111019CCF11F02694150EA2D212C
:100C800070BD42F2A0004DF6B051C0F20120C2F298
:100C900002210068084470474CF2D030C2F20020B4
:100CA00070472DE9F04FB1B0044642F2AC00C0F2FB
:100CB00001204DF6B051C2F2022142F2A4020068B6
:100CC000C0F201220844039042F2A80049F6B0564F
:100CD000C0F20120C2F2042643F6B0554AF6B059DC
:100CE0000068C2F20525084402901068C2F2052986
:100CF00001EB000A47F20C10C0F2012047F2081184
:100D0000C0F201214EF2B0580068C2F2052830440A
:100D1000089047F210104FF6B017C0F20120C2F24F
:100D2000052741F2B0124AF600330068C2F20622EB
:100D300030440790086843F224413044069047F25B
:100D40000410C0F20221C0F20120C2F20E2300689A
:100D500030440490086843F23041C0F20221284434
:100D60002690086843F22C4128440B9043F234400B
:100D7000C0F20221C0F20220006828440A900868EC
:100D80004EF6F4212844099043F22840C0F2032192
:100D9000C0F2022000682844059008684EF6003131
:100DA000C0F2032148441B9008684EF6F8214844DD
:100DB0000E904EF6FC20C0F20321C0F20320006822
:100DC00048440D90086847F2FC4148440C9047F2B3
:100DD000F440C0F20421C0F20420006840441290A4
:100DE00047F2F840C0F204200068404411900868BF
:100DF0004BF6EC414044109047F20050C0F2052100
:100E0000C0F20420006840440F9008684BF6E841A7
:100E1000C0F2052138441590086844F6E43138449E
:100E200014904BF6E440C0F20621C0F205200068A1
:100E300038441390086844F6E831C0F206211044A3
:100E40002B9008684CF2F441104416904CF2FC4090
:100E500044F2B012C0F20620C2F20622C0F206210D
:100E60000068104419904CF2F840C0F20620006867
:100E700010441890086841F63C71104417904FF6E2
:100E8000740048F2B012C0F20620C2F20622C0F28C
:100E900007210068104423904FF67800C0F2062026
:100EA000006810441A90086841F638714EF2B0128A
:100EB000C0F20721C2F2062210441E90086844F6D0
:100EC000946110441D9041F63470C0F20721C0F2C5
:100ED0000720006810441C90086844F6986146F2A8
:100EE000B012C0F20721C2F2072210442C90086809
:100EF0004BF2343110441F904BF23C304BF2B012A5
:100F0000C0F20720C2F20722C0F207210068104495
:100F100022904BF23830C0F2072000681044219034
:100F200008684CF63C51104420904EF614504DF693
:100F3000B012C0F20720C2F20722C0F208210068F6
:100F400010442A904EF61850C0F207200068104452
:100F5000249008684CF6385140F2B012C0F20821D3
:100F6000C2F2082210442890086842F290111044FE
:100F700027904CF63450C0F20B21C0F208200068D4
:100F800010442590086842F28C1141F6B012C0F26C
:100F90000B21C2F2082210442990086842F68431DD
:100FA0001044309042F6B800C0F20B21C0F20B2082
:100FB0004BF280520968C2F20E22006818442E904B
:100FC00042F6B400C0F20B20006818442D9050186F
:100FD0002F90204600F011FA4CF66C2B4CF6602056
:100FE000C2F2002BCDF800B0C2F20020DDE90221F0
:100FF0005346FFF7F5F947F200104FF4C042C0F234
:1010000001205946006830440EF063F9204600F094
:1010100047FA42F6782642F66C20C2F2012604997D
:10102000CDE90016C2F201200899DDE90632FFF78A
:1010300005FA43F220404FF48042C0F202203146CC
:10104000006828440EF045F9204600F081FA46F683
:10105000842546F67820C2F201250599CDE90015D0
:10106000C2F201200B99DDE90932FFF723FA4EF6AF
:10107000F0204FF40052C0F2032029460068484493
:101080000EF027F9204600F0CBFA48F6902548F6F6
:101090008420C2F201250095C2F201200E99DDE9FB
:1010A0000C32FFF743FA47F2F0404FF44062C0F2CF
:1010B00004202946006840440EF00BF9204600F059
:1010C0000FFB49F29C6549F29060C2F201250F992D
:1010D000CDE90015C2F201201299DDE91032FFF7C7
:1010E00053FA4BF6E0404FF48052C0F205202946F7
:1010F000006838440EF0EDF8204600F047FB4AF255
:10110000A8654AF29C60C2F201250095C2F2012056
:101110001599DDE91332FFF774FA44F6E03041F235
:10112000B011C0F20620C2F206214FF440620068FE
:10113000084429460EF0CDF8204600F07AFB4BF229
:10114000B4254BF2A820C2F20125C2F201201B995E
:10115000169A2B46FFF783FA4CF2F04044F2B01196
:10116000C0F20620C2F206214FF440520068084443
:1011700029460EF0AEF8204600F0B0FB4EF2C02536
:101180004EF2B420C2F201250095C2F20120199955
:10119000DDE91732FFF786FA4FF6700048F2B0111A
:1011A000C0F20620C2F206214FF4C0520068084483
:1011B00029460EF08EF8204600F0E5FB4FF6CC25D0
:1011C0004FF6C020C2F20125C2F2012026991A9AD8
:1011D0002B46FFF795FA41F630704EF2B011C0F28F
:1011E0000720C2F206214FF4C04200680844294695
:1011F0000EF06FF8204600F01BFC45F6D82545F6AA
:10120000CC20C2F202250095C2F202201E99DDE92F
:101210001C32FFF798FA44F6906046F2B011C0F223
:101220000720C2F207214FF44052006808442946C3
:101230000EF04FF8204600F050FC48F6E42548F642
:10124000D820C2F20225C2F2022023991F9A2B460F
:10125000FFF7A7FA4BF230304BF2B011C0F2072083
:10126000C2F207214FF4C0520068084429460EF02C
:1012700030F8204600F081FC4AF2F0254AF2E420E2
:10128000C2F202250095C2F202202299DDE9203245
:10129000FFF7AAFA4EF610504DF6B011C0F2072033
:1012A000C2F207214FF4C0520068084429460EF0EC
:1012B00010F8204600F0B6FC4BF6FC254BF6F0206B
:1012C000C2F20225C2F202202B99249A2B46FFF784
:1012D000B9FA4CF6305040F2B011C0F20820C2F218
:1012E00008214FF440620068084429460DF0F1FFE0
:1012F000204600F0ECFC4CF208754CF2FC60C2F2A7
:1013000002250095C2F20220DDE92721259BFFF787
:10131000BCFA42F2801041F6B016C0F20B20C2F2C5
:1013200008264FF400522C99006830440DF0D1FF8C
:1013300042F284104FF48052C0F20B202A990068C8
:1013400030440DF0C6FF42F288104FF44062C0F204
:101350000B202946006830440DF0BBFF204600F00A
:101360000FFD4DF214354DF20830C2F20225C2F2E3
:10137000022029992A46FFF7B6FA42F6B0004AF64B
:101380000031C0F20B20C2F20E214FF4A8620068B7
:10139000084429460DF09DFF204600F05DFD4DF606
:1013A00060054DF65400C2F20225C2F20220DDE9CA
:1013B0002D212B46FFF7C1FA42F680304BF28051C7
:1013C000C0F20B20C2F20E214FF4A862006808445C
:1013D00029460DF07EFF204600F08CFD4DF6A05012
:1013E0004CF2D033C2F20220C2F20023DDE92F1208
:1013F00031B0BDE8F04FFFF7C5BAB0B598B041F2D3
:1014000004024DF6B055C0F2012241F21001002451
:10141000C2F202250028C0F201210B940A91116842
:101420000391CDE90C544FF4E0314FF44040069065
:10143000CDE90E54CDE90411CDE9105407D04DF695
:10144000B0504FF4C041C2F202200DF03EFF05F54E
:101450000050CDE9140405F580404FF40051CDE96A
:10146000160440F67830C0F201200991CDE9071149
:1014700040F68031026803A800904CF65840C2F252
:101480000E20C0F201210AABCDE912540725CDE9A7
:1014900001540AF0EEF801305FEA1FA018B0B0BDA9
:1014A000B0B59CB042F2B85249F6B055C0F2012234
:1014B00042F2C0510024C2F204250028C0F20121EA
:1014C0000D940C9111680491CDE90E544FF4204114
:1014D0004FF4C0400790CDE91054CDE90511CDE996
:1014E000125407D049F6B0504FF48041C2F20420A4
:1014F0000DF0EBFE05F58051CDE9161442F2B00176
:1015000005F50050C0F20121CDE9180405F5405061
:101510001A900A6804A800904CF6584042F2C001A4
:10152000C2F20E20C0F201210CAB81EF5002CDE9D6
:10153000145408251B948DED081FCDE901540AF0C1
:1015400098F801305FEA1FA01CB0B0BDD4D4D4D449
:1015500070B59EB047F200710024C0F20121CDE9C0
:101560000C1447F2F06143F6B055C0F20121C2F20B
:10157000052505F50056002809680391CDE90E54AC
:101580004FF4E0414FF480400690CDE91054CDE98E
:101590000411CDE9126407D043F6B0504FF48041F6
:1015A000C2F205200DF091FE05F52051CDE9181489
:1015B00047F2141116A0C0F201210CAB90ED001FF0
:1015C00005F54050CDE91A0405F560500A68CDE9EB
:1015D0001C044FF400600B9003A800904CF6584098
:1015E00047F22011C2F20E20C0F201218DED071F3B
:1015F000CDE91454CDE916640826CDE901640AF05A
:1016000038F801305FEA1FA01EB070BD00BF00BFF8
:101610000020000000080000000800000008000092
:1016200070B59CB043F600110024C0F20221CDE950
:101630000C1443F6F0014AF6B055C0F20221C2F292
:10164000052505F58056002809680491CDE90E545A
:101650004FF460514FF400500790CDE91054CDE99C
:101660000511CDE9126407D04AF6B0504FF4E051AD
:10167000C2F205200DF029FE43F2384114A0C0F259
:1016800002210CAB90ED001F05F5A050CDE9180428
:1016900005F5C0501A900A6804A800904CF658400E
:1016A00043F24041C2F20E20C0F202218DED081F2C
:1016B0001B94CDE91454CDE916640826CDE90164E4
:1016C00009F0D7FF01305FEA1FA01CB070BD00BF5A
:1016D00000100000000400000004000000040000EE
:1016E000B0B59CB04EF644524EF2B055C0F2032253
:1016F0004EF650510024C2F205250028C0F2032105
:101700000D940C9111680491CDE90E544FF4A05141
:101710004FF440600790CDE91054CDE90511CDE9B3
:10172000125407D04EF2B0504FF48051C2F205204F
:101730000DF0CBFD05F58061CDE916144EF60431B0
:1017400005F50060C0F20321CDE9180405F54060FD
:101750001A900A6804A800904CF658404EF61031D2
:10176000C2F20E20C0F203210CAB80EF5402CDE98F
:10177000145408251B948DED081FCDE9015409F080
:1017800078FF01305FEA1FA01CB0B0BDB0B598B0C3
:1017900047F6C0124FF6B015C0F2042247F6D0113A
:1017A0000024C2F205250028C0F204210B940A91FE
:1017B00011680391CDE90C544FF4C0514FF480509F
:1017C0000690CDE90E54CDE90411CDE9105407D0AF
:1017D0004FF6B0104FF44061C2F205200DF075FDD8
:1017E00005F58060CDE9140405F500604FF48061D3
:1017F000CDE9160447F20450C0F204200991CDE966
:10180000071147F21051026803A800904CF65840A7
:10181000C2F20E20C0F204210AABCDE91254072512
:10182000CDE9015409F025FF01305FEA1FA018B08F
:10183000B0BDB0B596B04CF200010025C0F2052154
:10184000CDE90A154BF6F87141F2B014C0F205214A
:10185000C2F206240028CDE90C45096804914FF432
:101860004051CDE90E454FF440600790CDE9051198
:1018700004F50061CDE910150AD04FF4006120464F
:101880000DF023FD04F580504FF400510DF01DFDC7
:101890004BF6F0414FF40060C0F20521089004F5CA
:1018A0008050CDE914054FF4005009900A6804A84F
:1018B00000904CF658404BF60051C2F20E20C0F298
:1018C00005210AABCDE912450624CDE9014509F011
:1018D000D0FE01305FEA1FA016B0B0BD70B598B061
:1018E00044F660710026C0F20621CDE90A1644F6DE
:1018F000547144F2B014C0F20621C2F2062404F579
:101900008055002809680391CDE90C464FF48041C9
:101910004FF440500690CDE90E46CDE90411CDE9D3
:10192000105609D04FF4006120460DF0CEFC4FF464
:10193000805128460DF0C9FC04F5C050CDE91406CD
:1019400044F6EC304FF40061C0F20620CDE90711F7
:10195000099144F6F031026803A800904CF6584013
:10196000C2F20E20C0F206210AABCDE912560725BD
:10197000CDE91646CDE9015609F07BFE01305FEA5C
:101980001FA018B070BDB0B596B04CF2F071002534
:10199000C0F20621CDE90A154CF2E47148F2B01408
:1019A000C0F20621C2F206240028CDE90C450968E0
:1019B00004914FF4C041CDE90E454FF4C05007905B
:1019C000CDE9051104F58051CDE910150AD04FF489
:1019D000805120460DF079FC04F500504FF4804111
:1019E0000DF073FC4CF200514FF48050C0F2062110
:1019F000089004F50050CDE914054FF4804009909B
:101A00000A6804A800904CF658404CF21051C2F2FB
:101A10000E20C0F206210AABCDE912450624CDE91D
:101A2000014509F026FE01305FEA1FA016B0B0BDE7
:101A300070B598B04FF6C0310026C0F20621CDE94E
:101A40000A164FF6BC314EF2B014C0F20621C2F2B3
:101A5000062404F50055002809680391CDE90C46D9
:101A60004FF400414FF4C0400690CDE90E46CDE959
:101A70000411CDE9105609D04FF4805120460DF0E5
:101A800024FC4FF4005128460DF01FFC04F5405093
:101A9000CDE914064FF67C004FF48051C0F20620C9
:101AA000CDE9071109914FF68001026803A8009063
:101AB0004CF65840C2F20E20C0F206210AABCDE926
:101AC00012560725CDE91646CDE9015609F0D1FD9C
:101AD00001305FEA1FA018B070BD70B596B042F239
:101AE00020110024C0F20721CDE90A1442F214119A
:101AF00046F2B015C0F20721C2F2072505F50056DF
:101B0000002809680491CDE90C544FF4A0414FF42A
:101B100040500790CDE90E54CDE90511CDE9106490
:101B200007D046F2B0104FF42051C2F207200DF05A
:101B3000CCFB41F640714FF40050C0F207210890F1
:101B40004FF4006009900A6804A800904CF65840D1
:101B500041F65071C2F20E20C0F207210AABCDE966
:101B60001254CDE914640626CDE9016409F081FD23
:101B700001305FEA1FA016B070BD70B598B045F295
:101B800010210026C0F20721CDE90A1645F20421F2
:101B90004BF2B014C0F20721C2F2072404F58055BD
:101BA000002809680391CDE90C464FF420514FF409
:101BB000C0500690CDE90E46CDE90411CDE910568E
:101BC00009D04FF4006120460DF07FFB4FF48051A7
:101BD00028460DF07AFB04F5C050CDE9140644F612
:101BE0009C604FF40061C0F20720CDE90711099114
:101BF00044F6A061026803A800904CF65840C2F277
:101C00000E20C0F207210AABCDE912560725CDE917
:101C10001646CDE9015609F02CFD01305FEA1FA000
:101C200018B070BDB0B596B04BF290510025C0F21F
:101C30000721CDE90A154BF284514DF6B014C0F2DC
:101C40000721C2F207240028CDE90C450968049158
:101C50004FF42051CDE90E454FF4C0500790CDE927
:101C6000051104F58051CDE910150AD04FF48051CB
:101C700020460DF02AFB04F500504FF480610DF072
:101C800024FB4BF240314FF48050C0F20721089002
:101C900004F50050CDE914054FF4806009900A68FE
:101CA00004A800904CF658404BF25031C2F20E207E
:101CB000C0F207210AABCDE912450624CDE9014562
:101CC00009F0D7FC01305FEA1FA016B0B0BDB0B577
:101CD00098B04FF2A0110025C0F20721CDE90A15F6
:101CE0004FF29C1140F2B014C0F20721C2F2082456
:101CF0000028CDE90C45096803914FF4C051CDE9A6
:101D00000E454FF440600690CDE9041104F54061A2
:101D1000CDE910150AD004F5A0504FF480610DF004
:101D2000D4FA4FF4006120460DF0CFFA04F5A0502C
:101D3000CDE9140504F580604FF48061CDE9160506
:101D40004EF61C50C0F207200991CDE907114EF65E
:101D50002051026803A800904CF65840C2F20E20B1
:101D6000C0F207210AABCDE912450724CDE90145B0
:101D700009F07FFC01305FEA1FA018B0B0BDD4D4D9
:101D8000B0B59CB030A14EF21062C0F2082241F60C
:101D9000B01491ED001F4EF22061C2F20824C0F28F
:101DA00008210C911168049141F250110025214441
:101DB000CDE9121504F5A8710028CDE9141543F2F8
:101DC00050110D9511958DED051F21444FF4406084
:101DD00010940990CDE90E45CDE916150BD04FF4BE
:101DE000A87120460DF071FA45F250504FF4A851F9
:101DF00020440DF06AFA4CF640514FF4A870C0F23E
:101E000008210A9045F250500CAB2044CDE91A0548
:101E10004FF4A8500B900A6804A800904CF6584064
:101E20004CF65051C2F20E20C0F2082119951894B8
:101E30000824CDE9014509F01CFC01305FEA1FA030
:101E40001CB0B0BD00BF00BF50910600509106000D
:101E50000020000000100000B0B596B042F26032E1
:101E60004AF60035C0F20B2242F270310024C2F271
:101E70000E250028C0F20B210B940A9111680491E1
:101E8000CDE90C544FF428614FF4A8600790CDE9D8
:101E90000E54CDE90511CDE9105405D005F5A86023
:101EA0004FF4A8610DF011FA05F5FC61CDE91414A9
:101EB00042F2941105F5A860C0F20B21CDE912049D
:101EC0004FF42870089009900A6804A800904CF616
:101ED000584042F2A011C2F20E20C0F20B210AAB10
:101EE0000625CDE9015409F0C4FB01305FEA1FA0CB
:101EF00016B0B0BD70B592B042F630210024C0F2E9
:101F00000B21CDE9081442F624214BF28055C0F292
:101F10000B21C2F20E254FF4A86609680391CDE9A2
:101F20000A540F940E95CDE90C540696CDE904663B
:101F300038B14BF280504FF4A861C2F20E200DF080
:101F4000C4F942F6BC0042F6C001C0F20B20C0F258
:101F50000B2108ABCDE91054026803A800904CF6A1
:101F60005840C2F20E2007960526CDE9016409F01B
:101F700080FB01305FEA1FA012B070BDD4D4D4D46E
:101F800010B54BF6C024A821C2F20E2420460DF055
:101F90009CF903202061606143F2E5504BF6683103
:101FA000C0F20B20A061C2F20E21E1614FF400618A
:101FB00021620021A1626162E1624CF26832206616
:101FC0004FF0100E42F68830C2F20E226266C4F85C
:101FD00068E02167E1666167BFF35F8FC0F20B20A5
:101FE0000F3000BF00BF00BF10F8011904F8011B3B
:101FF0000FF007C0BFF35F8F10BDD4D4D4D4D4D4B6
:102000002DE9F04381B014460D468046C7684FF075
:10201000000900BF00BF00BFD8F81000FA43B84263
:1020200006D91044D8F8081006E000BF00BF00BF72
:10203000D8F8081010440844C91B884250EA31807F
:102040002946A04250EA3486D8F804003844324683
:102050000DF03FF9F019D8F80810411AA4EB060466
:1020600050EA1187B1443544BFF35F8FC8F80C7054
:102070000CB12FF02FC8484601B0BDE8F0832DE920
:10208000F04381B000EB40004BF6C023C2F20E23B8
:10209000144603EBC003894603F11805D86A0228E9
:1020A00012D0012808D000283ED1EE682869F143FB
:1020B000B04234D9084435E0EE682969B1420BD901
:1020C000F0430144A8680BE028464946224601B087
:1020D000BDE8F043FFF794BFF243A8681144014400
:1020E000A14251EA3484871B68683044BC4207D25D
:1020F000494622460DF0EDF8BFF35F8F26440CE011
:1021000049463A460DF0E5F8E61B686809EB070119
:1021100032460DF0DEF8BFF35F8FEE6025E0AA686F
:1021200008441044A04201D200241EE0D5E9010178
:102130008F1B3044BC4208D2494622460DF0C9F8F4
:10214000BFF35F8F06EB04080DE049463A460DF0F9
:10215000C0F8A4EB0708686809EB070142460DF0D8
:10216000B8F8BFF35F8FC5F80C80204601B0BDE81A
:10217000F083F0B581B04BF6C0231446C2F20E23B3
:102180000D4606461B78532B01D0FFF7F9FEEFF3FF
:1021900011874FF0200181F31188304629462246ED
:1021A000FFF76DFF87F3118801B0F0BDD4D4D4D40C
:1021B0002DE9F04F9BB091460F46002406A91691D9
:1021C00040211791002105901A90CDE9181100BF08
:1021D00017F8011B252907D0002900F06F8116A8E8
:1021E00000F07BF9E5E000BF4FF0000800BF00BF42
:1021F00039782C2908DC23290ED02B2918D104206A
:102200000FE000BF00BF00BF2D2909D030290FD13A
:10221000022006E000BF00BF082002E000BF00BFB0
:10222000012048EA00080137E2E700BF00BF00BF15
:10223000A1F13A0010F10A0F02D2002012E000BF13
:1022400000200A4600BF00BF17F8011F00EB800006
:10225000A1F13A0302EB400013F10B0FA0F13000A3
:102260000A46F1D82E290FD13A4612F8011F2A2921
:102270000DD1D9F8001002370A1DC9F800200E68E8
:1022800001211DE000BF00BF0021002618E0A1F1E0
:102290003A0313F10A0F02D2002100260FE00026B4
:1022A00012F8013F06EB8607A3F13A0601EB47015E
:1022B00016F10B0FA1F130061946F1D8012117468E
:1022C00017F8012B02F0FB03682BF9D0632A0FDC0F
:1022D000252A2ED0582A24D0632A6AD1D9F80000A2
:1022E000011DC9F80010017879E700BF00BF00BFE9
:1022F000A2F17003082B1ED8DFE803F0055B5B61D9
:102300005B4E5B5B1300D9F800001022011DC9F879
:1023100000100168082300200826CDE9006016A8F7
:1023200045E0D9F800100A1DC9F8002009681022FC
:1023300039E0252153E7642A3BD1D9F800104CF647
:10234000CD4C0A1DC9F80020D1F800E0CCF6CC4CE9
:10235000CEF100017246BEF1000F48BF0A460A2ABC
:1023600003914FF0010107DBA2FB0C35632A01F159
:1023700001014FEAD502F7D88E4256EA818B002838
:1023800040D0BEF1000F5FEA5F9108F0040241EA1D
:102390009201A0EB010A37E0D9F800100A1DC9F834
:1023A000002009680A22CDE9000816A8334600F08B
:1023B000B7F8199CB4F1FF3F3FF70AAF89E0D9F8AD
:1023C0000000021DC9F80020006843F21402002832
:1023D000C0F20B2250EA12855FEA018800BF00BFFD
:1023E0002978002E5FEA18800029E2D00028E0D189
:1023F00016A8013500F071F8199C013EB4F1FF3FB9
:10240000EEDC66E04FF0000A5FEA88750CD55EB935
:10241000002CCED4BEF1000F29D45FEA4870CDF86D
:1024200010E02DD52B2125E05FEAC870F0D1BAF17C
:10243000000FEDD0D345EBD20295CDF810E0AAF114
:10244000010500BF00BF00BF202116A800F045F81D
:10245000199C002C3DD4681EA84202D2AB4505460B
:10246000F2D300F1010ADDF810E0029DD0E72D2142
:102470000398049016A800F030F8199C002C28D47A
:10248000002D05D40A22CDE900A816A804998DE7ED
:1024900008F001003043F5D1BAF1000FF2D0AAF1F3
:1024A0000105554538BFD345ECD2302116A800F0C0
:1024B00014F8199CAA46002CF1D50AE044B1189DE5
:1024C00025B106A905982A46FFF753FE2C4400E0E3
:1024D000002420461BB0BDE8F08F10B50446D0E9BB
:1024E0000120431C934207D822681154A360E0687E
:1024F00062680130E0601846904218BF10BD216844
:102500002069FFF736FEA168884202D10020A06052
:1025100010BD4FF0FF30E06010BDD4D4D4D4D4D47B
:102520002DE9F04F81B015460E4691421F46814677
:10253000DDF828B04FF0010007D3314600BF00BFDF
:10254000B1FBF5F10130A942FAD2874257EA808AFD
:10255000BBF1000F0B991BD011F0010018D18807B7
:102560004FF0200048BF30202021002F50EA018882
:10257000BBF1000F0CD0DA450AD248464146ABF118
:10258000010BFFF7AAFFD9F80C00B0F1FF3FEFDC19
:10259000D9F80C0000283CD4012400BF00BF00BFC4
:1025A000022F01D3013F03E0B6FBF4F0A84201D3B0
:1025B0006C43F5E740F62838C0F2012800BF00BFA1
:1025C000B6FBF4F7484618F80710FFF786FFD9F86E
:1025D0000C00002806D4B4FBF5F007FB1466A542F6
:1025E0000446EDD90B98C00718BFBBF1000F0AD104
:1025F0000FE020214846FFF770FFD9F80C00A346F2
:10260000B0F1FF3F05DDABF101045C4538BFDA45B1
:10261000EFD301B0BDE8F08F82B080B582B0CDE9D4
:10262000042304AA019201AAFFF7C2FD02B0BDE88B
:10263000804002B070470021A0F80012A0F80212FA
:1026400070470021A0F80012A0F80212704780B570
:10265000B0F80022B0F802E2531C9BB2B3F500734D
:1026600053EA029C1FFA8CF2724504D0B0F8003293
:10267000C154A0F800C272455FEA0F9080BD29B135
:10268000B0F80022B0F802329A4201D1002070471F
:10269000B0F80222825C0A70B0F802124A1C92B2B0
:1026A000B2F5007252EA0191A0F8021201207047BF
:1026B00010B54CF27830C2F20E20FFF7BCFF4CF29E
:1026C0007C500021C2F20E2043F6B472C0F20B22FD
:1026D00001704CF27D50C2F20E20936801704CF2F2
:1026E0008050C2F20E2001604CF28450C2F20E20E3
:1026F0000160D2E900011A689047044638B143F2FC
:1027000060202146C0F20B2000F009F805E042F6F7
:102710003470C0F20B2000F002F8204610BD83B0E8
:1027200080B581B0844603A80EC003A800906A4615
:1027300000206146FFF73CFD01B0BDE8804003B0DA
:102740007047D4D4D4D4D4D42DE9F04F85B0002828
:102750004FF0010700F02C818A46002900F0288103
:102760009146022AC0F0248105460078002800F036
:102770001F8143F694704EF20018C0F20B20CEF287
:10278000000808F18001039390F905004FF0000B59
:102790008AF800B00291440900F01F0007FA00F621
:1027A0004CF2783041F82460C2F20E20BFF34F8F14
:1027B000BFF36F8FFFF745FF4CF27D50C2F20E2042
:1027C000019648F824604CF2805680F800B04CF234
:1027D0007C584CF28850C2F20E26C2F20E28C2F289
:1027E0000E204CF28451C2F20E21C6F800B088F8D7
:1027F00000B0C0F800B043F2D540C1F800B0C0F25C
:102800000B202946FFF78BFF28460CF073FD82B2A0
:10281000002A00F0CD8043F6B47088F800B0C0F212
:102820000B20816800688B68294698470746002876
:10283000DDF80CB040F0BC8098F80000A8B90BF1AE
:10284000010500BF00BF00BF3068002840F08F8046
:10285000013D00F0818001204FF47A710CF0B5F851
:1028600098F8000008B92FF011C8BBF1000F67D02D
:1028700042F65876A9F10100C0F20B264FF000098C
:10288000002742F20148019D00904CF28050C2F2B4
:102890000E20006800286CD14CF27D50C2F20E2050
:1028A000007801286BD002980DF1130140F82450F4
:1028B0004CF27830BFF34F8FBFF36F8FC2F20E2010
:1028C000FFF7DDFE4EF20011CEF2000141F8245078
:1028D00040B3B8B20099814262D901379DF8132004
:1028E000B9B20AF8002000200AF80100514600BFE2
:1028F000084631460CF0EDFDE0B1504505D010F82A
:10290000011C0A295FEA1F9100E00121002900F162
:102910000101EDD080780D28EAD828FA00F0C00730
:10292000E6D01BE001204FF47A710CF04EF809F16B
:10293000010903E0504600F08FF8E8BBD945A4D365
:102940004CF288505146C2F20E20026843F23F100A
:10295000C0F20B20FFF7E3FE142729E042F60150F6
:102960005146C0F20B20FFF7DAFE002720E037685F
:102970001EE04CF28050C2F20E20076818E04CF2C4
:102980008450C2F20E2001684CF28850C2F20E2030
:10299000026843F28020C0F20B20FFF7C0FE06E081
:1029A00042F635605146C0F20B20FFF7B8FECB2748
:1029B000384605B0BDE8F08F43F6DC105146C0F252
:1029C0000B20FFF7ACFE0127F2E770B543F69470D9
:1029D0004EF20015C0F20B20CEF20005012290F954
:1029E0000500440900F01F0002FA00F64CF27830AE
:1029F00005EB8401C2F20E20C1F88060BFF34F8F57
:102A0000BFF36F8FFFF71DFE45F8246070BD70B5F2
:102A100043F694714EF20015C0F20B21CEF2000580
:102A2000012391F905104C0901F01F0103FA01F689
:102A3000014605EB84024CF27830C2F20E20C2F857
:102A40008060BFF34F8FBFF36F8FFFF718FE45F81D
:102A5000246070BDD4D4D4D470B543F2D2110446EE
:102A6000C0F20B210CF035FDC8B143F2D215064679
:102A7000C0F20B2500BF00BFA64203D016F8010C20
:102A80000A2804D10A2130460CF018FD48B9701C00
:102A900029460CF01EFD064608B12FF013C8002091
:102AA00070BD012070BDD4D470B54CF27C54C2F21C
:102AB0000E242078A0B94CF2805640F2E935C2F2DB
:102AC0000E2600BF00BF00BF306858B9013D0BD0D3
:102AD00001204FF47A710BF078FF20780128F3D1B0
:102AE000002070BD306870BD142070BD2DE9F04F1E
:102AF000ADF5437D0F46064683A84FF4807114461A
:102B00000CF0E3FB0DF10C094FF4007148460CF09A
:102B1000DCFB002E4FF0010000F0F480002F00F0ED
:102B2000F180002C00F0EE8030460CF0E3FB05460F
:102B300038460CF0DFFBA5F1210111F1200F014611
:102B40004FF00100C0F0DE80403911F1380FC0F0C5
:102B5000D9802C2130460CF0B1FC002840F0D18007
:102B60000D2130460CF0AAFC002840F0CA800A2152
:102B700030460CF0A3FC002840F0C3802C213846DE
:102B80000CF09CFC002840F0BC800D2138460CF075
:102B900095FC002840F0B5800A2138460CF08EFCE8
:102BA000002840F0AE8043F62C4283A8C0F20B22EE
:102BB0004FF48071334600970CF0C8FCFF2800F2F8
:102BC000A0800746FFF701FF4CF27D5B4CF2805A74
:102BD0004CF27C584CF28850C2F20E2BC2F20E2AF4
:102BE000C2F20E28C2F20E204CF284510025C2F22D
:102BF0000E218BF80050CAF8005088F8005005608C
:102C000043F223700D60C0F20B203146FFF787FDC1
:102C1000002F76D043F6B47088F80050C0F20B2035
:102C20003A46816800688B6883A99847002869D173
:102C30005D46FFF739FF002864D10DF10B064FF018
:102C4000000B4FF00008DAF80000002843D1287884
:102C500000283ED13046FFF7DAFE48B3B8F5FF7FD3
:102C600037D808F101079DF80B0042F64E6109F8CC
:102C70000800002009F807004846C0F20B210CF0BC
:102C800028FC18B10A210CF019FC60BB42F65B71FC
:102C90004846C0F20B210CF01CFC18B10A210CF0C4
:102CA0000DFC40BB4846FFF7D7FEB846B0B906E07A
:102CB00001204FF47A710BF088FE0BF1010BA34554
:102CC000C1D343F60400C0F20B20FFF728FD142007
:102CD00018E0CB2016E0DAF8000013E043F63E409F
:102CE000C0F20B200BE043F2EE50C0F20B20FFF7D6
:102CF00016FD002006E043F2CD60C0F20B20FFF786
:102D00000EFD01200DF5437DBDE8F08F10B5A0B09C
:102D10000446684680210CF0D8FAFCB100202070EF
:102D200043F209606946C0F20B20802241F28833E9
:102D3000FFF70AFD98B943F20D316846C0F20B2146
:102D40000CF0C7FB50B1C07900F0FE01302905D16D
:102D500031285FEA1F902070002000E0012020B0A1
:102D600010BDD4D4D4D4D4D4F0B581B0074600205B
:102D70008DF803000DF1030015460E46FFF7C6FF60
:102D8000044680BB9DF8030008B100242BE03846C0
:102D900031462A46FFF7AAFE40B1044642F6993072
:102DA000C0F20B202146FFF7BAFC1CE005250DF10F
:102DB000030400BF00BF00BF2046FFF7A7FF18B9FC
:102DC0009DF80300C00711D14FF4FA704FF47A71E7
:102DD0000BF0FBFD013DEFD143F21B00C0F20B20D5
:102DE000FFF79DFC1424204601B0F0BD43F6A3106C
:102DF000C0F20B20FFF793FCC7E72DE9F04FADF5CC
:102E0000237D0E46054683A8802114460CF05DFA0A
:102E100003A84FF400710CF058FA4FF001000DB305
:102E200004B3FEB12978E9B12C2128460CF046FB09
:102E3000B8B90D2128460CF041FB90B90A2128466B
:102E40000CF03CFB68B943F20042FF202070C0F256
:102E50000B2283A880212B4600960CF077FB7F285D
:102E600004D901200DF5237DBDE8F08F83A803A9C7
:102E70004FF4007242F21073FFF766FC0028F1D1A4
:102E800003AD2146284600F053F840B1217843F6BF
:102E90005730C0F20B20FFF742FC0020E2E74FF46E
:102EA000007128460CF011FA4CF2805B4CF27D5612
:102EB000C2F20E2BC2F20E260DF10B0541F288373D
:102EC0004FF000084FF00009DBF8000068BB3078D5
:102ED00048BB2846FFF79BFDA0B1B8F5FF7F22D87D
:102EE00008F1010A03A99DF80B0001F80800002071
:102EF00001F80A000846214600F01AF80028D046DA
:102F0000C4D106E001204FF47A710BF05EFD09F1A7
:102F10000109B945D8D342F68C70C0F20B20FFF7F7
:102F2000FEFB14209EE7CB209CE7DBF8000099E72E
:102F3000B0B50C4643F6C811C0F20B2105460CF0A3
:102F4000C8FA08B1063008E042F6AE712846C0F271
:102F50000B210CF0BEFA30B10A300078A0F1380134
:102F6000C9B2F82901D20020B0BD3038207001204C
:102F7000B0BD10B5A0B06C46802120460CF0A5F97C
:102F800043F693208022C0F20B2041F28833214681
:102F9000FFF7DAFB044638B143F248702146C0F22D
:102FA0000B20FFF7BCFB05E043F28850C0F20B207A
:102FB000FFF7B5FB204620B010BD70B5C2B00D467E
:102FC000044602A84FF480710CF07FF9072C4FF0F3
:102FD00001002AD84DB3287830B328460CF08AF97E
:102FE000802821D806462C2128460CF067FAD8B94B
:102FF0000D2128460CF062FAB0B90A2128460CF0DF
:103000005DFA88B943F67F3202A8C0F20B224FF472
:1030100080712346CDE900650CF098FA0246A0F5D0
:10302000807010F1FF0F02D2012042B070BD43F654
:10303000B4704CF27C51C0F20B20C2F20E2100267B
:1030400083680E70006802A99B6898470028ECD13D
:10305000FFF72AFDE9E760B1017907290ADD0829B0
:1030600018BF10292AD14CF280500121C2F20E2043
:1030700001607047022924D00429FAD180B54CF2AE
:103080008851C2F20E210A6801320A60017A4CF2BC
:103090007830C2F20E20FFF7DAFA0028BDE880404F
:1030A000E7D14CF27D500121C2F20E2001704CF2AA
:1030B0008450C2F20E2001680131D9E72029D2D014
:1030C000D7E74CF27C500121C2F20E20017070470C
:1030D0002DE9F04782B043F2DE0843F23269871CE3
:1030E0004AF6AA244FF6FF75C0F20B280DF1070A25
:1030F000C0F20B2900218DF8071000BF00BF00BFF0
:1031000037F8020CA0420FD0A84214D0397801F051
:103110001DF890B937F8020C514600F0CCFF70B999
:1031200007E000BF00BF00BF38784FF47A710BF0A2
:103130004CFC0437E4E700260FE0064601E00646B3
:10314000C84643F2146142F6B972C0F20B21C0F2D4
:103150000B2200204346FFF75FFA304602B0BDE87D
:10316000F087D4D4F0B581B02DED048B0A204FF454
:103170007A710BF02AFC4CF62C503C21C2F20E2046
:10318000012209F0CFFD28B143F699330446C0F27D
:103190000B23B6E04CF6FC55EFF31080C2F20E257F
:1031A000012181F3108840F614542968C4F24004C8
:1031B00019B9002121704021217029684FF6D046AD
:1031C00001312960CFF6FF7680F3108843F6FA7755
:1031D0000121CFF6FE77A05938400430A051EFF31B
:1031E000108081F31088296811B12968013929609C
:1031F000296819B9002121708021217080F310887D
:1032000014204FF47A710BF0E0FB0121EFF31080F2
:1032100081F31088296819B900212170402121709B
:1032200029680131296080F310880121A0593840B4
:1032300040F00500A051EFF3108081F31088296859
:1032400011B1296801392960296819B90021217053
:103250008021217080F3108814204FF47A710BF0D4
:10326000B4FB40F26C00C2F20020FFF731FF28B13E
:1032700043F2AE230446C0F20B2342E032204FF467
:103280007A710BF0A2FB43F23500122100F05EFFD1
:1032900028B142F6CA630446C0F20B2322E043F28F
:1032A00036007B2100F052FF28B142F60A53044653
:1032B000C0F20B2316E043F23700082100F046FF6E
:1032C00028B143F628030446C0F20B230AE043F278
:1032D0000810122100F03AFF18B343F26663044667
:1032E000C0F20B2343F2146143F6C302C0F20B2178
:1032F000C0F20B220020FFF78FF942F66143C0F2C3
:103300000B2343F2146142F65762C0F20B21C0F264
:103310000B220020FFF780F92046BDEC048B01B0A2
:10332000F0BD4CF28C504DF60001C2F20E20C0F2FE
:10333000B8519FED270AB6EE008A0160B1EEC09A3F
:103340009FED240AB0EE481A09EE001A43F60C006D
:10335000BCEEC10A10EE105A290A00F0F7FEB8B907
:10336000E9B243F60D0000F0F1FE88B939EE080A23
:1033700043F60E00BCEEC00A10EE105A290A00F007
:10338000E5FE28B9E9B243F60F0000F0DFFEA0B178
:1033900043F2146143F2474243F6DB030446C0F2B2
:1033A0000B21C0F20B22C0F20B230020FFF734F9EF
:1033B00043F27473C0F20B23A3E700F00DF828B1B9
:1033C00043F216430446C0F20B239AE70024A3E716
:1033D000007C9249ABAAAA3F10B582B00DF107015B
:1033E00044F6140000F067FE28B143F6CB330446E0
:1033F000C0F20B230FE09DF8070000F03F0144F6F8
:1034000014008DF8071000F0A1FE90B143F6DB0325
:103410000446C0F20B2343F2146143F6F402C0F2F7
:103420000B21C0F20B220020FFF7F6F8204602B075
:1034300010BD0024FAE710B543F20800022100F0A5
:1034400085FE28B143F2DC430446C0F20B230AE0B8
:1034500044F20220002100F079FE88B143F6EB131C
:103460000446C0F20B2343F2146143F6B202C0F2E9
:103470000B21C0F20B220020FFF7CEF8204610BD32
:103480000024FBE710B544F202200F2100F05EFE9D
:10349000044670B143F2146142F6CC7243F2153324
:1034A000C0F20B21C0F20B22C0F20B230020FFF769
:1034B000B3F8204610BD70B54CF29055C2F20E25FF
:1034C000286808B101241BE0002003F0FDFC2860FF
:1034D00078B10021002403F0BEFD4CF29456002880
:1034E000C2F20E26306028680CD003F051FD2C602B
:1034F00006E04CF294500221C2F20E20016000243A
:10350000204670BD4FF48071802206F09FFB4CF284
:103510009851C2F20E21086090B12868012103F091
:10352000FBFD00283060EAD1286801210022002438
:1035300002F0A0FC00283060E2D100F009F8C1E7F9
:1035400001203060286803F023FD0024CFE7D4D4A5
:103550002DE9F04F83B040F2000A0020C6F6000AC1
:1035600080EF50000122022487FF5F2E0DF1040836
:103570004FF0000B00BF00BF43F2BA0143F6A64371
:10358000C0F20B21C0F20B2311F80B70A7F1300130
:10359000492900F25180DFE811F04A00AC008400B4
:1035A0009300B10070006B006600C5007A00CA008D
:1035B000F700F700F700F700F700F700F7007500D5
:1035C000BB00A200F700F700F700F700F700F700D4
:1035D000F700F700F700F700F700D900F700F70051
:1035E000F700F700F700F700F700F700F700F70023
:1035F000F700F700F700F700F700F700CF00F7003B
:10360000E3005C00C000F700A7008900ED00F700B0
:10361000DE007F006100D40098008E00F700E80013
:103620009D00B600F200F700F700F700570043F6E0
:10363000B543C0F20B23A7E0202F40F0A58043F64E
:10364000AB43C0F20B239FE043F63C53C0F20B2385
:103650009AE043F60553C0F20B2395E043F64B5333
:10366000C0F20B2390E043F6D843C0F20B238BE06B
:1036700043F6D343C0F20B2386E043F6CE43C0F2B9
:103680000B2381E043F6E743C0F20B237CE043F6D3
:10369000E243C0F20B2377E043F61453C0F20B234E
:1036A00072E043F6BF43C0F20B236DE043F646538E
:1036B000C0F20B2368E043F62353C0F20B2363E010
:1036C00043F6C443C0F20B235EE043F61E53C0F240
:1036D0000B2359E043F62D53C0F20B2354E043F67D
:1036E000F143C0F20B234FE043F64153C0F20B23EA
:1036F0004AE043F6BA43C0F20B2345E043F6C94320
:10370000C0F20B2340E043F63253C0F20B233BE000
:1037100043F6EC43C0F20B2336E043F60A53C0F203
:103720000B2331E043F6DD43C0F20B232CE043F6DC
:10373000B043C0F20B2327E043F6FB43C0F20B2358
:1037400022E043F61953C0F20B231DE043F6F64383
:10375000C0F20B2318E043F6A423C0F20B2313E0BE
:1037600043F60053C0F20B230EE043F62853C0F299
:103770000B2309E043F60F53C0F20B2304E043F69A
:103780003753C0F20B2300BF1F791B68019340F22F
:1037900000034FEA8B11C6F600030B440026591DA7
:1037A0008DF80870CDF800A001EBC60C4FF00509AC
:1037B00002FA06F7A4EE107B4546574644F001E0B6
:1037C00029F001E871FE4D0FB5FC046F04EF56615E
:1037D00027FECF0F20EF506171FE4D0F22EF526197
:1037E00029F001E8A9F1040971FE4D0FA7EC046F5F
:1037F0000FF01BC001360AF1080A082E8CF80200EF
:10380000ACF80000D0D10BF1010BDDF800A0BBF14A
:10381000230F0AF1400A9863D8637FF4ADAE03B07A
:10382000BDE8F08F4CF29450C2F20E200068704751
:103830002DE9F04782B04CF29C58C2F20E2898F85D
:103840000070012F03D14CF2945012212AE04CF267
:1038500090590746C2F20E29D9F8000098B10D46DA
:103860004CF29851C2F20E21096881B19FB1002D2E
:1038700005DD1446002A12DD1E46AB421ADA4CF270
:1038800094500A210EE04CF2945002210AE04CF2CE
:103890009450042106E04CF29450112102E04CF2C5
:1038A00094500B21C2F20E2001600026304602B077
:1038B000BDE8F08706F025FA4CF2945A0028C2F2CF
:1038C0000E2ACAF80000F0D1D9F800000121CDE994
:1038D0000041394632462B4607F036FB0028CAF82D
:1038E0000000E2D1691E621ED9F8000017B20BB2C7
:1038F000002100220097002607F0EEFA0028CAF8FF
:103900000000D3D14CF2A0504CF2A451C2F20E20D0
:10391000C2F20E21012688F8006005600C60C5E740
:103920002DE9F04F83B04CF29056C2F20E26356866
:10393000002D00F0AB804CF29C57C2F20E273F786E
:10394000002F00F0A780DDF83480B8F1000F40F3BD
:10395000AD80904250EAC28450EAB28A994251EA5C
:10396000C38051EAB38950EA040100F197804CF218
:10397000A051C2F20E2109688A4580F28F804CF274
:10398000A452C2F20E221268914580F287800C9BED
:103990004FF0F80CA1F1010E03F01F070CEA132100
:1039A000013A41EA533CF90041EA97014FF440776C
:1039B00007EA530703F4FC63744554EABE8B47EAF5
:1039C00043130024904250EAB28743EA0C40421865
:1039D0000021284602F03BFA4CF294510028C2F232
:1039E0000E21086069D12AEAEA70029429EAE97195
:1039F000000102B208010FFA80F94FEA0B1005B27C
:103A00004FEA081093460FFA80FA306811464A468A
:103A10002B46CDE9009A06F06BFE4CF2945100283B
:103A2000C2F20E21086048D1380129460FFA80F809
:103A300030684A462B460024CDE9008A029406F0FD
:103A400057FE4CF29451C2F20E210860A8BB3068B8
:103A5000294642465B46CDE9008A029406F048FEBC
:103A60004CF29451C2F20E21086030BB30680D4612
:103A700000210291594642465B46CDE9009A06F084
:103A800037FE00285FEA1F94286016E04CF294503D
:103A900002210EE04CF2945003210AE04CF29450C3
:103AA0000021C2F20E200124016006E04CF2945085
:103AB0000A21C2F20E2001600024204603B0BDE8B6
:103AC000F08FF0B581B04CF29056C2F20E263068FD
:103AD00048B34CF29851C2F20E21096851B34CF22E
:103AE0009C55C2F20E252A78DAB30022002406F093
:103AF0005EF94CF29457C2F20E273860C0BB3068B2
:103B000003F039FB4CF2A0520028C2F20E225FEA09
:103B10001F912C70386014604CF2A452C2F20E2235
:103B200014600C462FE04CF29C500024C2F20E2090
:103B3000022105E04CF29C500024C2F20E20042128
:103B400004704CF2A050C2F20E2004604CF2A4505B
:103B5000C2F20E2004604CF29450C2F20E200160BA
:103B600011E04CF294500321C2F20E2000240160B7
:103B70004CF2A0504CF2A451C2F20E20C2F20E211F
:103B80002C7004600C60204601B0F0BD2DE9F04FB0
:103B900081B04CF29055C2F20E25D5F800C0BCF1B0
:103BA000000F6AD04CF29C57C2F20E273F78002FCC
:103BB00067D0904250EAC28750EAB289994251EAEE
:103BC000C38651EAB38856EA070062D44CF2A0508B
:103BD000C2F20E20D0F800A0D1455ADA4CF2A4501F
:103BE000C2F20E20D0F800B0D84552DA0A98F82177
:103BF00000F01F0201EA1021D3004FF4407443EAA1
:103C0000920200F4FC6341EA503104EA50000024BF
:103C100040EA431040EA014000210244604602F0BD
:103C200016F94CF29451C2F20E210860C0BBABF100
:103C300001008B46AAF1010129EAE973864256EA9E
:103C4000B0808F4257EAB18128EAE8721E01C91A92
:103C5000871A1023120103EB0111286803EB0717E1
:103C60000BB231B212B23FB2009706F00FFD00283E
:103C70005FEA1F94CBF8000012E04CF2945002214E
:103C800002E04CF294500321C2F20E2001600024A5
:103C900006E04CF294500021C2F20E200124016093
:103CA000204601B0BDE8F08F2DE9F04F89B04CF20D
:103CB0009059C2F20E29D9F80050002D57D08046F5
:103CC0004CF29C50C2F20E20007800285AD01446C4
:103CD000002A62D0DDF848A0BAF1000F68DD0E4678
:103CE00003F01F01F820CA0000EA13204FF44077C8
:103CF00042EA910103F4FC6240EA533007EA5303BD
:103D0000002743EA421242EA0040421800212846B6
:103D100002F09DF84CF2945B0146C2F20E2BCBF8F8
:103D2000000043F25640C0F20B2000F0D8F8DBF858
:103D30000000002849D1D9F800000221032202F036
:103D400099F80146CBF8000042F6D930C0F20B20BA
:103D500000F0C5F8DBF80050DDB3D9F80000012110
:103D60000022002702F086F8CBF800502DE04CF23C
:103D700094500221C2F20E20016042F66360C0F24C
:103D80000B201FE04CF294500321C2F20E20016080
:103D900043F24100C0F20B2014E04CF29450112188
:103DA000C2F20E20016043F26B00C0F20B2009E06A
:103DB0004CF294500A21C2F20E20016043F29200AC
:103DC000C0F20B2000F08BF80027384609B0BDE8A0
:103DD000F08F0AEB8A0000270001CAEBCA0100B28B
:103DE0000890080100B20790300100B206900AEB7B
:103DF0004A00460000BF00BF207820284FD000288E
:103E000050D043F2BA020021C0F20B2200BF00BF23
:103E100012F8013B834203D001312329F8D100215C
:103E200040F20002D9F80000C6F60002052302EBBA
:103E3000811108220725CDE9005701F0E2F801467B
:103E4000CBF8000043F2D810C0F20B2000F047F886
:103E5000DBF800A0D9F80000BAF1000F37D14FEA23
:103E60000811089A09B20192079ACDE902210521A9
:103E7000072200230097069D04953025059501F043
:103E8000F1F80146CBF8000042F6DE70C0F20B20DC
:103E900000F025F8DBF80050002D7FF45EAFB04451
:103EA0000134A9E7D9F800000121002201F0E2FF66
:103EB0000146CBF8000042F6D930C0F20B2000F0EA
:103EC0000EF8DBF8000000285FEA1F977DE701216C
:103ED0000022002701F0CEFFCBF800A075E783B0E9
:103EE00080B581B0844603A80EC003A800906A463E
:103EF00000206146FEF75CF901B0BDE8804003B0E8
:103F00007047D4D4D4D4D4D470B5A2B04CF6A04069
:103F1000C2F20E200078A0B14CF6A040C2F20E20F2
:103F200009F0E3FD68B143F2146142F6E76243F63B
:103F300045030446C0F20B21C0F20B22C0F20B2352
:103F400052E043F688516C46C0F20B21882220468D
:103F50000BF0BFF94CF2B2554CF2B456C2F20E253A
:103F6000C2F20E2628883188ADF804004CF6A04035
:103F7000ADF80610C2F20E20214609F0DAFB28B196
:103F800043F283630446C0F20B2325E0288840F205
:103F90004031C2F2002103233288888003EB4000C5
:103FA0004FF6FC73CA801840886050434CF2AC5204
:103FB000C2F20E2240F60013C6F600030B6010603A
:103FC0004CF6A040C2F20E2009F0FFFD90B143F282
:103FD0007A430446C0F20B2343F2146142F6E762CF
:103FE000C0F20B21C0F20B220020FEF715FB204689
:103FF00022B070BD4CF2A8500021C2F20E20017018
:10400000017809B92FF005C00024F0E700780328F3
:1040100018BF70474CF2A8500121C2F20E20017067
:10402000704700F0CDB8022818BF704780B54CF635
:10403000E04044F28041C2F20E20C0F20B2108F0B1
:1040400006FD0120BDE880400AF0AABD10B54CF67F
:104050002C5043F6F871C2F20E20C0F20B2108F08A
:10406000D7FD044670B143F2146143F61D2242F6B7
:104070000D73C0F20B21C0F20B22C0F20B23002003
:10408000FEF7CAFA204610BDB0B54CF2B055C2F2E8
:104090000E252978884208BFB0BD044600BF00BF86
:1040A0002878012803D00A2001210AF08EFC287804
:1040B0008442F5D1B0BDF0B581B04CF2B05640BAF3
:1040C000ADF80200C2F20E264CF62C500D46C2F29C
:1040D0000E200DF10201022201230027377008F0A3
:1040E0001BFE68B143F2146142F6014242F68A4374
:1040F0000446C0F20B21C0F20B22C0F20B231AE0DF
:104100000320FFF7C1FF4CF62C500122C2F20E2013
:1041100000232946377008F0F9FD90B143F214618D
:1041200042F6014243F62E230446C0F20B21C0F2B0
:104130000B22C0F20B230020FEF76EFA204601B0DE
:10414000F0BD0220FFF7A0FF0024F7E710B582B012
:10415000020A8DF806004CF2B0508DF80520C2F22C
:104160000E208DF807100021032201704CF62C5010
:10417000C2F20E200DF10501002308F0CDFD04462A
:1041800078B143F2146143F6A92242F68A43C0F2A1
:104190000B21C0F20B22C0F20B230020FEF73CFAE9
:1041A00002E00320FFF770FF204602B010BD28B1E7
:1041B0004CF2B0510079C2F20E2108707047D4D48D
:1041C000AAB043F2A650C0F20B2000F00FFDFEF79C
:1041D0006FFA28B1014643F20850C0F20B2076E096
:1041E00044F240280120C0F20F08012441460AF0A1
:1041F000ECFB4CF2586743F2595943F6505A0026EB
:10420000C2F20E27C0F20B29C0F20B2A00BF00BF7A
:104210004FF4007138460BF058F84846314600F02C
:10422000E5FC5AF826004FF4007241F28833394613
:10423000FEF78AFAE0B9E0074FF001064FF00004FC
:10424000E6D14CF658044FF40071C2F20E24204619
:104250000BF03BF843F660404FF40072C0F20B20C5
:1042600041F288332146FEF76FFA58B1054622E045
:10427000054642F68C60C0F20B2031462A4600F01B
:10428000B5FC1FE04CF6580042F6F841C2F20E2091
:10429000C0F20B210BF01DF930B1017AA1F133000E
:1042A00010F1030F80F03C8342F61040C0F20B2067
:1042B00000F09CFC012542F6B7402946C0F20B20D5
:1042C00000F094FC42F627502946C0F20B2000F083
:1042D0008DFCFFF7BBFE43F25931C0F20B2100F019
:1042E00097FC0A204FF47A710AF06FFBFEF73AFF51
:1042F00043F27431C0F20B2100F08AFC43F6964081
:104300004CF2B255C0F20B204CF2B454C2F20E255E
:10431000C2F20E2401894089298020800A204FF4AE
:104320007A710AF052FBFFF7EFFD43F2D221C0F29F
:104330000B2100F06DFC0A204FF47A710AF045FB66
:10434000FFF7B9F840B9FFF76DFA43F2E7216420AF
:10435000C0F20B2100F05CFC0A204FF47A710AF0E5
:1043600034FB48F600104FF49611C6F625000AF00B
:10437000ACFF44F600104FF49611C6F638000AF070
:10438000A4FF40F600104FF49611C6F64B000AF059
:104390009CFF2E880320002E4BD02788002F48D06A
:1043A0004CF2D45443F6E465C2F20E24C0F20B255D
:1043B0008422204629460AF08CFF286DB5F8482053
:1043C000C0F30B4C6FF31F30B5F84A305043698986
:1043D0000CFB03F2EB89B0FBF7F0A4F848000133C3
:1043E000B2FBF6F00131A4F84A00206D47EA064519
:1043F0007340626800F0F02025F0F02579402844F1
:10440000206541EA030022F08061000418BF01F139
:1044100080614CF2B85C616043F66871C2F20E2CA8
:10442000C0F20B21624691E8E900E9C20020CCF815
:10443000144043F29941C0F20B2100F0E9FB0A203D
:104440004FF47A710AF0C1FAFFF71CF8002800F067
:10445000278242F612630446C0F20B2343F2146132
:1044600042F6B962C0F20B21C0F20B220020FEF727
:10447000D3F843F64F112046C0F20B2100F0C8FBE1
:104480000A204FF47A710AF0A0FA40F26000C2F2FA
:104490000020FEF71DFE43F2F061C0F20B2100F098
:1044A000B7FB43F2B3410020C0F20B21FEF7B4F892
:1044B0000A204FF47A710AF088FA40F2283043F665
:1044C0006851C2F20020C0F20B2107F0E9F843F274
:1044D0009131C0F20B2100F09BFB0A204FF47A715E
:1044E0000AF073FA4CF2A8544CF2D05512A8C2F25A
:1044F0000E24C2F20E25802742F20919B6EE008A78
:104500009FEDE09A9FEDE0AA9FEDE0BA9FEDE0CA33
:1045100001221030049000BF40F600104FF49611B5
:10452000C6F6000002FB01060392069600BF00BF1C
:104530000020207000BF00BF207808B92FF005C010
:104540002968002900F081814FF49612304644F228
:10455000051B0AF0BEFEFCF794FBD5F800C000F185
:1045600002084FF0000A00BF4FF416504FF600014A
:104570000AFB00F0C0F21F0147F001E000250840EF
:104580000CEB0003404600BFC5F3C91105F51675D5
:1045900003EB410191F8A86191F8A911F20841EAF1
:1045A000062401F01F01C4F345141202A2EBD60247
:1045B000C4EB042402FB09F2C1EB012104FB0BF460
:1045C00001FB09F187EA924200F8022C87EA1452B3
:1045D00000F8012C87EA914100F8031B0FF02DC071
:1045E0000AF1010A44F2051BBAF1800F08F5C07800
:1045F000BAD10020FCF755FBFCF74EFB12AC0422AD
:104600002146B0EE480A00F05FFB01462046B0EEBE
:10461000490A00F0FDFB0128069EC0F20E81044607
:104620004FF480614FF416724FF480633046FFF709
:10463000FFF840B9FFF7F6F843F25C116420C0F2CE
:104640000B2100F0E5FA0DF1480B2646059400BF5A
:104650009BED023A9BED000A23EE0A3A9BED034ADA
:1046600020EE0A0A9BED041A24EE0A4A9BF8140075
:1046700023EE0B3A0AAD20EE0B0AB0EE482AA1EE6B
:104680000C2A9BED011A21EE0A1A24EE0B4ABDEE0C
:10469000C33ABDEEC00A13EE101A21EE0B1ABDEE9E
:1046A000C44AD43110EE104A079143F6605114EE1B
:1046B000102AC0F20B21BDEEC11A099204F1D402F6
:1046C000089243F2020251F8203020212846C0F21D
:1046D0000B2211EE10AABCEEC20A8DED000A0AF000
:1046E00035FF4FF002082846BAF1110FC8BF6FF02E
:1046F00011080AF0FFFD05464FF478400221CDE98C
:10470000000108985146079A099BFFF709F940B93B
:10471000FFF788F843F60B416420C0F20B2100F04C
:1047200077FA05EB450008EB0A03820004F1D30099
:104730002244591ED6320F3300250095FFF726FA82
:1047400040B9FFF76FF843F279116420C0F20B21F2
:1047500000F05EFA013E0BF1180B7FF479AF4FF0D9
:10476000020AFFF7AEF940B9FFF75CF842F6F261D2
:104770006420C0F20B2100F04BFA059901200129B9
:1047800051EAC088049C0DF1280B069E00BF00BFB3
:1047900094ED000AB0EE481AA0EE0C1A207943F608
:1047A000605143F20202C0F20B21C0F20B2214ED61
:1047B00004DA14ED03EA51F8203020215846BCEE0B
:1047C000C10A8DED000A0AF0C1FE4FF480614FF47A
:1047D00016724FF480633046FFF72AF858B32EEE76
:1047E0000A0A02212DEE0A1A4FF478435A4620EEA7
:1047F0000B0A21EE0B1ABDEEC00A10EE100ABDEE38
:10480000C10A1128C8BF6FF01101014410EE100A4F
:10481000CDF800A0D430FFF747FA0546FFF702F8BD
:10482000FFF74FF935B128B1B8F1010804F11804C8
:10483000AED102E00DB1FEF7F5FF4CF2A8544CF2F8
:10484000D055C2F20E24C2F20E250020207000BF07
:10485000207808B92FF005C04CF6A0400022C2F223
:104860000E20314609F0C8F940F2EE3188423FF49B
:104870005FAE88B143F65521C0F20B2100F0C8F9B4
:1048800056E600BF6666E63E000016440000003CA7
:104890000000C84200BF00BF039A82F001023BE65D
:1048A0004CF6CC40C2F20E20006860B14CF6CC4011
:1048B000C2F20E2007F0D7F828B143F228230446AD
:1048C000C0F20B23CAE543F208004221FFF73EFC89
:1048D00028B142F633430446C0F20B23BEE54CF642
:1048E000CC404CF2B851C2F20E20C2F20E2107F0B9
:1048F00010F828B143F66E430446C0F20B23ADE531
:104900004CF6CC400021C2F20E2007F014F900282A
:1049100000F0998042F664730446C0F20B239DE5D3
:10492000302940F09B8043F21410C0F20B2000F0BD
:104930005DF94CF2586643F6640843F65859002472
:104940000127C2F20E26C0F20B28C0F20B294FF449
:10495000007130460AF0B9FC4046214600F046F9A5
:1049600059F824004FF4007241F288333146FDF7C4
:10497000EBFE002840F0F880F8074FF001044FF0FC
:104980000007E4D143F61730C0F20B2000F02EF9F7
:1049900043F2A16042F68751C0F20B20C0F20B2116
:1049A0004EF66022FEF7E0F90446F0B94CF65824C2
:1049B0004FF40071C2F20E2420460AF086FC42F643
:1049C000BE304FF40072C0F20B2041F28833214612
:1049D000FDF7BAFE002800F0EF80044642F6CB5007
:1049E000C0F20B20214600F001F943F6B920214620
:1049F000C0F20B2000F0FAF8FEF7BBFA28B143F240
:104A00004830C0F20B2000F0F1F840F2203443F2BD
:104A10001570C2F20024C0F20B2041F28831224608
:104A2000FEF7EBF9002800F0A980054643F2FE10DE
:104A3000C0F20B20294600F0D9F843F6141029469D
:104A4000C0F20B209FE0FEF7F6FC002800F09480F7
:104A500043F2AB630446C0F20B23FFE443F671104C
:104A6000C0F20B2000F0C2F84CF658044FF400716D
:104A7000C2F20E2420460AF028FC43F2CA704FF41A
:104A80000072C0F20B2041F288332146FDF75CFE34
:104A900000287FF4EBAB4CF658044FF40071C2F2DF
:104AA0000E2420460AF011FC43F6CF104FF400729A
:104AB000C0F20B2041F288332146FDF745FE002865
:104AC0007FF4D4AB0320414609F07FFF4CF6580435
:104AD0004FF40071C2F20E2420460AF0F6FB42F6B3
:104AE000B2404FF40072C0F20B2040F6B8332146BA
:104AF000FDF72AFE00287FF4B9AB4CF658044FF4BA
:104B00000071C2F20E2420460AF0DFFB43F660403B
:104B10004FF40072C0F20B2041F288332146FDF7BA
:104B200013FE00287FF4A2AB4CF6580042F6F84181
:104B3000C2F20E20C0F20B210AF0CBFC0146002885
:104B400043F2D870C0F20B203FF4B2AB0C7A42F6BD
:104B50006751C0F20B21302C51EA008000F046F87A
:104B6000302C7FF4A7ABE4E6054643F29470C0F224
:104B70000B202146FFF782BB00247AE4217843F61C
:104B80005730C0F20B2000F031F8207843F2EF31BB
:104B9000C0F20B21FEF711FA30B1014643F6E330C3
:104BA000C0F20B2000F022F843F6EF20C0F20B20F9
:104BB00000F01CF8FFF78DBB4CF6582043F2A6110D
:104BC000C2F20E20C0F20B210AF083FC30B142F693
:104BD000F250C0F20B2000F009F80DE743F68A000E
:104BE000C0F20B2000F002F80124FEE683B080B58D
:104BF00081B0844603A80EC003A800906A46002036
:104C00006146FDF7D5FA01B0BDE8804003B07047BA
:104C1000002846D010B504460020FDF7FDFC4CF6F8
:104C2000CC40C2F20E200068A8B14CF6CC40C2F2D3
:104C30000E2006F018FF70B143F2146142F65A528A
:104C400043F2FF03C0F20B21C0F20B22C0F20B2390
:104C50000020FDF7E1FC4CF62C50C2F20E20C0689B
:104C6000A8B14CF62C50C2F20E2008F060F870B1DA
:104C700043F2146142F65A5243F23D53C0F20B2103
:104C8000C0F20B22C0F20B230020FDF7C5FC43F25B
:104C9000A9310020C0F20B212246FDF7BDFC00BE69
:104CA00010BD70470168012909D1017A890658BFF2
:104CB00070474CF2D051C068C2F20E2108607047B4
:104CC0007047D4D4D4D4D4D400284FF0000C00F0D2
:104CD0009980002900F09680012AC0F293802DE986
:104CE000F04F81B02DED088B82B042F29B4BA2F1C8
:104CF00001094FF0000884EF53269FED431A4FF04F
:104D00003A0AC3F60A4B80EF504000274FF0000CE0
:104D100001F12803019300BF07EB8703034493F9D4
:104D200004603A3606EE106AB8EEC66A26EE016AEC
:104D3000B4EE406AF1EE10FA5AD493ED008F29EEEA
:104D40004A8FBBFF488639EE6B8E08FF528D39EED5
:104D5000031F33FE09AF39EECF1F35FE0B8FB4EEC4
:104D6000489AF1EE10FA43D9F4EE689AF1EE10FA8F
:104D70003ED9944508DA0CEB4C030CF1010401EB2D
:104D8000C3066346A44626E0022A18D349F001E090
:104D900000230125019E00BF03EB430496ED007A3A
:104DA000183601EBC404D4ED040AB4EE607AF1EED7
:104DB00010FA55EA438301350FF013C000E00023D9
:104DC00003EB430601EBC60696ED047AB4EE476AA0
:104DD000F1EE10FA0CDD86ED009F86ED046A03EB20
:104DE000430301EBC303C3F8148000BF00BF00BF3F
:104DF0000137B7F5A87F8FD102B0BDEC088B01B0A9
:104E0000BDE8F04F604670479B240A3CD4D4D4D40C
:104E10002DE9F04F89B000284FF0000800F0E6803F
:104E20000129C0F2E380B7EE001AB4EE410AF1EEB8
:104E300010FAB5EE400A31FE001A9FED6E0AF1EE4F
:104E400010FA48BFB0EE401A0229009145D30099EC
:104E500000F1280B8A1E01394FF0000CCDE9011238
:104E6000A1EB0C0EE2460CF1010C5B466646554682
:104E700005EB450793ED002A183300EBC70797EDC4
:104E8000043AB4EE432AF1EE10FA56EAC58501362B
:104E90000FF013C055451CD00AEB4A0303AA05EBDB
:104EA0004507644600EBC30E734600EBC70793E863
:104EB000621382E862133946A446B84691E8FC00C2
:104EC00003A98EE8FC0091E8FC0088E8FC00DDE91D
:104ED000011292450BF1180BC2D100F10C0C4FF0EE
:104EE00000094FF00008DDF800B000BF00BF00BFB0
:104EF000B8F1010F09EB490E67DB00EBCE04664603
:104F00004746257D00BF00BF317A8D4259D194EDCF
:104F1000002A16ED033AB4EE432A94ED014AF1EE6D
:104F200010FA16ED025A94ED027AB4EE454A16EDE7
:104F3000016A72FE032AD4ED030AF1EE10FAB4EE10
:104F4000476AD6ED001A74FE053AF1EE10FAF4EE57
:104F5000601A77FE064AF1EE10FA74EEE22AF0EEDD
:104F6000404AF5EE402A70FEA15AF1EE10FA23D91C
:104F700075EEE33AF0EE404AF5EE403AF1EE10FA03
:104F80001AD937EE422A36EE433A31EEC55A30EEA0
:104F9000C44A23EE053A02EE043A22EEA32AF0EECA
:104FA000404A33EE423A82EE032AB5EE403AF1EE41
:104FB00010FA88BFF0EE424AF4EE414AF1EE10FAE0
:104FC0000FDC013F06F118069ED108EB480108F1FD
:104FD000010800EBCE0700EBC10A97E87E008AE8E3
:104FE0007E0009F10109D9457FF482AF404609B03E
:104FF000BDE8F08F0000000080B5FFF712F8002038
:1050000080BD10B5DDF80CC05FEACC6E04D590F819
:1050100082E05FEA0E6E17D55FEA8C6E04D590F8D9
:1050200082E05FEA8E6E0FD52CF0300EAEF10D0EE1
:10503000BEF1020F0CD8D0F880E05FEACE3407D47E
:105040000EF0FE04092C03D8092180F8C61106E0F1
:10505000406A029C00F5B47080E81E1000210846EA
:1050600010BDD4D42DE9F04F8BB0446A924604F5BC
:10507000B67299460D46834607CADDF86480149BD4
:10508000B0F5006F05EB0900A8BF28F008088842BA
:105090000A950AEB0300C8BFA1EB0905DBF83070E5
:1050A0009042CDF820A0C8BFA2EB030A002F5FEA10
:1050B0000F9018F4807F5FEA1080E17DD4F878616A
:1050C0000128099040D194F80E013970B87094F815
:1050D000D5007870D4F8FC007860D4F80001B8608E
:1050E000D4F82C01F860D4F838013861D4F83401D0
:1050F000786104F1E800D4F8EC10B961D4F8F0104C
:10510000F961D4E93D12C7E9081290FD000F87ED5F
:10511000280FD4F8A800D4F82411D4E94F237963D8
:10512000C7E90B23D4F85811B963D4F85C11F963BB
:10513000786594ED261F87ED111FD4E92C01C7E98E
:1051400017010020069000E006910321584600F068
:1051500059FE00210022584605F018FDF00607967A
:105160001FD4D4F8780120F030000F282BD8DFE8C6
:1051700010F010002E003A002E002E0026013A00FA
:105180002E002E0010001000100010001000100063
:105190001000D4E95A014E46149A484401FB020912
:1051A0002EE008F00F015846D4F8686105F0FDFBC9
:1051B000D4E95B23D4E95D01CDE9000158463146CD
:1051C00005F0D4FA2DE0A0F14101022909D2D4E979
:1051D0005A014E46149A00EB4900514300EB410935
:1051E0000EE0402809D1D4E95A014E46149A00EB4A
:1051F0008900514300EB810902E04E464FF000095F
:1052000008F00F01584605F0D0FBD4F86C21D4F813
:105210007801CDE900A0584649462B4605F0A6FA8C
:10522000B1464FEA08604FF07F4101EAE0705FEA63
:1052300088614FF0A001159B58BF4FF07F4031EAC5
:10524000080118BF4FF07F415FEAC86205D45FEAEA
:10525000486207D46FF07F4207E05FEA4862A268C5
:1052600001D402E0A2681043E268114394F80E21D1
:10527000169E112BCE46C4E9560142F0050084F873
:105280000E0106D30A9998B20905B1FBF0F14B085B
:1052900002E04FF4803100230898112E179D4FF043
:1052A000000C05DB0205B146B2FBF6F6720803E01E
:1052B000B1464FF480360022DDF828A018F4007FB4
:1052C00018BFC3EB0A4351EA01B118F4806F18BF4D
:1052D000C2EB004256EA06B65FEA487048BFA3F543
:1052E00000435FEA087048BFA2F50042079810F03B
:1052F000100F149818BF03EB0E4318BF02EB0042C7
:105300000496189ECDE90021584629463246CDE93B
:1053100002CC05F01CFC1598CDE900095846214641
:105320002A46334600F080FB099800283FD03878A1
:105330007978BA78E07584F8D5107868C4F8FC00FC
:10534000B868C4F80001F868C4F82C013869C4F8DA
:1053500038017869C4F83401B869C4F8EC00F86918
:10536000C4F8F000D7E90801C4E93D0104F1E80000
:1053700084F80E2107F12C0297FD280F80ED000F15
:105380007B6D07CAC4F82421C4E94F01B86BC4F887
:105390005801F86BC4F85C01C4F8A83097ED111FF0
:1053A00084ED261FD7E91701C4E92C0103E0584614
:1053B000069900F027FD00200BB0BDE8F08F9BF8A8
:1053C0008200800603D409208BF8C601F4E7102080
:1053D000C0F20400C4F82C01012084F8E900D8E6EA
:1053E0002DE9F04F83B00C9E0446002E4FF00000D4
:1053F00000F042828B460D990129C0F23D82951939
:1054000022F00F00ADF8040023F00F00ADF8060005
:10541000681E5E1820F00F00ADF80800701E20F026
:105420000F00ADF80A0001A920469946174605F07D
:10543000F6FDC0B1A5F11000A6F110010FFA80FA37
:1054400020460FFA81F8594604F08AFD9BF8D500F2
:1054500081074FEAC07008D4002840F0F98001AA03
:1054600000230020E0E1002006E2002840F0F08068
:105470004AEA070048EA090100074FEA017100F013
:10548000FE81BDF9040000254FF48033CFF6FF758F
:10549000C01BD4E96E720029A2F1010103EB0033B5
:1054A00007F10800C4F8B8014FF00406C7E900632B
:1054B000C4F8BC1100F05082012A05DCD4F8C011F8
:1054C00020468847D4E96E0100F1080201394FF007
:1054D0000A034FF48037C0E90037C4E96E2105DCC8
:1054E000D4F8C01120468847D4E96E2102F10800A3
:1054F00001394FF010034FF00007C2E90037C4E94B
:105500006E0105DCD4F8C01120468847D4E96E014D
:10551000BDF904204FF480330527AAEB020203EB08
:10552000023300F10802C0E90073481EC4E96E208E
:1055300005DCD4F8C01120468847D4E96E2002F17A
:1055400008010B23C2E90035421EC4E96E1205DCD6
:10555000D4F8C01120468847D4E96E1201F1080042
:1055600011230027C1E90037511EC4E96E0105DC93
:10557000D4F8C01120468847D4E96E01BDF9062051
:105580004FF480330627A2EB090203EB023300F14C
:105590000802C0E90073481EC4E96E2005DCD4F897
:1055A000C01120468847D4E96E2002F108010C237F
:1055B0000027C2E90037421EC4E96E1205DCD4F8A8
:1055C000C01120468847D4E96E1201F108004FF45B
:1055D0008036013A4FF01203C1E90036C4E96E0289
:1055E00005DCD4F8C01120468847D4E96E02BDF925
:1055F0000610013A4FF00707A8EB010106EB013353
:1056000000F10801C0E90073C4E96E1205DCD4F8AA
:10561000C01120468847D4E96E1201F108000D231D
:105620000027C1E90037511EC4E96E0105DCD4F83A
:10563000C01120468847D4E96E0100F10802132307
:10564000C0E90035481EC4E96E2040F3E680E8E07A
:10565000BDF904000426C11BDBF810014143D4E965
:105660006E3700EB111203F10801C3E900627B1EE3
:10567000C4E96E1307DCD4F8C01120468847DBF874
:105680001001D4E96E1301F108020A27C1E9007084
:10569000591EC4E96E2105DCD4F8C01120468847A4
:1056A000D4E96E2102F1080010230027C2E9003777
:1056B0004B1EC4E96E0305DCD4F8C01120468847B0
:1056C000D4E96E03BDF90410DBF810210526AAEB1E
:1056D0000101514302EB111700F10801C0E9006715
:1056E000581EC4E96E1007DCD4F8C0112046884764
:1056F000DBF81021D4E96E10534201F108020B27A8
:10570000C1E90073411EC4E96E2105DCD4F8C01163
:1057100020468847D4E96E2102F1080001394FF094
:1057200011034FF00007C2E90037C4E96E0105DC40
:10573000D4F8C01120468847D4E96E01BDF906208F
:10574000DBF810310627A2EB09025A4303EB1212D1
:1057500000F10803C0E90072481EC4E96E3005DCA0
:10576000D4F8C01120468847D4E96E3003F108020E
:105770000C210027C3E90017431EC4E96E2305DC92
:10578000D4F8C01120468847D4E96E23DBF8101105
:1057900002F108001227C2E900715A1EC4E96E0224
:1057A00007DCD4F8C01120468847DBF81011D4E993
:1057B0006E02BDF90630013A4FF00707A8EB03036C
:1057C00001FB03F301EB131300F10801C0E90073BF
:1057D000C4E96E1205DCD4F8C01120468847D4E92C
:1057E0006E1201F108000D230027C1E90037511E98
:1057F000C4E96E0105DCD4F8C01120468847D4E91D
:105800006E01DBF810210139C2F100024FF01303E1
:10581000E0E80232C4E96E0103DCD4F8C01120468E
:10582000884701AA04230F2000902046594601F022
:10583000C3FF01AF06460023204659463A460025DD
:1058400003F09AFF0023204659463A4605F0CCF96A
:10585000D4E96E0100F10802C0E90056481EC4E90F
:105860006E2003DCD4F8C0112046884701A900222D
:10587000204604F0D8FD012003B0BDE8F08F0029D8
:105880003FF4EDADBDF906004FF48031D4E96E234D
:105890000427A0EB090001EB003102F10800C2E986
:1058A00000715A1EC4E96E0205DCD4F8C01120460E
:1058B0008847D4E96E0200F10801013A4FF00A036B
:1058C0004FF00007C0E90037C4E96E1205DCD4F8D8
:1058D000C01120468847D4E96E1201F108004FF448
:1058E0008036013A4FF01003C1E90036C4E96E0278
:1058F00005DCD4F8C01120468847D4E96E02BDF912
:105900000610013A4FF00507A8EB010106EB013341
:1059100000F10801C0E90073C4E96E1205DCD4F897
:10592000C01120468847D4E96E1201F108000B230C
:105930000027C1E90037511EC4E96E0105DCD4F827
:10594000C01120468847D4E96E01002700F1080203
:105950001123CFF6FF7757E0012A05DCD4F8C011F8
:1059600020468847D4E96E0100F1080201394FF062
:105970000A034FF48037C0E90037C4E96E2105DC23
:10598000D4F8C01120468847D4E96E2102F10800FE
:1059900001394FF010034FF00007C2E90037C4E9A6
:1059A0006E0105DCD4F8C01120468847D4E96E01A9
:1059B000BDF904204FF4803301394FF00507AAEBFD
:1059C000020203EB023300F10802C0E90073C4E9EC
:1059D0006E2105DCD4F8C01120468847D4E96E2139
:1059E00002F1080001394FF00B03C2E90035C4E9A8
:1059F0006E0105DCD4F8C01120468847D4E96E0159
:105A000000F1080211230027C0E90037481EC4F83E
:105A1000B821C4F8BC0103DCD4F8C0112046884783
:105A200001AA02230320FFE680B5DDE902ECCDE9FF
:105A300002ECBDE88040FFF7D3BC80B582B094464D
:105A40000A46DDF810E0816ACDE9003E6346FFF7C3
:105A5000C7FC002002B080BDB0B582B0B0F86EC007
:105A6000B0F870E0069D8C440EEB02040FFA8CF245
:105A7000C16A0FFA84FCCDE900356346FFF7B0FC3C
:105A8000002002B0B0BD2DE9F04F89B0B0F96C70C4
:105A9000012F6ADB0446994690460D46102FDDF82B
:105AA00048A0C16A2BD1A8EB0703E81B1EB20AEB82
:105AB000470C02B2204633460FFA8CFBCDE9007B3F
:105AC000FFF78EFCE16A20462A463346CDE900976F
:105AD000FFF786FC09EB0500E16A02B22046334677
:105AE000CDE9007BFFF77CFC0AEB0800E16A03B21A
