:020000040200F8
:1000000080C3002221BE000209BC00022BBE0002F8
:100010002BBE00022BBE00022BBE00022BBE000234
:100020000000000000000000000000002BBE0002E5
:100030002BBE0002000000002BBE00022BBE0002FF
:100040002BA3000201A5000269A6000251A700022D
:1000500051950002279A0002A79A0002879B00028E
:1000600099B000021BB100026FB10002A190000222
:10007000EDB500025D1F00025F1F0002611F00025C
:04008000631F0002F8
:100090003D500000AAAA3200FFFFFF0008304200D6
:1000A0000331130003310300003000000430FF006F
:1000B00002301C000630C3000E3045002E30080010
:1000C000343018001F500000004332001836000082
:1000D00012362900093752000C370300203840003F
:1000E000213801003036360031360E003236E2005B
:1000F000333612002136E0000437A00003375A00DF
:1001000015377800173701000B37600005371A00E4
:10011000053902000639100001390A003137120092
:1001200000360800013633002D30600020365200C2
:100130001B3720001C475000133A4300183A0000B8
:10014000193AF800353613003636030034364000CD
:1001500022360100014002000440020005401A005E
:100160000150A30003350700003500000135FF00F2
:10017000023500000A3500000B3520000F3A300030
:10018000103A28001B3A30001E3A2600113A60004F
:100190001F3A1400183A0000193A7C000634000097
:1001A00000340700013470000234040003340000FE
:1001B000043405000534C000805401008154080057
:1001C00082541400835428008454510085546500DF
:1001D0008654710087547D008854870089549100AB
:1001E0008A549A008B54AA008C54B8008D54CD00C8
:1001F0008E54DD008F54EA0090541D008055060097
:100200008355400084551000895510008A55000020
:100210008B55F800005823000158140002580F00B5
:1002200003580F00045812000558260006580C0009
:100230000758080008580500095805000A58080022
:100240000B580D000C5808000D5803000E58000004
:100250000F580000105803001158090012580700E9
:1002600013580300145800001558010016580300D5
:100270001758080018580D00195808001A5805009A
:100280001B5806001C5808001D580E001E58290057
:100290001F5817002058110021581100225815002E
:1002A00023582800245846002558260026580800C0
:1002B0002758260028586400295826002A58240068
:1002C0002B5822002C5824002D5824002E580600AC
:1002D0002F58220030584000315842003258240034
:1002E000335826003458240035582200365822004E
:1002F0003758260038584400395824003A58260008
:100300003B5828003C5842003D58CE000050A70002
:1003100020384600213800001438310015383100EB
:100320000338040008380400093800000A380200C5
:100330000B3858000C4622003748100024380200C1
:100340000150A3003D50000041470000FFFFFF00A7
:1003500018C40E220000000000000000100300225C
:100360000000000000000000000000000000006825
:100370000004580200040000020000000000000019
:10038000000000000000000000FF0000000000006E
:100390000000080000000000000000000000000055
:1003A0000000100800000000000000000000000035
:0203B000010149
:1003C0002DE9F04385B018461546884601240821DA
:1003D000202220230C9E4FF0000C18278DE8D0001F
:1003E000CDF80CC04FF008090BF0E2FE08212022E6
:1003F000202328460094CDF80C90CDE901670BF03E
:10040000D7FE0821202220231020039040468DE8AB
:10041000D0000BF0CDFE05B0BDE8F0832DE9F0472C
:1004200084B01E4690468946DDE90C071021102253
:1004300010234FF0000C40240125CDE900574FF068
:10044000100A0294CDF80CC00BF0B2FE102110225D
:10045000102330460095CDF80CA0CDE901740BF0C7
:10046000A7FE20200390102110221023484600955B
:10047000CDE901740BF09CFE1021102210233020D6
:1004800003904046CDE9005702940BF091FE04B072
:10049000BDE8F0872DE9F04784B01E4690468946B6
:1004A000DDE90C072021082208234FF0000C8024EE
:1004B0000125CDE900574FF0200A0294CDF80CC079
:1004C0000BF076FE20210822082330460095CDF857
:1004D0000CA0CDE901740BF06BFE402003902021AD
:1004E0000822082348460095CDE901740BF060FE10
:1004F000202108220823602003904046CDE90057C0
:1005000002940BF055FE04B0BDE8F0872DE9F043EE
:1005100085B018461546884601244021042204234C
:100520000C9E4FF0000CC0278DE8D000CDF80CC019
:100530004FF040090BF03CFE4021042204232846E2
:100540000094CDF80C90CDE901670BF031FE40210D
:10055000042204238020039040468DE8D0000BF055
:1005600027FE05B0BDE8F0832DE9F04784B0994639
:1005700016460846402104220423DDE90C874FF08B
:10058000000C4FF480740125CDE900574FF0400A6C
:100590000294CDF80CC00BF00BFE40210422042382
:1005A00030460095CDF80CA0CDE901740BF000FEAB
:1005B0008020039040210422042348460095CDE981
:1005C00001740BF0F5FD402104220423C0200390A8
:1005D0004046CDE9005702940BF0EAFD04B0BDE8B7
:1005E000F0872DE9F04385B018461546884601246A
:1005F0004021042204230C9E4FF0000CC0278DE8FC
:10060000D000CDF80CC04FF040090BF0D1FD4021D7
:100610000422042328460094CDF80C90CDE901670C
:100620000BF0C6FD402104220423802003904046A5
:100630008DE8D0000BF0BCFD05B0BDE8F0832DE9DE
:10064000F04184B01D4610460C460127CDE90073E9
:100650008021082208234FF0000CC0260296CDF816
:100660000CC04FF080080BF0A3FD402108220823A6
:100670002046CDE90075CDE902680BF099FD04B084
:10068000BDE8F0812DE9F04385B01846154688464F
:1006900001242021082208230C9E4FF0000C602723
:1006A0008DE8D000CDF80CC04FF020090BF080FD94
:1006B00020210822082328460094CDF80C90CDE98B
:1006C00001670BF075FD20210822082340200390CC
:1006D00040468DE8D0000BF06BFD05B0BDE8F0831F
:1006E0002DE9F04184B01D4610460C460127CDE9A6
:1006F00000734021102210234FF0000C6026029658
:10070000CDF80CC04FF040080BF052FD2021102214
:1007100010232046CDE90075CDE902680BF048FDB5
:1007200004B0BDE8F0812DE9F04385B018461546C8
:10073000884601241021102210230C9E4FF0000C3B
:1007400030278DE8D000CDF80CC04FF010090BF029
:100750002FFD10211022102328460094CDF80C9074
:10076000CDE901670BF024FD102110221023202079
:10077000039040468DE8D0000BF01AFD05B0BDE8AF
:10078000F0832DE9F04184B01D4610460C46012748
:10079000CDE900732021082208234FF0000C6026C9
:1007A0000296CDF80CC04FF020080BF001FD40215F
:1007B000082208232046CDE90075CDE902680BF038
:1007C000F7FC04B0BDE8F0812DE9F04385B0184690
:1007D0001546884601242021082208230C9E4FF04C
:1007E000000C60278DE8D000CDF80CC04FF0200938
:1007F0000BF0DEFC20210822082328460094CDF8C7
:100800000C90CDE901670BF0D3FC202108220823CE
:100810004020039040468DE8D0000BF0C9FC05B0A5
:10082000BDE8F0832DE9F04184B01D4610460C462A
:100830000127CDE900734021042204234FF0000C6E
:10084000C0260296CDF80CC04FF040080BF0B0FC6B
:100850008021042204232046CDE90075CDE90268F9
:100860000BF0A6FC04B0BDE8F0812DE9F04385B0A3
:1008700018461546884601244021042204230C9E74
:100880004FF0000CC0278DE8D000CDF80CC04FF021
:1008900040090BF08DFC40210422042328460094DB
:1008A000CDF80C90CDE901670BF082FC40210422C9
:1008B00004238020039040468DE8D0000BF078FCA4
:1008C00005B0BDE8F08370B58CB04DF6D84E0DF193
:1008D000200CC0F2002E63469EE8710071C30846EA
:1008E0004DF694466FF07F034BF6C6244FF4A86193
:1008F000CDE9003104930423114662464FF0010E06
:10090000C0F200260025C7F6EE74CDE90245CDE918
:10091000056E00F04DF80CB070BD2DE9F04184B0CB
:100920001D4610460C460127CDE900730121022225
:100930004FF4A8734FF0000C04260296CDF80CC0BB
:100940004FF002080BF050FC012102224FF4A87373
:100950002046CDE90075CDE902680BF045FC04B0F6
:10096000BDE8F0812DE9F04184B01D4614460846EB
:100970000127CDE90073012104224FF4A8734FF041
:10098000000C05260296CDF80CC04FF004080BF0C1
:100990002BFC012101224FF4A8732046CDE90075FC
:1009A000CDE902680BF020FC04B0BDE8F081D4D49E
:1009B0002DE9F04F03AF8DB089460446A7F124001E
:1009C00014219A469046D7F81CB00BF05AFD072028
:1009D000002500EB8B0047F838DC20F0070047F8D3
:1009E000285CADEB000647F82C5C47F8305CB54658
:1009F0004FEA8B0130460BF044FD484659460BF058
:100A000040FD47F8345C82B0A7F13003A7F1340011
:100A100000905046D7E90B1200F07EF802B0002893
:100A200000F0718047F83C9CA7F1240900BF00BF8B
:100A300082B00023504641464A46009500F0ACF88B
:100A400002B0834657F8343C82B0A7F130000090E2
:100A5000504641464A4600F09FF802B014F90B1088
:100A600056F82020114446F82010504641464A4688
:100A700000F0C2F808B12FF025C857F8340C012156
:100A800001281CDB80EF5100FC69A7F1300120F048
:100A900001E000BF00BF00BFB1EC043F98FC434F32
:100AA00020EF54091FF009C051EC110BD7F828B002
:100AB00053EC102B484302FB03F1414302E0D7F80B
:100AC00028B0FC69012CD7E9080957F83C5C1ADB0F
:100AD000BA694FEAE07A01FB02F800BF00BF00BF2D
:100AE00056F8040BA0EB080082B03A6A5346CDF8E2
:100AF000009000F09FF802B05844013C00F307005A
:100B000005F8010BECD157F838DCA7F10C04A54629
:100B1000BDE8F08FD4D4D4D42DE9F043DDF81CE047
:100B20004FF0010C4FF00007CEF8007070B3012AAF
:100B30002CDB4FF000084FF0000900BF00BF00BFE2
:100B400051F82960002E48BF0644B6F1FF3F5FEA26
:100B5000DF9786425FEAA78CBCF1010F16D1B8F18E
:100B6000010F1F46444605DB57F8045BB54209D028
:100B7000013CF9D143F82860DEF8004004F1010897
:100B8000CEF8008009F101099145D9D16046BDE850
:100B9000F083D4D4D4D4D4D42DE9F041012828DB77
:100BA000DDF818C040F001E0BCF1000F5FEA1F97CC
:100BB000012B5FEAAF960025002047EA060800BF38
:100BC000B8F1000F66461F4608D100BF00BF00BF46
:100BD00056F8044BA54207D0013FF9D151F8254002
:100BE00052F8256004FB006001350FF017C8BDE81E
:100BF000F0810020BDE8F08110B56FF0030303EB36
:100C0000800319441A4400BF034601280EDB106814
:100C100051F804E900F1010CBEEB0C0454EA009019
:100C2000E64542F80409A3F10100EDD0002B5FEA8C
:100C3000DF9010BD70B5C117A2FB0046DDF810C0F3
:100C400002FB0161CCF11E0E0025012252EA0DE5E6
:100C500003FB00111019CCF11F02694150EA2D214C
:100C600070BD4FF210204DF69051C0F20020C2F23C
:100C700002210068084470474CF2B030C2F20020F4
:100C800070472DE9F04FB1B004464FF21C20C0F27E
:100C900000204DF69051C2F202214FF2142200685A
:100CA000C0F20022084403904FF2182049F69056F3
:100CB000C0F20020C2F2042643F690554AF690593D
:100CC0000068C2F20525084402901068C2F20529A6
:100CD00001EB000A44F27C20C0F2012044F27821AA
:100CE000C0F201214EF290580068C2F2052830444B
:100CF000089044F280204FF69017C0F20120C2F213
:100D0000052741F290124AF6E0230068C2F206225B
:100D100030440790086840F294513044069044F201
:100D20007420C0F20221C0F20120C2F20E2300683A
:100D300030440490086840F2A051C0F202212844D7
:100D40002690086840F29C5128440B9040F2A45031
:100D5000C0F20221C0F20220006828440A9008680C
:100D60004BF664412844099040F29850C0F20321A8
:100D7000C0F2022000682844059008684BF67041D4
:100D8000C0F2032148441B9008684BF66841484470
:100D90000E904BF66C40C0F20321C0F203200068B5
:100DA00048440D90086844F26C6148440C9044F249
:100DB0006460C0F20421C0F2042000684044129034
:100DC00044F26860C0F20420006840441190086852
:100DD00048F65C614044109044F27060C0F2052116
:100DE000C0F20420006840440F90086848F658613B
:100DF000C0F2052138441590086841F65451384432
:100E0000149048F65460C0F20621C0F20520006834
:100E100038441390086841F65851C0F20621104436
:100E20002B90086849F264611044169049F26C6096
:100E300044F29012C0F20620C2F20622C0F206214D
:100E400000681044199049F26860C0F206200068FA
:100E50001044189008684FF2AC01104417904CF6FB
:100E6000E41048F29012C0F20620C2F20622C0F24C
:100E700006210068104423904CF6E810C0F20620CA
:100E8000006810441A9008684FF2A8014EF29012C0
:100E9000C0F20621C2F2062210441E90086842F2F7
:100EA000040110441D904FF2A400C0F20721C0F2CB
:100EB0000620006810441C90086842F2080146F2BF
:100EC0009012C0F20721C2F2072210442C90086849
:100ED00048F2A44110441F9048F2AC404BF29012EB
:100EE000C0F20720C2F20722C0F2072100681044B6
:100EF000229048F2A840C0F20720006810442190D8
:100F0000086849F6AC61104420904BF684604DF6B9
:100F10009012C0F20720C2F20722C0F20821006836
:100F200010442A904BF68860C0F2072000681044F5
:100F30002490086849F6A86140F29012C0F2082196
:100F4000C2F208221044289008684FF20031104481
:100F5000279049F6A460C0F20A21C0F20820006878
:100F60001044259008684FF2FC2141F69012C0F21F
:100F70000A21C2F208221044299008684FF6F44171
:100F8000104430904FF62820C0F20A21C0F20A2007
:100F90004BF260520968C2F20E22006818442E908B
:100FA0004FF62420C0F20A20006818442D905018F3
:100FB0002F90204600F011FA4CF64C2B4CF64020B6
:100FC000C2F2002BCDF800B0C2F20020DDE9022110
:100FD0005346FFF7F5F944F270204FF4C042C0F2D7
:100FE00001205946006830440BF04FFA204600F0CB
:100FF00047FA42F6582642F64C20C2F201260499DE
:10100000CDE90016C2F201200899DDE90632FFF7AA
:1010100005FA40F290504FF48042C0F2022031466F
:10102000006828440BF031FA204600F081FA46F6B9
:10103000642546F65820C2F201250599CDE9001530
:10104000C2F201200B99DDE90932FFF723FA4BF6D2
:1010500060404FF40052C0F2032029460068484423
:101060000BF013FA204600F0CBFA48F6702548F64C
:101070006420C2F201250095C2F201200E99DDE93B
:101080000C32FFF743FA44F260604FF44062C0F262
:1010900004202946006840440BF0F7F9204600F090
:1010A0000FFB49F27C6549F27060C2F201250F998D
:1010B000CDE90015C2F201201299DDE91032FFF7E7
:1010C00053FA48F650604FF48052C0F2052029468A
:1010D000006838440BF0D9F9204600F047FB4AF28B
:1010E00088654AF27C60C2F201250095C2F20120B7
:1010F0001599DDE91332FFF774FA41F6505041F2C9
:101100009011C0F20620C2F206214FF4406200683E
:10111000084429460BF0B9F9204600F07AFB4BF25F
:1011200094254BF28820C2F20125C2F201201B99BE
:10113000169A2B46FFF783FA49F2606044F2901149
:10114000C0F20620C2F206214FF440520068084463
:1011500029460BF09AF9204600F0B0FB4EF2A0258C
:101160004EF29420C2F201250095C2F20120199995
:10117000DDE91732FFF786FA4CF6E01048F29011DD
:10118000C0F20620C2F206214FF4C05200680844A3
:1011900029460BF07AF9204600F0E5FB4FF6AC2526
:1011A0004FF6A020C2F20125C2F2012026991A9A18
:1011B0002B46FFF795FA4FF2A0004EF29011C0F2C5
:1011C0000620C2F206214FF4C042006808442946B6
:1011D0000BF05BF9204600F01BFC45F6B82545F600
:1011E000AC20C2F202250095C2F202201E99DDE970
:1011F0001C32FFF798FA42F2000046F29011C0F25A
:101200000720C2F207214FF44052006808442946E3
:101210000BF03BF9204600F050FC48F6C42548F698
:10122000B820C2F20225C2F2022023991F9A2B464F
:10123000FFF7A7FA48F2A0404BF29011C0F2072046
:10124000C2F207214FF4C0520068084429460BF04F
:101250001CF9204600F081FC4AF2D0254AF2C42055
:10126000C2F202250095C2F202202299DDE9203265
:10127000FFF7AAFA4BF680604DF69011C0F20720F6
:10128000C2F207214FF4C0520068084429460BF00F
:10129000FCF8204600F0B6FC4BF6DC254BF6D020DF
:1012A000C2F20225C2F202202B99249A2B46FFF7A4
:1012B000B9FA49F6A06040F29011C0F20820C2F2DB
:1012C00008214FF440620068084429460BF0DDF81D
:1012D000204600F0ECFC4CF2E8654CF2DC60C2F217
:1012E00002250095C2F20220DDE92721259BFFF7A8
:1012F000BCFA4FF2F02041F69016C0F20A20C2F27A
:1013000008264FF400522C99006830440BF0BDF8C9
:101310004FF2F4204FF48052C0F20A202A9900685C
:1013200030440BF0B2F84FF2F8204FF44062C0F2B4
:101330000A202946006830440BF0A7F8204600F048
:101340000FFD4DF2F4254DF2E820C2F20225C2F263
:10135000022029992A46FFF7B6FA4FF620204AF6CE
:10136000E021C0F20A20C2F20E214FF4A862006808
:10137000084429460BF089F8204600F05DFD4DF643
:1013800040054DF63400C2F20225C2F20220DDE92A
:101390002D212B46FFF7C1FA4FF6F0404BF260517A
:1013A000C0F20A20C2F20E214FF4A862006808447D
:1013B00029460BF06AF8204600F08CFD4DF680506F
:1013C0004CF2B033C2F20220C2F20023DDE92F1248
:1013D00031B0BDE8F04FFFF7C5BAB0B598B04EF2E6
:1013E00074124DF69055C0F200224EF28011002486
:1013F000C2F202250028C0F200210B940A91116864
:101400000391CDE90C544FF4E0314FF44040069085
:10141000CDE90E54CDE90411CDE9105407D04DF6B5
:1014200090504FF4C041C2F202200BF02AF805F5AB
:101430000050CDE9140405F580404FF40051CDE98A
:1014400016044DF6E840C0F200200991CDE90711DD
:101450004DF6F041026803A800904CF21840C2F229
:101460000E20C0F200210AABCDE912540725CDE9C8
:10147000015407F092FD01305FEA1FA018B0B0BD23
:10148000B0B59CB04FF2287249F69055C0F20022D8
:101490004FF230710024C2F204250028C0F200216E
:1014A0000D940C9111680491CDE90E544FF4204134
:1014B0004FF4C0400790CDE91054CDE90511CDE9B6
:1014C000125407D049F690504FF48041C2F20420E4
:1014D0000AF0D7FF05F58051CDE916144FF220210F
:1014E00005F50050C0F20021CDE9180405F5405083
:1014F0001A900A6804A800904CF218404FF230216C
:10150000C2F20E20C0F200210CAB81EF5002CDE9F7
:10151000145408251B948DED081FCDE9015407F0E4
:101520003CFD01305FEA1FA01CB0B0BDD4D4D4D4C0
:1015300070B59EB044F670010024C0F20121CDE9DF
:101540000C1444F6600143F69055C0F20121C2F23A
:10155000052505F50056002809680391CDE90E54CC
:101560004FF4E0414FF480400690CDE91054CDE9AE
:101570000411CDE9126407D043F690504FF4804136
:10158000C2F205200AF07DFF05F52051CDE91814BF
:1015900044F2842116A0C0F201210CAB90ED001F93
:1015A00005F54050CDE91A0405F560500A68CDE90B
:1015B0001C044FF400600B9003A800904CF21840FC
:1015C00044F29021C2F20E20C0F201218DED071FDE
:1015D000CDE91454CDE916640826CDE9016407F07D
:1015E000DCFC01305FEA1FA01EB070BD00BF00BF71
:1015F00000200000000800000008000000080000B3
:1016000070B59CB040F670210024C0F20221CDE9F3
:101610000C1440F660214AF69055C0F20221C2F245
:10162000052505F58056002809680491CDE90E547A
:101630004FF460514FF400500790CDE91054CDE9BC
:101640000511CDE9126407D04AF690504FF4E051ED
:10165000C2F205200AF015FF40F2A85114A0C0F212
:1016600002210CAB90ED001F05F5A050CDE9180448
:1016700005F5C0501A900A6804A800904CF2184072
:1016800040F2B051C2F20E20C0F202218DED081FCF
:101690001B94CDE91454CDE916640826CDE9016404
:1016A00007F07BFC01305FEA1FA01CB070BD00BFDB
:1016B000001000000004000000040000000400000E
:1016C000B0B59CB04BF6B4624EF29055C0F2032216
:1016D0004BF6C0610024C2F205250028C0F20321A8
:1016E0000D940C9111680491CDE90E544FF4A05162
:1016F0004FF440600790CDE91054CDE90511CDE9D4
:10170000125407D04EF290504FF48051C2F205208F
:101710000AF0B7FE05F58061CDE916144BF6744169
:1017200005F50060C0F20321CDE9180405F540601D
:101730001A900A6804A800904CF218404BF68041B9
:10174000C2F20E20C0F203210CAB80EF5402CDE9AF
:10175000145408251B948DED081FCDE9015407F0A2
:101760001CFC01305FEA1FA01CB0B0BDB0B598B042
:1017700044F630324FF69015C0F2042244F6403160
:101780000024C2F205250028C0F204210B940A911E
:1017900011680391CDE90C544FF4C0514FF48050BF
:1017A0000690CDE90E54CDE90411CDE9105407D0CF
:1017B0004FF690104FF44061C2F205200AF061FE2E
:1017C00005F58060CDE9140405F500604FF48061F3
:1017D000CDE9160444F27460C0F204200991CDE909
:1017E000071144F28061026803A800904CF218408F
:1017F000C2F20E20C0F204210AABCDE91254072533
:10180000CDE9015407F0C9FB01305FEA1FA018B011
:10181000B0BDB0B596B049F270110025C0F20521F7
:10182000CDE90A1549F2681141F29014C0F2052180
:10183000C2F206240028CDE90C45096804914FF452
:101840004051CDE90E454FF440600790CDE90511B8
:1018500004F50061CDE910150AD04FF4006120466F
:101860000AF00FFE04F580504FF400510AF009FE13
:1018700048F660614FF40060C0F20521089004F55D
:101880008050CDE914054FF4005009900A6804A86F
:1018900000904CF2184048F67061C2F20E20C0F27F
:1018A00005210AABCDE912450624CDE9014507F033
:1018B00074FB01305FEA1FA016B0B0BD70B598B0E0
:1018C00042F2D0010026C0F20621CDE90A1642F20A
:1018D000C40144F29014C0F20621C2F2062404F5B9
:1018E0008055002809680391CDE90C464FF48041EA
:1018F0004FF440500690CDE90E46CDE90411CDE9F4
:10190000105609D04FF4006120460AF0BAFD4FF49A
:10191000805128460AF0B5FD04F5C050CDE9140603
:1019200041F65C504FF40061C0F20620CDE907118A
:10193000099141F66051026803A800904CF21840EA
:10194000C2F20E20C0F206210AABCDE912560725DD
:10195000CDE91646CDE9015607F01FFB01305FEADD
:101960001FA018B070BDB0B596B049F66011002543
:10197000C0F20621CDE90A1549F6541148F2901437
:10198000C0F20621C2F206240028CDE90C45096800
:1019900004914FF4C041CDE90E454FF4C05007907B
:1019A000CDE9051104F58051CDE910150AD04FF4A9
:1019B000805120460AF065FD04F500504FF4804147
:1019C0000AF05FFD49F270614FF48050C0F20621C9
:1019D000089004F50050CDE914054FF480400990BB
:1019E0000A6804A800904CF2184049F28061C2F2E3
:1019F0000E20C0F206210AABCDE912450624CDE93E
:101A0000014507F0CAFA01305FEA1FA016B0B0BD69
:101A100070B598B04CF630510026C0F20621CDE9E1
:101A20000A164CF62C514EF29014C0F20621C2F266
:101A3000062404F50055002809680391CDE90C46F9
:101A40004FF400414FF4C0400690CDE90E46CDE979
:101A50000411CDE9105609D04FF4805120460AF008
:101A600010FD4FF4005128460AF00BFD04F54050DC
:101A7000CDE914064CF6EC104FF48051C0F206206C
:101A8000CDE9071109914CF6F011026803A8009006
:101A90004CF21840C2F20E20C0F206210AABCDE98A
:101AA00012560725CDE91646CDE9015607F075FA1D
:101AB00001305FEA1FA018B070BD70B596B04FF24C
:101AC00090210024C0F20621CDE90A144FF28421AE
:101AD00046F29015C0F20621C2F2072505F5005620
:101AE000002809680491CDE90C544FF4A0414FF44B
:101AF00040500790CDE90E54CDE90511CDE91064B1
:101B000007D046F290104FF42051C2F207200AF09D
:101B1000B8FC4FF2B0014FF40050C0F2062108901B
:101B20004FF4006009900A6804A800904CF2184035
:101B30004FF2C001C2F20E20C0F206210AABCDE97D
:101B40001254CDE914640626CDE9016407F025FAA4
:101B500001305FEA1FA016B070BD70B598B042F2B8
:101B600080310026C0F20721CDE90A1642F2743115
:101B70004BF29014C0F20721C2F2072404F58055FD
:101B8000002809680391CDE90C464FF420514FF429
:101B9000C0500690CDE90E46CDE90411CDE91056AE
:101BA00009D04FF4006120460AF06BFC4FF48051DD
:101BB00028460AF066FC04F5C050CDE9140642F24E
:101BC0000C004FF40061C0F20720CDE90711099124
:101BD00042F21001026803A800904CF21840C2F2D1
:101BE0000E20C0F207210AABCDE912560725CDE938
:101BF0001646CDE9015607F0D0F901305FEA1FA083
:101C000018B070BDB0B596B048F200710025C0F2B2
:101C10000721CDE90A1548F2F4614DF69014C0F29F
:101C20000721C2F207240028CDE90C450968049178
:101C30004FF42051CDE90E454FF4C0500790CDE947
:101C4000051104F58051CDE910150AD04FF48051EB
:101C500020460AF016FC04F500504FF480610AF0AB
:101C600010FC48F2B0414FF48050C0F207210890B8
:101C700004F50050CDE914054FF4806009900A681E
:101C800004A800904CF2184048F2C041C2F20E2065
:101C9000C0F207210AABCDE912450624CDE9014582
:101CA00007F07BF901305FEA1FA016B0B0BDB0B5F8
:101CB00098B04CF210310025C0F20721CDE90A1589
:101CC0004CF20C3140F29014C0F20721C2F2082409
:101CD0000028CDE90C45096803914FF4C051CDE9C6
:101CE0000E454FF440600690CDE9041104F54061C3
:101CF000CDE910150AD004F5A0504FF480610AF028
:101D0000C0FB4FF4006120460AF0BBFB04F5A05075
:101D1000CDE9140504F580604FF48061CDE9160526
:101D20004BF68C60C0F207200991CDE907114BF604
:101D30009061026803A800904CF21840C2F20E2095
:101D4000C0F207210AABCDE912450724CDE90145D0
:101D500007F023F901305FEA1FA018B0B0BDD4D45A
:101D6000B0B59CB030A14BF28072C0F2082241F6AF
:101D7000901491ED001F4BF29071C2F20824C0F252
:101D800008210C911168049141F250110025214461
:101D9000CDE9121504F5A8710028CDE9141543F218
:101DA00050110D9511958DED051F21444FF44060A4
:101DB00010940990CDE90E45CDE916150BD04FF4DE
:101DC000A87120460AF05DFB45F250504FF4A8512F
:101DD00020440AF056FB49F6B0614FF4A870C0F2F7
:101DE00008210A9045F250500CAB2044CDE91A0569
:101DF0004FF4A8500B900A6804A800904CF21840C9
:101E000049F6C061C2F20E20C0F20821199518945B
:101E10000824CDE9014507F0C0F801305FEA1FA0B2
:101E20001CB0B0BD00BF00BF50910600509106002D
:101E30000020000000100000B0B596B04FF2D04274
:101E40004AF6E025C0F20A224FF2E0410024C2F235
:101E50000E250028C0F20A210B940A911168049102
:101E6000CDE90C544FF428614FF4A8600790CDE9F8
:101E70000E54CDE90511CDE9105405D005F5A86043
:101E80004FF4A8610AF0FDFA05F5FC61CDE91414E0
:101E90004FF2043105F5A860C0F20A21CDE9120421
:101EA0004FF42870089009900A6804A800904CF23A
:101EB00018404FF21031C2F20E20C0F20A210AABD4
:101EC0000625CDE9015407F068F801305FEA1FA04C
:101ED00016B0B0BD70B592B04FF6A0310024C0F27C
:101EE0000A21CDE908144FF694314BF26055C0F247
:101EF0000A21C2F20E254FF4A86609680391CDE9C4
:101F00000A540F940E95CDE90C540696CDE904665B
:101F100038B14BF260504FF4A861C2F20E200AF0C3
:101F2000B0FA4FF62C204FF63021C0F20A20C0F252
:101F30000A2108ABCDE91054026803A800904CF2C6
:101F40001840C2F20E2007960526CDE9016407F07D
:101F500024F801305FEA1FA012B070BD70477047CF
:101F600070477047D4D4D4D410B54BF6A024A82120
:101F7000C2F20E2420460AF084FA03202061606138
:101F800040F201204BF64831C0F20B20A061C2F2B2
:101F90000E21E1614FF4006121620021A1626162C2
:101FA000E1624CF2483220664FF0100E4FF6F840D6
:101FB000C2F20E226266C4F868E02167E1666167DA
:101FC000BFF35F8FC0F20A200F3000BF00BF00BF19
:101FD00010F8011904F8011B0FF007C0BFF35F8F61
:101FE00010BDD4D4D4D4D4D42DE9F04381B0144658
:101FF0000D468046C7684FF0000900BF00BF00BF14
:10200000D8F81000FA43B84206D91044D8F808109E
:1020100006E000BF00BF00BFD8F808101044084415
:10202000C91B884250EA31802946A04250EA3486D2
:10203000D8F80400384432460AF027FAF019D8F8E4
:102040000810411AA4EB060450EA1187B144354444
:10205000BFF35F8FC8F80C700CB12FF02FC8484643
:1020600001B0BDE8F0832DE9F04381B000EB400002
:102070004BF6A023C2F20E23144603EBC00389469D
:1020800003F11805D86A022812D0012808D00028C8
:102090003ED1EE682869F143B04234D9084435E0B6
:1020A000EE682969B1420BD9F0430144A8680BE0FE
:1020B00028464946224601B0BDE8F043FFF794BFE9
:1020C000F243A86811440144A14251EA3484871BB9
:1020D00068683044BC4207D2494622460AF0D5F926
:1020E000BFF35F8F26440CE049463A460AF0CDF92B
:1020F000E61B686809EB070132460AF0C6F9BFF330
:102100005F8FEE6025E0AA6808441044A04201D227
:1021100000241EE0D5E901018F1B3044BC4208D2E7
:10212000494622460AF0B1F9BFF35F8F06EB040877
:102130000DE049463A460AF0A8F9A4EB070868689A
:1021400009EB070142460AF0A0F9BFF35F8FC5F81B
:102150000C80204601B0BDE8F083F0B581B04BF6AD
:10216000A0231446C2F20E230D4606461B78532BBD
:1021700001D0FFF7F9FEEFF311874FF0200181F353
:102180001188304629462246FFF76DFF87F31188F4
:1021900001B0F0BDD4D4D4D42DE9F04F9BB091461A
:1021A0000F46002406A916914021179100210590A1
:1021B0001A90CDE9181100BF17F8011B252907D087
:1021C000002900F06F8116A800F07BF9E5E000BF60
:1021D0004FF0000800BF00BF39782C2908DC232904
:1021E0000ED02B2918D104200FE000BF00BF00BF84
:1021F0002D2909D030290FD1022006E000BF00BFF1
:10220000082002E000BF00BF012048EA00080137B3
:10221000E2E700BF00BF00BFA1F13A0010F10A0FD2
:1022200002D2002012E000BF00200A4600BF00BF1B
:1022300017F8011F00EB8000A1F13A0302EB400008
:1022400013F10B0FA0F130000A46F1D82E290FD15F
:102250003A4612F8011F2A290DD1D9F80010023789
:102260000A1DC9F800200E6801211DE000BF00BF53
:102270000021002618E0A1F13A0313F10A0F02D25F
:10228000002100260FE0002612F8013F06EB86072A
:10229000A3F13A0601EB470116F10B0FA1F130064D
:1022A0001946F1D80121174617F8012B02F0FB035C
:1022B000682BF9D0632A0FDC252A2ED0582A24D087
:1022C000632A6AD1D9F80000011DC9F8001001780D
:1022D00079E700BF00BF00BFA2F17003082B1ED832
:1022E000DFE803F0055B5B615B4E5B5B1300D9F8D5
:1022F00000001022011DC9F8001001680823002009
:102300000826CDE9006016A845E0D9F800100A1D9E
:10231000C9F800200968102239E0252153E7642A12
:102320003BD1D9F800104CF6CD4C0A1DC9F800205D
:10233000D1F800E0CCF6CC4CCEF100017246BEF1F3
:10234000000F48BF0A460A2A03914FF0010107DB3C
:10235000A2FB0C35632A01F101014FEAD502F7D83F
:102360008E4256EA818B002840D0BEF1000F5FEA12
:102370005F9108F0040241EA9201A0EB010A37E004
:10238000D9F800100A1DC9F8002009680A22CDE911
:10239000000816A8334600F0B7F8199CB4F1FF3FC7
:1023A0003FF70AAF89E0D9F80000021DC9F8002004
:1023B00000684FF605720028C0F20A2250EA128522
:1023C0005FEA018800BF00BF2978002E5FEA18800D
:1023D0000029E2D00028E0D116A8013500F071F8FC
:1023E000199C013EB4F1FF3FEEDC66E04FF0000ABD
:1023F0005FEA88750CD55EB9002CCED4BEF1000F13
:1024000029D45FEA4870CDF810E02DD52B2125E0C6
:102410005FEAC870F0D1BAF1000FEDD0D345EBD22E
:102420000295CDF810E0AAF1010500BF00BF00BF82
:10243000202116A800F045F8199C002C3DD4681EF8
:10244000A84202D2AB450546F2D300F1010ADDF8FD
:1024500010E0029DD0E72D210398049016A800F00B
:1024600030F8199C002C28D4002D05D40A22CDE97F
:1024700000A816A804998DE708F001003043F5D1B3
:10248000BAF1000FF2D0AAF10105554538BFD34586
:10249000ECD2302116A800F014F8199CAA46002CA2
:1024A000F1D50AE044B1189D25B106A905982A4640
:1024B000FFF753FE2C4400E0002420461BB0BDE88B
:1024C000F08F10B50446D0E90120431C934207D891
:1024D00022681154A360E06862680130E060184629
:1024E000904218BF10BD21682069FFF736FEA16831
:1024F000884202D10020A06010BD4FF0FF30E060A4
:1025000010BDD4D4D4D4D4D42DE9F04F81B0154625
:102510000E4691421F468146DDF828B04FF001007B
:1025200007D3314600BF00BFB1FBF5F10130A9422E
:10253000FAD2874257EA808ABBF1000F0B991BD071
:1025400011F0010018D188074FF0200048BF30205B
:102550002021002F50EA0188BBF1000F0CD0DA4592
:102560000AD248464146ABF1010BFFF7AAFFD9F862
:102570000C00B0F1FF3FEFDCD9F80C0000283CD490
:10258000012400BF00BF00BF022F01D3013F03E0C1
:10259000B6FBF4F0A84201D36C43F5E74DF698483A
:1025A000C0F2002800BF00BFB6FBF4F7484618F899
:1025B0000710FFF786FFD9F80C00002806D4B4FBFB
:1025C000F5F007FB1466A5420446EDD90B98C00749
:1025D00018BFBBF1000F0AD10FE020214846FFF7DA
:1025E00070FFD9F80C00A346B0F1FF3F05DDABF159
:1025F00001045C4538BFDA45EFD301B0BDE8F08F88
:1026000082B080B582B0CDE9042304AA019201AA68
:10261000FFF7C2FD02B0BDE8804002B07047D4D4DD
:102620002DE9F04782B04FF6287840F22829871C20
:102630004AF6AA244FF6FF75C0F20A280DF1070AE0
:10264000C0F20B2900218DF8071000BF00BF00BFAA
:1026500037F8020CA0420FD0A84214D0397800F00D
:1026600005FC90B937F8020C514600F0B4FB70B984
:1026700007E000BF00BF00BF38784FF47A7109F05F
:1026800080FA0437E4E700260FE0064601E006463C
:10269000C84640F20A214FF6DA62C0F20B21C0F2BE
:1026A0000A2200204346FFF7ABFF304602B0BDE8E8
:1026B000F087D4D4F0B581B02DED048B0A204FF40F
:1026C0007A7109F05EFA4CF2B8403C21C2F20E2059
:1026D000012207F003FC28B140F29D430446C0F2FA
:1026E0000B23B6E04CF28855EFF31080C2F20E25B2
:1026F000012181F3108840F614542968C4F2400483
:1027000019B9002121704021217029684FF6D04667
:1027100001312960CFF6FF7680F3108843F6FA770F
:102720000121CFF6FE77A05938400430A051EFF3D5
:10273000108081F31088296811B129680139296056
:10274000296819B9002121708021217080F3108837
:1027500014204FF47A7109F014FA0121EFF310807C
:1027600081F31088296819B9002121704021217056
:1027700029680131296080F310880121A05938406F
:1027800040F00500A051EFF3108081F31088296814
:1027900011B1296801392960296819B9002121700E
:1027A0008021217080F3108814204FF47A7109F091
:1027B000E8F940F25C00C2F20020FFF731FF28B1D7
:1027C0004FF6B2730446C0F20A2342E032204FF4BF
:1027D0007A7109F0D6F943F23500122100F046FB78
:1027E00028B14FF663630446C0F20A2322E043F2A5
:1027F00036007B2100F03AFB28B14FF6BF53044668
:10280000C0F20A2316E043F23700082100F02EFB45
:1028100028B140F2FE230446C0F20B230AE043F243
:102820000810122100F022FB18B340F25C2304468A
:10283000C0F20B2340F20A2140F24B32C0F20B21CE
:10284000C0F20B220020FFF7DBFE4FF65553C0F21B
:102850000A2340F20A214FF64662C0F20B21C0F271
:102860000A220020FFF7CCFE2046BDEC048B01B00D
:10287000F0BD4CF258304DF60001C2F20E20C0F20D
:10288000B8519FED270AB6EE008A0160B1EEC09AFA
:102890009FED240AB0EE481A09EE001A43F60C0028
:1028A000BCEEC10A10EE105A290A00F0DFFAB8B9DE
:1028B000E9B243F60D0000F0D9FA88B939EE080AFA
:1028C00043F60E00BCEEC00A10EE105A290A00F0C2
:1028D000CDFA28B9E9B243F60F0000F0C7FAA0B16B
:1028E00040F20A2140F20B1240F263330446C0F278
:1028F0000B21C0F20B22C0F20B230020FFF780FE59
:1029000040F2DE23C0F20B23A3E700F00DF828B15C
:1029100040F2DA030446C0F20B239AE70024A3E74F
:10292000007C9249ABAAAA3F10B582B00DF1070115
:1029300044F6140000F04FFA28B140F2CF430446A9
:10294000C0F20B230FE09DF8070000F03F0144F6B2
:1029500014008DF8071000F089FA90B140F263334B
:102960000446C0F20B2340F20A2140F27C32C0F24E
:102970000B21C0F20B220020FFF742FE204602B0DE
:1029800010BD0024FAE710B543F20800022100F060
:102990006DFA28B140F275130446C0F20B230AE029
:1029A00044F20220002100F061FA88B140F2C23303
:1029B0000446C0F20B2340F20A2140F23A32C0F240
:1029C0000B21C0F20B220020FFF71AFE204610BD9B
:1029D0000024FBE710B544F202200F2100F046FA74
:1029E000044670B140F20A214FF6ED6240F2110345
:1029F000C0F20B21C0F20A22C0F20B230020FFF725
:102A0000FFFD204610BD70B54CF25C35C2F20E25BC
:102A1000286808B101241BE0002002F03DFA28607C
:102A200078B10021002402F0FEFA4CF26036002852
:102A3000C2F20E26306028680CD002F091FA2C60A9
:102A400006E04CF260300221C2F20E200160002448
:102A5000204670BD4FF48071802204F02AFF4CF2B2
:102A60006431C2F20E21086080B12868012102F0B1
:102A70003BFB00283060EAD128680121002201F0E8
:102A8000DFF900285FEA1F943060E1E70120306041
:102A9000286802F065FA0024D1E72DE9F04784B0F8
:102AA0008B4205DB1546012AA4BF0C46012906DA34
:102AB0004CF260300221C2F20E20016029E007468C
:102AC0000028F5D04CF25C38C2F20E28D8F800008D
:102AD0000028EDD04CF2643AC2F20E2ADAF8001067
:102AE0000029E5D01E4604F03FFF4CF26039C2F2E7
:102AF0000E29C9F8000060B9D8F800000121CDE91D
:102B0000005139463246234605F0B2FEC9F80000AE
:102B100020B10024204604B0BDE8F087611E6A1E83
:102B2000D8F8000017B20BB2002100220097002451
:102B300005F067FE0028C9F80000EBD1D8F80000C6
:102B400000214FF47F02002401F067F90028C9F842
:102B50000000DFD1D8F800004FF4C8614FF4C8621C
:102B60004FF4C85330250091CDE9015405F0C2FB64
:102B70000028C9F80000CDD1D8F800004FF4C851A2
:102B80004FF4C8624FF4C85300244FF49656019591
:102B90000096029405F0AEFB0028C9F80000B9D1F8
:102BA000D8F800004FF4C8514FF496524FF4C86360
:102BB0003025CDE9006502944FF4C86605F09AFB14
:102BC0000028C9F80000A5D1D8F800004FF4C8616A
:102BD0004FF496524FF4C863CDE900650024029487
:102BE00005F088FB0028C9F8000093D1D8F8000050
:102BF000DAF800100022002404F00CFF0028C9F8C5
:102C0000000087D1D8F8000002F09DFA00285FEAA2
:102C10001F94C9F800007DE74CF26030C2F20E202C
:102C200000687047D4D4D4D470B5A2B04CF26040E0
:102C3000C2F20E200078A0B14CF26040C2F20E2029
:102C400008F02FF868B140F20A214FF6806240F296
:102C50001B330446C0F20B21C0F20A22C0F20B2340
:102C600052E040F6B4316C46C0F20B218822204677
:102C700009F00BFC4CF272354CF27436C2F20E25A0
:102C8000C2F20E2628883188ADF804004CF260406C
:102C9000ADF80610C2F20E20214607F026FE28B13C
:102CA00040F279230446C0F20B2325E0288840F245
:102CB0002C31C2F2002103233288888003EB4000CC
:102CC0004FF6FC73CA801840886050434CF26C3257
:102CD000C2F20E2240F20003C6F600030B60106041
:102CE0004CF26040C2F20E2008F04BF890B140F276
:102CF0001A130446C0F20B2340F20A214FF68062F9
:102D0000C0F20B21C0F20A220020FFF779FC204616
:102D100022B070BD4CF268300021C2F20E2001706A
:102D2000017809B92FF005C00024F0E700780328E6
:102D300018BF70474CF268300121C2F20E200170BA
:102D4000704700F0CDB8022818BF704780B54CF22C
:102D5000A04041F25821C2F20E20C0F20B2106F031
:102D600052FF0120BDE8804008F0F6BF10B54CF2DC
:102D7000B84040F6E051C2F20E20C0F20B2107F03D
:102D800023F8044670B140F20A2140F2F4324FF6C3
:102D90008B63C0F20B21C0F20B22C0F20A23002089
:102DA000FFF72EFC204610BDB0B54CF27035C2F2D4
:102DB0000E252978884208BFB0BD044600BF00BF79
:102DC0002878012803D00A20012108F0DAFE2878AB
:102DD0008442F5D1B0BDF0B581B04CF2703640BA46
:102DE000ADF80200C2F20E264CF2B8400D46C2F217
:102DF0000E200DF10201022201230027377007F097
:102E000067F868B140F20A214FF618524FF67E5328
:102E10000446C0F20B21C0F20A22C0F20A231AE0D3
:102E20000320FFF7C1FF4CF2B8400122C2F20E208E
:102E300000232946377007F045F890B140F20A2187
:102E40004FF6185240F205430446C0F20B21C0F27F
:102E50000A22C0F20B230020FFF7D2FB204601B06C
:102E6000F0BD0220FFF7A0FF0024F7E710B582B005
:102E7000020A8DF806004CF270308DF80520C2F27F
:102E80000E208DF807100021032201704CF2B8408B
:102E9000C2F20E200DF10501002307F019F80446D7
:102EA00078B140F20A2140F26A424FF67E53C0F2F6
:102EB0000B21C0F20B22C0F20A230020FFF7A0FB77
:102EC00002E00320FFF770FF204602B010BD28B1DA
:102ED0004CF270310079C2F20E2108707047D4D4E0
:102EE000ADF5CB6D0020CDF84C060DF24C6008F02E
:102EF0003CFE9DF84F3640F2E7414FF6BB529DF83D
:102F00004D769DF84E66C0F20B21C0F20A220020D9
:102F1000CDE90067FFF774FB40F20A710020C0F2B0
:102F20000B21FFF76DFBFFF721FF40F24401C0F2D8
:102F30000B2100F084FC0A204FF47A7108F021FE86
:102F4000FFF7B8FB40F25F01C0F20B2100F077FC05
:102F500040F6E0204CF27235C0F20B204CF2743493
:102F6000C2F20E25C2F20E240189408929802080F8
:102F70000A204FF47A7108F004FEFFF755FE4FF671
:102F8000D671C0F20A2100F05AFC0A204FF47A717F
:102F900008F0F7FDFFF737FD40B9FFF73DFE4FF6AC
:102FA000EB716420C0F20A2100F049FC0A204FF4C2
:102FB0007A7108F0E6FD48F200004FF49611C6F66B
:102FC000250009F05EFA44F200004FF49611C6F6AF
:102FD000380009F056FA40F200004FF49611C6F698
:102FE0004B0009F04EFA2E880320002E4BD0278884
:102FF000002F48D04CF2943440F60C55C2F20E2407
:10300000C0F20B2584222046294609F03EFA286D9D
:10301000B5F84820C0F30B4C6FF31F30B5F84A30B9
:10302000504369890CFB03F2EB89B0FBF7F0A4F87D
:1030300048000133B2FBF6F00131A4F84A00206DDC
:1030400047EA06457340626800F0F02025F0F0255D
:1030500079402844206541EA030022F080610004A1
:1030600018BF01F180614CF2783C616040F69051EC
:10307000C2F20E2CC0F20B21624691E8E900E9C2CF
:103080000020CCF8144040F23911C0F20B2100F0BE
:10309000D6FB0A204FF47A7108F073FDFFF79AFC13
:1030A000002800F07D834FF623630446C0F20A2314
:1030B00040F20A214FF65262C0F20B21C0F20A22FE
:1030C0000020FFF79DFA40F29C312046C0F20B2110
:1030D00000F0B5FB0A204FF47A7108F052FD40F27F
:1030E0005000C2F20020FFF79BFA40F2B921C0F273
:1030F0000B2100F0A4FB40F253110020C0F20B2181
:103100004FF0000AFFF77CFA0A204FF47A7108F0BA
:1031100038FD40F2143040F69431C2F20020C0F283
:103120000B2105F051FF40F27C01C0F20B2100F0B1
:1031300086FB0A204FF47A7108F023FD4CF26835C3
:103140004CF29037C2F20E25C2F20E279FEDB38AE1
:103150009FEDB39A9FEDB3AA9FEDB3BA9FEDB3CAAB
:10316000B6EE00DA4FF0020B4FF47846012200BFB2
:1031700040F200004FF49611C6F6000002FB010475
:10318000029204F5D4700490A4F50060039000BF8F
:1031900085F800A000BF00BF287808B92FF005C04F
:1031A0003968002900F0C8824FF49612204642F296
:1031B000091809F06AF9FDF754FD39680791821C76
:1031C0000021802500BF00BF4FF4165008914843EE
:1031D0004FF60001C0F21F0145F001E008400799D9
:1031E00008440A9000271046099200BF00BF00BFA4
:1031F000C7F3C9110A9AA94607F5167702EB4101F0
:1032000091F8A85191F8A9114FEAD50C41EA05228D
:103210004FEA0C23C2F3451201F01F01A3EBD503C3
:103220004D4603FB08FCC2EB022244F20513C1EB3E
:1032300001215A4301FB08F189EA9C4300F8023C52
:1032400089EA125200F8012C89EA914100F8031B27
:103250000FF033C00899099A013142F20918802908
:1032600002F5C072B0D10020FDF70BFDFDF704FDA3
:1032700013AD40222946B0EE480A00F039FB014662
:103280002846B0EE490A00F0D7FB01280590C0F2AD
:103290004B82002100BF00BF01EB4100069113A942
:1032A00040F22B3201EBC00090ED000A90ED021AC3
:1032B00020EE0A0A90ED012A21EE0A1A90ED033A57
:1032C00022EE0A2A20EE0B0A21EE0B1A23EE0A3A0E
:1032D000BDEEC00A22EE0B2ABDEEC11A10EE108A16
:1032E00023EE0B0A11EE101A08F1D403BDEEC22A28
:1032F0000993BDEEC00A914251EAB28C23EAE37110
:1033000012EE109A40F2572310EE102A0CF1D40559
:1033100090ED040A9A4252EAB382A94229EAE9737B
:1033200020DC099F4FEAC32EAF4257EAC587D5027A
:10333000CDF828C005EB4105C44627EAE7772544C8
:103340007F1A0EEB4108013747F001E004EB080754
:10335000E046DDF828C000BF27F8026B25F8026BB5
:103360000FF007C0934217DC914559EAC282DF0291
:1033700022EAE272D21A07EB4C0302F1010E07EBCC
:10338000410222440499194416800E8001F500611F
:1033900002F500620FF009C0B0EE4D1A007DA0EEFC
:1033A0000C1A40F68C31C0F20B210BAD51F82030D5
:1033B0002021BCEEC10A284610EE102A00924FF6DA
:1033C000FF62C0F20A2209F079F90220B9F1110F67
:1033D000C8BF6FF0110048440A90284609F066F80B
:1033E000B8F54B7FDCBF0A99B1F5167F40F35881E1
:1033F0009DF82C00002800F04B810BAA00BF00BFF5
:103400000892A0F1300240F6F021492AC0F20B21C7
:1034100000F25D800FF21800D0E812F0CDCCCC3E67
:103420006666E63E000016440000003C0000C8420C
:103430005400A7009D00AC00B100C500A2008E00A2
:10344000B600CF00D400F200F200F200F200F20069
:10345000F200F200BB00D9009300F200F200F2008B
:10346000F200F200F200F200F200F200F200F200CC
:103470009800F200F200F200F200F200F200F20016
:10348000F200F200F200F200F200F200F200F200AC
:10349000F2007500F2007A007F00E800F200F2000E
:1034A000F2008400F2006B00CA00F2008900DE0026
:1034B000C000F200ED00E30066006100F200F200DF
:1034C000F200700040F6FF21C0F20B2198E02028A6
:1034D00040F0968040F6F521C0F20B2190E040F6D6
:1034E0008131C0F20B218BE040F67C31C0F20B2120
:1034F00086E040F27A41C0F20B2181E040F686314D
:10350000C0F20B217CE040F64531C0F20B2177E0A0
:1035100040F64A31C0F20B2172E040F64F31C0F262
:103520000B216DE040F65931C0F20B2168E040F606
:103530006331C0F20B2163E040F62231C0F20B216F
:103540005EE040F63B31C0F20B2159E040F64031DD
:10355000C0F20B2154E040F60931C0F20B214FE0DC
:1035600040F61D31C0F20B214AE040F60431C0F2B2
:103570000B2145E040F60E31C0F20B2140E040F651
:103580001331C0F20B213BE040F62731C0F20B2192
:1035900036E040F63131C0F20B2131E040F66D31BA
:1035A000C0F20B212CE040F61831C0F20B2127E0CD
:1035B00040F65E31C0F20B2122E040F62C31C0F221
:1035C0000B211DE040F6FA21C0F20B2118E040F675
:1035D0003631C0F20B2113E040F66831C0F20B2106
:1035E0000EE040F67731C0F20B2109E040F654318D
:1035F000C0F20B2104E040F67231C0F20B2100BF93
:1036000008794FF000088DF854060868CDF8500688
:103610000DF5CA6010F80890099800EB48030020E7
:1036200029FA00F1C90722D00A99012701EB4005C8
:10363000002100BF00BF00BF2944CA084A2A10D891
:103640004BF001E004EBC12C002100BF00BF00BF24
:103650001944BAEB912F08BF2CF8116001210FF02B
:1036600009C8F9074FF001014FF00007E4D101301C
:103670000728D5D108F10108B8F1050FC8D1089A7B
:1036800009990C31099112F8010F08B12FF049C1C5
:1036900006990598013181427FF4FEAD44E000BFF8
:1036A00000EB40000A9901F10F0208EB800000F1E5
:1036B000D60151EA02003FF59BAE0A9B0120012B87
:1036C00053EAC08040F257239A4252EAB38C421E1A
:1036D00062453FF78DAE40F2FF3308F1D302851EFD
:1036E000994251EAB38E22EAE279039ACDF820E0BA
:1036F000F14559EACE81A1EB09010BEB410107919C
:10370000C10201EB49015718F14507DC384607991A
:10371000E04608F0B6FEDDF820E0C446013507F5C6
:1037200000676545F0DB63E64CF268354CF2903794
:10373000C2F20E25C2F20E2785F800A000BF00BF1E
:10374000287808B92FF005C04FF480614FF4167245
:103750004FF480632046FFF7A0F940B9FFF75CFA09
:103760004FF60C716420C0F20A2100F068F84CF2A8
:1037700060400022C2F20E20214607F019FB40F201
:10378000EE3188423FF404AD30B140F22C41C0F23A
:103790000B2100F054F8FBE4029A82F00102E7E406
:1037A0004CF28C40C2F20E20006868B14CF28C40A2
:1037B000C2F20E2005F0EBFD30B14FF67A730446ED
:1037C000C0F20A23FFF774BC43F208004221FFF75E
:1037D0004DFB30B14FF627530446C0F20A23FFF7E2
:1037E00067BC4CF28C404CF27831C2F20E20C2F22F
:1037F0000E2105F022FD30B140F6B9230446C0F297
:103800000B23FFF755BC4CF28C400021C2F20E2076
:1038100005F025FE30B14FF6B2630446C0F20A232C
:10382000FFF746BCFFF7AFF830B140F297230446EC
:10383000C0F20B23FFF73CBC0024FFF744BC002878
:1038400046D010B504460020FEF7DAFE4CF28C405C
:10385000C2F20E200068A8B14CF28C40C2F20E20D9
:1038600005F095FD70B140F20A214FF6DC524FF69B
:103870004973C0F20B21C0F20A22C0F20A230020D1
:10388000FEF7BEFE4CF2B840C2F20E20C068A8B1EE
:103890004CF2B840C2F20E2006F025FB70B140F2A7
:1038A0000A214FF6DC5240F2A113C0F20B21C0F204
:1038B0000A22C0F20B230020FEF7A2FE40F2940180
:1038C0000020C0F20B212246FEF79AFE00BE10BD7A
:1038D00070470168012909D1017A890658BF7047EC
:1038E0004CF29031C068C2F20E21086070477047F8
:1038F00000284FF0000C00F09980002900F096801D
:10390000012AC0F293802DE9F04F81B02DED088B94
:1039100082B042F29B4BA2F101094FF0000884EF04
:1039200053269FED431A4FF03A0AC3F60A4B80EF35
:10393000504000274FF0000C01F12803019300BF15
:1039400007EB8703034493F904603A3606EE106AE6
:10395000B8EEC66A26EE016AB4EE406AF1EE10FADD
:103960005AD493ED008F29EE4A8FBBFF488639EE7B
:103970006B8E08FF528D39EE031F33FE09AF39EE0F
:10398000CF1F35FE0B8FB4EE489AF1EE10FA43D9F3
:10399000F4EE689AF1EE10FA3ED9944508DA0CEB91
:1039A0004C030CF1010401EBC3066346A44626E078
:1039B000022A18D349F001E000230125019E00BF2F
:1039C00003EB430496ED007A183601EBC404D4ED02
:1039D000040AB4EE607AF1EE10FA55EA4383013539
:1039E0000FF013C000E0002303EB430601EBC60613
:1039F00096ED047AB4EE476AF1EE10FA0CDD86ED2E
:103A0000009F86ED046A03EB430301EBC303C3F895
:103A1000148000BF00BF00BF0137B7F5A87F8FD16A
:103A200002B0BDEC088B01B0BDE8F04F60467047B6
:103A30009B240A3CD4D4D4D42DE9F04F89B000287B
:103A40004FF0000800F0E6800129C0F2E380B7EEF5
:103A5000001AB4EE410AF1EE10FAB5EE400A31FE5A
:103A6000001A9FED6E0AF1EE10FA48BFB0EE401A50
:103A70000229009145D3009900F1280B8A1E0139D3
:103A80004FF0000CCDE90112A1EB0C0EE2460CF157
:103A9000010C5B466646554605EB450793ED002A4B
:103AA000183300EBC70797ED043AB4EE432AF1EE62
:103AB00010FA56EAC58501360FF013C055451CD0E3
:103AC0000AEB4A0303AA05EB4507644600EBC30E65
:103AD000734600EBC70793E8621382E86213394626
:103AE000A446B84691E8FC0003A98EE8FC0091E8E2
:103AF000FC0088E8FC00DDE9011292450BF1180B8F
:103B0000C2D100F10C0C4FF000094FF00008DDF8B5
:103B100000B000BF00BF00BFB8F1010F09EB490EB4
:103B200067DB00EBCE0466464746257D00BF00BF3D
:103B3000317A8D4259D194ED002A16ED033AB4EE54
:103B4000432A94ED014AF1EE10FA16ED025A94ED73
:103B5000027AB4EE454A16ED016A72FE032AD4EDEC
:103B6000030AF1EE10FAB4EE476AD6ED001A74FEBD
:103B7000053AF1EE10FAF4EE601A77FE064AF1EE1D
:103B800010FA74EEE22AF0EE404AF5EE402A70FE9A
:103B9000A15AF1EE10FA23D975EEE33AF0EE404A5D
:103BA000F5EE403AF1EE10FA1AD937EE422A36EE27
:103BB000433A31EEC55A30EEC44A23EE053A02EEDE
:103BC000043A22EEA32AF0EE404A33EE423A82EE65
:103BD000032AB5EE403AF1EE10FA88BFF0EE424A01
:103BE000F4EE414AF1EE10FA0FDC013F06F118063F
:103BF0009ED108EB480108F1010800EBCE0700EB6D
:103C0000C10A97E87E008AE87E0009F10109D945DA
:103C10007FF482AF404609B0BDE8F08F000000009D
:103C200080B5FFF78EF8002080BDD4D4D4D4D4D48E
:103C3000F0B581B004464FF4BE7003F00AFD0546AE
:103C4000002800F0818048A343A287FF5F006FF047
:103C50007F40C5E9020093ED003F47A34FF07F414D
:103C600085ED100F05F1D406002792ED001F6C6062
:103C7000C5F84C11C5E954111021606DD4F88020AD
:103C800085ED4A3F120140F2080293ED003F3EA34A
:103C9000C2F2400285ED443F93ED003F3EA385ED27
:103CA000160F85ED313F93ED003F86ED002F86ED39
:103CB000380F80EF500085ED4F1F58BF4FF4800242
:103CC0001043A98240F40020042140F4B050C5E91B
:103CD00048204020C5F8D80005F11C0085F8E910FF
:103CE000C5E93F77C5E9417701F049FD05F13400A9
:103CF00001F045FD05F14C0001F041FD05F16400C6
:103D000001F03DFD05F17C0001F039FD05F1940065
:103D100001F035FD05F1AC0001F031FD22A00C21D0
:103D200085F8E810294690ED001F4FF0FF30C5E9F7
:103D30003770C5F83801204686ED100F04F018FBE7
:103D4000E0692860E56100E0012784F8C671284633
:103D500001B0F0BD00BF00BF010000000000000086
:103D6000000000000000000000000000000008004B
:103D70000000010000C0030000000100AA000000D4
:103D80000000010000160000AA000000040000006E
:103D90000000000010000000010000000200000010
:103DA000010000000100000001000000030000000D
:103DB0000300000003000000B0B50446006A814221
:103DC00025D00D4604F11C0119B308460968A94223
:103DD000FAD129680160606AA84201D1206A606254
:103DE000E06AA84201D1206AE062A06AA84201D13B
:103DF000206AA062D5F8080120B107F033FC00204A
:103E0000C5F80801284603F026FC002002E0072040
:103E100000E0032084F8C601B0BD0346406A00EB11
:103E2000810C22F07F4290F80E11CCF8082041F06E
:103E3000010180F80E110020002183F8C61170479F
:103E4000B0B5D0F824E003299EF80EC14CF0010370
:103E50008EF80E310ED8032A0CD84DF6C843C0F2A6
:103E6000002353F82110DFE802F0020C070A41F4A6
:103E7000805106E010211BE041F4806101E041F433
:103E8000A051DEF82C21436DDEF820C1DEF83C5154
:103E90001A43DEF8403142EA0C02DEF844412A437C
:103EA000CEF81C111A4322431143CEF824110021ED
:103EB00080F8C6110846B0BDD0F84C11027C437C96
:103EC000090A6FF07F4C01FB02C201FB03C190F8AD
:103ED0000E3102F07F4201F07F41C0E9542103F02E
:103EE000FD0180F80E1170472DE9F04F85B0049266
:103EF000044691F8D500DDF844E0DDE90E89109E16
:103F0000C007A3EB090AA8EB090B34D10FFA8BF118
:103F10000FFA8AF252EA010040F20000CFF6C070B8
:103F200000F08B801FFA89F790FBF9FC02FB02F08E
:103F300009EBD73711FB01003FB2114410228CFB73
:103F400000054FEAEC0AA2EB430350EADF25A2EB9F
:103F500048020AFB03F301EB57010AFB02F7DD17E6
:103F6000A0EB0132F81703EB157107EB10700F117E
:103F70004FEA2018B0E0CDE90236129818B194F853
:103F8000830040076CD44FF07840B1F91420CDF88D
:103F90000480D1F8108190FBF9F0D3177546C7174C
:103FA00050EA0F27394608F03FF91AFB0AF21FFAC8
:103FB00089F31BFB0B22AE4609EBD333120A0FFA2F
:103FC00083FCA0FB02750FFA8AF701FB025507FA82
:103FD0008BF701FB02F307EB6C07EE17FD17360FAB
:103FE000E0FB0263A7FB082756EA2F1305FB0875C1
:103FF00052EA0F15B21A4FEAE176AB41DF1712EB26
:104000001762019F43F1000310EB165A41F10001C2
:104010005AEA1F310299102052EA1F23A0EB4101F6
:10402000A0EB470001FB0AF100FB0AF0CF17C51710
:1040300001EB177100EB15704AE000F5601090FB82
:10404000F9FA1020A0EB49000AFB00F0C11700EBC1
:10405000117000214FEA2018A1EBC92247463BE02E
:104060004FF07840B1F914201AFB0AF31FFA89F5D2
:1040700090FBF9F01BFB0B3309EBD53580010FFAF0
:104080008AFC1F0A2DB290FBF2F2D1F8101182FBCC
:1040900007034FEA221A180F0023C2FB07030CFA8A
:1040A0008BF707EB5507029A79431027A7EB4202DB
:1040B00050EA2F130AFB02F5A7EB48020AFB02F3B2
:1040C000A0EB8102EF17D81705EB177103EB107007
:1040D0000F114FEA2018039EDDF81090BEF1000F7B
:1040E00009F10401324458D0D4E96E35524203F14B
:1040F0000800C3E900126A1EC4E96E0205DCD4F8A8
:10410000C01120468847D4E96E0200F10801013A47
:1041100009F10503C7F10007C0E90037C4E96E12D1
:1041200005DCD4F8C01120468847D4E96E1209F1A5
:104130001003C8F1000701F10800C1E90037511E62
:10414000C4E96E0105DCD4F8C01120468847D4E9E3
:104150006E01002209F10B03A2EB4A0500F10802EF
:10416000C0E90035481EC4E96E2005DCD4F8C01152
:1041700020468847D4E96E20013809F1110102F187
:104180000803C2E90015C4E96E3056DCD4F8C0114A
:10419000204605B0BDE8F04F0847D4E96E3503F17D
:1041A0000800C3E900126A1EC4E96E0205DCD4F8F7
:1041B000C01120468847D4E96E0200F10801013A97
:1041C00009F10503C0E90037C4E96E1205DCD4F833
:1041D000C01120468847D4E96E1209F1100301F19D
:1041E0000800C1E90038511EC4E96E0105DCD4F8AD
:1041F000C01120468847D4E96E0109F10B034FEA4C
:104200004A0500F10802C0E90035481EC4E96E20E5
:1042100005DCD4F8C01120468847D4E96E20022876
:1042200009F1110102F10803C4F8B831C2E900151F
:10423000A0F10100C4F8BC01A8DB05B0BDE8F08F17
:10424000F0B581B00646856914200F4603F001FAE7
:10425000044600284FF000002AD0C4E9027007EBA2
:10426000870196F868008900C00703D1304603F043
:1042700020FA02E0084603F0ECF901466060A0B1C4
:104280000027276196F86800C00717D1D6F8840088
:10429000C2060FD4800711D5A068042100EB80006E
:1042A0008200284607F0E2F907E0204603F0D3F940
:1042B000002404E0284607F0E1F920612760204649
:1042C00001B0F0BDD4D4D4D441B3F0B581B00C4624
:1042D0000546866900BF00BF95F868002746D4E907
:1042E0000041C00704D1284603F006FA03E000BFEE
:1042F000084603F0B0F93A693AB195F884008007AE
:1043000003D50421304607F0B4F9384603F0A3F989
:104310000CB12FF01FC801B0BDE8F040704710B5D8
:1043200004468068006830B92068216AFFF788FF7A
:1043300048B1A16808600021C160D0E90112216183
:10434000E261A06010BD2068152180F8C71110BD82
:10435000F0B581B0C76F0C460546002F4FF0000046
:1043600048610D6038D038686060202003F071F932
:10437000606178B30646B868800003F06AF930607F
:1043800040B3D7E901237360D5F8881072615143B7
:10439000B16043F00BC80020002200BF00BF00BF87
:1043A0003368985004320FF005C8306801EB810182
:1043B000F060A8698A00042107F058F931680860A4
:1043C0003068006830B1306170687169C6E9061004
:1043D000606806E0002636E028461146FFF730FF09
:1043E00060604FF00006E06068B3A060D0E90101B2
:1043F00020611020A0864020C4E90661C4E90A6655
:1044000003F027F92063F0B1616911B109680D6803
:104410000BE095F8841011F0120F616804D00D695B
:10442000002D08BF4D6800E04D68B4F93410012933
:1044300002DB890008F025F8002021462A46E086A4
:1044400000F011F80126304601B0F0BD10B50C4661
:10445000B1F93410012903DB206B890008F011F851
:104460000020E08610BDF0B581B0B1F93670B1F929
:1044700034000C461546411EB942266B14DC80B24E
:1044800001221030A08601B28800314603F0E8F81E
:10449000B4F93410064620638F4205DAC91B06EBD7
:1044A0008700890007F0EDFF06EB870046F82750EC
:1044B000791CE18601B0F0BD70B541690446006821
:1044C000D1B14A688AB18569002600BF00BF00BF2C
:1044D000086850F8262022B10421284607F0C9F8C0
:1044E0006169486801368642F2D3086803F0B3F880
:1044F000606903F0B0F802E06168FFF7E5FE206B49
:1045000018B1BDE8704003F0A6B870BD2DE9F047C2
:1045100082B0456904465DB1E069A969002837D0D9
:10452000012940F0D08020680121D0F8188067E090
:10453000206948F23201C8F280010160002125693A
:10454000A06845F8041FC56040F2FF30686005F1BF
:1045500008002061E069A1610138E0612046FFF7B1
:10456000DEFE206890F8C70100286DD0A16920699F
:104570000329A0F10C02226100F2A080DFE801F023
:10458000028D788340F2FF3140F80C1C083894E02B
:1045900020680229D0F8188032D3A768D5F8109087
:1045A000B8687E68FB6800EB8001206906EB810239
:1045B00009EB810A1BB1C3F800A00023FB60904205
:1045C0000ED28900021D3144914251EA82816FF07E
:1045D0000302411A22EA01018022043107F04CFF54
:1045E000B8684946324600EB8000830010200090F6
:1045F000404607F047F8A869C5F810A00138AFE0B9
:10460000EA69022A17D3EE68A768511EE96156F8D5
:10461000040F50B9A868042100EB800082004046D6
:1046200007F024F80028306050D0F96881B10860A4
:104630000020F8604EE0002900F09380012A04BFBA
:10464000152180F8C7118CE0A068406828603AE026
:10465000216948F23202C8F280020A60A168226928
:1046600042F8040FCA60101D20610020A06131E0F3
:104670000021C8F28001090C20F80A1C40F2FF3129
:1046800040F8041B19E0802100F8091C226940F25F
:10469000FF31416002F114000FE048F2000250F8CF
:1046A0000C1CC0F2800262F31F2141F4004140F86B
:1046B0000C1C40F2FF3140F8041C20610020A06176
:1046C000E0690138E06102B0BDE8F08720680121AF
:1046D00080F8C711A16903292BD82069DFE801F010
:1046E000021A071140F2FF3140F8041B20E00021BC
:1046F000C8F28001090C418040F2FF31C1601030E6
:1047000016E08021C170226940F2FF31016102F19F
:1047100014000DE048F200020168C0F2800262F36A
:104720001F2141F40041016040F2FF3181600C30F3
:104730002061A068E1690023A361D0E9012001396B
:10474000E161296900EB8000830010200090404661
:1047500006F098FF306820B1EE6030682861686923
:10476000A861204602B0BDE8F047FFF7D8BDD4D419
:10477000B0B58469032C1FD840F2000C0169C8F25F
:10478000800C0CF500434FF0080EFF22DFE804F028
:10479000190E02084FF00C0E4FF6FF72634605E04B
:1047A0004FF0100E4FF000436FF07F420D682A402B
:1047B0001A430A607144016100218161C1690139B4
:1047C000C161B0BD10B50446006890F86810890654
:1047D00004D400F5BC703B2107F053FE61696068AA
:1047E000C4E9020039B1D1E90023CA6012680A6144
:1047F0004A69C1E90623D0E901010022C4E9062182
:104800002061E26210BDD4D4F0B581B005460868DD
:1048100016460C4600F094F8A16903292BD82069AC
:10482000DFE801F0021A071140F2FF3140F8041BE3
:1048300020E00021C8F28001090C418040F2FF31E4
:10484000C160103016E08021C170226940F2FF3152
:10485000016102F114000DE048F200020168C0F2AB
:10486000800262F31F2141F40041016040F2FF31F8
:1048700081600C3020610020A061E86FE1690028B0
:10488000A1F10100E06115D1A168086880B1A26AB8
:104890000132A2623C2A0DD10F460146006808B1E0
:1048A0002FF007C02068FFF70FFD0020386000E000
:1048B0000020A062606990B14EB3206800F012FC45
:1048C000A168E369D1E90121C91A636901EB810794
:1048D0001969BB000027009706F0D4FE11E0D5F857
:1048E0008400810705D4C00607D4204600F068F98B
:1048F00006E0204600F0FCF802E0204600F02CF92B
:104900002EB12046FFF75EFF0020606215E0002018
:10491000E0612046FFF7FAFD6169A068E06009B137
:1049200008690AE095F8841011F0120F04D00069AC
:10493000002808BF206900E0206901B0F0BDD4D490
:104940002DE9F04F81B08046C56890F86810D0E935
:104950006D60821B89064FEAE20729684CD4B04299
:10496000AC69CDF8008000F0B78041F2862B01F1F0
:104970008C0901F5BC7A2869C0F20B2B4FF00108B5
:10498000296891F8C711002940F0A680D6E90021D6
:104990001BF8023053B11AF802301BB159F822301B
:1049A0008B4211D00AF8028049F8221000EB8403F0
:1049B0000255E24359609207E96A01F10101E96297
:1049C0000AD0611C01F00304013F06F10806D7D1AB
:1049D00082E000BF00BF00BFE969286901391430D7
:1049E00001294FF000042861E961EDD82846AC6147
:1049F000FFF78CFD2869E7E791F8C711AA69EB6A10
:104A0000002903EB0701E96269D122B3B04266D005
:104A10002869011D00BF00BF1346013FF6E80224CC
:104A2000C25441F8234006D003F003025C1C032A61
:104A300004F00302F0D1D843800750D10020A861D0
:104A4000E86929690138143101282961E86102D82F
:104A50002846FFF75BFDBC0826D000BF00BF00BFA3
:104A6000286890F8C701F8B9286931680170B16801
:104A7000417031698170B169C17071684160F168DC
:104A800081607169C160F1690161E8692969013872
:104A9000143101282961E86102D82846FFF736FD64
:104AA000013C06F12006DBD117F0030017D000BF50
:104AB000296891F8C71191B9A9692A69F6E80274C1
:104AC000013802EB8103575401F101015C6001F0F0
:104AD0000301A961ECD102E0AC61DDF80080D8F8F7
:104AE000B4014021C8E96E0101B0BDE8F08FD4D413
:104AF0002DE9F04182B08046006890F86810C9073F
:104B000027D1D8E902768569BE4214D0002400BFBF
:104B1000306818B1F16809B100690860D6E9012070
:104B20003169009400EB80008300284606F0AAFD5E
:104B30003668BE42ECD1D6E90120D8F81C10401AE4
:104B4000316900EB8000830000200090284606F0C9
:104B500099FD02B0BDE8F081F0B581B0044600686F
:104B600090F86810C90727D1D4E902768569BE425A
:104B700014D000BF00BF00BF306818B1F16809B1A0
:104B800000690860B0683269042100EB800083008E
:104B9000284606F07FFD3668BE42EDD1B068E16977
:104BA000401A3269042100EB80008300284601B0DE
:104BB000BDE8F04006F06EBD01B0F0BDD4D4D4D451
:104BC000F0B581B00446006890F86810C90721D19B
:104BD000D4E902768569BE420ED000BF00BF00BF97
:104BE000D6E90120042100EB80008300284606F06E
:104BF00051FD3668BE42F3D1D6E90120E169401A81
:104C0000042100EB80008300284601B0BDE8F0409D
:104C100006F040BD01B0F0BD2DE9F0410C468569BC
:104C20004FF0000800BF00BF276817F0803F07D093
:104C3000B7F1803F38D10434F6E700BF00BF00BFB2
:104C400007F07F0662682846314600F006FF202EF6
:104C500002D1284600F008FFC7F30626A2682846BE
:104C6000314600F0FAFE202E02D1284600F0FCFE6C
:104C7000C7F30646E2682846314600F0EEFE202ED5
:104C800002D1284600F0F0FE3E0E22692846314649
:104C900000F0E3FE202E02D1284600F0E5FE143499
:104CA000C2E700BF00BF00BF380414D4380221D4CB
:104CB000B7F1FF3FFEB241DDFF2EBCD1C7F306289E
:104CC000B8F1040F02D0B8F1020F5BD128460434CA
:104CD00000F0CAFEA8E7FEB2322E53D06268284622
:104CE000314600F0BAFE202E02D1284600F0BCFE6C
:104CF000083499E7FEB2C7F30627FF2E08D1022F2A
:104D000041D12846043400F0AFFE4FF002088BE793
:104D100062682846314600F0A0FE202E02D12846C7
:104D200000F0A2FEA2682846394600F096FE202F29
:104D300002D1284600F098FE0C3475E762682846D8
:104D4000314600F08AFE202E02D1284600F08CFE6B
:104D5000C7F30626A2682846314600F07EFE202EC4
:104D600002D1284600F080FEC7F30646E2682846D6
:104D7000314600F072FE202E02D1284600F074FE6B
:104D8000103451E747463846BDE8F081B0B50446D7
:104D9000FFF7D6FDE0688269032A2BD80169DFE8B6
:104DA00002F0021A071140F2FF4241F8042B20E002
:104DB0000022C8F28002120C4A8040F2FF42CA6010
:104DC000103116E08022CA70036940F2FF420A6186
:104DD00003F114010DE048F200030A68C0F28003F9
:104DE00063F31F2242F400420A6040F2FF428A60ED
:104DF0000C310161C16900250139C0E90651012961
:104E000001D8FFF783FB002084F8C651B0BDD4D48D
:104E1000B0B50446FFF794FDE0688269032A2BD8F9
:104E20000169DFE802F0021A071140F2FF2241F89F
:104E3000042B20E00022C8F28002120C4A8040F2CB
:104E4000FF22CA60103116E08022CA70036940F266
:104E5000FF220A6103F114010DE048F200030A6821
:104E6000C0F2800363F31F2242F400420A6040F262
:104E7000FF228A600C310161C16900250139C0E956
:104E80000651012901D8FFF741FB002084F8C651E3
:104E9000B0BDD4D4D4D4D4D470B505464FF4EA70A0
:104EA00002F0D7FB0446002850D029A0A5660026B2
:104EB000A4F8C66190ED001F2046C4E9066684EDA3
:104EC000121FFEF7B5FEC4E908006906A062E062A1
:104ED0004FF0000002D4702002F0BBFB206304F10D
:104EE0003400142184F8C66184F8C46107F0C9FA5B
:104EF00001206066201D142107F0C3FA3320C4F896
:104F0000880015F0040F4FF0040050EA1090A4F848
:104F10007860C4E91B662907666740F2271148BF1D
:104F200000F00100C4E9170604F18C0084F8C861A0
:104F3000C4E91F6607F0A5FA4CF2F8410820C2F256
:104F40000E2184F8C501086820600C60204670BD01
:104F5000020000000000000000000000000020002F
:104F6000B0B50446806920B1204600F02DF8054612
:104F700000E000254CF2F841C2F20E2100BF00BF54
:104F8000F9B108460968A142FAD1E16922680260D4
:104F90004FF00000206231B12046FEF70DFFE169BD
:104FA00009B12FF007C8E06F08B102F054FB206B85
:104FB00008B102F050FB00202063204602F04BFBBA
:104FC00000E002252846B0BDB0B50446806930B384
:104FD000E06F30B101680022086802602046FFF7E8
:104FE00073F9D4E904150020C4E9040011B1204686
:104FF00002F098FC1DB12046294602F093FCD4F83B
:10500000B4010025C4E90155E560656302F023FBA6
:10501000A069C4E96D5500F019FDA56100E000200C
:1050200084F8C601B0BDB0B5044600F0E9FC002824
:10503000A06152D004F5BC703B2107F022FAE56F65
:105040006DB1D4F888102046FFF7FAF82860D4F83C
:1050500088102046FFF7F4F8296808600160D4F84A
:10506000881020460A4602F024FCD4F888102061FB
:1050700020460A4602F01DFC21690125606169B3E2
:1050800060B3C4E901014FF40070E160002565637D
:1050900002F0DFFA44F641124021C0F20022C4E9D6
:1050A0006D00A06984F8C951C4E96F120A2106F0A5
:1050B00042FA98B1A0690A210022FF23002506F0D8
:1050C00013FAA0690A21002206F026FAFF2805D16A
:1050D0000025012084F8C90100E00525284684F850
:1050E000C651B0BD80697047E0B1B0B50446406EAE
:1050F0000D46884223D0082D18BF082814D1616AB4
:105100000828656691F80E2142F0010081F80E0131
:1051100002D1204602F041FD082D10D1204602F0B8
:10512000F0FC0CE002207047204602F0A3FC606A0D
:10513000656690F80E1141F0010180F80E11002013
:1051400084F8C601B0BD38B110B5044600F098FC33
:10515000002084F8C60110BD022070472DE9F04FF1
:1051600081B004460B981F4690468B460D9EC007A3
:105170000C990A9D02D1D1F8100100E000200090A6
:1051800007FB07F005FB0500D1F810A14FEA0A194B
:1051900002F0CFF999FBF0F006B1306005FB00F1A9
:1051A00005EB080600FB07F95F44C1F1000ECBF1E7
:1051B00000054FEA29114FEA2E104F430B9A00FBCE
:1051C000167700FB05F601FB186C00FB08F601FBE7
:1051D000056695070C9A4FEA2715D2F810214FEA79
:1051E000520258BF0AEB271502EB2C12009B04F168
:1051F000100C03EB26170026C4E90217A6EB2E13AA
:105200002062A6EB2916C4E900208CE86A0001B0F0
:10521000BDE8F08F2DE9F04F81B099460A9D5B43C0
:10522000044605FB053090468B46DDF830A002F0C1
:1052300080F94FF48011BAF1000F0B9ECBF10007FB
:1052400091FBF0F018BFCAF8000005FB00F14FF425
:10525000803C00FB09F22CEAC63E49422CEA064C8F
:105260000811131100FB08F50A9E03FB075A09EB0E
:105270000B054743464403FB18774FF400485D4352
:10528000206200FB165508EB2716C4E900600CEB02
:105290002A174FF0000CACEB2111C4E902370EEBDA
:1052A0002515ACEB2212C4E90431C4E9065201B061
:1052B000BDE8F08F2DE9F04F0024DDE90ACEB3F10F
:1052C000FF3FDDF824B0CFF6FF7415DDBBF1FF3FE3
:1052D00038DD5B455BD94FEA0B465F4204F570440D
:1052E00096FBF7F6544306FB01F706FB02F55A441A
:1052F000A4EB27182C113BE0BBF1FF3F68DD5E42B9
:10530000B34580F086804FEA0B46170304F57045DD
:10531000BEF1000F96FBF3F606FB01F806FB02F95F
:105320005A4406FB02FAA7EB281803EB010707FB18
:1053300005F54FEA291202EB0139A5EB2A1140F0DD
:10534000CA80CAE0CBF10007BB4240F280804FEA3E
:105350000B465F4204F5704496FBF7F6544306FB98
:1053600001F706FB02F95A44A4EB27184FEA291467
:105370007243A4EB01391944BEF1000F4FEA013129
:105380004FF48034A1EB221140F0A580A5E01D046C
:105390000B4404F57046BEF1000F95FBFBF502FBD4
:1053A00006F605FB02F75A4405FB01F94FEA013105
:1053B000A1EB271805FB03F1A6EB291926464FEAB6
:1053C00021115B4601EB02312C4640F0848084E0E1
:1053D0005B455ED24FEA0B46170304F57045BEF1FC
:1053E000000F96FBF3F606FB01F806FB02F95A44A0
:1053F00006FB02FAA7EB281803EB010707FB05F5EC
:105400004FEA291202EB0139A5EB2A1165D05B4264
:1054100061E01E040B44BEF1000F96FBFBF704F5A0
:10542000704607FB02F807FB01F94FEA013102FB66
:1054300006F65A44A1EB281807FB03F1A6EB29193D
:1054400026464FEA21115B4601EB023141E01E0482
:1054500004F570444C43BEF1000F96FBF7FA0AFBCB
:1054600001F919440AFB02F64FEA02330AFB01F183
:105470005A44A3EB29193B464FEA2111A4EB261805
:10548000A1EB02314FF48036544618BFCEF80030FD
:1054900023E01E04CBF1000A04F57044BEF1000FB6
:1054A00096FBFAF701FB04F407FB01F6194407FB2E
:1054B00002F84FEA023307FB01F15A44A3EB261925
:1054C0004FF480364FEA2111A4EB2818A1EB0231EA
:1054D00053463C4601D0CEF800304FF4803208F5F8
:1054E000004722EACC33754222EA0C42C0E900763A
:1054F0004A441944C0E902426342C0E904451830F5
:105500004AC0BDE8F08FB0B5B3F1FF3FDDE9045C00
:1055100006DDB5F1FF3F12DDAB4222D92D0416E0C6
:10552000B5F1FF3F27DD5C4240F2000ECFF6FF7E73
:10553000A54227D22C04120394FBF3F343E06C4200
:1055400019442A44A34227D92D0409B212B295FB6B
:10555000F3F3594309115B42A1EB02314FF4803E52
:1055600034E01B04090393FBF5FE00230EFB02F25B
:10557000CFF6FF730DE02A44AB42194412B219D999
:105580001B040BE01B04090393FBF5F47346624311
:10559000A646A1EB221119E01B0412B293FBF5F30E
:1055A0005A4309B2C3F1000E4FF480331211A2EB3B
:1055B00001310BE02C0409B2120340F2000E94FBFF
:1055C000F3F3CFF6FF7E5943A2EB2111BCF1000F9C
:1055D00051EA019180E80A40B0BDB0B5DDF814C0D1
:1055E000B3F1FF3F049CDCF810E106DDB4F1FF3FAE
:1055F0001ADDA34209D924041EE0B4F1FF3F28DDDF
:105600005D42AC4201D224043CE01B04090393FB3D
:10561000F4F303FB02F483FB0E2352EA1F43A1EBD6
:105620002411CEF1000439E0654219442244AB4212
:1056300016D9240409B212B294FBF3F3594383FB45
:105640000E4354EA1F430911A1EB02317246644232
:1056500024E02244A342194412B211D91B0401E0F0
:105660001B0412B293FBF4F35A4309B283FB0E43BB
:1056700054EA1F431211A2EB0131624274460DE05D
:10568000240409B294FBF3F35943120383FB0E4342
:1056900054EA1F43A2EB2111CEF10002BCF91430F1
:1056A0000901826091FBF3F10EEBDE7301EB630104
:1056B000C0E90014B0BD10B5DDF808C00024BCF18D
:1056C000000F0CEAEC7E48BF1944724409B20CFB8F
:1056D00001F112B2DDF80CE003FB1211BEF1000F74
:1056E0004FF4004252EA02921B03A4EB0C34836095
:1056F00002EB0121C0E9001410BD2DE9F04381B097
:10570000089F044607EAE7700E4602EB000803FB19
:1057100003F007FB07001D46002FDDF8249048BF6B
:105720001E4401F006FF4FF480110FFA88F233B2E5
:10573000B9F1000FB1FBF0F007FB00F105FB00F041
:10574000C1F100014FEA20104FEA211100FB02F2E3
:10575000A06001FB03224FF4004353EA039352423B
:1057600003EB2212C4E9002101B0BDE8F083826896
:10577000036802FB0131016051428160704780B5CE
:10578000182106F07EFE80BD2DE9F04381B04D7EEC
:105790000F461E469046E9078146089C15D1A8078A
:1057A0001ED4BA7D900702D5787E40074FD45007AB
:1057B00078D5787E000775D517F8640FC00762D1D9
:1057C000042E98BF24F400046CE0394611F81C0F35
:1057D000C00710D1042E65D824F400040236DEE799
:1057E0003D4615F8340FC0071BD1042E5AD824F4B7
:1057F00000040236D5E7052E54D804F080700090DE
:1058000048464246334600F051F824F400013A7FFE
:105810007D7E013640EA0104500648BF24F440046E
:10582000BDE7052E3ED804F080700090484629461A
:105830004246334600F03AF824F400012A78013653
:1058400040EA0104500648BF24F44004A9E7394661
:1058500011F84C0FC00705D1042E23D824F40004FE
:105860000236A4E7052E1DD804F08070009048464B
:105870004246334600F01AF824F40001BA7D01369E
:1058800040EA010493E7052E0CD804F080700090E4
:10589000484639464246334600F008F824F40001F1
:1058A00040EA0104204601B0BDE8F0832DE9F0474D
:1058B0000E46B1F91410B2F90070B2F90220B6F92F
:1058C0001650D6F80090CF1B9A46AA1AD6E90115B1
:1058D0004F43DDF820C002FB05720546C9F3C00046
:1058E0000AF1040700EB22125FEAC96048BFA2F583
:1058F000803248F201005FEA497848BF121AD5F8B1
:10590000B831BCF1000F184640F8087BC5F8B80163
:1059100047D04FF0000CD5F8BC71ACEB82147A1E66
:105920005C60C5F8BC2106DCD5F8C0112846884764
:105930007168D5E96E020AF10A038F0100F10801CE
:10594000C0E90037501EC5E96E1005DCD5F8C0115E
:1059500028468847D5E96E10B36801384AF010022E
:105960004FEA831301F10807C1E90023C5E96E700E
:1059700003DCD5F8C0112846884740F20120B8F171
:10598000000F4FEA5A014FF4003258BF012002FACB
:1059900001F100FA0AF05FEA496248BF0843BDE836
:1059A000F087D5F8BC715242013F5A60C5F8BC710E
:1059B00006DCD5F8C011284688477168D5E96E071E
:1059C0000AF10A0300F10802C0E90031781EC5E9B6
:1059D0006E2005DCD5F8C01128468847D5E96E2031
:1059E00002284AF01001B36802F10807C5F8B8713F
:1059F000A0F10100C2E90013C5F8BC01B9DBBCE7A6
:105A000070B50446084605F025FD0546E0B10121C4
:105A100001222846012605F07FFD4101C4F88000DF
:105A200048BF84F8C861800303D4A06E40F0010031
:105A3000A066E36D01213122284605F055FD284678
:105A400005F01AFEC4F88400284670BD80B505F044
:105A500032FD013818BF022080BD8C46012113465B
:105A6000624605F041BDD4D410B5044600BF00BF66
:105A700001210022204605F04FFDC007F8D110BDDE
:105A8000B0B5054690F86800C007AC6914D100BFF6
:105A900001210022204605F03FFD000713D595F8AF
:105AA00068008007F4D40421C822204605F088FD50
:105AB000EEE700BF00BF00BF01210022204605F035
:105AC0002BFD8007F8D1B0BDB0B5044690F8680052
:105AD0000B6BC00710D1D3F800C0BCF1000F1BD076
:105AE00094F8C901012132220028A06908BF634649
